:100000008013002085160000BB490000591600002F
:100010005916000059160000591600000000000093
:10002000000000000000000000000000611300005C
:1000300059160000000000000D13000059160000C2
:1000400019140000191400001914000019140000FC
:1000500019140000191400001914000019140000EC
:1000600019140000191400001914000019140000DC
:1000700019140000191400001914000019140000CC
:1000800019140000191400001914000019140000BC
:1000900019140000191400001914000019140000AC
:1000A000191400001914000019140000191400009C
:1000B000191400001914000019140000191400008C
:1000C000191400001914000019140000191400007C
:1000D000191400001914000019140000191400006C
:1000E000191400001914000019140000191400005C
:1000F000191400001914000019140000191400004C
:1001000053B94AB9002908BF00281CBF4FF0FF317E
:100110004FF0FF3000F06CB9ADF1080C6DE904CE82
:1001200000F006F8DDF804E0DDE9022304B07047D2
:100130002DE9F047089E0D4604468E46002B40F000
:1001400082808A42174646D9B2FA82F24AB1C2F197
:10015000200105FA02F320FA01F1974041EA030E6B
:1001600094404FEA1748230CBEFBF8FCB9B208FBD9
:100170001CEE43EA0E430CFB01F098420AD9FB182F
:100180000CF1FF3580F01681984240F21381ACF1FA
:10019000020C3B441B1AA4B2B3FBF8F008FB10336B
:1001A00044EA034400FB01F1A14209D93C1900F1E2
:1001B000FF3380F00181A14240F2FE8002383C44CE
:1001C000641A40EA0C4000211EB1D4400023C6E965
:1001D0000043BDE8F08702B9FFDEB2FA82F2002ADE
:1001E0004FD1CB1B4FEA174E1FFA87F80121B3FB03
:1001F000FEFC250C0EFB1C3345EA034508FB0CF303
:10020000AB4207D97D190CF1FF3002D2AB4200F2AC
:10021000E7808446ED1AA3B2B5FBFEF00EFB105545
:1002200043EA054408FB00F8A04507D93C1900F152
:10023000FF3302D2A04500F2D7801846A4EB080491
:1002400040EA0C40C0E78B4208D9002E00F0AF8096
:100250000021C6E900050846BDE8F087B3FA83F13E
:1002600000294BD1AB4202D3824200F2B780841AFC
:1002700065EB030301209E46002EAAD0C6E9004E7E
:10028000A7E7C2F1200C01FA02F3974020FA0CF024
:100290004FEA174E21FA0CFC1843BCFBFEF1050C8B
:1002A0000EFB11CC1FFA87F845EA0C4501FB08F359
:1002B000AB4204FA02F409D97D1901F1FF3C80F048
:1002C0008B80AB4240F2888002393D44EB1A85B204
:1002D000B3FBFEF00EFB103345EA034500FB08F3C9
:1002E000AB4207D97D1900F1FF3C71D2AB426FD907
:1002F00002383D44EB1A40EA014178E7C1F1200C95
:100300008B4022FA0CF71F4320FA0CF405FA01F394
:100310004FEA174E25FA0CF51C43230CB5FBFEF9EA
:100320001FFA87F80EFB195543EA054509FB08FA41
:10033000AA4502FA01F200FA01F308D97D1909F180
:10034000FF3047D2AA4545D9A9F102093D44A5EBA2
:100350000A05A4B2B5FBFEF00EFB105544EA0544B5
:1003600000FB08F8A04507D93C1900F1FF352DD254
:10037000A0452BD902383C4440EA0940A4EB0804CC
:10038000A0FB02894C45C6464D4619D316D05EB136
:10039000B3EB0E0264EB050404FA0CFCCA404CEA11
:1003A0000202CC40C6E900240021BDE8F0873146B6
:1003B00030460EE7AC46EDE6184601E74345E6D287
:1003C000B8EB020E69EB07050138E0E72846D3E7F2
:1003D00060468FE78146BAE7614677E708464BE714
:1003E000ACF1020C3D4415E702383C4426E700BF5F
:1003F000704700BF38B5224802F0CEFF04460028FF
:100400003CD002698168136843F4005313600B68A1
:1004100040F201620D21984700282FDB2269A16874
:10042000136843F40063136020460B6840F2111216
:100430000B219847002821DB2269A36812689D6977
:1004400012F4006F14BF4FF400334FF480230B21DC
:100450004FF4A0322046A8470A490B4B4B604FF49B
:1004600000638B60A368DB6913B1012220469847C3
:1004700000214FF0967003F06DFDF9E738BD00BF25
:100480008C550000C8020020034700000B680133B0
:100490000B60014B1B68184700000020014B1860DF
:1004A000704700BF0000002007B50B460021024640
:1004B0000191034801A900F0EBF803B05DF804FBDB
:1004C0008D0400002DE9F84FB0F8189019F00808D5
:1004D000044693460DD001290CBF49F0100949F09C
:1004E0002009A0F818908BF31188BFF36F8FBDE837
:1004F000F88F09F00709022907D1204604F033F9E3
:100500000028F0D00128238B50D16769218B002F60
:1005100015DA256821F00701C4E9008841F00101DE
:1005200021830026218B01F0070ACA4502D0A36867
:10053000002B5CD10DB9002E74D0002358E001F0DF
:1005400007035A1F012A20D821F00701062B25682E
:1005500089B2C4E900880CD1002D2B4638BF002396
:100560002BB1628B1B6801326283002BF8D141F002
:1005700002012183204604F0F6F806460028D1D077
:10058000238B43F020032383CBE7042B0CD121F0F2
:10059000070189B22183204604F0E5F805460028CA
:1005A000BFD041F0200121830025BAE7032809D1FB
:1005B000226923F00703166843F00603238300250E
:1005C0002F46AFE7042806D1226923F007035668B7
:1005D00043F00403F2E7052806D1226923F007035C
:1005E000966843F00503E9E700252E46E8E7012376
:1005F00041F0080121838BF31188BFF36F8F03BB98
:10060000002D33D116B121492046B0474FF02003C9
:10061000EFF3118B83F31288BFF36F8F238B23F0DB
:1006200008032383238BDA0628D523F010032383C2
:100630000121B4F8189009F0070900297FF45BAF95
:1006400051E7A1680029DBD00B68D1F804B0002B7A
:1006500038BF0023994652463B462046D847B9F159
:10066000000FCDD0D9F800304946EEE729463B4689
:10067000524620462D6804F092F8C1E713F020019D
:100680001EBF23F0200323830221D2E7CB470000C3
:100690002DE9F04F91B08B46029092461C46002502
:1006A0009AF8000008B928465EE325280AF10107F8
:1006B00007D0029B594698470028C0F25583013560
:1006C00010E2182200210AA804F0AFF99AF80130CC
:1006D000252B78D000229446164696461046394679
:1006E00017F8013B2B2B00F09D8000F29480202B0B
:1006F00000F09B80232B00F09A8028B19DF83000F9
:1007000040F004008DF83000BEF1000F05D09DF8D8
:10071000300040F008008DF830002EB19DF8300018
:1007200040F010008DF83000BCF1000F05D09DF8AE
:10073000300040F020008DF830002AB19DF83020C4
:1007400042F040028DF830209DF8302002F0440045
:10075000442803D16FF386128DF830209DF83020A5
:100760002A2B42F080028DF830207BD19DF8312079
:1007700042F001024B1C8DF831201A782E2A9DF888
:1007800031200CBF0121002161F341028DF831209D
:1007900074D15A782A2A6AD0013300210A261846D1
:1007A00010F8012BA2F13007092F40F28E809DF83E
:1007B00030200E91C2F3400040EAD17161F3410252
:1007C0008DF830205AE00AF102078DF833309DF899
:1007D0003130D90740F1498154F8049BB9F1000F39
:1007E00007DA9DF8302042F004028DF83020C9F17C
:1007F00000095A0740F1428154F8048BB8F1000F08
:1008000080F241819DF831306FF341038DF8313032
:100810004FF0FF3837E12D2B0CD0302B7FF46DAF2C
:1008200001225CE74FF0010E59E7012657E74FF030
:10083000010C54E7012052E70CFB0202303A334628
:100840001E4616F8010BA0F13007092FF4D9994282
:1008500093D09DF830100D92D20F62F341018DF8C4
:1008600030108AE70B4600224FF00A0CE8E79DF8AB
:10087000312042F004028DF8312002331F4617F870
:10088000012B6C2A41D025D8682A2BD06A2A46D061
:100890004C2A4CD01F4617F8012B9DF831308DF8AB
:1008A0003320782A00F2D980572A4DD8412A03D024
:1008B000453A022A00F2D1809DF83230042262F3D8
:1008C00002038DF8323001239EE006FB012130390E
:1008D000034664E7742A26D07A2ADBD19DF83130AA
:1008E00006220DE05A78682A9DF8312006D10121B0
:1008F00061F3C6028DF831209F1CCCE7134602221B
:1009000062F3C6038DF83130C5E75A786C2A9DF83A
:10091000312001D10421EBE713460322F0E79DF8D3
:1009200031300522ECE79DF831300722E8E7BDF8C9
:10093000303023F4F04323F0020343F4804343F0C8
:100940000203ADF83030A6E7A2F15801202900F2E9
:10095000848001A050F821F01D0A00005B0A00000D
:100960005B0A00005B0A00005B0A00005B0A0000F3
:100970005B0A00005B0A00005B0A0000B908000087
:100980005B0A00001D0A0000DD090000B908000034
:10099000B9080000B90800005B0A0000DD0900008A
:1009A0005B0A00005B0A00005B0A00005B0A0000B3
:1009B000250A00001D0A0000410A00005B0A000031
:1009C0005B0A0000410A00005B0A00001D0A0000EB
:1009D0005B0A00005B0A00001D0A00009DF832104F
:1009E000012003F0780360F30201402B8DF83210F0
:1009F00002BF9DF8301041F001018DF83010632ADC
:100A000031D1003B18BF01239DF83020C2F34001D3
:100A10000B4363F341028DF83020D8E69DF8321085
:100A20000220DEE79DF8322003F07803A3F14000B6
:100A3000032161F3020243428DF832204341E3E790
:100A40009DF83220032113F0780F61F302028DF834
:100A5000322014BF01230023D6E79DF8303043F045
:100A600001038DF830300023CEE79DF93020002AB5
:100A7000B4BFDDF834904FF0FF39BAE69B077FF53D
:100A8000C7AEDDF838809DF831200023CDE90D3365
:100A90009DF8323003F00703012BC2F3C30236D1B5
:100AA000D31E042B20D8DFE803F00307071F1F0025
:100AB00054F8040BC11704E0073424F00704F4E8E9
:100AC0000201CDE90A019DF8303013F0030654D03D
:100AD00002983B465246594603F045FF0028C0F2B3
:100AE00043810544BA46DBE554F8040B012A4FEA7A
:100AF000E071CDE90A0105D19DF828300A93002361
:100B00000B93E0E7022ADED1BDF92800D2E7022BE1
:100B100023D1D31E042B13D8DFE803F0030A0A12F3
:100B2000120020680A900021231D0B911C46CAE781
:100B3000073424F00703F3E80201CDE90A01F5E7E1
:100B400054F8043B0A93012A4FF000030B93D3D0CF
:100B5000022AB8D1BDF82830D0E7042B07D10734DA
:100B600024F00704F4E80201CDE90A01ABE7032B06
:100B700004BF54F8043B0A93A5E79DF83300782896
:100B8000B0D8622822D825283FF493AD5828A9D19F
:100B90000DF126030093DDE90A0104AB0CAA03F072
:100BA00097FE8246B8F1000F0DF126000CDB9DF890
:100BB0003020A0EB0A036FF3861298458DF83020A1
:100BC00002D9A8EB03030D9380463DE06338152856
:100BD00088D801A151F820F0590C0000BD0C00008C
:100BE000E50A0000E50A0000E50A0000E50A000049
:100BF000BD0C0000E50A0000E50A0000E50A00005F
:100C0000E50A00001B0D0000E90C0000ED0C0000DF
:100C1000E50A0000E50A0000310C0000E50A0000CA
:100C2000E90C0000E50A0000E50A0000E90C0000FC
:100C3000B8F1000FDDF828A00ADB4146504603F06A
:100C4000D4FE0AEB00080026BAF1000F0CD149E7E8
:100C5000504603F0C3FEF4E70A9B8DF810300026DF
:100C60000DF111080DF1100AA8EB0A0306B10133CA
:100C70009DF83220D0066BD5023352060D9948BF3D
:100C80000E9A0B4448BF9B18B9F1000F79DD9DF80F
:100C90003020A9EB0309C2F380030393530770D4F8
:100CA000500664D546B1029B594630469847002805
:100CB0005ADB039B01351E46302359E01E0711D431
:100CC00013F0100618BF2026DDE90A23002A73F16D
:100CD0000001BFF65DAF524263EB4303CDE90A2347
:100CE0002D2655E72B26EFE7002651E70A9848B353
:100CF0000DF1260300930CAA04AB002103F0E8FDDC
:100D0000BDF8323003F0EF0343F4F04343F0100337
:100D10008246ADF83230002644E70A9B072A3FF6A8
:100D2000E1AEDFE802F00D04060D08080D0D1D70A0
:100D3000D8E61D80D6E62846E917C3E90001D1E6CA
:100D40001D60CFE6DFF8C4800646A8F1050A8BE7F0
:100D5000110748BF013390E7184603935946029B99
:100D600098470028039B04DA11B0BDE8F08F2023D8
:100D70004D444A46002AA5EB090109F1FF39EBDC95
:100D80000D4636B1029B5946304698470028EBDBAA
:100D900001359DF83230D90601D41A0706D5029BD9
:100DA0005946302098470028DEDB01359DF8323067
:100DB000DB0607D59DF83300029B5946984700286B
:100DC000D2DB01350D9E2E44731B002B16DC0298DE
:100DD00043465246594603F0C6FD0028C4DB05448D
:100DE000A944A9EB0503002B7FF77CAE029B594673
:100DF000202098470028B7DB0135F2E7029B5946CF
:100E0000302098470028AFDB0135DDE7985500001A
:100E100008B54FF02002EFF3118382F31288BFF37D
:100E20006F8F00F0A1FD034803F090FC00F0E6F99D
:100E3000FCE700BF995500002DE9F84305464FF047
:100E40002003EFF3118683F31288BFF36F8F104BEB
:100E50001C68002C38BF00249CB10E4FDFF838808E
:100E60004FF00C09D4E90132002D08BF13462BB115
:100E700098F8142009FB02F2B85C98472468002C0B
:100E8000F0D186F31188BFF36F8FBDE8F88300BF00
:100E9000D4020020E00200205809002000F01F03C7
:100EA00001229A400A4BBFF35B8F400903EB80009D
:100EB00050E8003F43EA020140E8001CBCF1000F8B
:100EC000F6D1BFF35B8F1A4214BF01200020704798
:100ED000EC02002030B51D4B1D7DBFF35B8F05F08C
:100EE0001F0301229A401A4B690985B0D04303EBD6
:100EF000810353E8001F01EA000443E8004CBCF101
:100F0000000FF6D1BFF35B8F114217D0114C0C22AA
:100F100002FB054207CA01AB83E807000E4A7AB11B
:100F200093E8070003F0A0FD0020FFF785FF0C23E6
:100F30006B430022E118E250C1E9012205B030BD47
:100F400082F31188BFF36F8FEEE700BF58090020CE
:100F5000DC020020E0020020694A00002DE9F04197
:100F6000374BDFF8F4801C7D88B007462046FFF73A
:100F700095FF60B96E463A462146304603F00AFDB9
:100F800096E807000C2505FB048585E807000C237F
:100F9000634308EB030218F80300650904F01F0619
:100FA000C8B37B1C0FD0D2F808E02648264A4FF47D
:100FB000004C00210023ECFB0E01FFF7A1F80121FA
:100FC000381A04F093F802F035FD0120FFF734FFE2
:100FD000BFF35B8F1D4B0122B24003EB850353E847
:100FE000001F114343E800100028F8D1BFF35B8FC6
:100FF0000C2303FB048494E8070005AB83E8070097
:10100000134A1AB193E8070003F01BFDFFF762FFD4
:1010100002F0EAFE01200F4ABFF35B8F0123B340C9
:10102000DB4302EB850555E8002F1A4045E8002117
:101030000029F8D1BFF35B8F08B0BDE8F08100BF95
:10104000580900203F420F0040420F00DC02002000
:10105000434A0000EC020020E0020020014803F0B7
:10106000BDB900BFC853000008B5D0B14368042B18
:1010700011D100220368BFF35B8F53E8001F0129E1
:1010800003D143E800200028F7D1BFF35B8F074866
:1010900008BF104608BD3BB1006802F0E1FB00202C
:1010A000F8E76FF4E040F5E70148F3E7E98FFFFF69
:1010B000EA8FFFFF10B5044618B90D4B0D485B6869
:1010C0009847616808290DD031F004030AD011F067
:1010D000020108D00848214603F0FCFE00232360EB
:1010E0000023636010BD2068142203F09EFCF7E724
:1010F000DC000020C2550000F002002010B50446BC
:1011000018B9164B16485B6898476368042B23D0C0
:10111000082B21D0CBB92368BBB912484FF0FF325E
:101120004FF0FF33214602F047FA08B923681BB994
:101130000A4B0D485B68984720681422002103F091
:1011400074FC636843F002036360206803F0F8FEF8
:10115000636843F00103636010BD00BFDC00002042
:10116000C2550000F0020020E855000008B508B3A1
:101170004368042B10D101220368BFF35B8F53E84F
:10118000001F002903D143E800200028F7D1BFF356
:101190005B8F0BD1002008BD53B100684FF0FF32C8
:1011A0004FF0FF3302F0DEFA0028F3D00348F2E7F5
:1011B0000348F0E76FF4E040EDE700BFE98FFFFF81
:1011C000EA8FFFFF08B5064906484023142203F0C2
:1011D00066FEBDE808400449044803F061B900BF59
:1011E0000C030020F0020020E0530000D053000068
:1011F000014910220A60704710ED00E072B64040CD
:1012000080F31188BFF36F8FBFF34F8F30BF62B68B
:10121000BFF36F8F704700BF72B6494081F31188EA
:1012200020BF80F3118862B6704700BF43B2002B25
:1012300008DB012200F01F0002FA00F05B09024AFD
:1012400042F82300704700BF00E100E0054B42096F
:1012500000F01F0053F82220012303FA00F0104091
:10126000704700BF00E100E043B2002BA8BF03F1CC
:10127000604301F10101B8BF064B4FEA4111ACBF19
:1012800003F5614300F00F00C9B2B4BF195483F8ED
:101290000013704714ED00E030BFFFF7FDBF00BF43
:1012A0000B4A08B50B4B22F07F029A60BFF34F8FB9
:1012B000BFF36F8FD3F8882022F47002C3F8882020
:1012C00002F0DCF802F0B8FE00F0D0F902F0E0F82D
:1012D0000000000000ED00E0094A0A49936809682F
:1012E0009967094958674B6843F080534B60002366
:1012F00083F31188BFF36F8F9368986F704700BFB7
:10130000580900200055000000ED00E012498A68ED
:101310004FF030001044EFF3098C80E8F01F2020DC
:1013200080F31288BFF36F8F0C4F4FF00066CA69CD
:101330008A603E60506F0023536780F3118804B5C4
:10134000104600F029FABDE8044002F1300090E8B0
:10135000F01F8CF3098870475809002004ED00E065
:101360001EF0040F0CBFEFF30880EFF309808169D2
:1013700011F8021C0229FFD001B503F016FB01BDD4
:1013800042F8203C009B42F81C3C0A49019B42F871
:10139000183C029B42F8143C21F001014FF080738D
:1013A00042F8043C42F8081C0023203A02654367D7
:1013B000704700BFBD4800000B4A0346906890B1DB
:1013C00013F1160F406E05D0A0F120029A4206D804
:1013D000834204D281422CBF0021012100E0002180
:1013E000002908BF002070475809002008B5094BA4
:1013F00098600D46144600F0CFF9204685F3098821
:10140000002163B681F31188BFF36F8F00220023A0
:1014100003F054FA5809002001B572B60B4A9069DE
:1014200000281EBF0021916103F083FD62B6EFF337
:101430000580A0F110004FEAC0000549014409C928
:101440009847BDE8014003490847000058090020BB
:101450001452000059140000044B9968D86988425E
:1014600003D003494FF080520A60704758090020AA
:1014700004ED00E038B5194B14469A6A9A6A9A6AE4
:101480000546900719D5586B9A6A120615D519B1F9
:101490009A6A22F080029A629A6A9A6A9A6AD106D5
:1014A0000ED49B6A9A070BD400200C4A936A43F02F
:1014B000FF0393620023237038BD6FF01500EBE744
:1014C000064B5B681B05EFD52946FFF775FF002823
:1014D000EAD080F309880220E7E700BF00ED00E0D2
:1014E0000D4B9A6A9A6A9A6A920508D59A6B9A6A1B
:1014F000120404D518B19A6A22F400429A62064B8B
:101500009A6A9A6AD20558BF9A6A9A6A002042F487
:101510007F429A620870704700ED00E0074B9A6ABC
:101520009A6A9A6A9A6A9A6A9A6A9A6A6FEA024206
:101530006FEA12429A620020704700BF00ED00E09F
:1015400070B53E4B5B688AB00D46C3F308030026B6
:1015500086F31188BFF36F8F02F07F41B1F17F4FA7
:1015600011D102F00C0108290DD0120701D4054653
:1015700001260022033B8DF80720032B57D8DFE814
:1015800003F0044E524B3546F3E72C4BDC6A14F063
:1015900002044CD1DA6A002A18DBDB6A5B0015D53D
:1015A000AB6933F8022C4DF602739A420DD003F169
:1015B000604303F626631B7803B30DF10702012194
:1015C0002846FFF757FF044600E02C689DF80730D7
:1015D00093B92022294602A803F01CFA099B46B3BE
:1015E000C3F3080222B96FEA53236FEA4323099336
:1015F00002A9204603F0D7F90AB070BD104B1B7842
:101600002BB10DF107010120FFF76AFFDBE70D4B5E
:101610001B889BB2002BD9D0FFF780FFD3E70DF1D9
:1016200007020021CCE70DF107010020ECE70024C0
:10163000CCE723F4FF7323F00103D8E700ED00E0CB
:1016400029ED00E02AED00E0024A536943F010035F
:101650005361704700ED00E0EFF30880EFF309817C
:1016600001B57246FFF76CFF01BD00BF04480023BF
:101670002021C2180133302B82F80013F9D17047B2
:1016800000E100E0002080F31488BFF36F8F03F0C7
:101690004FFD00200D490860BFF34F8F0C4880F3C9
:1016A000088800F029F8202080F3118809484FF4B9
:1016B0000261401880F30988EFF314800221084387
:1016C00080F31488BFF36F8FFFF7EAFD94ED00E01D
:1016D0008013002000150020064A11680023C1F382
:1016E000072118468B4200D1704793601061013387
:1016F000F8E700BF90ED00E008B572B6002383F371
:101700001388FFF7E9FF144B4FF0FF32C3F8802036
:10171000C3F88420C3F88820C3F88C20C3F8902035
:10172000C3F89420C3F89820C3F89C20C3F8802104
:10173000C3F88421C3F88821C3F88C21C3F8902111
:10174000C3F89421C3F89821C3F89C2162B6BFF373
:101750004F8FBFF36F8F08BD00E100E0064B9B6821
:10176000834207D1EFF3058323B1044A536843F062
:101770008053536002F00EBC5809002000ED00E0D9
:10178000024B034A0348012100F068B8000004201E
:1017900000000020F4530000426E054B203A1A600E
:1017A000044A2021C3E901121846012100F060B863
:1017B0000C08002000000B15F0B51E4F00268E42CD
:1017C00001DB1046F0BD446884B353B104F1FF3C23
:1017D00014EA0C0F18D11F2C16D905681CEA050F46
:1017E00012D1202C0568D0F808C0D2B20FD9B4F1BC
:1017F000004F0ED8013CB4FA84F4C4F11F04640015
:10180000072A4CEA040406D96FF01502D9E7082428
:10181000F6E73E24F4E725F01F05154345F01005D3
:1018200044F00104BA60FD6001323C6101360C30C5
:10183000C5E700BF90ED00E0034B05225A60BFF3FF
:101840004F8FBFF36F8F704790ED00E0BFF35F8F56
:10185000014B00225A60704790ED00E010B5034C38
:1018600001232278FFF7A8FF207010BDA8090020EF
:1018700008B5084A00231278FFF79EFF10F1160FF3
:1018800003D0054B0022072800DD08BD98601A61CF
:101890000130F8E7A809002090ED00E0134908683E
:1018A000082810B51ED8FFF7D1FF114C4968002257
:1018B000904201F10C0105D10E4B1870FFF7BCFFEF
:1018C000002010BDA26051F80C3C23F01F0313430D
:1018D00043F01003E36051F8043C43F0010323613B
:1018E0000132E5E74FF0FF30EBE700BF00540000A6
:1018F00090ED00E0A8090020014B1860704700BF80
:10190000240000204FF02003EFF3118183F31288AD
:10191000BFF36F8F0F4A0123C2F840354FF080426A
:10192000C2F878350C4A1268082A08D10B4A1268A6
:10193000052A04D80A48825C0AB10A4A13604FF0AB
:1019400080430122C3F8802581F31188BFF36F8F94
:101950000020704700E00140300100103401001009
:1019600024560000380600404FF08043C0B2C3F850
:101970001C05BFF34F8F0549054BCA6802F4E062AE
:101980001343CB60BFF34F8F00BFFDE700ED00E0D6
:101990000400FA0520B1034B800143F0010318470E
:1019A000704700BFC05300000E4A70B5841AA310E0
:1019B0000D4C5C430546E4B20C2000FB04200E46AF
:1019C0004021084403F064F8011E05DB074B03EBDC
:1019D000C40463689847002128463346BDE8704038
:1019E000184700BF28080020B76DDBB63854000048
:1019F0002DE9F041104E841BA310104C5C43E4B25F
:101A00000C256543804605F140000F4630444021D7
:101A100003F057F8011E09DB094A7319C3E90E27C1
:101A2000084B53F83430BDE8F041184740463B4678
:101A3000BDE8F041184700BF28080020B76DDBB6AD
:101A4000254B000038540000002270B501210446E7
:101A50001046FFF709FC0020FFF7E8FB0F4801F0F4
:101A60003FF80F4B984215D103F08CF926690D49C8
:101A7000304602F0C7FE00280BDB012535642469DF
:101A8000084904F11C0002F0BDFE002801DBE564FA
:101A9000002070BD6FF00400FBE700BFDD1A0000FE
:101AA0000000AD0B4854000001460C2309484B438D
:101AB00070B5C418D4E90E5600224033A26318440E
:101AC00003F01DF82DB132462B460348BDE87040A7
:101AD000184770BD280800209C51000010B1012853
:101AE00004D07047034B1B6C5B0701D1FFF7DCBFD1
:101AF000704700BF2808002008B54FF02003EFF31F
:101B0000118183F31288BFF36F8F124A136843F079
:101B1000020013F0010310600CD04FF08042D2F8A5
:101B20000C34D2F80C2413F0010303D00A4802F05D
:101B3000E6FF012381F31188BFF36F8F23B1BDE866
:101B400008400020FFF7B0BFBDE80840012000F0CA
:101B5000D7BF00BF7808002068080020094BBFF3FA
:101B60005B8F53E8002F22F0020143E800100028A9
:101B7000F7D1BFF35B8FD30702D4012000F0F2BF8F
:101B8000704700BF780800201FB500220123CDE96F
:101B90000223094ACDF800D06B46CDF804D002F0FC
:101BA000E7FF002805DB4FF480420023684601F080
:101BB000BDFE05B05DF804FB434B00002DE9F84382
:101BC0003A49BFF35B8F0646012251E8003F41E8E6
:101BD00000200028F9D1BFF35B8F33B93449354871
:101BE0004B60CB608A6002F020FE731E012B32D85E
:101BF000012E07D14FF08043D3F81C3403F00303C8
:101C0000012B28D003F08FF9044618B92A4B1B7812
:101C1000002B44D14FF02003EFF3118583F312889A
:101C2000BFF36F8F0124254FDFF89480DFF8949085
:101C30004FF08042D2F81834D2F81824D2030CD5D1
:101C400003F00303012B01D0012E06D10CB385F361
:101C50001188BFF36F8FBDE8F883ACB12846FFF75A
:101C6000DBFA4FF08042D2F81835002BE0D139680A
:101C70000029DDD03B603B680123C2F81835C8F865
:101C80008031C9F80030D3E70021212002F062F949
:101C9000E7E74FF080430222C3F80423DBE74FF06D
:101CA00080430222C3F808230546BCE77C080020D5
:101CB0001808002044080020B90D0020040100404D
:101CC00000E100E00800004008B5084B0848186033
:101CD00003F0C0F838B10748FFF70EFE0548FEF7DD
:101CE000DDFB002008BD6FF01200FBE7800800203C
:101CF000FC510000F91C00000A2838B5074D0446C5
:101D000004D1286883680D215B6898472868836838
:101D1000E1B25B689847204638BD00BF80080020CC
:101D2000420970B5034602D0012A1DD070BD0F4E86
:101D3000326951680029F9D00C6803F01F030125AE
:101D4000002C05FA03F538BF00248A682A4002D027
:101D50004B6830469847002CE8D02368002B38BFEA
:101D6000002321461C46F0E7014EE1E7B451000094
:101D7000CC51000030B54068047B01F01F05B2F57E
:101D8000005F45EA441585B04FF0000404D12846B1
:101D900001F088F9002032E0B2F5804FCDE902442D
:101DA0002FD1B3F5003F0CBF042305238DF8083075
:101DB000836823FA01F1C9072FD4B2F5A03F2CD1D3
:101DC0006A09012A05F01F031C4A03F5E07318BFD6
:101DD0004FF0A04252F82330DB071ED40DF1070468
:101DE0002146284601F0CAF8154B984214D12046E6
:101DF00001F00EF9134B98420ED06FF00B0005B0B6
:101E000030BDB3F5C02F05D0B3F5003F0CBF0223A2
:101E10000123CBE70323C9E703940023194602AA51
:101E2000284600F089FF074B984204D1012128463B
:101E300001F0F4F8AEE76FF00400E0E700030050B3
:101E40000400AD0B0000AD0B10B501F0D1F8044655
:101E500068B901F0A5F8084B98420AD10748214615
:101E600001F086F8224605210620FFF7FDF9002043
:101E700010BD6FF00400FBE70000AD0B211D00005A
:101E80002DE9F04347683B7B01F01F0585B00E4606
:101E900045EA43151446CAB902A9284601F06EF86E
:101EA0000446284601F020F9484B984204D06FF0D0
:101EB000040005B0BDE8F083844205D19DF8080018
:101EC00001F0A0F8A042F2D10020F2E74FF00009A3
:101ED0000DF103013046CDE9029901F04FF84B4670
:101EE000804602AA4946284600F026FF374B984212
:101EF00002D06FF01500DCE7804503D19DF80300A8
:101F000001F080F8A3054ED5314B324A234093426D
:101F10003AD00CD8062B14D004D893B1022BE8D1B8
:101F200004230EE0B3F5801FE3D1012309E02A4A20
:101F300093422BD0B3F5A00F2AD0B3F5800FD8D1A0
:101F400002238DF8043084F48073C3F30023E00689
:101F50008DF8053054BFC4F34013032321058DF8D9
:101F6000063017D57B68012101FA06F6C3F808652B
:101F7000002201A9284600F08BFF144B984214BFA1
:101F80006FF01500002094E70723DAE70523D8E770
:101F90000323D6E7620541BF7B68012101FA06F6FB
:101FA000C3F80C65E4E7E3064FF0000354BFC4F345
:101FB000401403241A4601A928468DF8044000F075
:101FC000BBFE024B98423FF47FAF92E70000AD0B9F
:101FD0000600F0000600100002004000F0B54B794A
:101FE000012B26D0032B21D110268B79032B1DD159
:101FF000CC790CB1012C19D10A7912B1022A15D170
:102000000E220B684568B3F5164F2D6865D02DD8A4
:10201000B3F5165F64D016D8B3F5966F62D00AD8C0
:10202000B3F5967F61D0B3F5167F61D06FF0850070
:1020300052E00026D9E7B3F5166F5CD0B3F5965F92
:10204000F4D1374B3CE0B3F5E14F57D007D8B3F5A7
:10205000615F55D0B3F5964FE8D1324B30E047F68B
:102060001227BB42E2D14FF4000329E0B3F5613FF0
:1020700048D013D8B3F5963F47D009D84DF6C027BE
:10208000BB4244D0B3F5614FD0D14FF46B0317E09E
:10209000B3F5E13FCAD14FF0EB7311E0B3F5612F17
:1020A00038D008D8204FBB4237D0B3F5E12FBDD18F
:1020B0004FF0E86304E01D4FBB42B7D14FF08053AF
:1020C000C5F82435036903C9344322430433C5F8F2
:1020D0006C2583E803000020F0BD4FF41D03EFE7FB
:1020E000134BEDE74FF49E23EAE74FF4A033E7E705
:1020F0004FF41C33E4E74FF41D23E1E70D4BDFE71A
:102100000D4BDDE74FF06C73DAE70C4BD8E74FF47B
:102110006503D5E74FF07063D2E74FF08063CFE7F8
:1021200000B0130000A04E0090D0030040420F000A
:102130000050270000C0750000F03A0000903A01FE
:1021400000F01F0240090128044B02F5E07218BF9D
:102150004FF0A043890043F822107047000300505D
:10216000F8B5066905460F4602F0DDFE10B92C4BA6
:102170001B7883B94FF02003EFF3118483F31288A7
:10218000BFF36F8F284602F0A9FD28BB84F31188A6
:10219000BFF36F8FEEE76424284602F09FFD70B90D
:1021A000012002F0EDFD013CF6D10021212001F0DB
:1021B000D1FEF0E784F31188BFF36F8FF5E74FF09E
:1021C0002003EFF3118483F31288BFF36F8F284647
:1021D00002F084FD0028EDD006F8107F69680B68D6
:1021E0000122C3F84465C3F848250022C3F8202122
:1021F000D3F82001C3F85821D3F858214A68D206F1
:1022000041BF0822C3F800254FF48002C3F804231D
:1022100001229A6084F31188BFF36F8FF8BD00BF6D
:10222000B90D002000F01F0240090128044B02F5FF
:10223000E07218BF4FF0A043032143F8221070470B
:102240000003005000F01F0140090128044B4FF02B
:10225000010218BF4FF0A0438A40C3F80825704719
:10226000000300502DE9F041D0F804800769D8F848
:1022700000400023C4F80035386045680646E86829
:10228000421C04D0FFF7DEFFE868FFF7CBFF2869A8
:10229000431C06D02B7F002B14BF03210021FFF726
:1022A0004FFF6869421C04D0FFF7CCFF6869FFF755
:1022B000B9FFA869431C06D06B7F002B14BF032114
:1022C0000021FFF73DFFD5E903122B68C3F80C1579
:1022D000C3F81425D5E90512C3F808153169C3F808
:1022E000102504313046FFF779FE0546002846D117
:1022F000D8F80430990719D507F1120000F0F0FF63
:10230000224B98423ED1B87CC30003F1804303F5D1
:10231000F83304F10C0204F59071C3F81015C3F8FA
:1023200014251B4A01238340C2F804350823C4F84E
:10233000003598F808305BB9C4F81031D4F8103182
:1023400007F11103C4F834350123C4F8383523608C
:10235000D8F804309A075CBF4FF48072C4F80423A5
:10236000DB0644BF4FF48003C4F804331037002366
:10237000C4F84475C4F848350123A360E3602846D7
:10238000BDE8F0816FF00405F9E700BF0000AD0B78
:1023900000F00140194970B5044622F07F460868F4
:1023A000C1E90023A6F50013101AB3F5400F4FF052
:1023B00000050AD2124B19680A060B0A9219114934
:1023C00043F10003C1E90023012501F027FFA30029
:1023D00003F1804303F58833D3F84025B2420BD193
:1023E0001DB94FF40002C3F84025074B4FF480306D
:1023F00000FA04F4C3F8444370BD00BFB8010020E4
:10240000A4080020A00100200010014010B5012305
:102410008340114ABFF35B8FDC4352E8001F01EA9F
:10242000040C42E800CEBEF1000FF6D1BFF35B8F83
:102430004FF4803202FA00F002F1804202F580523D
:10244000C2F80803BFF35F8FBFF36F8F0B4214BF57
:102450000120002010BD00BFA00800200123124A67
:10246000BFF35B8F834052E8001F194342E8001C12
:10247000BCF1000FF7D1BFF35B8F0C4A4FF48033F0
:102480008340C2F804330A4BBFF35B8F1B68BFF372
:102490005B8F23FA00F0C30742BF064B4FF40032B4
:1024A000C3F80021704700BFA008002000100140C1
:1024B0009C08002000E100E00D4B1B68190A18067B
:1024C000BFF35F8F0B4BD3F80435C01841F1000107
:1024D000B3F5801F0AD2084BD3E90023994208BF05
:1024E000904203D210F1807041F10001704700BFAB
:1024F000A408002000100140A00100202DE9F04FA9
:1025000085B016461F460546FFF780FF0190FFF78E
:10251000D3FFB94208BFB0427FD2B6EB000867EBE9
:10252000010900234FF080724B4508BF4245C0F0BF
:102530008580444B03EB0513D3E902239F4208BF78
:10254000964254D04FEA85094FF4803B09F1804907
:1025500005F150080BFA05F209F588394FEA8808A9
:102560001FFA88F80292384AD9F8400526F07F43CE
:1025700008F1804808F588381C469346D2F804A52F
:10258000A0EB0A0020F07F402AF07F410128C9F823
:10259000401505D10393132002F0C6FD2A4A039B80
:1025A00002990AF1020CA4EB0C0020F07F40B0F578
:1025B000000F88BF64460020C8F80000D8F800006B
:1025C000CBF8441324F07F40C9F84005DBF804053C
:1025D000824506D0201A023820F07F40B0F5000F67
:1025E00019D8E41A24F07F44321947F10003154C3E
:1025F000290104EB0510C0E902230E9A0F9B6250DB
:1026000043600024019B13B12846FFF727FF2046B3
:1026100005B0BDE8F08F2046B0E701230B4ABFF3B9
:102620005B8FAB4052E8001F194342E800100028BE
:10263000F8D1BFF35B8F32463B46D8E76FF0150405
:10264000E0E700BFA8010020001001409C08002026
:1026500073B5194B194D00244FF0FF304FF0FF3187
:10266000C5F80845C3E902014FF48033C5F80433C7
:10267000134B02264FF400320121C5F804631120E8
:10268000C3F880212246FEF7EFFD1120FEF7CEFDB4
:102690000C4A012313600C4A2B6013600B4B0C4A4D
:1026A0000093019400232046FFF728FF3046FFF7F0
:1026B00085FA204602B070BDA8010020001001403C
:1026C00000E100E008100140A00800209523000070
:1026D000FFFF7F002DE9F743344CD4F804339A0709
:1026E00009D5334B1A6832B100221A60314A1B688F
:1026F0001368013313604FF02003EFF3118283F36B
:102700001288BFF36F8FD4F80433DB0312D5BFF305
:102710005B8F294B53E8001F21F0010043E80006BE
:10272000002EF7D1BFF35B8F244B002936D11968F7
:10273000002933D1002382F31188BFF36F8F53B385
:10274000FFF7BAFE06464FF02003EFF3118083F344
:102750001288BFF36F8F1A4BD3E90289494508BF2E
:1027600046454FF000021ED34FF0FF364FF0FF37C3
:10277000D3E90015C3E902671A604FF48033C4F847
:10278000483380F31188BFF36F8F21B10095424623
:102790004B460020884703B0BDE8F0830021196054
:1027A0001B680123C7E71146EBE700BF001001409B
:1027B00004110140A40800209C08002040110140A1
:1027C000A8010020144B13B5B0F1FF3F08BF184615
:1027D000441E002C1EDD9C42A8BF1C46FFF76CFE69
:1027E0000E4B0F49D3E90023801AB0F5000F28BF24
:1027F00000240130044408480091844228BF044664
:1028000012194FF00000019043F10003FFF776FE2C
:1028100002B010BD0024E1E7FFFF7F00B8010020F7
:102820009523000008B5FFF747FE024B1B68C01A4E
:1028300008BD00BFB8010020034B1868A0F10803D1
:1028400058425841704700BF30010010064B1B68CA
:10285000082B06D1054B1B68052B02D8044AD05C17
:1028600070470020704700BF300100103401001095
:102870004B560000024AD2F80034002BFBD07047C0
:1028800000E0014010B5FFF7D7FF40B14FF08043A3
:102890000022C3F80C21C3F81021C3F83825FFF734
:1028A000CBFF002846D04FF080525B4BD2F8041487
:1028B000C3F82015D2F80814C3F82415D2F80C1464
:1028C000C3F82815D2F81014C3F82C15D2F8141434
:1028D000C3F83015D2F81814C3F83415D2F81C1404
:1028E000C3F84015D2F82014C3F84415D2F82414C4
:1028F000C3F84815D2F82814C3F84C15D2F82C1494
:10290000C3F85015D2F83014C3F85415D2F8341463
:10291000C3F86015D2F83814C3F86415D2F83C1423
:10292000C3F86815D2F84014C3F86C15D2F84424E3
:10293000C3F87025FFF78AFF10B1384B384A1A6088
:10294000FFF784FF18B1374BFB22C3F81825FFF7B8
:102950007DFF48B13449354B0A681B6822F00F02ED
:1029600003F00F0313430B60FFF770FF18B1304BF8
:102970004FF400721A60FFF75FFF48B14FF08043D9
:10298000D3F80024D20744BF6FF00102C3F800243B
:10299000284B1B68082B0ED1274B1B68052B02D830
:1029A000264AD35C3BB14FF01023D3F808224FF0F6
:1029B0008043C3F858254FF01023D3F80022002A93
:1029C00003DBD3F80432002B22DA1D490123C1F8BE
:1029D0000435FFF74FFF4FF010201224C0F80042DB
:1029E000FFF748FFC0F80442FFF744FF0023C1F897
:1029F0000435FFF73FFFBFF34F8F1249124BCA68F0
:102A000002F4E0621343CB60BFF34F8F00BFFDE7DA
:102A10000E4B0F4A1A6010BD00C000408C5600409B
:102A20004881030000F00040E40E0040580200100E
:102A3000409602403001001034010010455600005D
:102A400000E0014000ED00E00400FA055000002025
:102A50000090D00370B501250368B3FA83F2202AF1
:102A6000C2F11F0414D0BFF35B8F05FA04F223EA0E
:102A7000020250E8006F9E4204D140E8002CBCF1F5
:102A8000000FF6D1BFF35B8FE6D102480C7070BD2A
:102A90000148FCE70000AD0B0200AD0B0368CB4022
:102AA000DB0710B515D4012303FA01F10368BFF366
:102AB0005B8F41EA030250E8004F9C4204D140E89A
:102AC000002CBCF1000FF6D1BFF35B8FEED10248B2
:102AD00010BD0248FCE700BF0000AD0B0400AD0BC9
:102AE000044B1A7922B9012218609A800248704773
:102AF00002487047A80800200000AD0B0C00AD0B89
:102B000010B1012820D070474FF08043D3F818242B
:102B1000D3F8181411F4803F194611D002F00302C3
:102B2000012A0DD1C3F818250C4B00221A601B682E
:102B30004FF080430222C3F8042301229A607047B9
:102B40000023C1F81835EFE7054B00221A601B6817
:102B50004FF08043C3F8040318607047040100403D
:102B60000001004038B510B1012818D038BD4FF031
:102B700080430222C3F80823184A10601268184ADA
:102B80000121116042F210751C46D4F81834DB03A1
:102B9000ECD5012002F0F4F8013DF6D1E6E7114B47
:102BA0004FF080440022C4F808031A601B680E4BE3
:102BB00042F210751860D4F80C34D4F80C24D20307
:102BC00003F0010305D523B1012002F0D9F8013D3E
:102BD000F1D1064B00225A71C8E700BF0401004042
:102BE0000C0000400001004004000040A808002044
:102BF000164B1A6810B56AB100221A601B684FF0B4
:102C000080430122C3F80823114B587910B95A7137
:102C10001B6898470F4B1A6872B100221A601B6834
:102C20004FF08043D3F81824D3F81814920704D136
:102C30000122C3F818259A6010BD0222C3F80823A8
:102C4000034BBDE810401B680120184700010040FD
:102C5000A808002004010040036803F01F025B097C
:102C6000012B0260024818BF4FF0A040704700BF20
:102C70000003005070B500F108030C4C34F8133019
:102C8000DA0505460E4607D5C3F3432304EBC3021A
:102C900054F8333052689847A3682BB1E268314644
:102CA0002846BDE87040184770BD00BF54000020A2
:102CB000124B083010B433F81020D1051BD5C2F3E5
:102CC000432122F4F85223F8102003F110040020CD
:102CD00034F8022B12F4807F03D0C2F343229142D6
:102CE00009D001303028F3D1002243F831200448C4
:102CF00010BCFFF7D3BE10BC704700BF54000020CB
:102D0000C800002038B50A4C00F1080534F8153029
:102D10009A0606D55B0B074A03F5A273002142F819
:102D20002310FFF7C5FF002324F8153038BD00BF7E
:102D300054000020006000402DE9FF411D4604467C
:102D400017460B4609B34D4E00F1080836F8182017
:102D500002F02202222A03D1494804B0BDE8F081E2
:102D60000022CDE900228DF80E208DF80F200DF104
:102D70000E010DF10F0202F00FF836F8183023F0B3
:102D8000020343F0010326F8183097B13B483E7820
:102D90007A6804F1080330F813108F070CD5002A65
:102DA000DAD130F8132022F01C0242EA860220F821
:102DB0001320CDBB3348D0E721F02001C904C90C52
:102DC00020F81310002AECD0032EC5D817782EB99E
:102DD0002D4A07F5A27142F82160E2E7BA0002F13C
:102DE000804202F5C0424FEA042ED2F810C52CF002
:102DF000030CC2F810C5D2F810C52CF44F3C2CF4CB
:102E0000407CC2F810C5D2F810C50EF47C5E4CEAC6
:102E1000064C41EA47314CEA0E0C41F0200120F803
:102E20001310C2F810C5BCE7D5E900672046FFF7CC
:102E30003FFF002EBED0114D2B689E4204D16B681F
:102E40009F4201D1002209E010480DF10F01FFF768
:102E500001FE0C4B984280D19DF80F2045F832605E
:102E600005EBC20308345F6035F8143043EA4223AF
:102E700043F4807325F814309CE700BF5400002011
:102E80000400AD0B0000AD0B00600040C800002046
:102E9000F0B5044685B0154609B300F10807314E78
:102EA00036F81730980701D49A0658D413F01C0F3F
:102EB00002D04B78012B52D001238DF80F30002324
:102EC000CDE900134A1C8B1C20460DF10F0101F0C7
:102ED00063FF36F8173043F0030326F8173015B9AF
:102EE000214805B0F0BD1F4E04F1080736F8170061
:102EF000830734D595F800C06146890020F0200092
:102F000001F18041C00401F5C041C00C26F8170052
:102F10000023C1F810356A78002AE1D0D1F81035C5
:102F2000AD7823F4991323F4F853C1F81035D1F890
:102F300010E5230203F47C53120443EA0E0302F467
:102F400040322D05134305F4801540EA4C302B43E5
:102F500040F0200026F81700C1F81035C0E70348FC
:102F6000BFE700BF540000200000AD0B0400AD0B14
:102F7000014BC3E902017047540000200830054BA3
:102F800033F810309A0643BF5B0B03480B700348BD
:102F9000704700BF540000200000AD0B0400AD0BD3
:102FA00038B50E4C94F87850B5B96022294604F132
:102FB000100001F03AFD0620FEF738F9084B0948E9
:102FC0001D601B68084B4FF00042C3F80423012327
:102FD00084F87830636738BD0448FCE7540000206B
:102FE0007C6100400000AD0B006000400500AD0BAF
:102FF000034B93F87800003818BF0120704700BFDA
:103000005400002001460148FFF748BDC4000020DD
:1030100001460148FFF71EBDC400002037B51F4B15
:1030200000F10802044633F812309A061DD513F059
:1030300002051AD15B0B9A0002F1804000F5C240F4
:1030400002F1804202F5C04205600068D2F8100526
:1030500040F00100C2F8100529B1012202FA03F381
:103060000F4AC2F8043303B030BDC3F38203042B0C
:1030700010D0052B10D001A80194FFF7EDFD019BA6
:10308000D0F81015D94001F001010231204601F0BD
:10309000CAFEE8E70321F9E70221F7E75400002020
:1030A000006000400E4B00F1080233F81230990620
:1030B00013D59A0711D45B0B01229A409B00094952
:1030C00003F1804303F5C043C1F80823D3F810256A
:1030D00022F00302C3F810257047002101F0A3BEBF
:1030E00054000020006000400E4B00F1080213B5B0
:1030F00013F81230DB07044611D5FFF7D3FF204643
:10310000FFF700FE01A80194FFF7A6FD019B03F560
:10311000E073022240F82320034802B010BD0348A8
:10312000FBE700BF540000200000AD0B0400AD0B16
:103130002DE9F04F644B65486549002587B00122B1
:103140002C461E6836B1D0F8046316421EBF1C60C0
:103150001E68154304338B424FEA4202F1D15D4FA2
:103160003B687BB34FF0A0435B4ED3F8202504921D
:10317000C3F82025D6F820350593C6F820350096EB
:103180000DF110094FF000084FF0010BD9F8003095
:10319000F3B908F12008B8F1400F09F10409F5D19D
:1031A0003B603B6800994FF0A043D3F82025049280
:1031B000C3F82025009BD3F820350593C1F82035AE
:1031C0001343DDD10124002D66D107B0BDE8F08F97
:1031D00093FAA3F3B3FA83F308EB030606F10802AC
:1031E0003E4B039633F81220C2F38203F408019396
:1031F0009A4604AB06F007000BFA00FC185D20EAC3
:103200000C00185503A89108FFF726FD039C04F550
:10321000E0744B0750F82440C4F3014423D55146D1
:103220003046FFF727FD03A80396FFF715FD039A25
:1032300002F5E072E4B250F82220C2F30142944257
:1032400007D10021304601F0EEFD2146304601F065
:10325000EAFD03A80396FFF7FFFC039B0BFA03F3B9
:10326000C0F8203592E7022C0CBF03210221304622
:1032700001F0D9FD019B032B04D0022C07D1BAF138
:10328000010FE6D151463046FFF7F4FCE1E7032C8D
:10329000DFD1BAF1020FF4E795FAA5F3B3FA83F39D
:1032A00004FA03F29B0003F1804303F5C04325EACF
:1032B0000205D3F81005D3F81015C0F30520C1F3AB
:1032C0000141FFF7D7FC7EE700610040006000404D
:1032D000206100407C610040000300505400002049
:1032E00001460148FFF7B6BBD000002010B5144CD2
:1032F000144A1549032323616361144BA261E361FE
:103300004FF4806323620023A3626362E362226658
:103310000F4A6266E01D1022A2662367E3666367B8
:1033200001F052FBBFF35F8F0A49204601F04CFBCE
:10333000BFF35F8F2023A371BFF35F8F10BD00BF6A
:10334000B0080020515600005A560000B90900206C
:10335000A90900205E5600000E4B70B553F82040BE
:10336000013053F82060A64200D870BDD4E9003582
:103370002846984765B1EB6830B10028B8BF404295
:10338000FF28A8BFFF2018705A7842F001025A7037
:103390000834E8E7EC54000070B5054610B9002485
:1033A000204670BD0378002BF9D00F4A0F4C16460B
:1033B000944208D10D4CB442F1D0204601F04AFDB0
:1033C00050B91834F7E7204601F044FD10B12368E6
:1033D000AB42E5D01834EBE72168284601F00EFB3C
:1033E0000028EED1DCE700BF145200009C51000021
:1033F00030B5002387B00122CDE904230F22CDE9A7
:1034000002320D4C0D4A01930D49182304EBC014F0
:1034100003FB00234FF4B075009305FB0011094B2B
:103420004FF4A072204600F0F7F8637B23F004030A
:10343000637307B030BD00BFC001002058090020F1
:10344000A01300203937000008B50A4B01220220E2
:103450001A70FFF781FF00F067FF0320FFF77CFF82
:1034600000F00CF9FCF7C6FF034A137B23F00103BD
:10347000137308BDB90D0020400200200248034A22
:103480000021121A01F0D1BAA0010020780F00200B
:1034900080B5DFF8D880A6B088F308882D4D2E4E71
:1034A0006B69DFF8CC9043F4007300246B61E02378
:1034B00085F82230EC772C766C76AC7685F8204057
:1034C0006B6A43F4E0236B6285F82340FEF7BCF897
:1034D000FDF78EFE4FF0FF33AB62EB62FEF7DEF9D5
:1034E000FEF74EF940F20113ADF8243006ABB3609D
:1034F000CDE91F4401F0ADFC2046FFF72DFF012070
:10350000164DFFF729FF00F08BFC154B05930123A7
:1035100014490094CDE903434FF480624B46CDE952
:1035200001442846F56100F077F86A7B22F0040236
:103530006A730746284601F03CFD2046FFF758FF16
:10354000094BF3604A46394628463475C6F804806C
:10355000FDF74CFF00ED00E058090020400200207C
:1035600065560000800F0020C0010020201D0020B3
:103570004934000070B50E4B0E4CA34201D300201D
:1035800070BDD3E9030141EA000212F003020BD13E
:103590009D685A61AA4201D11C33EEE75E690E6054
:1035A000013259610144F5E76FF01500E8E700BF0B
:1035B0005001002050010020D3B50C4616461F468E
:1035C0004FF02003EFF3118183F31288BFF36F8F65
:1035D00043695BB123601B68436183690133836185
:1035E000002081F31188BFF36F8F11E056EA0702C4
:1035F00003D123606FF00B00F3E70246CDE90067CB
:10360000083000F05FFB18B9024B9B685B692360D0
:1036100002B0D0BD580900202DE9FF410E9E06736F
:10362000042646730D9E867300F158050F46D61D7D
:10363000C0E916550C9A002526F007062037C0E988
:103640000655C0E919768560C573C56606F1200880
:1036500002920B9A019288440A9A009242460446CA
:10366000FDF78EFE044B65659B6803B11B6F2367F6
:10367000404604B0BDE8F081580900202DE9F0472C
:103680002A4E2B4D86B0B046B54205F1300410D31A
:1036900000F0D0F9264CDFF89CA04FF4004940F22E
:1036A000E7360027444521D306B0BDE8F04700F0D7
:1036B0009BBB54F8043C059354F8103C049354F815
:1036C000143C039354F8183C029354F81C3C0193A7
:1036D00054F8203C009354E90A2354E90C01FFF705
:1036E0009BFF54F8303C5D652546CDE7636A5A1C64
:1036F0000DD023EAE37330463946C9FB0301B942D2
:1037000008BFB042256804D1284600F07FFA303463
:10371000C8E74FF47A720023FCF7F2FC02460B462E
:1037200005F11800514600F0F1FCF0E750010020CF
:1037300050010020D34F000008B5094C4FF0200283
:10374000EFF3118382F31288BFF36F8F01F0BEFC99
:10375000A061FDF703FC0028F0D1FDF74FFDEDE778
:10376000580900202DE9F341044616461F464FF044
:103770002003EFF3118883F31288BFF36F8FC368C0
:10378000354A6BB180689168884219D056EA0703C0
:1037900018D188F31188BFF36F8F6FF00F000CE022
:1037A000916891F90E1021610133E3609368A36081
:1037B00088F31188BFF36F8F002002B0BDE8F0815D
:1037C0002169F0E791F90E1090F90E309942A8BFE7
:1037D00019466FF07E029142B8BF11468B422FDD31
:1037E00000F084FA0546CDE900671C4822464146B0
:1037F00000F068FA0028E0D04FF02003EFF31186C4
:1038000083F31288BFF36F8F236821699C420AD02B
:103810004BB193F90E309942A8BF19466FF07E0361
:103820009942B8BF1946A06890F90E30994209D163
:103830006DB10A48314600F0EBF86FF00A00BCE7C2
:103840000025D0E700F052FA0028F2D1F0E786F325
:103850001188BFF36F8FF0E758090020BA0D0020E0
:1038600038B583680446002B36D01E4A92689342CE
:1038700035D1DA7B013ADA73C368012B05D9013BF4
:10388000C36000F0B1FA002038BD4FF02003EFF321
:10389000118583F31288BFF36F8F0169806890F9F7
:1038A0000E30994201D000F021FA204601F0E0FBF1
:1038B000A06058B190F90E2022610022826701F0C9
:1038C00078FB0948294600F0A3F8DAE7E06085F3C1
:1038D0001188BFF36F8FD4E76FF01500D4E74FF076
:1038E000FF30D1E758090020BA0D002038B5044652
:1038F0004FF02003EFF3118583F31288BFF36F8F2E
:1039000001F0B6FB48B10022826701F052FB294664
:103910000548BDE8384000F07BB8D4E902329A424D
:1039200018BF0133A360F2E7BA0D002037B5144683
:103930001D464FF02003EFF3118183F31288BFF38C
:103940006F8F836843B1013B836081F31188BFF3BC
:103950006F8F002003B030BD54EA050306D181F318
:103960001188BFF36F8F6FF00F00F3E70246CDE9C8
:103970000045024800F0A6F9ECE700BFBA0D0020B0
:1039800010B5084C23685BB1FEF74CFF0346206876
:10399000054A0344BDE810401361002101F0A6BBB5
:1039A00010BD00BF8809002058090020F8B5044662
:1039B0000D464FF02003EFF3118683F31288BFF317
:1039C0006F8F104B00224FF4004740F2E730002188
:1039D0001A61E7FB040100234FF47A72FCF790FBB5
:1039E000002C094B09DC1860084B1D60FFF7C8FF6D
:1039F00086F31188BFF36F8FF8BD0228B8BF02208D
:103A0000F1E700BF58090020880900208409002040
:103A100049B9EFF3058030B9054BDA699B689A42E2
:103A200001D0FDF759BC81F31188BFF36F8F704748
:103A3000580900204FF02003EFF3118183F312881F
:103A4000BFF36F8F044B9A68D37B013BD37381F331
:103A50001188BFF36F8F70475809002038B50246B0
:103A60000C480D4D01F09BFA044600B9EC68AB68B8
:103A70004AB95A7BD20606D1A26922B9DA897F2ACD
:103A800001D9EB6138BD9C4201D0FFF779FFEC61B1
:103A9000F8E700BF780900205809002070B590F9B8
:103AA0000D20437B002A014604DA03F07F034373B1
:103AB00001F04DFA4B7B174A63F07F0310464B73BE
:103AC00050F8203F556A834208BF0023002B38BFBF
:103AD0000023CBB191F90E6093F90E40A6420FD0AE
:103AE000A41B002C0CDD5868C1E90030016059604E
:103AF0009068431A5842BDE870405841FFF7AEBF86
:103B0000AB4201D01B68E4E7C1E9000529605162BE
:103B1000EEE700BF5809002070B501464FF02003C2
:103B2000EFF3118483F31288BFF36F8F164B174A9C
:103B300098681568A8421D4606D1FFF721FF84F357
:103B40001188BFF36F8F70BD00261660104A12688F
:103B5000BAB1C2897F2A14D8427BD20611D10D4A4C
:103B600090F90E60126896420BDB0B4A904208D027
:103B70001A698A4202DCFFF791FFDEE7521A1A61E6
:103B8000DDE700232B61DAE75809002080090020D7
:103B90008809002084090020C001002070B490F939
:103BA0000D30427B002B2DDBD3062BD183694BBB21
:103BB000154962F07F0242730A464D6A52F8204F5F
:103BC000944218BF2346002B38BF0023ABB190F9B5
:103BD0000E6093F90E40A6420BD0A41B002C08DD0A
:103BE0005A68C0E900321060586070BC0020FFF7CE
:103BF00035BFAB4201D01B68E8E7C0E9002528606B
:103C00004862F2E770BC70475809002010B54FF0C9
:103C10002002EFF3118482F31288BFF36F8F427B8F
:103C2000510704D484F31188BFF36F8F10BD22F0C5
:103C300004024273FFF7B2FF21460248BDE810407C
:103C4000FFF7E6BEBA0D002008B590F90D20437BC2
:103C5000002A014604DA03F07F03437301F077F989
:103C6000044B9868431A58425841BDE80840FFF792
:103C7000F5BE00BF580900202DE9F0410646144664
:103C80001D464FF02003EFF3118783F31288BFF333
:103C90006F8F01F0C0F987F31188BFF36F8F6B1C32
:103CA00008BFB4F1FF3F08D022462B4606F11800AA
:103CB0000349BDE8F04100F029BABDE8F08100BF3A
:103CC000D34F000010B5074B9868074B0C4618609F
:103CD0001146DDE90223FFF7CFFF2046BDE8104083
:103CE000FDF7FABA5809002080090020F8B504460B
:103CF0004FF02003EFF3118683F31288BFF36F8F29
:103D0000437BDA0649B238D18569002D35D103F0FD
:103D10007F03437301F01BF9437B817363F07F03DF
:103D200043731748034653F8207F9F4218BF3D4610
:103D3000002D476A1A462B4638BF0023C3B193F9BA
:103D40000E50A94210D06D1A002D0DDD5A68C4E93D
:103D5000003214605C600120FFF780FE012086F3D2
:103D60001188BFF36F8FF8BDBB4201D01B68E5E738
:103D7000C4E900273C604462EDE7A1730020EEE750
:103D80005809002070B50446183001F089F94FF049
:103D90002003EFF3118683F31288BFF36F8F94F93A
:103DA0000D20637B002A05DA03F07F03637320464E
:103DB00001F0CDF80B4D637BA86843F010036373EB
:103DC000031B58425841FFF749FE86F31188BFF3A1
:103DD0006F8FAB68A34203D1BDE8704001F0D5B846
:103DE00070BD00BF5809002010B54FF02003EFF35D
:103DF000118483F31288BFF36F8F084B9A68D37BCB
:103E00000133D3730020FFF729FE84F31188BFF339
:103E10006F8FBDE8104001F0B8B800BF580900200E
:103E2000044B002103F12002C3E908220846FFF7F2
:103E3000BDBD00BF58090020F8B54FF02003EFF3D7
:103E4000118483F31288BFF36F8F1B498868437B0B
:103E500003F07F03437301F07AF88A68537B0846C6
:103E600063F07F03537350F8203F4E6A834208BFCC
:103E70000023002B38BF0023CBB192F90E7093F9C9
:103E80000E50AF420FD0ED1B002D0CDD5968C2E97A
:103E900000310A605A600120FFF7E0FD2046BDE8CE
:103EA000F840FDF719BAB34201D01B68E4E7C2E954
:103EB000000632604A62EEE7580900202DE9F04121
:103EC00004460D4654EA050104D1FFF7B5FF002072
:103ED000BDE8F0816FF001010A1A4FF0FF3161EB8C
:103EE0000503012A73F100032ADA01F019F9061912
:103EF0004FF02003EFF3118883F31288BFF36F8F25
:103F0000114F124BB8681860FFF79EFEB868104951
:103F100022462B46183000F0F9F8BA68537B43F07C
:103F2000100353734046FDF7D7F901F0F9F8301A42
:103F300066EB0601012871F10003B8BF0020C7E756
:103F40006FF00106361AD3E75809002080090020D7
:103F5000D34F000008B50B46013308BFB0F1FF3F57
:103F600006D1084B9868FFF70DFF4FF0FF3008BDF2
:103F7000FFF7A4FF4FF47A7380FB0323D00B40EAD2
:103F80004340F4E758090020014B9868704700BF90
:103F9000580900202DE9F04104464FF02003EFF3CB
:103FA000118683F31288BFF36F8F437B1A0705D501
:103FB00086F31188BFF36F8FBDE8F08123F02002F4
:103FC00042F00801D20920D14173A36813B1204601
:103FD00000F0C5FF04F1180001F062F804F1580781
:103FE0004FF00008A56DBD4200D0B5B90120FFF724
:103FF00035FD104B9B68A342DAD1EFF30583002B0C
:10400000D6D13046FDF768F9D2E703F05F0343F0FD
:104010000803437300F09BFFD7E7284600F09FFF9B
:1040200005F1180001F03CF8C5F878802846FFF744
:10403000B5FDD7E75809002008B50648064A0749E4
:10404000121A00F0E7FCBDE80840054A0549064899
:1040500000F0E0BC00000020A0010020A0560000FD
:1040600000000000A056000000000020034B1B6869
:104070000BB9FEF7D7BB0020704700BF8C090020AA
:1040800030B5036868B10A4A5268904209D043B11A
:10409000D3E90421D0E90445121945EB0101C3E934
:1040A0000421426813605A600023C0E9003330BD28
:1040B000D400002038B5134B1C689C4208BF002474
:1040C000FFF7D4FF0546BCB1D4E90401401B61EB06
:1040D000E571012871F1000311DB6FF0004200234C
:1040E000824273EB010400DA1046074B1B6913B1DF
:1040F0009842A8BF184638BD6FF00040F5E7002091
:10410000F3E700BFD400002058090020B3F1FF3FBF
:1041100008BFB2F1FF3F2DE9F74F044692469B4698
:1041200073D081604FF02003EFF3118583F3128881
:10413000BFF36F8F6FF00103B3EB0A084FF0FF324C
:1041400062EB0B09B8F1000F79F100011CDB30487C
:10415000D0E900105B1A62EB0002B3EB0A0662EBD7
:104160000B07012E77F10003BCBF01260027C4E92D
:104170000467284AD2E9003C93421ED1C4E9002CCE
:10418000CCF8004054602DE0FFF770FF1AF10103F6
:1041900000934BF100030193DDE90023121843EB78
:1041A000E073C4E90423E4E7B6EB080067EB090118
:1041B0006345C4E90401E1D01B68002BDED0D3E9DC
:1041C0000489D4E90467464577EB0901ECDAB8EBDA
:1041D000060069EB0701C3E904015968C4E900312D
:1041E0000C605C60136893420BD09C4209D1FFF7CE
:1041F00061FF18B1084B1B69834202D00021FEF712
:10420000E1FA85F31188BFF36F8F03B0BDE8F08F3B
:10421000C0020020D4000020580900202DE9F74FEB
:104220000646FFF779FC4FF02003EFF3118483F388
:104230001288BFF36F8F2C4DDFF8B0A0DFF8B0B05D
:104240002E605146D5F800C0DBF800006246D31757
:104250005845DAE90089CDE900230DD060B1D0E9F5
:104260000467B445BB411EDA009BB6EB030C019B0F
:1042700067EB0306C0E904C6009B13EB0802019B31
:104280004FF0000643EB0903C1E900232E60FFF75E
:1042900011FF3146FEF796FA84F31188BFF36F8F52
:1042A00003B0BDE8F08F18EB06084FF000024FF0A6
:1042B000000349EBE679C0E90423ACEB0606CAE942
:1042C00000892E60FFF7DCFE84F31188BFF36F8F47
:1042D000836898474FF02003EFF3118483F312882B
:1042E000BFF36F8F0149ADE78C090020C0020020A9
:1042F000D400002010B54FF02003EFF3118483F3B6
:104300001288BFF36F8FFEF78DFA064BD3E90023B7
:10431000121843F1000384F31188BFF36F8F104626
:10432000194610BDC0020020024A0349034800F0AC
:104330000DBA00BF9F5600006A5600007956000073
:1043400010B50A4C23681BB101232360002010BD67
:1043500000F0D6F80028F7D00138062803D8044B1F
:1043600053F8200010BD034810BD00BF9009002085
:1043700004550000FE8FFFFFBFF34F8F0549064B2A
:10438000CA6802F4E0621343CB60BFF34F8F00BFF3
:10439000FDE700BF00ED00E00400FA05F0B4094FAE
:1043A000094E0A4C0A4A0B4D0B494FF0FE333B6055
:1043B00052683360236000242B60C1F80045F0BCD4
:1043C000104700BF00B4025004B4025008B40250B9
:1043D000DC0000200CB4025000A00250D0E9001212
:1043E000014BC3E900127047DC00002010B5044601
:1043F00030B16368DB0602D500232360636010BD23
:10440000024B03485B689847F3E700BFDC000020DD
:104410002055000068B143683BB1DB0607D5BFF308
:104420005F8F0023036018467047034870470348B6
:1044300070476FF4E0407047EA8FFFFFE98FFFFF9E
:1044400010B5044620B1002211232260636010BD24
:104450000148FFF7A3FFF6E748550000C0B14368E5
:10446000A3B1DB0610D50122BFF35B8F50E8003FFC
:1044700040E800210029F9D1BFF35B8F012BF3D075
:10448000BFF35F8F002070470348704703487047B1
:104490006FF4E040704700BFE98FFFFFEA8FFFFF36
:1044A00070B5D0E90023134C134DC4E90023D0E9C3
:1044B0000263C4E90263114B0868186048685860D9
:1044C00088689860D1E90360D5F81411DE6018613E
:1044D000CB060DD50023C5E94433C5E96D3305F599
:1044E00088709047236805F5DA70BDE8704018477A
:1044F00070BD00BFEC000020BC0D0020FC000020BF
:1045000010B500F033F820B1032400F067F820461E
:1045100010BD00F035F890B900F0B0F890B90F4B2D
:104520001B681B0EF02B08D10D4A0E4B12689A42E5
:104530000AD0072400F01CF8E7E70624FAE7042471
:10454000204610BD0024F5E7012000F097F804464E
:104550000028F7D1044B1860D9E700BF28B90250F2
:1045600024BA02500000E0200CBA0250002070472C
:1045700000207047014B1860704700BF04BA02501A
:1045800010B5114800F048F800B110BD0F4800F018
:1045900043F80028F9D10E4C204600F03DF80028E1
:1045A000F3D10C4B0C481C6000F036F80146002893
:1045B000EBD100F02DF8044608B1204610BD00F004
:1045C0003FF82046FAE700BF340100202801002010
:1045D00030010020380100202C01002008B50848D7
:1045E00000F024F8074800F021F8074800F01EF812
:1045F000064800F01BF8BDE8084000F00BB800BF0B
:104600003401002028010020300100202C0100206E
:1046100000207047704700BF08B5034B02681B6855
:1046200010689847002008BDEC00002008B5034B37
:1046300002685B6810689847002008BDEC00002005
:1046400070B5094C094D2069AB68984718B1084B03
:1046500008485B689847084AEB68206900211160A8
:10466000BDE87040184700BFFC000020EC000020AF
:10467000DC0000206C550000A409002070B51A4D24
:104680001A4E0446B26828699047F0B95CB1184CDC
:104690002368ABB1012B1AD0013B23602869F36872
:1046A0009847002070BD124C216839B9114B124A4D
:1046B0000120C3F800051368002BFCD101312160F3
:1046C000F36828699847002070BD0C4870BD0A4AFD
:1046D0001368002BFCD1074A6FF07E40C2F800350A
:1046E000FFF748FF2368D7E7FC000020EC0000201C
:1046F000A409002000A0025010B90250E98FFFFF6A
:10470000704783684FF400515B691847034658B1FE
:10471000426802F00302012A03D0032A04D102688E
:1047200012B10020986070476FF015007047426822
:10473000816002F00302032A4FF0000203460CBF1F
:10474000006810465A607047002070470FB407B5E4
:1047500004A951F8040B0191FBF7A6FE03B05DF824
:1047600004EB04B07047038B13F0070305D1036813
:10477000002B0CBF002003207047022B05D1438B78
:10478000002B14BF002004207047012B05D10368C3
:10479000002B0CBF002005207047002070472DE93A
:1047A000F0410D4607461946281D90461E46FFF764
:1047B000BEFF044638B13346424629463846A44631
:1047C000BDE8F0416047BDE8F08110B44FF020042F
:1047D000EFF3118284F31288BFF36F8F416110BC35
:1047E0000121FBF76FBE10B50C4640B139B1081D71
:1047F000FFF78CFF28B9A36833F0030301D06FF0F3
:10480000150010BD38B50C46054658B151B10B68BE
:1048100043B14B6833B11C22002100F006F92C6132
:10482000002038BD6FF01500FBE770B504460E465A
:10483000FFF7D9FF051E31DB4FF02003EFF31181A5
:1048400083F31288BFF36F8F638B208B4FF6FF7556
:10485000AB4200F007022ED0022A0ED1013363834F
:104860001546012381F31188BFF36F8FB3B1002385
:1048700031462046FFF793FF10E0830701D0062A58
:104880000ED100233360636893B9C4E9006615460E
:1048900062B90A4620460221FBF714FE284670BD85
:1048A000052A0CBF6FF085056FF004050023D9E7DA
:1048B0001E606660EBE76FF00A05F7E7044608B58F
:1048C000084611461A46A047FFF75EFBFCF746FF75
:1048D0002DE9F74F9946D37814466F2BA3F1410287
:1048E00006460F4601922DD028D8582B14BF0A2512
:1048F0001025DDF83080AA464FF0000B52465B468B
:1049000030463946FBF7FCFB092AD3B21FD83033B7
:104910005F45DBB208BF564508F8013D01D3C845E5
:1049200012D823789B0605D5082D16D1A37843F01D
:104930000803A370404603B0BDE8F08F03F0F7030F
:10494000702BD3E70825D4E706460F46D6E7019A31
:10495000192A94BF37335733DAE7102DEAD1A378F9
:1049600043F01003E5E72DE9F04107468846154678
:104970001E461446B442A4EB050002D33EB9237888
:104980002BB114F8010B4146B8470028F2DABDE814
:10499000F08170470022C0E900228260704708B5AC
:1049A0000020FCF735FA00F05FBA0146006800F01D
:1049B0005BBA00210120FFF7F6BF08B5FCF76CFCDD
:1049C000BDE80840FCF748BD0139034611F8012F46
:1049D0000AB91A70704703F8012BF7E70346002065
:1049E0001A5C02B970470130FAE7034600201A5CEE
:1049F0000AB1884200D170470130F8E7431E0139FF
:104A000013F8012F11F8010F824201D1002AF7D1CA
:104A1000101A704710B5431E0A44914200D110BDD0
:104A200011F8014B03F8014FF7E7C9B202440346FE
:104A3000934200D1704703F8011BF9E74FF0FF30B4
:104A4000704784B004AB03E907009DF80430062BDF
:104A500008D14FF080430122C3F80025BFF34F8FE8
:104A600020BFFDE704B0704784B004AB03E9070042
:104A7000002383F31188BFF36F8F04B0704702697E
:104A8000CBB20C2103FB0121086C00F0070070473A
:104A90004FF02003EFF3118283F31288BFF36F8F7F
:104AA000036813F0C00301D08B4207D101230360D8
:104AB000002082F31188BFF36F8F70474FF0FF30F3
:104AC000F7E710B54FF02003EFF3118283F312885C
:104AD000BFF36F8F036803F00704012C06D1016058
:104AE000002082F31188BFF36F8F10BD03F0C00365
:104AF0008B4214BF4FF0FF306FF07700F1E74FF0BB
:104B00002003EFF3118283F31288BFF36F8F0368E2
:104B100003F0C00343F00203036082F31188BFF384
:104B20006F8F7047006910B4CBB21C2403FB0400E4
:104B3000002110BC10470020FDF7E2BF0020FEF767
:104B400011B81046FEF7D2BE38B5CCB20C230546DC
:104B500063430069403380211844FFF799FF002820
:104B600005DB696801EBC40463689847002038BD21
:104B70002DE9F843CDB20C2704696F43064607F1CF
:104B800040008021204490469946FFF79AFF002874
:104B900007DB3C44C4E90E89736853F83530984705
:104BA0000020BDE8F88343685B68D3F810350B60DC
:104BB0000020704743685B68D3F8040542400A4010
:104BC0004240C3F804250020704743685B6800201A
:104BD000C3F80815704743685B680020C3F80C15DC
:104BE000704743685A68D2F804354B40C2F8043520
:104BF000002070470369586830B558B100248142DD
:104C000013D108685CB99C685860A14200D19860D3
:104C10000020086072B9002030BD2846EFE7206010
:104C20009868814208BF9C60F2E705680446002D41
:104C3000F3D13AB15A680A60986859600028EAD1FD
:104C40009960E9E76FF01500E6E743681B68D3F861
:104C50000423D10518D5D3F82021AAB14FF02001A3
:104C6000EFF3118281F31288BFF36F8FD3F8201115
:104C700031B10021C3F82011D3F820110121D960EE
:104C800082F31188BFF36F8F42685268D20615D540
:104C90004FF02001EFF3118281F31288BFF36F8F81
:104CA000D3F8581111B10021C3F800154FF4800159
:104CB000C3F8081382F31188BFF36F8F704702693E
:104CC0000B46D2E9010183E80300002070474368E6
:104CD0001B68D3F88004C3F88004704742681368E7
:104CE000D3F8580140B95268920706D4D3F820018E
:104CF000003818BF012070470120704743680269DF
:104D00001B68D3F8100148B1527C0A700020C3F828
:104D10001001D3F8102101221A6070474FF0FF30C4
:104D2000704710B50022044601210220FCF79CFACE
:104D30000220FCF77BFA2046BDE81040FDF792BA4E
:104D400010B50022044601212820FCF78DFA282006
:104D5000FCF76CFA2046BDE81040FDF783BA7047B7
:104D600008B50020FCF700FEFFF7EABA08B5FCF72B
:104D700075F9FCF727FABDE80840FFF7E1BA0047EC
:104D800000F0D2B908B50020FCF760FA18B9BDE808
:104D90000840FCF74BBA08BDF7B5019001A8DDE962
:104DA000084617461D46FDF757FF019B002F00EBF5
:104DB000830014BF02230023002918BF43F001031E
:104DC000002D14BF4FF00C0C4FF0000C002C43EAE8
:104DD0000C0314BF4FF4E06C4FF0000C002E43EABC
:104DE0000C03D0F8002714BF4FF4403C4FF0000CE8
:104DF00043EA0C0322EA030301B109780FB13F78BB
:104E00007F0019430DB12D78AD0039430CB12278E4
:104E100014020D430EB1367836042C433443C0F8E7
:104E2000004703B0F0BD1FB50DF10F030193002340
:104E30008DF80F1000931A461946FFF7ADFF05B025
:104E40005DF804FBFEF752BA08B5FFF7FBFF002040
:104E500008BD704738B1C3681888C0F30800A0F5D2
:104E60008073584258417047F8B505460E464FF0DA
:104E70002003EFF3118783F31288BFF36F8FFFF7DF
:104E800083F8314604462846FFF76AFF87F3118806
:104E9000BFF36F8F2046BDE8F840FCF75FBC30B52C
:104EA0000024846141EA020414F00304C0E90232E0
:104EB00001610CD14461A34203D1C0E9000000208C
:104EC00030BD45690D60013441611144F3E76FF075
:104ED0001500F5E7F8B504460D464FF02003EFF353
:104EE000118683F31288BFF36F8F476977B900F09B
:104EF000BFF858B12A684261876700F05AF8314616
:104F000004F10800BDE8F840FEF782BD2B68626935
:104F10001A602B686361A369013BA36186F3118862
:104F2000BFF36F8FF8BDEFF30580003818BF012085
:104F3000704708B5FBF7CEFFBDE80840FFF70FBF8D
:104F400003460020C3E90200C3E900337047D0E9FB
:104F5000003213605A600023C0E90033704708B57F
:104F6000FFF7F5FF437B23F00203437300238360C5
:104F700008BD034620B9EFF305820AB9FCF7ACB9C6
:104F800083F31188BFF36F8F70474FF02003EFF367
:104F9000118083F31288BFF36F8FFFF7EABF0346D8
:104FA0000068834203D0002838BF002070470020EB
:104FB000704710B54FF02003EFF3118483F312888C
:104FC000BFF36F8FFEF7EAFD84F31188BFF36F8F95
:104FD00010BD10B501464FF02003EFF3118483F3A9
:104FE0001288BFF36F8F10F80B3C13F0280F0DD110
:104FF00051F8103C18380BB1FFF7B1FF11F80B3C1A
:1050000023F0140301F80B3CFEF7C8FD84F311886C
:10501000BFF36F8F10BD38B504460D46FEF714FE82
:10502000637B43F002036373B5B12B68A5609D42B7
:1050300008BF0023002B38BF00239BB194F90E104A
:1050400093F90E20914208D0521A002A05DD5A68C1
:10505000C4E9003214605C6038BD6A68934201D0D4
:105060001B68EAE76B68C4E900531C606C60F3E7F7
:1050700038B54FF02003EFF3118583F31288BFF3A7
:105080006F8FFFF78CFF044620B1FFF768FF1830E1
:1050900000F006F885F31188BFF36F8F204638BD06
:1050A00010B54FF02002EFF3118482F31288BFF3A2
:1050B0006F8F03683BB1FEF7E3FF002084F3118894
:1050C000BFF36F8F10BD6FF01500F7E710B54FF00D
:1050D0002003EFF3118483F31288BFF36F8FFEF781
:1050E000E9FF84F31188BFF36F8F10BD70B50446DC
:1050F0000D464FF02003EFF3118683F31288BFF3C0
:105100006F8FFEF7D7FF012805DDA04203DB29469C
:105110002046FDF757FB86F31188BFF36F8F70BDF4
:1051200008B5FFF7E7F808BD08B1FCF733BC7047D6
:04513000FDF7A8BB24
:08513400FCAFFF7F0100000049
:10513C000519000000000000491A00009C510000F5
:10514C00494E000000000000753500000000000012
:10515C00491E0000CC510000491E0000B451000053
:10516C00694D000000000000414D0000E4510000BA
:10517C00234D0000FC510000C91C00000000000081
:10518C0051260000000000006D4D000000000000E2
:10519C002A56000038540000205400003C01002026
:1051AC0028080020AC5300008C55000078540000F7
:1051BC00545400004401002084080020A653000031
:1051CC003056000088540000545400004001002068
:1051DC0090080020A053000037560000CC5400006B
:1051EC0098540000480100203C0000209A53000015
:1051FC003E560000AC540000985400004C010020B6
:08520C0028000020945300006B
:10521400F12B00007F4D000000000000B3490000A6
:10522400FC5100004B4C000000000000B34900009A
:1052340000000000B349000000000000B349000072
:10524400313100007F4D000000000000B349000030
:1052540000000000B349000000000000B349000052
:1052640000000000B349000000000000B349000042
:1052740000000000B349000000000000B349000032
:1052840000000000B349000000000000B349000022
:1052940000000000B349000000000000D526000013
:1052A40000000000B349000000000000B349000002
:1052B40000000000B349000000000000B3490000F2
:1052C40000000000B349000000000000B3490000E2
:1052D40000000000B349000000000000B3490000D2
:1052E40000000000B349000000000000B3490000C2
:1052F40000000000B349000000000000B3490000B2
:1053040000000000B349000000000000B3490000A1
:1053140000000000B349000000000000B349000091
:1053240000000000B349000000000000B349000081
:1053340000000000B349000000000000B349000071
:1053440000000000B349000000000000B349000061
:10535400E45100004B4C000000000000B349000081
:1053640000000000B349000000000000B349000041
:1053740000000000B349000000000000B349000031
:1053840000000000B349000000000000B349000021
:1053940000800080FF7F00800080FF7F008000800D
:0E53A400FF7F00800080FF7F00800080FF7F81
:0E53B200FFFFFFFFFFFFFFFFFFFFFFFFFFFFFB
:1053C0000338FDD870470000000000009F4900002E
:1053D000FD100000B51000006D1100006910000004
:1053E0001C00002004000020140000200000000029
:1053F0000C000020000000200000000000000B0650
:1054000002000000085400000000000015560000D3
:1054100026000207000000201D56000022000B118C
:10542000891B0000494B0000714B00000000000088
:105430007F4A000000000000F91A00005D1B000018
:10544000374B00003D4B0000F1190000A919000086
:1054500000000000811E0000A74B0000B54B0000BB
:10546000CB4B0000D74B0000E34B0000751D000044
:10547000F54B000000000000FFFFFFFF00000050A0
:105480000000000000000000FFFF000000030050CB
:105490000000000001000000FD4C00006121000040
:1054A000CF4C0000DD1F0000BF4C0000002000407A
:1054B00002000000000000000600000008000000DC
:1054C000050000000700000001010000008002400C
:1054D0000200000000000000220000002100000087
:1054E000FFFFFFFFFFFFFFFF010000003C51000036
:1054F0008C510000945100009C5100009C51000010
:10550000F5FFFFFFFF8FFFFFFF8FFFFFFE8FFFFF06
:10551000FE8FFFFFFD8FFFFFFC8FFFFFFC8FFFFF64
:105520006D757465785F667265652063616C6C6526
:10553000642077697468204E554C4C20706172610C
:105540006D6574657200000043616E277420696E9A
:10555000697469616C697A65206D757465782C2051
:10556000776173204E554C4C0D0A0000436F756CEB
:1055700064206E6F74206C6F636B20706F77657240
:105580002073617665206D75746578004750494FCA
:105590005F3000286E696C29004661696C65642083
:1055A000746F207265626F6F743A207370696E6EEB
:1055B000696E6720656E646C6573736C792E2E2E30
:1055C0000A006D757465785F696E69742063616C3B
:1055D0006C65642077697468204E554C4C2070616E
:1055E00072616D6574657200436F756C64206E6FD7
:1055F0007420616C6C6F63617465206D757465787F
:10560000206265666F726520696E697469616C6994
:105610007A696E6700464C4153485F3000535241EF
:105620004D5F3000000001000000434C4F434B0031
:105630004750494F5F3100554152545F3100554149
:1056400052545F3000000000000001010000000023
:10565000005465726D696E616C005254540053457C
:1056600047474552006D61696E0076322E372E39FC
:10567000392D6E6373312D31002A2A2A20426F6F33
:1056800074696E67205A6570687972204F53206282
:1056900075696C64202573202573202A2A2A0A0044
:1056A0004947000050010020010000006401002073
:1056B0000100000078010020010000008C010020A2
:1056C000010000003D4A00000000000000C201008F
:1056D00000010300000000000000000000000000C6
:1056E00000C20100000103000000000000000000F3
:1056F0000090D00300000000000000000000000047
:105700000000000000000000000000000000000099
:105710000000000000000000000000000000000089
:105720000000000000000000000000000000000079
:105730000000000000000000000000000000000069
:105740000000000000000000000000000000000059
:105750000000000000000000000000000000000049
:1057600000000000FF00000000000000000000003A
:10577000FFFF0F00D4000020D40000200000000034
:10578000794300009409002011000000414400000A
:10579000ED4300005D44000015440000200100209E
:1057A000E40000201801002000000000100100208B
:1057B00098090020110000009C0900201100000041
:1057C000A009002011000000000100200C010020B1
:0C57D00004010020FC000020300100203B
:1057DC0000000000000000000000000000000000BD
:0457EC0000000000B9
:1057F00050010020500100200000000000000000C7
:105800000E00000064010020640100200000000080
:10581000000000000E000000780100207801002048
:1058200000000000000000000E0000008C010020BD
:105830008C01002000000000000000000E000000AD
:04000003000016855E
:00000001FF
