:10000000201A0020F120000099820000A9200000A1
:10001000A9200000A9200000A92000000000000085
:10002000000000000000000000000000711C000043
:10003000A920000000000000191C0000A9200000F9
:100040005D1D00005D1D00005D1D00005D1D0000C8
:100050005D1D00005D1D00005D1D00005D1D0000B8
:100060005D1D00005D1D00005D1D00005D1D0000A8
:100070005D1D00005D1D00005D1D00005D1D000098
:100080005D1D00005D1D00005D1D00005D1D000088
:100090005D1D00005D1D00005D1D00005D1D000078
:1000A0005D1D00005D1D00005D1D00005D1D000068
:1000B0005D1D00005D1D00005D1D00005D1D000058
:1000C0005D1D00005D1D00005D1D00005D1D000048
:1000D0005D1D00005D1D00005D1D00005D1D000038
:1000E0005D1D00005D1D00005D1D00005D1D000028
:1000F0005D1D00005D1D00005D1D00005D1D000018
:1001000053B94AB9002908BF00281CBF4FF0FF317E
:100110004FF0FF3000F06CB9ADF1080C6DE904CE82
:1001200000F006F8DDF804E0DDE9022304B07047D2
:100130002DE9F047089E0D4604468E46002B40F000
:1001400082808A42174646D9B2FA82F24AB1C2F197
:10015000200105FA02F320FA01F1974041EA030E6B
:1001600094404FEA1748230CBEFBF8FCB9B208FBD9
:100170001CEE43EA0E430CFB01F098420AD9FB182F
:100180000CF1FF3580F01681984240F21381ACF1FA
:10019000020C3B441B1AA4B2B3FBF8F008FB10336B
:1001A00044EA034400FB01F1A14209D93C1900F1E2
:1001B000FF3380F00181A14240F2FE8002383C44CE
:1001C000641A40EA0C4000211EB1D4400023C6E965
:1001D0000043BDE8F08702B9FFDEB2FA82F2002ADE
:1001E0004FD1CB1B4FEA174E1FFA87F80121B3FB03
:1001F000FEFC250C0EFB1C3345EA034508FB0CF303
:10020000AB4207D97D190CF1FF3002D2AB4200F2AC
:10021000E7808446ED1AA3B2B5FBFEF00EFB105545
:1002200043EA054408FB00F8A04507D93C1900F152
:10023000FF3302D2A04500F2D7801846A4EB080491
:1002400040EA0C40C0E78B4208D9002E00F0AF8096
:100250000021C6E900050846BDE8F087B3FA83F13E
:1002600000294BD1AB4202D3824200F2B780841AFC
:1002700065EB030301209E46002EAAD0C6E9004E7E
:10028000A7E7C2F1200C01FA02F3974020FA0CF024
:100290004FEA174E21FA0CFC1843BCFBFEF1050C8B
:1002A0000EFB11CC1FFA87F845EA0C4501FB08F359
:1002B000AB4204FA02F409D97D1901F1FF3C80F048
:1002C0008B80AB4240F2888002393D44EB1A85B204
:1002D000B3FBFEF00EFB103345EA034500FB08F3C9
:1002E000AB4207D97D1900F1FF3C71D2AB426FD907
:1002F00002383D44EB1A40EA014178E7C1F1200C95
:100300008B4022FA0CF71F4320FA0CF405FA01F394
:100310004FEA174E25FA0CF51C43230CB5FBFEF9EA
:100320001FFA87F80EFB195543EA054509FB08FA41
:10033000AA4502FA01F200FA01F308D97D1909F180
:10034000FF3047D2AA4545D9A9F102093D44A5EBA2
:100350000A05A4B2B5FBFEF00EFB105544EA0544B5
:1003600000FB08F8A04507D93C1900F1FF352DD254
:10037000A0452BD902383C4440EA0940A4EB0804CC
:10038000A0FB02894C45C6464D4619D316D05EB136
:10039000B3EB0E0264EB050404FA0CFCCA404CEA11
:1003A0000202CC40C6E900240021BDE8F0873146B6
:1003B00030460EE7AC46EDE6184601E74345E6D287
:1003C000B8EB020E69EB07050138E0E72846D3E7F2
:1003D00060468FE78146BAE7614677E708464BE714
:1003E000ACF1020C3D4415E702383C4426E700BF5F
:1003F000704700BF08B54FF0FF324FF0FF3314488D
:1004000005F030FB134802680132134981FB0231C9
:10041000D317C3EB211303EB8303D900531A0360F3
:100420000E4A1368013B136013B9134628221A6061
:10043000074805F037FC074B1968084B1A688B18FA
:10044000282B00D108BD064807F0ACFDFAE700BF35
:100450000402002000050020676666660000002098
:10046000D88F000008B5034807F09CFDFFF7C2FFD6
:10047000FCE700BF1090000008B5034807F092FDAC
:10048000FFF7B8FFFCE700BF2490000038B5044632
:10049000436803F003038160022B03D9032B02D1CD
:1004A00000680EE063B9084D45232A46074908480D
:1004B00007F078FD4521284607F0CDFE002000E03A
:1004C00000200023636038BD50900000749000004D
:1004D0007890000008B50B6801330B60014B1B6876
:1004E000984708BD04000020014B1860704700BF0A
:1004F0000400002000B583B002460B4600210191A4
:1005000001A9034800F072FB03B05DF804FB00BFD3
:10051000D504000010B584B004460190029100217A
:10052000039101A9054800F061FB039B029A9342E5
:1005300001DA0022E254039804B010BD757F000078
:1005400038B504460D46838B002A14DB03F00703FD
:100550005A1F012A1BD9042B4FD02E4C40F21B13DB
:1005600022462D492D4807F01DFD40F21B11204663
:1005700007F071FE38BDD0E9000185E803000023D3
:10058000236063600121204607F028FDF2E7D0E9EF
:10059000000185E80300002222606260062B0FD074
:1005A000052B1CD10021204607F018FD204607F03E
:1005B0003CFD0028DED0A38B43F02003A383D9E7C2
:1005C0002B683BB1E28B0132E283002BF9D01B6830
:1005D000002BF6D10221204607F000FDE6E70D4D85
:1005E00040F209132A460E490C4807F0DBFC40F2A2
:1005F0000911284607F02FFED4E7002107F0EEFC92
:10060000204607F012FD0028B4D0A38B43F020034E
:10061000A383AFE7989000007490000078900000EA
:10062000BC9000002DE9F04F83B004461646838B42
:1006300003F0070703F008080D4631B1B8F1000FC9
:1006400012D1002300930193AAE0DFF80C9340F24B
:1006500033134A46BE49BF4807F0A4FC40F23311A9
:10066000484607F0F8FDE9E7012D13D0022D16D119
:10067000A38B43F02003A3831434204605F00EF827
:10068000002800F0A38186F31188BFF36F8F03B0B9
:10069000BDE8F08FA38B43F01003A383ECE7AE4DCE
:1006A0004FF49E732A46AD49AA4807F07BFC4FF4ED
:1006B0009E71284607F0CFFDDAE7204607F0B5FC2B
:1006C00005466FE0D4F818904A4669462046FFF781
:1006D00037FF002511E0002F40F081802368002BB8
:1006E00000F08B8023691D68002D00F094800621A6
:1006F000204607F073FC4FF00009A38B03F00708B6
:10070000B84500F00B81A268002A00F0098101229F
:1007100017461AB9009A002A00F0048143F0080332
:10072000A38304F1140A504604F0B8FF002800F037
:10073000FD8086F31188BFF36F8F002F40F0268174
:10074000009B2BB14B4642466946204607F0AFFC62
:1007500015B183492046A8474FF02003EFF31186D7
:1007600083F31288BFF36F8F504604F087FF002891
:1007700000F01281504604F0A1FFA38B23F0080380
:10078000A383A38B13F0100F00F0168123F0100346
:10079000A3830125A78B07F00707002D3FF46CAF5B
:1007A000022D8AD0002D3FF467AF012D8AD0032D92
:1007B00091D0042D3ED0052D40F0A080012F72D1A4
:1007C0002368002B7DD023699D68002D00F0878071
:1007D0000521204607F002FC4FF000098DE75E4D31
:1007E0004FF4AB732A465F495A4807F0DBFB4FF4DE
:1007F000AB71284607F02FFD70E7574D40F25713B5
:100800002A465949534807F0CDFB40F25711284674
:1008100007F021FD66E7DFF840814FF4AD734246F3
:1008200052494C4807F0BEFB4FF4AD71404607F00B
:1008300012FD5CE7022F0BD1E38BBBB923695D6826
:1008400015B30421204607F0C9FB4FF0000954E717
:10085000414D40F25D132A4645493E4807F0A2FB50
:1008600040F25D11284607F0F6FCE5E73A4D4FF4FB
:10087000AF732A463F49374807F094FB4FF4AF71F6
:10088000284607F0E8FCD9E7DFF8CC8040F2611396
:10089000424636492F4807F085FB40F26111404639
:1008A00007F0D9FCCDE72C4D4FF4B2732A463249FC
:1008B000284807F077FB4FF4B271284607F0CBFCCD
:1008C0007EE7254D40F265132A462749214807F067
:1008D00069FB40F26511284607F0BDFC73E7DFF8BD
:1008E00078804FF4B473424620491A4807F05AFB07
:1008F0004FF4B471404607F0AEFC69E7164D40F284
:100900006B132A461D49134807F04CFB40F26B114C
:10091000284607F0A0FC0025A946EEE60022F7E6EF
:100920000022F5E6002D7FF4F9AE2AE7DFF858B093
:10093000AC235A461249074807F034FB5146114888
:1009400007F030FBAC21584607F085FCF1E600BF0C
:10095000E49000007890000098900000F49000006F
:10096000050A000008910000149100003891000071
:100970005091000068910000789100007490000090
:10098000B8910000D0910000909100004A46414685
:10099000204607F02BFBD3E6144D81232A46144949
:1009A000144807F0FFFA5146134807F0FBFA81217B
:1009B000284607F050FCDDE613F0200F04D023F0AA
:1009C0002003A3830225E5E60025E3E6074DAC23DB
:1009D0002A460A49074807F0E5FA2146084807F081
:1009E000E1FAAC21284607F036FC4CE69091000075
:1009F000E89100007890000000920000B89100009B
:100A0000D09100002DE9F04104460D4600F1140696
:100A10004FF02003EFF3118783F31288BFF36F8F3A
:100A2000304604F02BFE50B1304604F047FEA5617D
:100A30003A4601212046FFF7F5FDBDE8F081DFF8D9
:100A40002C80812342460649064807F0ABFA31461E
:100A5000054807F0A7FA8121404607F0FCFBE3E7D1
:100A6000E891000078900000009200009091000052
:100A70002DE9F84F0446884607F0F0FA061E58DBC9
:100A800004F114074FF02003EFF3118983F3128868
:100A9000BFF36F8F384604F0F1FDE8B1384604F03B
:100AA0000DFEA58B05F00705E38B4FF6FF72934211
:100AB00056D02E46022D1FD02DB3042D23D0062D47
:100AC00021D0052D53D0012D36D16FF004064FF003
:100AD000000A534652461CE03C4D81232A463C49BD
:100AE0003C4807F05FFA39463B4807F05BFA812142
:100AF000284607F0B0FBD1E70133E3834FF0010A4A
:100B000000231A4605E0B5FA85F35B094FF0000AA9
:100B1000012242B10022C8F80020626872B3C2F814
:100B20000080C4F8048073B34A4602212046FFF7D0
:100B300079FD3046BDE8F88F284E40F2C9133246A1
:100B40002749244807F02EFA40F2C911304607F031
:100B500082FB6FF004064FF0000A53465246D8E776
:100B60006FF00A064FF0000A53465246D1E76FF085
:100B700085064FF0000A53465246CAE7C4F804807F
:100B8000C4F80080CFE7384604F088FD68B189F3E7
:100B90001188BFF36F8FBAF1000FCAD000232A4625
:100BA0004146204607F070FAC3E7DFF820B0AC23D7
:100BB0005A460C49074807F0F5F939460A4807F044
:100BC000F1F9AC21584607F046FBE0E790910000B0
:100BD000E8910000789000000092000098900000DA
:100BE00078910000B8910000D09100002DE9F04FFD
:100BF00093B006460D469246039300249AF80000EF
:100C0000002800F0D684252808D00AF1010A2946D8
:100C1000B0470028C0F2CE840134EFE700230693EA
:100C200007930B93089309930A930AF101089AF822
:100C30000130252B01D001272CE00AF102088DF8A4
:100C40002330A8E19DF8203043F004038DF82030D4
:100C5000FFB108F101081CE09DF8203043F00803C3
:100C60008DF82030F4E79DF8203043F010038DF824
:100C70002030EDE79DF8203043F020038DF8203040
:100C8000E6E79DF8203043F040038DF82030DFE7A1
:100C900000274FB398F80030203B102BF8D801A262
:100CA00052F823F0670C0000910C0000910C00003A
:100CB000750C0000910C0000910C0000910C0000DC
:100CC000910C0000910C0000910C0000910C0000B0
:100CD000590C0000910C0000450C0000910C000024
:100CE000910C0000830C00009DF8203003F04403B9
:100CF000442B6DD0CDF814809DF8203043F0800354
:100D00008DF8203098F800302A2B68D005A807F01D
:100D10000BFA059B984512D09DF8203043F08003D4
:100D20008DF820300990C3F34003002860DB0022D7
:100D300013439DF8202063F341028DF82020059B8A
:100D400005931B782E2B14BF002301239DF821202F
:100D500063F341028DF82120002B4BD0059B5A1CD8
:100D600005925B782A2B48D005A807F0DDF90A9098
:100D70009DF82030C3F34003002847DB00221343D3
:100D80009DF8202063F341028DF82020DDF81480C7
:100D900098F800304C3B2E2B00F2DC80DFE803F0AB
:100DA000CADADADADADADADADADADADADADADADAB3
:100DB000DADADADADADADADADADADADA38DA6ADAA5
:100DC00051DADADADADADADAC0DADADADADAB60024
:100DD0009DF820306FF386138DF820308AE79DF858
:100DE000213043F001038DF8213043460133A7E75A
:100DF00001229DE7DDF81480CAE79DF8213043F019
:100E000004038DF8213002F10108C1E70122B6E7A1
:100E100008F1010298F80130682B08D09DF82130C4
:100E2000022161F3C6038DF8213090462BE09DF836
:100E30002130012262F3C6038DF8213008F1020847
:100E400021E008F1010298F801306C2B08D09DF8E0
:100E50002130032161F3C6038DF82130904612E062
:100E60009DF82130042262F3C6038DF8213008F189
:100E7000020808E09DF82130052262F3C6038DF8D0
:100E8000213008F1010818F8013B8DF82330A3F157
:100E90004102372A00F25081DFE812F026014E01AC
:100EA0004E014E012601260126014E014E014E0142
:100EB0004E014E014E014E014E014E014E014E01BA
:100EC0004E014E014E014E014E0113014E014E01E5
:100ED0004E014E014E014E014E014E0126014E01C2
:100EE000130163002601260126014E0163004E0115
:100EF0004E014E014E012F0113013F014E014E01E3
:100F00003F014E0113014E014E0113019DF82130A6
:100F1000062262F3C6038DF8213008F10108B2E71A
:100F20009DF82130072262F3C6038DF8213008F1C5
:100F30000108A8E79DF82130082262F3C6038DF866
:100F4000213008F101089DF8203043F002038DF8AC
:100F5000203098E79DF821306FF3C6038DF82130DB
:100F600091E79DF82220012161F302028DF82220F1
:100F70009DF8212002F07802402A00F0AA80632B1D
:100F800000F0AE809DF82030C3F34002174367F3B2
:100F900041038DF820309DF8213013F0010F00F04F
:100FA000DA80039B1A1D03921F68002FC0F2CB80CA
:100FB0009DF8213013F0040F00F0DF80039B1A1D11
:100FC0000392D3F800B0BBF1000FC0F2CD80002334
:100FD00009930A939DF8223003F007039DF821102E
:100FE000C1F3C301012B00F0D180022B00F0168168
:100FF000042B00F06781032B00F07E819DF8209088
:1010000019F00303029340F07D819DF82330253BC6
:10101000532B00F23382DFE813F0810131023102F9
:101020003102310231023102310231023102310228
:101030003102310231023102310231023102310218
:101040003102310231023102310231023102310208
:1010500031023102310231023102310231023102F8
:1010600031023102310231023102310231023102E8
:1010700031023102310231023102310231023102D8
:10108000C701310231023102310231023102310233
:10109000310231023102A101AB01310231023102D0
:1010A0003102AB0131023102310231020802C701C3
:1010B000EA01310231028F013102C70131023102EE
:1010C000C7019DF82220022161F302028DF822203F
:1010D0004EE79DF8201041F001018DF820104EE7F9
:1010E000171E18BF01274DE79DF82230042262F336
:1010F00002038DF82230012744E79DF822300322B5
:1011000062F302038DF822309DF8213003F078035A
:10111000402B7FF437AF012734E79DF822300322BC
:1011200062F302038DF822309DF8213013F0780F1E
:101130003FF428AF012725E79DF8203043F0010355
:101140008DF820301EE79DF8203043F004038DF821
:1011500020307F422CE79DF92030002B02DB4FF03E
:10116000FF3725E7099F23E79DF821306FF34103FF
:101170008DF821304FF0FF3B29E713F0020F02D02A
:10118000DDF828B023E74FF0FF3B20E7CB1E042B10
:1011900004D8DFE803F00B1D29353500039B1A1D29
:1011A00003921A68D317CDE9062306E0039B1A1DA4
:1011B00003921A68D317CDE90623012928D0022902
:1011C0007FF41CAFBDF91820D317CDE9062315E72E
:1011D000039B073323F0070303F108020392D3E9CB
:1011E0000023CDE90623E8E7039B073323F0070339
:1011F00003F108020392D3E90023CDE90623DCE7DB
:10120000039B1A1D03921A68D317CDE90623D4E76E
:101210009DF81830069300230793EFE6CB1E042BAE
:1012200004D8DFE803F00B1F35414100039B1A1D72
:1012300003921B680693002307931EE09DF823305A
:10124000632B07D0039B1A1D03921B680693002390
:10125000079312E0039B1A1D03921B680693002359
:1012600007930AE0039B073323F0070303F1080207
:101270000392D3E90023CDE9062301291CD00229DA
:101280007FF4BCAEBDF81830069300230793B5E693
:10129000039B073323F0070303F108020392D3E90A
:1012A0000023CDE90623E8E7039B1A1D03921B6880
:1012B000069300230793E0E79DF818300693002378
:1012C00007939BE608290BD0039B073323F0070302
:1012D00003F108020392D3E90023CDE906238DE64A
:1012E000039B073323F0070303F108020392D3E9BA
:1012F0000023CDE9062381E6039B1A1D03921B6898
:1013000006937BE6434652462946304606F089FF5F
:101310000028C0F24F810444C2466FE429462520CC
:10132000B0470028C0F246810134DDF808900DF185
:10133000460B4FF0000AA7E0DDF818A0BBF1000F44
:1013400008DB5946504607F063F80AEB000BDDF85E
:10135000089099E0504607F053F8F6E7069B8DF8A1
:101360003030DDF808900DF1310B0DF1300A8BE0D3
:1013700019F0080F05D119F0100904D04FF0200919
:1013800001E04FF02B09DDE90623002A73F100018B
:1013900002DBCDE9062309E0524263EB4303CDE9CA
:1013A00006234FF02D0901E0DDF808900DF146030A
:1013B00000930CAB08AADDE9060106F0C8FE8246E0
:1013C000BBF1000FC0F290800DF14603A3EB0A03BE
:1013D0009DF820206FF386128DF820209B4540F267
:1013E0008680ABEB030309930DF1460B4CE00698A6
:1013F00030B9DDF80890DFF8C4B1ABF1050A43E07D
:101400000DF1460300930CAB08AA002106F09FFEE5
:1014100082469DF8223043F010038DF82230782365
:101420008DF82330DDF80890CAE7069A9DF8213040
:10143000C3F3C303072B06D8DFE803F0040C0E1038
:1014400012171C1E1460DDF808900DF1460B4FF0CA
:10145000000A19E01470F6E71480F4E71460F2E76C
:101460002046E117C2E90001EDE72046E117C2E995
:101470000001E8E71460E6E71460E4E7DDF80890AF
:101480000DF1460B4FF0000ABAF1000F00F08E800C
:10149000ABEB0A02B9F1000F00D001329DF8221027
:1014A00011F0100F26D00232099B134411F0400FA7
:1014B00001D00A9A1344002F32DDFF1A9DF8203024
:1014C00013F0040F2CD113F0400F18D0B9F1000F16
:1014D00018D029464846B04700286BDB0134DDF8B8
:1014E0000890302302930FE00DF1460BCCE70DF18D
:1014F000460BC9E711F0080FD6D00132D4E72023FC
:10150000029301E0302302933B465F1E002B07DD70
:1015100029460298B04700284CDB01343B46F4E7EB
:10152000B9F1000F05D029464846B047002841DBF5
:1015300001349DF82230C3F30012C3F3C0031343F8
:1015400005D029463020B047002833DB01349DF810
:10155000223013F0100F06D029469DF82300B04723
:10156000002827DB0134099B03F1FF39002B07DD3D
:1015700029463020B04700281CDB01344B46F3E7F6
:101580005B4652462946304606F04BFE002811DBEA
:101590000444002F07DD29462020B047002809DB3E
:1015A0000134013FF5E7C246FFF728BBC246FFF70B
:1015B00025BB204613B0BDE8F08F00BF1D92000090
:1015C00008B54FF02002EFF3118382F31288BFF3C6
:1015D0006F8F00F047FF034806F0E4FC00F074FA58
:1015E000FCE700BF2092000070B584B0424B1C7D28
:1015F00004F01F0301229A406109404B03EB810371
:10160000D043BFF35B8F53E8001F01EA000543E8B6
:101610000056002EF7D1BFF35B8F0A425AD004EB7D
:101620004403374A02EB830393E8070004AB03E962
:101630000700344B9BB106F04CFF4FF02003EFF353
:10164000118683F31288BFF36F8F2F4804F016F8CA
:1016500058B12D4804F032F82C4B1D681AE00023D5
:1016600083F31188BFF36F8FE7E7294D81232A4663
:101670002849294806F096FC2349284806F092FCA0
:101680008121284606F0E7FDE3E72B460DB12B68E4
:101690006BB11D465DB1AA68002AF6D0164B1B7DC2
:1016A00003EB4303164911F823009047EDE7354655
:1016B000154803F0F3FF78B185F31188BFF36F8FFE
:1016C0000F4A04EB4404A10002EB840400235350AE
:1016D0006360A36004B070BD0D4EAC233246104968
:1016E0000D4806F05FFC08490E4806F05BFCAC2193
:1016F000304606F0B0FDDFE7A80F002010050020FF
:1017000014050020D38400000405002008050020F3
:1017100090910000E8910000789000000092000095
:10172000B8910000D0910000F0B589B005466B4B30
:101730001C7D04F01F0301229A406109684B03EBF2
:101740008103BFF35B8F53E8001F41EA020043E8C7
:101750000006002EF7D1BFF35B8F0A421ED004EBC8
:101760004403604A12F82330002B00F0B580B5F135
:10177000FF3F23D104F046FD4FF02003EFF3118625
:1017800083F31288BFF36F8F574803F077FF58B386
:10179000554803F093FF554B1D683AE004EB4406AF
:1017A000504B03EB86066F462A462146384606F024
:1017B0005AFD97E8070086E80700D0E704EB4403EA
:1017C00002EB83039B68590CD803494E494A002316
:1017D00080194FF0000646EB0101FEF791FC012154
:1017E000281A06F037F8C5E7434D81232A464349B6
:1017F000434806F0D7FB3C49424806F0D3FB812121
:10180000284606F028FDC3E72B460DB12B686BB1C7
:101810001D465DB16A68002AF6D0304B1B7D03EB94
:101820004303304911F823009047EDE735462E4831
:1018300003F034FF00283FD085F31188BFF36F8F8A
:1018400004F01F030121994063092F4A02EB83032F
:10185000BFF35B8F53E8002F0A4343E800200028C2
:10186000F8D1BFF35B8F04EB44031E4A02EB830302
:1018700093E8070008AB03E90700244B0BB106F01F
:1018800015FEFFF7B1FE05F025FA012004F01F0256
:10189000012393406409124A02EB8404DB43BFF343
:1018A0005B8F54E8002F1A4044E800210029F8D14A
:1018B000BFF35B8F09B0F0BD0F4EAC233246144925
:1018C0000F4806F06FFB0849124806F06BFBAC218D
:1018D000304606F0C0FCAFE70020D7E7A80F002095
:1018E0002005002014050020040500200805002024
:1018F0003F420F0040420F0090910000E89100002D
:10190000789000000092000010050020AD840000D7
:10191000B8910000D091000008B5024806F07EF9A9
:1019200008BD00BF4C920000D0B108B54268042A3F
:1019300005D0D2B1006804F0B5F9002008BD0368F5
:101940000022BFF35B8F53E8001F012903D143E856
:1019500000200028F7D1BFF35B8F04D11046EDE7DC
:101960006FF4E04070470248E8E70248E6E700BF4E
:10197000E98FFFFFEA8FFFFF20B308B54268042A12
:1019800002D092B911480FE003680122BFF35B8FC8
:1019900053E8001F002903D143E800200028F7D1B5
:1019A000BFF35B8F0CD1002008BD00684FF0FF3201
:1019B0004FF0FF3304F056F80028F5D00448F3E761
:1019C0000348F1E76FF4E040704700BFEA8FFFFF84
:1019D000E98FFFFF10B5044688B16368042B0DD072
:1019E000082B0BD053B113F0020F0DD0214609483C
:1019F00003F0CAFD002323600023636010BD064B83
:101A00005B6806489847E8E714220021206806F042
:101A10002DFDF1E724050020E00000205492000095
:101A200010B5044678B16368042B0BD0082B09D09D
:101A30000BB9236863B1206807F005F9636843F0C8
:101A40000103636010BD0F4B5B680F489847EAE7DE
:101A50004FF0FF324FF0FF3321460C4803F020FDDA
:101A600008B923681BB9074B5B68094898471422DB
:101A70000021206806F0FAFC636843F0020363600B
:101A8000D9E700BFE00000205492000024050020A8
:101A90007C92000008B5402314220449044807F052
:101AA00080F80449044806F01BF908BD44050020ED
:101AB00024050020BC920000AC92000001491022D5
:101AC0000A60704710ED00E072B6404080F3118864
:101AD000BFF36F8FBFF34F8F30BF62B6BFF36F8F0F
:101AE000704700BF72B6494081F3118820BF80F370
:101AF000118862B6704700BF43B2002B08DB00F0CC
:101B00001F005B09012202FA00F0024A42F823009A
:101B1000704700BF00E100E04209054B53F8222066
:101B200000F01F00012303FA00F01040704700BFCF
:101B300000E100E0F8B505464C1C072C0BD86BB251
:101B4000002B1BDB6401E4B203F1604303F5614346
:101B500083F80043F8BD0E460C4F59233A460C4912
:101B60000C4806F01FFA07232A4631460A4806F0B9
:101B700019FA5921384606F06EFBE0E705F00F052B
:101B80006401E4B2054B5C55E4E700BFD09200006D
:101B900008930000789000002493000014ED00E00A
:101BA00030BFFFF7FDBF00BF08B50B4B0B4A22F05B
:101BB0007F029A60BFF34F8FBFF36F8FD3F88820F7
:101BC00022F47002C3F8882003F0EEFB05F038FC25
:101BD00000F074FA03F0F4FB00ED00E000000000F8
:101BE0000A4A9368C3F8A80009490968C3F8AC1009
:101BF00008494B6843F080534B60002383F31188FE
:101C0000BFF36F8F9368D3F8AC007047A80F002024
:101C1000089A000000ED00E013498A684FF0300098
:101C20001044EFF3098C80E8F01F202080F3128825
:101C3000BFF36F8F0D4F4FF00066CA698A603E6038
:101C4000D2F8A8000023C2F8A83080F3118804B5A8
:101C5000104600F0D5FABDE8044002F1300090E8EB
:101C6000F01F8CF309887047A80F002004ED00E0F6
:101C70001EF0040F0CBFEFF30880EFF309808169B9
:101C800011F8021C0229FFD001B506F0F9FA01BDD6
:101C900010B4A2F120040D4921F0010142F8081C02
:101CA00042F8203C019B42F81C3C029B42F8183C45
:101CB000039B42F8143C4FF0807342F8043C0465E7
:101CC0000023C0F8A83010BC704700BF1581000089
:101CD000164B9A68DAB110F1160F1AD010B4D2F878
:101CE0009830A3F12004844205D8834208D98B425E
:101CF00008D8002100E0002131B9002010BC704755
:101D00000021F9E70121F7E7D2F89800F6E7002073
:101D10007047D2F898308B4294BF0021012109B955
:101D200000207047D2F89800704700BFA80F00202D
:101D300008B50D461446084B986000F061FA20463D
:101D400085F30988002163B681F31188BFF36F8F93
:101D50000022002306F0DEF9A80F002001B572B6BC
:101D60000B4A906900281EBF0021916106F04FFFC9
:101D700062B6EFF30580A0F110004FEAC0000549FC
:101D8000014409C99847BDE80140034908470000DC
:101D9000A80F0020D88D00009D1D0000044B9968FD
:101DA000D869884203D003494FF080520A607047D7
:101DB000A80F002004ED00E010B51446124B9A6AFB
:101DC0009A6A9B6A13F4007F0BD00F4B9A6B9B6A45
:101DD00013F4004F05D021B10B4A936A23F400435A
:101DE0009362094B9A6A9B6A13F4807F01D1064B78
:101DF0009B6A054A936A43F47F439362012106F08C
:101E000051FA2070002010BD00ED00E0074B9A6AE7
:101E10009A6A9A6A9A6A9A6A9A6A9A6A6FEA02420D
:101E20006FEA12429A620020704700BF00ED00E0A6
:101E3000F8B5054616462B4B9A6A9A6A9B6A13F0C8
:101E4000020F0CD0274B586B9B6A13F0800F25D0E4
:101E500039B1244A936A23F08003936201E06FF062
:101E60001500204B9A6A9A6A9B6A13F0100F04D1EE
:101E70001C4B9C6A14F0020404D01A4B5C6814F4E6
:101E800000640ED1174A936A43F0FF039362012165
:101E9000284606F007FA30702046F8BD6FF01500AE
:101EA000DFE72946FFF714FF0746B0B90D4B9C6AE0
:101EB00014F01004E6D00C4C40F2491322460B49B2
:101EC0000B4806F06FF80B4806F06CF840F2491129
:101ED000204606F0C0F93C46D4E780F30988022486
:101EE000D0E700BF00ED00E064930000A093000085
:101EF00078900000EC93000038B500230B702C4B59
:101F0000DC6A14F0020450D1DB6A002B4EDB284B54
:101F1000DD6A15F0804536D0836933F8022C4DF622
:101F200002739A4210D003F1604303F626631B78D4
:101F300063B9204B1B787BB91F4B1B889BB28BB1BD
:101F4000FFF764FF044631E004682FE00A460121F0
:101F5000FFF76EFF044629E00A460121FFF72CFF38
:101F6000044623E0154D40F2C3232A461449154880
:101F700006F018F8144806F015F840F2C321284678
:101F800006F069F912E00D4C40F2C72322460C49D5
:101F90000C4806F007F80D4806F004F840F2C72197
:101FA000204606F058F92C4600E00024204638BDB3
:101FB00000ED00E029ED00E02AED00E06493000070
:101FC0007490000078900000109400003494000099
:101FD000F0B58BB02B4B5D68C5F30805002383F388
:101FE0001188BFF36F8F02F07F43B3F17F4F0DD1A4
:101FF00002F00C03082B27D012F0080F03D00C4678
:102000000026ACB904E004460126FAE7002634466F
:102010001D4F40F2F2333A461C491D4805F0C2FFFD
:102020001C4805F0BFFF40F2F231384606F013F9C4
:102030000DF127022946204606F039F905469DF89C
:10204000273023B10BB0F0BD00263446E0E7202254
:10205000214601A806F0E6F94EB1089BC3F3080239
:102060005AB96FEA53236FEA4323089305E0089BAC
:1020700023F4FF7323F00103089301A9284606F017
:10208000FBF8DFE700ED00E06493000064940000DB
:102090007890000078940000024A536943F01003DE
:1020A0005361704700ED00E0EFF30880EFF3098122
:1020B00001B57246FFF78CFF01BD00BF002206E0AC
:1020C00002F00F01094B0B442021197601322F2A0F
:1020D0000ADC53B2002BF3DB03F1604303F56143E9
:1020E000202183F80013F1E7704700BFFCEC00E00B
:1020F000002080F31488BFF36F8F06F0FBFD0020F3
:102100000D490860BFF34F8F0C4880F3088800F03A
:1021100029F8202080F3118809484FF40261401803
:1021200080F30988EFF314800221084380F31488B8
:10213000BFF36F8FFFF738FD94ED00E0201A002009
:10214000A01B0020064B1868C0F307200023834221
:1021500005DA034A9360002111610133F7E7704704
:1021600090ED00E010B572B6002484F31388FFF7F9
:10217000E9FF234608E003F120010E4A4FF0FF304B
:1021800042F821000133DBB2072BF4D9002308E029
:1021900003F16001074A4FF0FF3042F8210001339C
:1021A000DBB2072BF4D962B6BFF34F8FBFF36F8F4B
:1021B00010BD00BF00E100E008B5084B9B688342FA
:1021C00002D005F09BF808BDEFF30583002BF8D093
:1021D000034A536843F080535360F2E7A80F00208E
:1021E00000ED00E008B5034B034A0121034800F06D
:1021F0005DF808BD0000042000000020B894000035
:1022000008B5D0F89830203B044803602023436091
:10221000034B8360012100F06BF808BD440A0020E5
:1022200000000B15064A90600B6823F01F03034360
:1022300043F01003D3608B6843F0010313617047D0
:1022400090ED00E010B5034C0123227806F08DF8E4
:10225000207010BD1010002008B50023084A127825
:1022600006F083F810F1160F08D00346072B05DCA3
:10227000044A9360002111610133F7E708BD00BFF4
:102280001010002090ED00E0034B05225A60BFF3D0
:102290004F8FBFF36F8F704790ED00E0BFF35F8FFC
:1022A000014B00225A60704790ED00E038B50C46B3
:1022B000FFF7C8FF10F1160F00D038BD084D40F2EF
:1022C00011132A460749084805F06CFE21460748C5
:1022D00005F068FE40F21111284605F0BCFFECE75E
:1022E000C49400007490000078900000FC940000FA
:1022F00038B50C46FFF7B0FF10F1160F00D038BD0F
:10230000084D4FF498732A460749084805F04AFEDD
:102310002146074805F046FE4FF49871284605F01F
:102320009AFFECE7C49400007490000078900000DD
:102330002895000038B5234B1D68082D03D8FFF7FA
:10234000ADFF00241EE0204C4FF4A47322461F4929
:102350001F4805F027FE082229461E4805F022FEE8
:102360004FF4A471204605F076FF4FF0FF3016E0E1
:10237000144B596804EB4402930019442046FFF7BC
:1023800051FF0134A542F3D8134B1D70FFF77CFFBA
:10239000124B1B68C3F30723082B01D1002038BD63
:1023A000094C4FF4D47322460D49094805F0FAFD53
:1023B0000C4805F0F7FD4FF4D471204605F04BFFB3
:1023C0000020ECE710960000C49400007490000018
:1023D00078900000589500001010002090ED00E06B
:1023E0008C950000DC950000014B1860704700BF21
:1023F00028000020064B1B68064A1268082B01D0F3
:1024000000207047022A01D0002070470120704749
:10241000300100103401001010B54FF02003EFF32D
:10242000118483F31288BFF36F8F01230B4AC2F824
:1024300040354FF08042C2F87835FFF7DBFF10B12E
:10244000074B01221A604FF080430122C3F8802518
:1024500084F31188BFF36F8F002010BD00E00140AE
:1024600038060040C0B24FF08043C3F81C05BFF3EC
:102470004F8F0549CA6802F4E062044B1343CB60F6
:10248000BFF34F8F00BFFDE700ED00E00400FA0549
:1024900030B108B58001034B43F00103984708BDF4
:1024A000704700BFD08F000000487047A80A002086
:1024B000014BC01A40117047600A002030B583B04C
:1024C00005460C46FFF7F4FF0146402300932346E0
:1024D000054A064806F075F8011E01DB03B030BD61
:1024E0002846A047FAE700BF0B860000608D000079
:1024F00008B50A4BBFF35B8F53E8002F22F00201AF
:1025000043E800100028F7D1BFF35B8F12F0010FF2
:1025100000D008BD06F08BF8FBE700BFB80A00202A
:1025200010B54FF02003EFF3118483F31288BFF34B
:102530006F8F134A136843F00203136013F0010F07
:1025400008D1002384F31188BFF36F8F9BB906F085
:1025500064F810BD4FF08043D3F80C24D3F80C344A
:1025600012F0010F01D10023ECE7FFF79DFF06F009
:1025700003F80123E6E70021024806F010F8E8E737
:10258000B80A0020608D000070B50546CCB2012C61
:1025900007D82146284605F0A7FF806800F007000D
:1025A00070BD064E792332460549064805F0FAFC0F
:1025B0007921304605F04FFEEBE700BF3096000072
:1025C00070960000789000002DE9F041074616460D
:1025D000CCB2214605F088FF0546012C0FD83146C4
:1025E00005F1080005F08FFF002806DB214638467C
:1025F00005F081FF436898470020BDE8F081DFF8CF
:10260000248040F24D1342460449054805F0CAFCB7
:1026100040F24D11404605F01EFEE0E770960000C6
:10262000789000003096000038B505460C46FFF75C
:102630003FFF014640220348FFF7C6FF01462846F8
:10264000A04738BD608D000010B501281DD00328BB
:1026500020D068B1164C40F2622322461549164834
:1026600005F0A0FC40F26221204605F0F4FD10E0E8
:102670000021124805F038FF836813F0070F08D1D6
:1026800000210E4805F08BFF03E001210B4805F007
:1026900086FF10BD064C40F25E23224605490648DF
:1026A00005F080FC40F25E21204605F0D4FDF0E705
:1026B000309600007490000078900000608D00005B
:1026C00000B585B0CDF800D0CDF804D0002302933A
:1026D000012303936B46074A05F08FFF002805DBB3
:1026E0004FF480420023684603F0F4FB05B05DF828
:1026F00004FB00BF4D86000070B506460022012194
:102700001046FFF717FA0020FFF7F6F9114801F01D
:1027100065FB114B98421AD101F088FB002403E0BD
:102720000123AB601C44E4B2012C0ED82146304694
:1027300005F0DAFE05462146304605F0E0FE074981
:1027400005F0CCFC0028EBDA00E0002070BD6FF053
:102750000400FBE7492600000000AD0BD096000006
:1027600070B50546012807D14FF08043D3F81C34DB
:1027700003F00303012B58D006F034FA28B92E4B8E
:102780001B78002B41D0002300E001231C46002BC6
:102790003DD04FF02003EFF3118683F31288BFF38F
:1027A0006F8F24B94FF080430222C3F808234FF003
:1027B0008042D2F8183403F00303D2F8182412F43C
:1027C000803F2BD100221AB1012B29D0012D27D017
:1027D000FCB13046FFF786F94FF08043D3F8183547
:1027E000002BE4D1154B1B68002BE0D0134B0022CB
:1027F0001A601B6801234FF08042C2F81835104A56
:10280000C2F880310F4A1360D1E70123BEE70026EA
:10281000C7E72120002104F01FFDDDE70122D2E7F8
:1028200024B186F31188BFF36F8F70BD4FF08043E2
:102830000222C3F80423F8E711100020040100402D
:1028400000E100E00800004038B504461F4B0121BC
:10285000BFF35B8F53E8002F43E800100028F9D145
:10286000BFF35B8F42B134B1631EDBB2012B1ED8C4
:102870002046FFF775FF38BD154805F040FE1549A5
:1028800000234B60CB6001238B60FEF7F1F800283A
:10289000E9DA114D4FF408732A461049104805F043
:1028A00081FB4FF40871284605F0D5FCDBE70A4CA4
:1028B00040F2322322460B49094805F073FB40F2EF
:1028C0003221204605F0C7FCD5E700BFBC0A002036
:1028D000608D0000500A00203096000094960000A1
:1028E000789000007490000010B504460A2807D0C4
:1028F000074B1868E1B283685B689847204610BDB3
:10290000034B186883685B680D219847F0E700BFA8
:10291000C00A002010B5044C2046FFF765FD204694
:10292000FDF7E2FD10BD00BFE928000008B506482C
:10293000064B186006F011F918B1FFF7EBFF002005
:1029400008BD6FF01200FBE7C08D0000C00A002038
:102950001F4B03401F4A934232D016D8062B2BD070
:1029600006D9B3F5801F0DD101230B7000207047ED
:10297000FBB1022B03D104230B70002070476FF0D2
:10298000150070476FF015007047134A93421BD033
:10299000B3F5A00F03D103230B7000207047B3F5EC
:1029A000800F03D102230B70002070476FF01500D9
:1029B000704700200870704706230B700020704796
:1029C00007230B700020704705230B700020704711
:1029D0000600F000060010000200400028B10128A7
:1029E00001D103487047002070470248704700BF7C
:1029F000788D0000908D00002DE9F04115460669A4
:102A0000371D0C4639B16368ABB17368002B3BD0FE
:102A1000214600222AE0DFF8A880242342462349E9
:102A2000234805F0BFFA234805F0BCFA24214046AC
:102A300005F011FCE7E7DFF88880252342461E49B0
:102A40001B4805F0AFFA1D4805F0ACFA25214046B9
:102A500005F001FCD9E7236873607A6894420FD1CE
:102A60007B600DE07A600BE01A461B685BB199420F
:102A7000FAD1002AEFD0236813607B689C42F1D022
:102A80000023236000E055B165B173682360746072
:102A90007B680BB1002006E07C60002003E06FF053
:102AA000150000E00020BDE8F08100BF0C97000099
:102AB0007890000018970000289700003C970000CD
:102AC000DC9600002DE9F04100F01F044009FFF7FB
:102AD00085FF80B3074603690126A6405C681CB1E8
:102AE00025467CB125680DE025460BE06368A268A9
:102AF0003240214638469847DDB12B4605B12B6858
:102B00002C461D46BCB1A3681E42F5D06368002B5D
:102B1000ECD1DFF83480452342460849084805F0E7
:102B200041FA084805F03EFA4521404605F093FB7E
:102B3000DCE72B46E4E7BDE8F08100BF54970000D6
:102B4000789000003C970000DC960000F0B585B05E
:102B50000E46194643681B7B06F01F0444EA4314E3
:102B6000B2F5005F22D00746154600230293039377
:102B7000104605F0A3FD8DF808007B689968F140C8
:102B800011F0010102D1B5F5A03F14D0002302AA33
:102B90001946204601F05AFE324B98425FD101217E
:102BA000204602F0B5F8002005B0F0BD204602F046
:102BB000BBF90020F8E763091FD0012B01D14FF6C4
:102BC000FF7104F01F03D94011F0010F18D004F079
:102BD0001F05630922D0012B23D0234E40F22E2360
:102BE00032462249224805F0DDF940F22E213046D6
:102BF00005F031FB4FF0A04314E04FF0FF31E0E768
:102C0000194D40F229232A461A49194805F0CAF9F4
:102C100040F22921284605F01EFBD8E74FF0A043DB
:102C200000E0154B05F5E07553F8253013F0010F62
:102C3000ACD10DF10701204601F0FAFF0F4B98428D
:102C400003D00DF107030393A0E70DF1070002F095
:102C500057F8044B9842F4D06FF00B00A4E76FF0E4
:102C60000400A1E70000AD0B609700007490000025
:102C70007890000094970000000300500400AD0B12
:102C800030B583B004460DF1070101F0D1FF0546D0
:102C9000204602F0B1F90B4B98420FD19D4205D06E
:102CA000084B984207D1002003B030BD9DF80700C3
:102CB00002F01EF8F4E76FF00400F5E76FF004008F
:102CC000F2E700BF0000AD0B2DE9F04387B0D0F86C
:102CD000048098F80C3001F01F0545EA4315002ADE
:102CE00044D00C4617460026039604960DF11701B2
:102CF000204601F09DFF8146334603AA314628460F
:102D000001F0A4FD304B98425BD1994536D017F4C1
:102D1000007F43D00DF103013846FFF719FE064648
:102D200040BB9DF803308DF8043017F4807F0CBF52
:102D3000012300238DF80530384605F08CFC8DF812
:102D4000060017F4006F1ED0D8F80430012101FAF4
:102D500004F4C3F80845002201A9284601F068FEE2
:102D6000194B984206D06FF0150603E02846FFF78E
:102D700087FF0646304607B0BDE8F0839DF8170090
:102D800001F0B6FFC3E717F4806FE4D0D8F8042051
:102D9000012303FA04F4C2F80C45DCE7384605F0D9
:102DA0005AFC8DF8080000231A4602A9284601F0B3
:102DB0004DFD054B984201D10026DBE76FF015066B
:102DC000D8E76FF01506D5E70000AD0B08B501F0A8
:102DD00085FF08B1002008BD01F056FF084B98425E
:102DE0000AD10021074801F01DFF0022052106201D
:102DF000FEF7A0FE0020EEE76FF00400EBE700BF57
:102E00000000AD0BC52A000043681A68B1F5164FE3
:102E10006FD03AD8B1F5165F6ED00AD9B1F5E14F4F
:102E200075D024D947F6122399422BD14FF40003D1
:102E300013E0B1F5966F61D007D9B1F5166F63D085
:102E4000B1F5965F10D13C4B07E0B1F5967F58D0B5
:102E5000B1F5167F05D14FF41C33C2F8243500209C
:102E600070476FF0150070476FF015007047B1F5AF
:102E7000615F4ED0B1F5964F01D1304BEDE76FF069
:102E8000150070476FF015007047B1F5613F42D0F3
:102E900009D9B1F5612F46D01FD9294B994248D1A4
:102EA0004FF08053D9E7B1F5963F37D005D9B1F54A
:102EB000E13F0FD14FF0EB73CFE74DF6C0239942BE
:102EC0002ED0B1F5614F02D14FF46B03C5E76FF01F
:102ED000150070476FF0150070471A4B994225D0C6
:102EE000B1F5E12F02D14FF0E863B6E76FF01500BE
:102EF00070474FF41D03B0E7134BAEE74FF49E232A
:102F0000ABE74FF4A033A8E74FF41D23A5E70F4B21
:102F1000A3E70F4BA1E74FF06C739EE70D4B9CE7C7
:102F20004FF4650399E74FF0706396E74FF08063C5
:102F300093E76FF01500704700B0130000A04E003B
:102F400040420F0090D003000050270000C07500E1
:102F500000F03A0000903A012DE9F04105460F4695
:102F6000D0F8108005F03EFE20B9164B1B78ABB1AF
:102F7000002300E001239BB14FF02003EFF3118405
:102F800083F31288BFF36F8F2646284605F052FC64
:102F900050B984F31188BFF36F8FEDE70123EAE79F
:102FA000284605F096FC0646414601F8107F0122AE
:102FB000284605F059FC86F31188BFF36F8FBDE8F2
:102FC000F08100BF1110002038B504460D4601F114
:102FD000120002F09DF80C4B984211D1AB7C04F525
:102FE00090710C34094AA23342F8331002EBC30348
:102FF0005C60A97C01238B40C2F80435002038BDF9
:103000006FF00400FBE700BF0000AD0B00F00140D3
:10301000F8B54468002940F0BA81E568B5F1FF3F92
:1030200030D12569B5F1FF3F00F0C780237F002B29
:1030300000F0A58003266B0900F0A380012B40F06F
:10304000A3804FF6FF7305F01F02D34013F0010F6A
:1030500000F09C8005F01F076D0900F0A580012D90
:1030600000F0A580BA4D40F22E232A46B949BA484D
:1030700004F098FF40F22E21284605F0ECF84FF0BE
:10308000A04395E06B091FD0012B20D14FF6FF73B1
:1030900005F01F02D34013F0010F1AD005F01F06F0
:1030A0006D0924D0012D25D0A94D40F22E232A46AA
:1030B000A849A94804F076FF40F22E21284605F0E1
:1030C000CAF84FF0A04216E04FF0FF33E0E70023CC
:1030D000DEE79F4E40F229233246A0499E4804F085
:1030E00061FF40F22921304605F0B5F8D6E74FF0F0
:1030F000A04200E09A4A0123B340C2F80835E568CF
:103100006B091FD0012B20D14FF6FF7305F01F0272
:10311000D34013F0010F1AD005F01F066D0924D01B
:10312000012D25D08A4D40F22E232A4689498A480E
:1031300004F038FF40F22E21284605F08CF84FF0BD
:10314000A04316E04FF0FF33E0E70023DEE7804EB8
:1031500040F22923324681497F4804F023FF40F2A0
:103160002921304605F077F8D6E74FF0A04300E07C
:103170007B4B06F5E076032243F8262051E7002634
:1031800059E74FF0FF335EE700235CE7704F40F2F2
:1031900029233A467149704804F004FF40F229217E
:1031A000384605F058F855E74FF0A04300E06C4B67
:1031B000B60007F5E07743F827606569B5F1FF3F92
:1031C00030D1A569B5F1FF3F00F0D280637F002BBD
:1031D00000F0A58003276B0900F0A380012B40F0CD
:1031E000A3804FF6FF7305F01F02D34013F0010FC9
:1031F00000F09C8005F01F066D0900F0A580012DF0
:1032000000F0B080524D40F22E232A4651495248D8
:1032100004F0C8FE40F22E21284605F01CF84FF0BD
:10322000A042A0E06B091FD0012B20D14FF6FF7305
:1032300005F01F02D34013F0010F1AD005F01F064E
:103240006D0924D0012D25D0414D40F22E232A4670
:103250004049414804F0A6FE40F22E21284604F0E1
:10326000FAFF4FF0A04216E04FF0FF33E0E70023F3
:10327000DEE7374E40F2292332463849364804F01B
:1032800091FE40F22921304604F0E5FFD6E74FF0E9
:10329000A04200E0324A0123B340C2F80835656914
:1032A0006B091FD0012B20D14FF6FF7305F01F02D1
:1032B000D34013F0010F1AD005F01F066D0924D07A
:1032C000012D25D0224D40F22E232A4621492248A5
:1032D00004F068FE40F22E21284604F0BCFF4FF0B7
:1032E000A04316E04FF0FF33E0E70023DEE7184E7F
:1032F00040F2292332461949174804F053FE40F2A0
:103300002921304604F0A7FFD6E74FF0A04300E0A4
:10331000134B06F5E076032243F8262051E70027F9
:1033200059E74FF0FF335EE700235CE7084E40F2B9
:10333000292332460949084804F034FE40F2292185
:10334000304604F088FF55E74FF0A0420BE000BF85
:10335000609700007490000078900000949700003F
:1033600000030050934ABF0006F5E07642F826704D
:103370002368E1682269C3F80C15C3F81425236893
:103380006169A269C3F80815C3F81025F8BDE5689E
:10339000B5F1FF3F33D12569B5F1FF3F6ED16569C6
:1033A000B5F1FF3F40F0A980A569B5F1FF3FDFD03F
:1033B0006B0900F0E180012B40F0E1804FF6FF73D4
:1033C00005F01F02D34013F0010F00F0DA8005F082
:1033D0001F066D0900F0E380012D00F0E380764DBB
:1033E00040F22E232A467549754804F0DBFD40F271
:1033F0002E21284604F02FFF4FF0A043D3E06B09A5
:103400001FD0012B20D14FF6FF7305F01F02D340D0
:1034100013F0010F1AD005F01F066D0924D0012DFD
:1034200025D0654D40F22E232A466449644804F0B5
:10343000B9FD40F22E21284604F00DFF4FF0A043C5
:1034400016E04FF0FF33E0E70023DEE75A4E40F28C
:10345000292332465B495A4804F0A4FD40F2292151
:10346000304604F0F8FED6E74FF0A04300E0514BA1
:1034700006F5E076022243F826208CE76B091FD080
:10348000012B20D14FF6FF7305F01F02D34013F03C
:10349000010F1AD005F01F066D0924D0012D25D08B
:1034A000454D40F22E232A464449454804F07AFD12
:1034B00040F22E21284604F0CEFE4FF0A04316E045
:1034C0004FF0FF33E0E70023DEE73B4E40F22923D5
:1034D00032463C493A4804F065FD40F22921304625
:1034E00004F0B9FED6E74FF0A04300E0314B06F5FB
:1034F000E076022243F8262051E76B091FD0012B0A
:1035000020D14FF6FF7305F01F02D34013F0010FD7
:103510001AD005F01F066D0924D0012D25D0264DA7
:1035200040F22E232A462549254804F03BFD40F26F
:103530002E21284604F08FFE4FF0A04316E04FF0F6
:10354000FF33E0E70023DEE71B4E40F2292332463B
:103550001C491B4804F026FD40F22921304604F0A6
:103560007AFED6E74FF0A04300E0124B06F5E07676
:10357000022243F8262017E74FF0FF3320E700230D
:103580001EE70D4E40F2292332460E490C4804F046
:1035900009FD40F22921304604F05DFE17E74FF0A7
:1035A000A04300E0034B06F5E076022243F8262014
:1035B000DEE600BF0003005060970000749000003A
:1035C000789000009497000021F07F4100F5A870EA
:1035D000014B43F8201070470010014000F5A8701F
:1035E000014B53F820007047001001404FF4803326
:1035F0008340024AC2F84433704700BF00100140C4
:103600004FF480338340024AC2F84833704700BF0A
:1036100000100140014BD3F8040570470010014031
:1036200010B501238340DC43104ABFF35B8F52E89F
:10363000001F01EA040C42E800CEBEF1000FF6D1F3
:10364000BFF35B8F4FF4803202FA00F002F1804248
:1036500002F58052C2F80803BFF35F8FBFF36F8F8C
:103660000B4214BF0120002010BD00BFE00A002063
:1036700070B5044605F0D0F905464FF48033A340F9
:10368000174AD2F80423134205D10026284605F034
:10369000CCF9304670BD0123A340DB43114ABFF390
:1036A0005B8F52E8001F01EA030042E80006002E8B
:1036B000F7D1BFF35B8F59B904F150039B009BB264
:1036C00003F1804303F588331B6813B1012300E045
:1036D00001231E46002BD9D0204605F08EF9D5E7F0
:1036E00000100140DC0A002001B97047012383402B
:1036F000114ABFF35B8F52E8001F194342E8001CD8
:10370000BCF1000FF7D1BFF35B8F4FF480338340E0
:103710000A4AC2F80433BFF35B8F094B1B68BFF33F
:103720005B8F23FA00F010F0010FDED0054B4FF451
:103730000032C3F80021D8E7E00A00200010014061
:10374000DC0A002000E100E0F8B5074614461E46FA
:103750001046194605F05DF90546154B1A68A01A82
:103760001C605E60A5F50013B3F5400F08D300247C
:1037700004F0D6F83846FFF731FFA8420CD0F8BD68
:103780000C4B19680B0A0A06521943F100030A4947
:10379000C1E900230124EBE71CB13846FFF726FFFF
:1037A000EDE74FF400013846FFF70EFFF5E700BFE5
:1037B00090030020E40A00207803002038B50D4B68
:1037C0001B681D0A1C06BFF35F8FFFF723FF03462C
:1037D000201845F10001B3F5801F0AD2064BD3E94A
:1037E0000023994208BF904203D210F1807041F14A
:1037F000000138BDE40A0020780300202DE9F843D9
:10380000064614461D461046194605F002F90746BD
:10381000FFF7D4FFA94208BFA0421ED2B4EB0008B4
:1038200065EB01094FF0807200234B4508BF42450C
:103830002ED3194B03EB0613D3E90223AB4208BF87
:10384000A24218D03946304605F0F4F8394605F062
:10385000D0F8241845F100050DE00123B3400F4ACC
:10386000BFF35B8F52E8001F194342E800100028A5
:10387000F8D1BFF35B8F084B320103EB0616C6E9A4
:10388000024508999950099B73600020BDE8F883B0
:103890006FF01500FAE700BF80030020DC0A00206B
:1038A00030B583B000231E4AC2F80835002B25DD51
:1038B0001B4C0225C4F804531A4B4FF40032C3F8D2
:1038C0008021002201211120FEF734F91120FEF79A
:1038D00013F90123144A13602360144A136000246F
:1038E0000194134B0093134A0023204605F0DDF8A2
:1038F0002846FEF7A9FF204603B030BD0E4A02EB72
:1039000003124FF0FF304FF0FF31C2E902014FF4D4
:1039100080329A400249C1F804230133C6E700BF50
:103920000010014000E100E008100140E00A002022
:1039300049370000FFFF7F00800300202DE9F0479A
:1039400082B00446FFF794FE10B902B0BDE8F087DC
:10395000FFF734FF06460F4605F05EF88246134B2C
:1039600003EB0413D3E902894F4508BF46450BD248
:103970000026504605F059F8002EE6D00095424644
:103980004B462046B047E0E7084A230102EB04110A
:10399000D6584D680020D0504FF0FF324FF0FF3323
:1039A000C1E902232046FFF72BFEE2E78003002057
:1039B00010B50D4BD3F8043313F0020F0AD00B4BA4
:1039C0001B683BB1094B00221A601B68084A136848
:1039D000013313600024002C00DD10BD2046FFF7EA
:1039E000ADFF0134F7E700BF0010014004110140B2
:1039F000E40A002010B582B0B0F1FF3F07D0441EAA
:103A0000002C07DD114B9C4205DD114C03E000F555
:103A10000000F4E70024FFF7D1FE0E4BD3E90023AA
:103A2000801AB0F5000F00D3002404440134B4F52B
:103A3000000F00D3064C0020019007490091121995
:103A400043F1000305F031F802B010BDFEFF7F0026
:103A5000FFFF7F00900300204937000008B5FFF703
:103A6000ADFE024B1B68C01A08BD00BF90030020CA
:103A7000034B1B68082B01D00020704701207047C2
:103A800030010010034B1B68082B01D00020704749
:103A90000120704730010010084B1A6804331B687E
:103AA000082A01D000207047002B04D8DFE803F07B
:103AB0000100012070470020704700BF3001001056
:103AC000084B1A6804331B68082A01D0002070478D
:103AD000002B04D8DFE803F001000120704700202C
:103AE000704700BF30010010084B1A6804331B6890
:103AF000082A01D000207047002B04D8DFE803F02B
:103B00000100012070470020704700BF3001001005
:103B1000084B1A6804331B68082A01D0002070473C
:103B2000002B04D8DFE803F00100012070470020DB
:103B3000704700BF30010010034B1B68082B01D0F9
:103B4000002070470120704730010010064B1B68B1
:103B5000064A1268082B01D000207047042A01D8B9
:103B60000020704701207047300100103401001020
:103B7000024BD3F80034002BFAD0704700E001402C
:103B800008B5034BC3F80405FFF7F2FF08BD00BFFB
:103B900000E00140014B024A1A60704754000020C7
:103BA0000090D00338B5FFF763FF40B14FF080437A
:103BB0000022C3F80C21C3F81021C3F83825FFF701
:103BC00061FF002846D04FF08052D2F80414564BC3
:103BD000C3F82015D2F80814C3F82415D2F80C1431
:103BE000C3F82815D2F81014C3F82C15D2F8141401
:103BF000C3F83015D2F81814C3F83415D2F81C14D1
:103C0000C3F84015D2F82014C3F84415D2F8241490
:103C1000C3F84815D2F82814C3F84C15D2F82C1460
:103C2000C3F85015D2F83014C3F85415D2F8341430
:103C3000C3F86015D2F83814C3F86415D2F83C14F0
:103C4000C3F86815D2F84014C3F86C15D2F84424B0
:103C5000C3F87025FFF720FF10B1344B344A1A60C7
:103C6000FFF72EFF18B1334BFB22C3F81825FFF7DF
:103C70003BFF48B130490B6823F00F032F4A12680D
:103C800002F00F0213430B60FFF742FF18B12C4BF9
:103C90004FF400721A60FFF74FFF60B14FF080439E
:103CA000D3F8003413F0010F05D04FF080436FF0CC
:103CB0000102C3F80024FFF749FF38B14FF0102389
:103CC000D3F808224FF08043C3F858254FF0102353
:103CD000D3F80032002B08DB4FF01023D3F8043266
:103CE000002B02DBFFF756FF38BD0120FFF748FF2E
:103CF0004FF010241225C4F80052FFF739FFC4F822
:103D00000452FFF735FF0020FFF73AFFBFF34F8F54
:103D10000C49CA6802F4E0620B4B1343CB60BFF35B
:103D20004F8F00BFFDE700BF00C000408C56004031
:103D30004881030000F00040E40E004058020010EB
:103D40004096024000ED00E00400FA0530B404683B
:103D5000B4FA84F3D3F11F0315D401229A4024EA64
:103D60000202BFF35B8F50E8005FA54204D140E838
:103D7000002CBCF1000FF6D1BFF35B8FE7D10B70C5
:103D8000024830BC70470248FBE700BF0000AD0BA3
:103D90000200AD0B10B403680C4623FA01F111F0D8
:103DA000010F14D102680123A3401343BFF35B8FBB
:103DB00050E8001F914204D140E8003CBCF1000FE4
:103DC000F6D1BFF35B8FEDD1024810BC70470248BB
:103DD000FBE700BF0000AD0B0400AD0B38B5044697
:103DE00050B10C4B1B799BB90A4B1C6001221A7114
:103DF00000225A71084838BD084DBD232A4608499B
:103E0000084804F0CFF8BD21284604F024FAE8E77A
:103E10000548F0E7E80A00200000AD0B70980000AC
:103E2000B0980000789000000C00AD0B10B50B4B63
:103E30001B7923B10020FDF76FFE60B110BD084C67
:103E4000D62322460749084804F0ACF8D62120467C
:103E500004F001FAEEE7FDF74FFEEFE7E80A002075
:103E600070980000C09800007890000038B50446B3
:103E70002A4B1B7983B1ECB1012C44D0284C4FF470
:103E8000A27322462749284804F08CF84FF4A27107
:103E9000204604F0E0F92DE0214D4FF489732A46C5
:103EA0002249214804F07EF84FF48971284604F035
:103EB000D2F9E0E74FF08042D2F8183403F0030360
:103EC000D2F8182412F4803F15D100220AB1012B38
:103ED00013D04FF080430022C3F81825144B002262
:103EE0001A601B684FF080430222C3F80423083392
:103EF00001221A6038BD0122E8E74FF08043012219
:103F0000C3F81825EAE70B4B00221A601B684FF034
:103F100080430122C3F804231A60EBE7E80A00207B
:103F2000709800007490000078900000C098000025
:103F3000040100400001004070B582B004465E4BB1
:103F40001B7983B1ECB1012C2DD05C4C40F267138E
:103F500022465B495B4804F025F840F26711204691
:103F600004F079F9A1E0554D40F24B132A46564929
:103F7000544804F017F840F24B11284604F06BF94E
:103F8000E0E74FF080430222C3F8082303F5827371
:103F900000221A601B684D4B01221A60012C0FD0C1
:103FA00042F210755FE001234FF08042C2F80833FF
:103FB00002F58072002111601268454A1360EDE736
:103FC00001238DF8073042F2107518E04FF080425F
:103FD000D2F8183403F00303CDF80730D2F81834C0
:103FE00013F4803F2DD10023002B5CD09DF80730C7
:103FF000012B58D1012004F086FD013D53D0002C47
:10400000E4D0012C0ED0334E4FF44F7332462C497E
:104010002C4803F0C7FF4FF44F71304604F01BF9F2
:104020000023E1E74FF08042D2F80C3403F00103A3
:104030008DF80730D2F80C3413F4803F03D10023FD
:10404000D2E70123D0E70123CEE74FF08043D3F836
:10405000183413F4803F22D1002323B3012004F04D
:1040600052FD013D1FD0002CEFD0012C0ED0194E77
:104070004FF44F7332461249124803F093FF4FF446
:104080004F71304604F0E7F80023E6E74FF0804335
:10409000D3F80C3413F4803F03D10023DDE7012370
:1040A000DBE70123D9E7012C01D002B070BD024B40
:1040B00000225A71F9E700BFE80A0020709800005A
:1040C0007490000078900000C09800000C00004040
:1040D00004000040E098000008B51B4B1B6883B14A
:1040E000194B00221A601B684FF080430122C3F86D
:1040F0000823164B5B7923B9144B5A711B680020B7
:104100009847134B1B6803B908BD114B00221A6076
:104110001B684FF08043D3F81824D3F8183412F0FA
:10412000030F07D101234FF08042C2F8183508323F
:104130001360E9E74FF080430222C3F80823034BE2
:104140001B6801209847DFE700010040E80A0020D3
:10415000040100400830034B33F8100000F0010068
:10416000704700BF580000200830034B33F81000A0
:10417000C0F34010704700BF580000200830044BC7
:1041800033F8100010F01C0018BF0120704700BF6A
:10419000580000200830034B33F81000C0F34000F3
:1041A000704700BF580000200830024B33F8100061
:1041B000400B704758000020002204E04FF0FF330E
:1041C00083420FD001322F2A0AD802F10803064990
:1041D00031F8133013F4807FF0D0C3F34323EFE7BB
:1041E000002070470120704758000020002313B1C1
:1041F0004FF0FF307047074A52F83320824201D017
:104200000133F4E7034A02EBC30252688A42F7D152
:1042100018467047580000200830064B33F810004D
:1042200010F4807F04D0C0F3432003EBC00070473C
:10423000002070475800002070B504460D46FFF777
:10424000EBFF20B10668426829462046B047044B80
:104250009B6823B1024AD26829462046984770BD20
:104260005800002010B483B00446124B93E80300BA
:1042700002AB03E90300204600230BE002AA02EB95
:10428000830252F8082CD2F8201540F8041BC2F81B
:1042900020150133012BF1D90023012B04D854F848
:1042A00023202AB90133F8E7002003B010BC70477F
:1042B0000120FAE7C08F000000F10802164B33F826
:1042C000123013F4807F26D010B5C3F34324104678
:1042D00023F4F853104A22F810302046FFF76CFF01
:1042E00000B110BD0C48002340F834302146743032
:1042F000FFF750FD094B9842F3D0094C4FF49973E6
:1043000022460849084803F04DFE4FF499712046B3
:1043100003F0A1FFE5E77047580000200000AD0B57
:1043200014990000549900007890000010B50446DC
:10433000FFF71AFF40B12046FFF736FF00F5A270E5
:10434000064B002243F820202046FFF7B5FF083433
:10435000034B002223F8142010BD00BF0060004072
:104360005800002070B582B006460C461546FFF78F
:10437000A3FF24B329462046FFF738FF031E13DBB3
:10438000104A42F8334002EBC3014D605B029BB21E
:1043900006F1080032F810100B4343F4807322F842
:1043A0001030094802B070BD0DF107010748FFF752
:1043B000CDFC054B9842F5D19DF80730E0E7024867
:1043C000F0E700BF580000200000AD0BCC0000203B
:1043D00038B50446CCB194FAA4F3B3FA83F30122BE
:1043E0009A4024EA0204094A03F5A27352F82350C2
:1043F000C5F3052552F82300C0F3014004F09DFBEE
:1044000001462846FFF718FFE4E738BD006000408A
:104410002DE9F84304460D461646084604F08FFB86
:1044200060BB022E00F0F5804FF00208630900F037
:10443000F380012B40F0F3804FF6FF7304F01F026E
:10444000D34013F0010F00F0EC8004F01F07630964
:1044500000F0F580012B00F0F580DFF82C9240F29F
:104460002E234A468649874803F09CFD40F22E21C0
:10447000484603F0F0FE4FF0A041E4E02946204614
:10448000FFF7DAFE63091FD0012B20D14FF6FF732F
:1044900004F01F02D34013F0010F1AD004F01F05DF
:1044A000630924D0012B25D0774F40F22E233A46C2
:1044B0007349744803F076FD40F22E21384603F02C
:1044C000CAFE4FF0A04316E04FF0FF33E0E70023B1
:1044D000DEE76D4D40F229232A466C49694803F016
:1044E00061FD40F22921284603F0B5FED6E74FF0E2
:1044F000A04300E0664B05F5E07553F82530C3F3A3
:1045000001439E4240F0AF8063091FD0012B20D1B0
:104510004FF6FF7304F01F02D34013F0010F1AD0BF
:1045200004F01F05630924D0012B25D0564F40F21B
:104530002E233A465249534803F034FD40F22E21CF
:10454000384603F088FE4FF0A04116E04FF0FF33ED
:10455000E0E70023DEE74C4D40F229232A464B4991
:10456000484803F01FFD40F22921284603F073FE5E
:10457000D6E74FF0A04100E0454905F5E07351F85A
:10458000232022F4403241F8232063091FD0012B5D
:1045900020D14FF6FF7304F01F02D34013F0010F38
:1045A0001AD004F01F05640924D0012C25D0364C04
:1045B00040F22E2322463249324803F0F3FC40F207
:1045C0002E21204603F047FE4FF0A04116E04FF0A9
:1045D000FF33E0E70023DEE72B4D40F229232A4694
:1045E0002A49284803F0DEFC40F22921284603F03E
:1045F00032FED6E74FF0A04100E0254905F5E07313
:1046000051F8232022F4403242EA064641F8236062
:1046100029E04FF0030809E74FF0FF330EE70023CE
:104620000CE7194F40F229233A461849154803F080
:10463000B9FC40F22921384603F00DFE05E74FF0A2
:10464000A04100E0124907F5E07251F8223023F44E
:10465000403343EA084341F82230032D07D0022EAD
:1046600003D0032E08D0BDE8F883012DF9D12946E7
:104670002046FFF7E1FDF6E7022DF4D1F7E700BF92
:1046800074900000789000006097000094970000FC
:10469000000300502DE9F04184B0644A6B4692E873
:1046A000030083E80300002302A80BE004AA02EB46
:1046B000830252F8102CD2F8201540F8041BC2F8DF
:1046C00020150133012BF1D9ABE04FF0FF337FE030
:1046D00000237DE0564F40F229233A46554956487B
:1046E00003F060FC40F22921384603F0B4FD76E087
:1046F0004FF0A04300E0514B07F5E07753F8272037
:10470000C2F3014231462046FFF782FE63091FD003
:10471000012B20D14FF6FF7304F01F02D34013F09A
:10472000010F1AD004F01F06640924D0012C25D0F3
:104730003F4C40F22E23224641493F4803F032FCD1
:1047400040F22E21204603F086FD4FF0A04216E0F5
:104750004FF0FF33E0E70023DEE7354E40F2292338
:1047600032463449344803F01DFC40F229213046DA
:1047700003F071FDD6E74FF0A04200E02F4A01237D
:10478000B340C2F8203504AB03EB850353F8084C63
:10479000002C3BD094FAA4F4B4FA84F404EB45144E
:1047A00004F10802274B33F81260C6F38206E108D1
:1047B00004F0070202A8012303FA02F2435C23EA91
:1047C00002034354630980D0012B81D14FF6FF735C
:1047D00004F01F02D34013F0010F3FF47BAF04F04D
:1047E0001F07630984D0012B85D0DFF8448040F295
:1047F0002E2342461249104803F0D4FB40F22E21EA
:10480000404603F028FD4FF0A04375E70135012D28
:10481000B9D90D4B00221A601B6802A8FFF722FDD0
:1048200008B10025F3E704B0BDE8F081C08F0000B7
:1048300060970000949700007890000000030050FB
:1048400074900000580000207C6100402DE9F8437E
:10485000044615461E46002962D0884604F057F9E2
:10486000002840F0CB80630920D0012B21D14FF6E6
:10487000FF7304F01F02D34013F0010F1BD004F0AC
:104880001F07630925D0012B26D0DFF8889140F25D
:104890002E234A465D495E4803F084FB40F22E21F8
:1048A000484603F0D8FC4FF0A04116E04FF0FF332C
:1048B000DFE70023DDE7574F40F229233A46564908
:1048C000534803F06FFB40F22921384603F0C3FC44
:1048D000D5E74FF0A04100E0504907F5E07351F8EB
:1048E0002330B8F1000F3CD00C2242F0030223EA3F
:1048F0000203B8F1000F36D098F80020920013435D
:1049000007F5E07741F82730454A04F1080132F80D
:10491000113023F002039BB243F0010322F811305F
:10492000B5B195F80080D5F804902046FFF732FC29
:10493000D8B1B9F1000F63D1394B04F1080233F853
:10494000120020F01C0080B240EA880023F8120018
:10495000002E59D0726831682046FFF703FDBDE88C
:10496000F8830022C1E70022C9E72D4B04F10802B9
:1049700033F8127027F02007FF04FF0C23F81270A1
:10498000B9F1000FD8D0B8F1030F3BD86B681D7890
:10499000B8F1000F06D105F5A275224B002243F8AD
:1049A0002520C9E7404604F0C9F81E4B05F5A27260
:1049B00053F8221021F0030143F8221053F822107B
:1049C00021F44F3121F4407143F8221053F822C0F2
:1049D000210201F47C51000400F4403001434CEA10
:1049E000010143F822106D03ADB204F108032F4317
:1049F00047F020070A4A22F813709DE70A48AEE7FD
:104A00000948ACE70848AAE70848A8E774900000FE
:104A10007890000060970000949700000003005019
:104A200058000020006000400400AD0B0000AD0BFA
:104A30002DE9F04704461546002900F086800F4610
:104A400004F074F828B12046FFF78EFB002840F0F0
:104A5000CC802046FFF792FB18B17B78012B00F049
:104A6000C68007F1010907F10208630920D0012B74
:104A700021D14FF6FF7304F01F02D34013F0010F52
:104A80001BD004F01F06630925D0012B26D0DFF8C8
:104A900078A140F22E23524659495A4803F082FA2F
:104AA00040F22E21504603F0D6FB4FF0A04216E014
:104AB0004FF0FF33DFE70023DDE7534E40F22923B9
:104AC000324652494F4803F06DFA40F229213046F0
:104AD00003F0C1FBD5E74FF0A04200E04C4A06F5D9
:104AE000E07352F82310B9F1000F72D0022343F0A3
:104AF0000103B8F1000F6ED00C200343002F6CD0DF
:104B00004FF4E060034321EA0301B9F1000F66D0DE
:104B10007B785B0043F00103B8F1000F61D0B878F7
:104B200080000343002F5ED03878000203430B431C
:104B300006F5E07642F82630364A04F1080132F8EC
:104B4000113043F0030322F81130002D51D02046DC
:104B500003F0ECFF00284FD12A7802F5A2712E4B0A
:104B600043F821002B4904F1080031F8103023F0FC
:104B70002003DB04DB0C21F81030697800293DD0DC
:104B800095F802C0244D02F5A27655F8260020F4CF
:104B9000991020F4F85045F8260055F826702002A8
:104BA00000F47C50090401F4403101434FEA0C50F9
:104BB00000F480100143394345F82610520392B2A5
:104BC00008341A4342F02002124B23F814201348F1
:104BD00010E000238BE700208FE7002092E70023FE
:104BE00098E700209DE70020A0E70D4802E00C4870
:104BF00000E00A48BDE8F0870948FBE70748F9E705
:104C00007490000078900000609700009497000076
:104C10000003005058000020006000400000AD0B71
:104C20000400AD0B014B9860D9607047580000201C
:104C300070B504460D4659B12046FFF795FAA8B164
:104C400008340B4B33F814305B0B2B70094870BDE4
:104C5000094E40F2352332460849094803F0A2F9CB
:104C600040F23521304603F0F6FAE5E70548EEE775
:104C7000580000200000AD0B149900006899000056
:104C8000789000000400AD0B0F4B93F878300BB117
:104C90000E48704710B50C4C6022002104F1100042
:104CA00003F0E4FB0620FCF727FF094B00221A6003
:104CB0001B68084B4FF00042C3F80423012384F81B
:104CC00078306367044810BD580000200500AD0B24
:104CD0007C610040006000400000AD0B034B93F886
:104CE0007800003818BF0120704700BF580000202E
:104CF00008B501460148FFF74DF808BDC80000207F
:104D000008B501460148FFF721F808BDC80000209A
:104D100070B504460D46FFF731FAB8B12046FFF7EB
:104D200023FA18B1204603F001FFE8B9002D4CD05A
:104D300004F10803704A32F81330C3F38203042BE2
:104D400000F09280052B4ED102268EE06B4E40F291
:104D5000DF3332466A496B4803F024F940F2DF3111
:104D6000304603F078FAD9E72046FFF71DFA0446EB
:104D700007281CD8A30003F580739BB203F180437E
:104D800003F5C04300221A601B685F4A04F5A27154
:104D900052F8213043F0010342F82130002D00F099
:104DA000A980012000FA04F4C2F80443A2E0574E9F
:104DB0004FF4237332465649524803F0F3F84FF448
:104DC0002371304603F047FAD4E74C4D40F2EE33FE
:104DD0002A4650494B4803F0E5F840F2EE312846A8
:104DE00003F039FAA4E763091FD0012B20D14FF655
:104DF000FF7304F01F02D34013F0010F1AD004F028
:104E00001F05630924D0012B25D0434E40F22E23E9
:104E1000324642493B4803F0C5F840F22E21304665
:104E200003F019FA4FF0A04316E04FF0FF33E0E72C
:104E30000023DEE7384D40F229232A46384931481D
:104E400003F0B0F840F22921284603F004FAD6E72F
:104E50004FF0A04300E0334BD3F81035EB4013F094
:104E6000010F24D0032600E00326630921D0012B83
:104E700022D14FF6FF7304F01F02D34013F0010F4D
:104E80001CD004F01F05640926D0012C27D0224C29
:104E900040F22E23224621491A4803F083F840F2BB
:104EA0002E21204603F0D7F94FF0A04118E002264A
:104EB000DBE74FF0FF33DEE70023DCE7164D40F27F
:104EC00029232A4616490F4803F06CF840F229219D
:104ED000284603F0C0F9D4E74FF0A04100E01149A3
:104EE00005F5E07251F8223023F4403343EA0643DB
:104EF00041F8223070BD00BF580000201499000016
:104F0000B89900007890000000600040749900009B
:104F1000AC990000D09900006097000074900000E8
:104F2000949700000003005038B50446FFF71CF9C1
:104F3000A0B1204603F0FAFD80B12046FFF734F916
:104F400001228240264BC3F8082300F5A27053F8D3
:104F5000202022F0030243F8202040E063091FD004
:104F6000012B20D14FF6FF7304F01F02D34013F042
:104F7000010F1AD004F01F05640924D0012C25D09C
:104F8000184C40F22E2322461749184803F00AF81D
:104F900040F22E21204603F05EF94FF0A04116E0CA
:104FA0004FF0FF33E0E70023DEE70E4D40F2292308
:104FB0002A460F490D4802F0F5FF40F22921284604
:104FC00003F049F9D6E74FF0A04100E0094905F5A3
:104FD000E07351F8232022F4403241F8232038BDF9
:104FE000006000406097000074900000789000001E
:104FF000949700000003005038B50446FFF7AAF864
:1050000008B9244838BD2046FFF78EFF2046FFF739
:105010008DF963091FD0012B20D14FF6FF7304F0E7
:105020001F02D34013F0010F1AD004F01F056409CA
:1050300024D0012C25D0184C40F22E2322461749AB
:10504000174802F0AFFF40F22E21204603F003F98B
:105050004FF0A04316E04FF0FF33E0E70023DEE718
:105060000D4D40F229232A460E490D4802F09AFFC1
:1050700040F22921284603F0EEF8D6E74FF0A0438E
:1050800000E0094B05F5E075022243F825200748AA
:10509000B8E700BF0400AD0B6097000074900000FB
:1050A0007890000094970000000300500000AD0BC2
:1050B00038B501204FF4807300210D4603E0400015
:1050C00004339BB20131072914D803F1804202F561
:1050D000C0421268002AF2D00B4AD2F804231042D0
:1050E000EDD003F1804202F5C04200241460126842
:1050F0000543E4E7054B1B681BB92846FFF768F931
:1051000038BDFFF7C7FAF8E7006000407C61004057
:1051100008B501460148FEF719FE08BDD40000207D
:1051200010B5144C032323616361134AA261134B2E
:10513000E3614FF4806323620023A3626362E3624E
:1051400022660F4A62661022A2662367E3666367DF
:105150000C49E01D03F031F9BFF35F8F0A49204687
:1051600003F02BF9BFF35F8F2023A371BFF35F8F91
:1051700010BD00BFF00A0020DC990000A80B002041
:10518000980B0020E8990000EC990000034B044ABA
:10519000934201D21833FAE7704700BF608D0000D8
:1051A000D88D000070B50646114B53F8204009E039
:1051B000404217E0EB681870EA68537843F0010347
:1051C00053700834731C0A4A52F82330A3420DD995
:1051D0006568236828469847002DF2D00028EBD058
:1051E0000028E5DBFF28E5DDFF20E3E770BD00BF19
:1051F000F4990000F8B504460E464FF02003EFF393
:10520000118783F31288BFF36F8F02F071F80546A0
:105210003146204603F062FC042C07D087F3118846
:10522000BFF36F8F2846FCF7C7FFF8BD074C8F23ED
:1052300022460749074802F0B5FE074802F0B2FED1
:105240008F21204603F007F8E8E700BF0C9A000022
:10525000309A000078900000509A0000F0B589B0B4
:105260000446154BB02505FB0035144B4FF4B076C2
:1052700006FB003606AF0346114A0821384602F005
:105280009FFE04EB44040F4800EBC4040597012380
:1052900004930F23039300230293019300940A4B7A
:1052A0004FF4A0723146284600F06AFA6B7B23F077
:1052B00004036B7309B0F0BD98030020401A00206E
:1052C000889A0000A80F0020095A000070B586B027
:1052D00001F046FE1B4D1C4BDD611C4B0593012369
:1052E000049300240394029401940094184B4FF407
:1052F00080621849284600F043FA06466B7B23F08B
:1053000004036B73284601F0B1F9002C02DD30462E
:1053100006B070BD2046FFF7A1FF0F4BB02202FB85
:10532000043204EB4401084B03EBC103DA601C7543
:1053300004EB8411094A02EB411202F502625A6041
:105340000134E2E748040020A80F0020949A0000EE
:10535000615300002016002098030020A01B0020AD
:1053600008B50A4B01221A700220FFF71BFF02F05A
:10537000F9FB0320FFF716FF00F0C8FA03F0B7FCB3
:10538000034A137B23F00103137308BD111000209F
:105390004804002008B50146014A0248FCF7C8FC51
:1053A000615300004804002008B50348034A121A5C
:1053B000002103F05BF808BD18020020D011002086
:1053C00000B5ADB01C4B83F308881C4C636943F4F3
:1053D00000736361E02384F822300025E5772576A9
:1053E0006576A57684F82050636A43F4E02363620F
:1053F00084F82350FCF750FEFCF760FB4FF0FF33BE
:10540000A362E362FCF796FFFCF7ECFE01248DF843
:105410000D408DF80C4026952795094BC3F808D010
:10542000FFF7B4FE2846FFF7BDFE2046FFF7BAFEA1
:10543000FFF74CFFFFF7AEFFC023002000ED00E0B8
:10544000A80F002070B5104C002516E00F4E3C232D
:1054500032460F490F4802F0A5FD0F4802F0A2FDA9
:105460003C21304602F0F7FE0C4B9C4209D220460C
:1054700003F080FB051E04DB2034084B9C42F3D96B
:10548000E4E7284670BD00BFB40100209C9A0000EC
:10549000C49A000078900000E49A0000B401002053
:1054A0002DE9F04782B004460E469046994600F139
:1054B00008054FF02003EFF3118783F31288BFF341
:1054C0006F8F284600F0DAF8C0B1284600F0F6F8F1
:1054D000A36923B33360A3691B68A361E369013344
:1054E000E3610024284600F0D9F878B387F31188E7
:1054F000BFF36F8F204602B0BDE8F087DFF87CA0D5
:105500008123524619491A4802F04CFD2946194890
:1055100002F048FD8121504602F09DFED5E758EA91
:10552000090304D1002333606FF00B04DAE7CDE9FF
:10553000008922463946284601F070FA04460028C0
:10554000D8D10D4B9B685B693360D3E70B4EAC231E
:1055500032460B49064802F025FD2946094802F06B
:1055600021FDAC21304602F076FEBFE7E891000055
:105570007890000000920000A80F00209091000099
:10558000B8910000D09100002DE9F04104460D468D
:1055900000F108064FF02003EFF3118783F3128820
:1055A000BFF36F8F304600F069F8B0B1304600F0BD
:1055B00085F8A36913B32B68A2691A602B68A361ED
:1055C000E369013BE361304600F068F838B387F3E4
:1055D0001188BFF36F8FBDE8F081DFF87080812301
:1055E00042461749174802F0DDFC3146164802F0E2
:1055F000D9FC8121404602F02EFED7E7204601F07B
:105600004BFC0028D7D02A680021C0F8AC104261BA
:1056100001F02CF83946304600F0A6FDDBE70B4CD4
:10562000AC2322460A49074802F0BCFC314609482F
:1056300002F0B8FCAC21204602F00DFEC7E700BF27
:10564000E891000078900000009200009091000026
:10565000B8910000D091000038B514461D4654EAB8
:10566000050302D103F0C4FA38BD2B4602491830B5
:1056700001F048FFF8E700BFC967000003683BB1CD
:1056800003F00303044A127D934203D001207047C4
:105690000120704700207047A80F00200168064ACB
:1056A000137D92681343994203D1002303600120C4
:1056B00070470020704700BFA80F0020024A137DEA
:1056C0009268134303607047A80F002070B504462A
:1056D0004FF02003EFF3118583F31288BFF36F8F30
:1056E0001F48FFF7CBFF50B11D48FFF7E7FF1D4BE9
:1056F0009B6AA34214D11A6F1A4B9A6217E01A4E92
:105700008123324619491A4802F04CFC14491948C1
:1057100002F048FC8121304602F09DFDE4E713468B
:1057200013B11A6FA242FAD10BB1226F1A670C485B
:10573000FFF7B4FF20B185F31188BFF36F8F70BD01
:10574000094CAC2322460C49094802F02BFC0449C1
:105750000A4802F027FCAC21204602F07CFDEAE773
:10576000D40F0020A80F002090910000E8910000C5
:105770007890000000920000B8910000D0910000E5
:105780002DE9F04F85B004460E4690461D46DDF8E3
:1057900038B0DDF83CA0119F0F2F5ED007F1100349
:1057A0001E2B5ED804F15803A365E365129B042207
:1057B0003946204603F020FA42463146204603F09F
:1057C000FFF90746109B0293CDF804A0CDF800B076
:1057D0002B46024631462046FCF75AFA0023636501
:1057E0002566C4F864B0C4F868A0109BE3664FF067
:1057F0002003EFF3118683F31288BFF36F8F3748CE
:10580000FFF73CFF002842D0344D2846FFF756FFF3
:10581000334B9A6A22679C622846FFF73FFF0028B5
:1058200045D086F31188BFF36F8F139B002B4ED0AA
:105830001F22194604F1740002F0C8FD002384F809
:105840009330274B9B68002B45D0D3F8A430C4F885
:10585000A430384605B0BDE8F08F224B9D429DD163
:10586000A0E7DFF8A49040F2FF134A461E491F4804
:1058700002F098FB6FF00F030E2239461C4802F02D
:1058800091FB40F2FF11484602F0E5FC8AE7194D12
:1058900081232A461849154802F084FB0F4917480E
:1058A00002F080FB8121284602F0D5FCACE7114DC7
:1058B000AC232A4612490D4802F074FB07491148EF
:1058C00002F070FBAC21284602F0C5FCA9E70023DA
:1058D00084F87430B5E7C4F8A430BAE7D40F0020D8
:1058E000A80F0020095A00005C9B0000789000007F
:1058F000DC9B000090910000E89100000092000005
:10590000B8910000D0910000049B00002DE9704385
:1059100086B0374C27E0374D40F2CF232A46364930
:10592000364802F03FFB364802F03CFB40F2CF2104
:10593000284602F090FC334B9C4218D2E36A059350
:10594000236A0493E3690393A36902936369019350
:1059500023690093E368A26861682068FFF710FF7D
:1059600023685C653034274B9C42E4D9D3E700F0D0
:1059700049FC1F4C1BE0266823EAE3734FEAE379F6
:105980004FEAC93141EA5341D80340F2E7354FF4B9
:105990007A72002340194FF0000545EB0101FAF738
:1059A000AFFB02460B463046FFF756FE3034154B30
:1059B0009C4207D8134B9C4215D2636AB3F1FF3F58
:1059C000F4D0D8E70B4D40F2EE232A460A490B48A3
:1059D00002F0E8FA0A4802F0E5FA40F2EE21284621
:1059E00002F039FCE6E701F075F906B0BDE8708316
:1059F00054010020049B0000109C000078900000DF
:105A0000E49A0000B401002008B5124B9B6893F99A
:105A10000E30002B0DDA104C272322460F49104878
:105A200002F0C0FA2721204602F015FC01E0FCF745
:105A30004BF84FF02002EFF3118382F31288BFF38B
:105A40006F8F01F0B5FE034B9861FBF76DFE0028E8
:105A5000EFD1ECE7A80F0020409C0000649C000000
:105A6000789000002DE9F04383B0044616461D46A9
:105A7000EFF3058100292BD14FF02003EFF31187BD
:105A800083F31288BFF36F8F7B48FFF7F7FD002881
:105A90002DD07948FFF712FEE168002938D100299E
:105AA0007DD1764B9B6893F90E3023610131E16023
:105AB000724B9B68A3607048FFF7F0FD002870D020
:105AC00087F31188BFF36F8F002003B0BDE8F08328
:105AD0006B4F65233A466B496B4802F063FA6B489B
