:10000000E013002071190000B55500002919000007
:10001000291900002919000029190000000000001A
:10002000000000000000000000000000B515000006
:1000300029190000000000005D15000029190000CA
:10004000A1160000A1160000A1160000A1160000D4
:10005000A1160000A1160000A1160000A1160000C4
:10006000A1160000A1160000A1160000A1160000B4
:10007000A1160000A1160000A1160000A1160000A4
:10008000A1160000A1160000A1160000A116000094
:10009000A1160000A1160000A1160000A116000084
:1000A000A1160000A1160000A1160000A116000074
:1000B000A1160000A1160000A1160000A116000064
:1000C000A1160000A1160000A1160000A116000054
:1000D000A1160000A1160000A1160000A116000044
:1000E000A1160000A1160000A1160000A116000034
:1000F000A1160000A1160000A1160000A116000024
:1001000053B94AB9002908BF00281CBF4FF0FF317E
:100110004FF0FF3000F06CB9ADF1080C6DE904CE82
:1001200000F006F8DDF804E0DDE9022304B07047D2
:100130002DE9F047089E0D4604468E46002B40F000
:1001400082808A42174646D9B2FA82F24AB1C2F197
:10015000200105FA02F320FA01F1974041EA030E6B
:1001600094404FEA1748230CBEFBF8FCB9B208FBD9
:100170001CEE43EA0E430CFB01F098420AD9FB182F
:100180000CF1FF3580F01681984240F21381ACF1FA
:10019000020C3B441B1AA4B2B3FBF8F008FB10336B
:1001A00044EA034400FB01F1A14209D93C1900F1E2
:1001B000FF3380F00181A14240F2FE8002383C44CE
:1001C000641A40EA0C4000211EB1D4400023C6E965
:1001D0000043BDE8F08702B9FFDEB2FA82F2002ADE
:1001E0004FD1CB1B4FEA174E1FFA87F80121B3FB03
:1001F000FEFC250C0EFB1C3345EA034508FB0CF303
:10020000AB4207D97D190CF1FF3002D2AB4200F2AC
:10021000E7808446ED1AA3B2B5FBFEF00EFB105545
:1002200043EA054408FB00F8A04507D93C1900F152
:10023000FF3302D2A04500F2D7801846A4EB080491
:1002400040EA0C40C0E78B4208D9002E00F0AF8096
:100250000021C6E900050846BDE8F087B3FA83F13E
:1002600000294BD1AB4202D3824200F2B780841AFC
:1002700065EB030301209E46002EAAD0C6E9004E7E
:10028000A7E7C2F1200C01FA02F3974020FA0CF024
:100290004FEA174E21FA0CFC1843BCFBFEF1050C8B
:1002A0000EFB11CC1FFA87F845EA0C4501FB08F359
:1002B000AB4204FA02F409D97D1901F1FF3C80F048
:1002C0008B80AB4240F2888002393D44EB1A85B204
:1002D000B3FBFEF00EFB103345EA034500FB08F3C9
:1002E000AB4207D97D1900F1FF3C71D2AB426FD907
:1002F00002383D44EB1A40EA014178E7C1F1200C95
:100300008B4022FA0CF71F4320FA0CF405FA01F394
:100310004FEA174E25FA0CF51C43230CB5FBFEF9EA
:100320001FFA87F80EFB195543EA054509FB08FA41
:10033000AA4502FA01F200FA01F308D97D1909F180
:10034000FF3047D2AA4545D9A9F102093D44A5EBA2
:100350000A05A4B2B5FBFEF00EFB105544EA0544B5
:1003600000FB08F8A04507D93C1900F1FF352DD254
:10037000A0452BD902383C4440EA0940A4EB0804CC
:10038000A0FB02894C45C6464D4619D316D05EB136
:10039000B3EB0E0264EB050404FA0CFCCA404CEA11
:1003A0000202CC40C6E900240021BDE8F0873146B6
:1003B00030460EE7AC46EDE6184601E74345E6D287
:1003C000B8EB020E69EB07050138E0E72846D3E7F2
:1003D00060468FE78146BAE7614677E708464BE714
:1003E000ACF1020C3D4415E702383C4426E700BF5F
:1003F000704700BF38B5244803F080FB002841D087
:10040000044681680269136843F4005313600B6863
:1004100040F201620D219847002833DBA168226970
:10042000136843F4006313600B6840F211120B2150
:1004300020469847002825DBA3682269126812F439
:10044000006F1CD14FF45C229D6902F4C02302F4BA
:10045000A0320B212046A8470C4B0D4A5A604FF49E
:1004600000629A60A368DB691BB10122074920463C
:1004700098474FF09670002104F056FAF9E74FF4D0
:100480003C22E1E738BD00BFF866000028030020E9
:10049000D750000008B50B6801330B60014B1B6897
:1004A000984708BD00000020014B1860704700BF4E
:1004B0000000002000B583B002460B4600210191E8
:1004C00001A9034800F0C8F803B05DF804FB00BFC1
:1004D0009504000010B584B00446019002910021FB
:1004E000039101A9054800F0B7F8039B029A9342D3
:1004F00001DA0022E254039804B010BD315100002B
:100500002DE9F04383B0044608461546238B13F0CB
:10051000080F05D103F0070600230093019369E05B
:10052000012909D043F02003238385F31188BFF309
:100530006F8F03B0BDE8F08343F010032383F4E72B
:10054000204604F050FE57E0D4F814904A4669461D
:10055000204604F061FE00275AE023691F68062147
:10056000204604F019FE4FF0000951E023695F684E
:100570000421204604F010FE4FF0000948E02369F2
:100580009F680521204604F007FE4FF000093FE078
:10059000002246E0002244E043F00803238385F371
:1005A0001188BFF36F8F002944D1009B2BB14B46BC
:1005B00042466946204604F0A5FE17B1254920466B
:1005C000B8474FF02003EFF3118583F31288BFF390
:1005D0006F8F238B23F008032383238B13F0100FDB
:1005E0002ED023F0100323830120268B06F007066C
:1005F00000289AD00228A3D0002896D00128A3D0A2
:100600000328AAD00428B1D00528B8D00027B946BD
:10061000238B03F00708B045BAD0A268002AB9D0EE
:1006200001221146002AB7D1009A002AB4D1002F26
:10063000B2D1D2E74A464146204604F0B5FDB4E7C0
:1006400013F0200F04D023F0200323830220CCE7F3
:100650000020CAE7335300002DE9F04F93B006465F
:100660000D469246039300249AF80000002800F0FB
:10067000D684252808D00AF1010A2946B047002867
:10068000C0F2CE840134EFE70023069307930B9367
:10069000089309930A930AF101089AF80130252B6F
:1006A00001D001272CE00AF102088DF82330A8E1DF
:1006B0009DF8203043F004038DF82030FFB108F19D
:1006C00001081CE09DF8203043F008038DF820302D
:1006D000F4E79DF8203043F010038DF82030EDE76B
:1006E0009DF8203043F020038DF82030E6E79DF898
:1006F000203043F040038DF82030DFE700274FB370
:1007000098F80030203B102BF8D801A252F823F0C3
:10071000D3060000FD060000FD060000E106000013
:10072000FD060000FD060000FD060000FD060000BD
:10073000FD060000FD060000FD060000C5060000E5
:10074000FD060000B1060000FD060000FD060000E9
:10075000EF0600009DF8203003F04403442B6DD0D9
:10076000CDF814809DF8203043F080038DF82030C0
:1007700098F800302A2B68D005A804F06AFE059B83
:10078000984512D09DF8203043F080038DF820303A
:100790000990C3F34003002860DB002213439DF857
:1007A000202063F341028DF82020059B05931B78E0
:1007B0002E2B14BF002301239DF8212063F3410257
:1007C0008DF82120002B4BD0059B5A1C05925B789D
:1007D0002A2B48D005A804F03CFE0A909DF8203052
:1007E000C3F34003002847DB002213439DF8202079
:1007F00063F341028DF82020DDF8148098F8003072
:100800004C3B2E2B00F2DC80DFE803F0CADADADAA8
:10081000DADADADADADADADADADADADADADADADA38
:10082000DADADADADADADADA38DA6ADA51DADADAC3
:10083000DADADADAC0DADADADADAB6009DF82030B3
:100840006FF386138DF820308AE79DF8213043F04E
:1008500001038DF8213043460133A7E701229DE7CC
:10086000DDF81480CAE79DF8213043F004038DF8C9
:10087000213002F10108C1E70122B6E708F10102C7
:1008800098F80130682B08D09DF82130022161F3DF
:10089000C6038DF8213090462BE09DF821300122CF
:1008A00062F3C6038DF8213008F1020821E008F157
:1008B000010298F801306C2B08D09DF821300321FB
:1008C00061F3C6038DF82130904612E09DF8213087
:1008D000042262F3C6038DF8213008F1020808E013
:1008E0009DF82130052262F3C6038DF8213008F10E
:1008F000010818F8013B8DF82330A3F14102372A93
:1009000000F25081DFE812F026014E014E014E0147
:100910002601260126014E014E014E014E014E01D7
:100920004E014E014E014E014E014E014E014E014F
:100930004E014E014E0113014E014E014E014E017A
:100940004E014E014E014E0126014E01130163007E
:100950002601260126014E0163004E014E014E0183
:100960004E012F0113013F014E014E013F014E0187
:1009700013014E014E0113019DF82130062262F34E
:10098000C6038DF8213008F10108B2E79DF8213047
:10099000072262F3C6038DF8213008F10108A8E7A9
:1009A0009DF82130082262F3C6038DF8213008F14A
:1009B00001089DF8203043F002038DF8203098E7BD
:1009C0009DF821306FF3C6038DF8213091E79DF833
:1009D0002220012161F302028DF822209DF82120BE
:1009E00002F07802402A00F0AA80632B00F0AE806B
:1009F0009DF82030C3F34002174367F341038DF89D
:100A000020309DF8213013F0010F00F0DA80039BB5
:100A10001A1D03921F68002FC0F2CB809DF8213071
:100A200013F0040F00F0DF80039B1A1D0392D3F82C
:100A300000B0BBF1000FC0F2CD80002309930A93F0
:100A40009DF8223003F007039DF82110C1F3C30184
:100A5000012B00F0D180022B00F01681042B00F056
:100A60006781032B00F07E819DF8209019F003032D
:100A7000029340F07D819DF82330253B532B00F2FB
:100A80003382DFE813F08101310231023102310299
:100A900031023102310231023102310231023102BE
:100AA00031023102310231023102310231023102AE
:100AB000310231023102310231023102310231029E
:100AC000310231023102310231023102310231028E
:100AD000310231023102310231023102310231027E
:100AE000310231023102310231023102C7013102D9
:100AF000310231023102310231023102310231025E
:100B00003102A101AB013102310231023102AB01EC
:100B100031023102310231020802C701EA01310219
:100B200031028F013102C70131023102C7019DF844
:100B30002220022161F302028DF822204EE79DF867
:100B4000201041F001018DF820104EE7171E18BF4C
:100B500001274DE79DF82230042262F302038DF84D
:100B60002230012744E79DF82230032262F302037A
:100B70008DF822309DF8213003F07803402B7FF46C
:100B800037AF012734E79DF82230032262F30203D6
:100B90008DF822309DF8213013F0780F3FF428AF04
:100BA000012725E79DF8203043F001038DF8203020
:100BB0001EE79DF8203043F004038DF820307F427B
:100BC0002CE79DF92030002B02DB4FF0FF3725E7A3
:100BD000099F23E79DF821306FF341038DF8213001
:100BE0004FF0FF3B29E713F0020F02D0DDF828B0E9
:100BF00023E74FF0FF3B20E7CB1E042B04D8DFE8B0
:100C000003F00B1D29353500039B1A1D03921A684A
:100C1000D317CDE9062306E0039B1A1D03921A6839
:100C2000D317CDE90623012928D002297FF41CAF70
:100C3000BDF91820D317CDE9062315E7039B073329
:100C400023F0070303F108020392D3E90023CDE95F
:100C50000623E8E7039B073323F0070303F10802A9
:100C60000392D3E90023CDE90623DCE7039B1A1D99
:100C700003921A68D317CDE90623D4E79DF81830FC
:100C8000069300230793EFE6CB1E042B04D8DFE87E
:100C900003F00B1F35414100039B1A1D03921B6893
:100CA0000693002307931EE09DF82330632B07D0A3
:100CB000039B1A1D03921B6806930023079312E0FF
:100CC000039B1A1D03921B680693002307930AE0F7
:100CD000039B073323F0070303F108020392D3E9D0
:100CE0000023CDE9062301291CD002297FF4BCAEE4
:100CF000BDF81830069300230793B5E6039B07332E
:100D000023F0070303F108020392D3E90023CDE99E
:100D10000623E8E7039B1A1D03921B680693002332
:100D20000793E0E79DF818300693002307939BE6AE
:100D300008290BD0039B073323F0070303F10802B4
:100D40000392D3E90023CDE906238DE6039B073305
:100D500023F0070303F108020392D3E90023CDE94E
:100D6000062381E6039B1A1D03921B6806937BE60C
:100D7000434652462946304604F0E8FB0028C0F2BC
:100D80004F810444C2466FE429462520B04700281D
:100D9000C0F246810134DDF808900DF1460B4FF0AA
:100DA000000AA7E0DDF818A0BBF1000F08DB5946E8
:100DB000504604F0C3FC0AEB000BDDF8089099E004
:100DC000504604F0B3FCF6E7069B8DF83030DDF8B2
:100DD00008900DF1310B0DF1300A8BE019F0080F7E
:100DE00005D119F0100904D04FF0200901E04FF0AF
:100DF0002B09DDE90623002A73F1000102DBCDE9AE
:100E0000062309E0524263EB4303CDE906234FF08A
:100E10002D0901E0DDF808900DF1460300930CABBD
:100E200008AADDE9060104F027FB8246BBF1000FAA
:100E3000C0F290800DF14603A3EB0A039DF8202039
:100E40006FF386128DF820209B4540F28680ABEB35
:100E5000030309930DF1460B4CE0069830B9DDF819
:100E60000890DFF8C4B1ABF1050A43E00DF1460389
:100E700000930CAB08AA002104F0FEFA82469DF80C
:100E8000223043F010038DF8223078238DF8233080
:100E9000DDF80890CAE7069A9DF82130C3F3C30332
:100EA000072B06D8DFE803F0040C0E1012171C1EE7
:100EB0001460DDF808900DF1460B4FF0000A19E0C0
:100EC0001470F6E71480F4E71460F2E72046E117A7
:100ED000C2E90001EDE72046E117C2E90001E8E7B9
:100EE0001460E6E71460E4E7DDF808900DF1460BC6
:100EF0004FF0000ABAF1000F00F08E80ABEB0A024F
:100F0000B9F1000F00D001329DF8221011F0100F3E
:100F100026D00232099B134411F0400F01D00A9AE7
:100F20001344002F32DDFF1A9DF8203013F0040F18
:100F30002CD113F0400F18D0B9F1000F18D029466A
:100F40004846B04700286BDB0134DDF808903023B9
:100F500002930FE00DF1460BCCE70DF1460BC9E70C
:100F600011F0080FD6D00132D4E72023029301E01C
:100F7000302302933B465F1E002B07DD2946029873
:100F8000B04700284CDB01343B46F4E7B9F1000FD1
:100F900005D029464846B047002841DB01349DF87A
:100FA0002230C3F30012C3F3C003134305D0294614
:100FB0003020B047002833DB01349DF8223013F095
:100FC000100F06D029469DF82300B047002827DBE4
:100FD0000134099B03F1FF39002B07DD294630203E
:100FE000B04700281CDB01344B46F3E75B46524612
:100FF0002946304604F0AAFA002811DB0444002FE9
:1010000007DD29462020B047002809DB0134013FD5
:10101000F5E7C246FFF728BBC246FFF725BB2046CF
:1010200013B0BDE8F08F00BF0567000008B54FF0B2
:101030002002EFF3118382F31288BFF36F8F00F069
:10104000D5FD034804F08CF800F000FAFCE700BF7F
:101050000867000070B584B02C4B1C7D04F01F03A2
:1010600001229A4061092A4B03EB8103D043BFF36D
:101070005B8F53E8001F01EA000543E80056002E8D
:10108000F7D1BFF35B8F0A423DD004EB44039A00D3
:10109000204B134493E8070004AB03E907001E4B01
:1010A00063B104F0B6FB4FF02003EFF3118683F336
:1010B0001288BFF36F8F194B1D680AE0002383F37A
:1010C0001188BFF36F8FEEE72B460DB12B686BB124
:1010D0001D465DB1AA68002AF6D00C4B1B7D03EBC0
:1010E000430399000B4B585C9047EDE786F311885A
:1010F000BFF36F8F074804EB4404A200811800235C
:1011000083504B608B6004B070BD00BFC80D0020E1
:101110003C0300204003002013580000340300204B
:10112000F0B589B00546554B1C7D04F01F03012224
:101130009A406109524B03EB8103BFF35B8F53E885
:10114000001F41EA020043E80006002EF7D1BFF37A
:101150005B8F0A4217D004EB44034A4A12F823304B
:10116000002B00F08880B5F1FF3F1CD103F0CAF8D6
:101170004FF02003EFF3118683F31288BFF36F8FD4
:10118000414B1D682AE004EB44063E4B03EB860608
:101190006F462A462146384604F0F3F997E80700DF
:1011A00086E80700D7E704EB440302EB83039B6860
:1011B000590CD803354E364A002380194FF00006EB
:1011C00046EB0101FEF79CFF0121281A05F0ECF81F
:1011D000CCE72B460DB12B686BB11D465DB16A683B
:1011E000002AF6D0254B1B7D03EB4303254911F85C
:1011F00023009047EDE786F31188BFF36F8F04F06B
:101200001F03012199406309224A02EB8303BFF3C4
:101210005B8F53E8002F0A4343E800200028F8D1F1
:10122000BFF35B8F04EB4403164A02EB830393E89E
:10123000070008AB03E90700174B0BB104F0D6FA1F
:10124000FFF708FF03F05CFA012004F01F020123FE
:10125000934064090A4A02EB8404DB43BFF35B8FCB
:1012600054E8002F1A4044E800210029F8D1BFF3C8
:101270005B8F09B0F0BD0020E7E700BFC80D00207C
:101280004C03002040030020340300203F420F00A5
:1012900040420F003C030020ED57000008B5024813
:1012A00003F086FD08BD00BF34670000D0B108B56B
:1012B0004268042A05D0D2B1006802F013FF002072
:1012C00008BD03680022BFF35B8F53E8001F0129AC
:1012D00003D143E800200028F7D1BFF35B8F04D18E
:1012E0001046EDE76FF4E04070470248E8E7024837
:1012F000E6E700BFE98FFFFFEA8FFFFF20B308B5E5
:101300004268042A02D092B911480FE00368012212
:10131000BFF35B8F53E8001F002903D143E800208F
:101320000028F7D1BFF35B8F0CD1002008BD006807
:101330004FF0FF324FF0FF3302F04AFE0028F5D0A5
:101340000448F3E70348F1E76FF4E040704700BF5B
:10135000EA8FFFFFE98FFFFF10B5044688B163688D
:10136000042B0DD0082B0BD053B113F0020F0DD06E
:101370002146094804F05BFE0023236000236360DC
:1013800010BD064B5B6806489847E8E71422002129
:10139000206804F00BFAF1E750030020DC00002085
:1013A0003C67000010B5044678B16368042B0BD08D
:1013B000082B09D00BB9236863B1206804F0A6FE9E
:1013C000636843F00103636010BD0F4B5B680F4817
:1013D0009847EAE74FF0FF324FF0FF3321460C48C1
:1013E00002F0C4FC08B923681BB9074B5B680948C5
:1013F000984714220021206804F0D8F9636843F06C
:1014000002036360D9E700BFDC0000203C670000F6
:10141000500300206467000008B5402314220449EB
:10142000044804F0F6FD0449044803F023FD08BD18
:101430006C03002050030020A467000094670000A4
:10144000014910220A60704710ED00E072B640407A
:1014500080F31188BFF36F8FBFF34F8F30BF62B639
:10146000BFF36F8F704700BF72B6494081F3118898
:1014700020BF80F3118862B6704700BF43B2002BD3
:1014800008DB00F01F005B09012202FA00F0024AAB
:1014900042F82300704700BF00E100E04209054B1D
:1014A00053F8222000F01F00012303FA00F010403F
:1014B000704700BF00E100E0013143B2002B08DBC0
:1014C0004901C9B203F1604303F5614383F8001396
:1014D000704700F00F004901C9B2014B1954704721
:1014E00014ED00E030BFFFF7FDBF00BF08B50B4BA8
:1014F0000B4A22F07F029A60BFF34F8FBFF36F8FCA
:10150000D3F8882022F47002C3F8882002F0CEFBC2
:1015100003F064FA00F012FA02F0D4FB00ED00E0F0
:10152000000000000A4A9368C3F8A8000949096846
:10153000C3F8AC1008494B6843F080534B6000235C
:1015400083F31188BFF36F8F9368D3F8AC007047B3
:10155000C80D00200C69000000ED00E013498A6806
:101560004FF030001044EFF3098C80E8F01F20208A
:1015700080F31288BFF36F8F0D4F4FF00066CA697A
:101580008A603E60D2F8A8000023C2F8A83080F339
:10159000118804B5104600F073FABDE8044002F16A
:1015A000300090E8F01F8CF309887047C80D0020C8
:1015B00004ED00E01EF0040F0CBFEFF30880EFF322
:1015C0000980816911F8021C0229FFD001B503F0DE
:1015D000E5FF01BD10B4A2F120040D4921F0010185
:1015E00042F8081C42F8203C019B42F81C3C029B3C
:1015F00042F8183C039B42F8143C4FF0807342F8C9
:10160000043C04650023C0F8A83010BC704700BF3C
:101610003F540000164B9A68DAB110F1160F1AD039
:1016200010B4D2F89830A3F12004844205D8834244
:1016300008D98B4208D8002100E0002131B90020F0
:1016400010BC70470021F9E70121F7E7D2F89800B4
:10165000F6E700207047D2F898308B4294BF002103
:10166000012109B900207047D2F89800704700BFE7
:10167000C80D002008B50D461446084B986000F0D0
:10168000FFF9204685F30988002163B681F31188AC
:10169000BFF36F8F0022002303F0D1FEC80D00209E
:1016A00001B572B60B4A906900281EBF00219161F6
:1016B00004F010FD62B6EFF30580A0F110004FEAD0
:1016C000C0000549014409C99847BDE801400349E4
:1016D00008470000C80D0020F8640000E116000073
:1016E000044B9968D869884203D003494FF080526F
:1016F0000A607047C80D002004ED00E010B51446E4
:10170000124B9A6A9A6A9B6A13F4007F0BD00F4BB4
:101710009A6B9B6A13F4004F05D021B10B4A936A70
:1017200023F400439362094B9A6A9B6A13F4807F07
:1017300001D1064B9B6A054A936A43F47F43936247
:10174000012103F03DFF2070002010BD00ED00E0FE
:10175000074B9A6A9A6A9A6A9A6A9A6A9A6A9A6A1B
:101760006FEA02426FEA12429A620020704700BF9D
:1017700000ED00E070B505461646204B9A6A9A6A5D
:101780009B6A13F0020F0CD01C4B586B9B6A13F032
:10179000800F25D039B1194A936A23F080039362F0
:1017A00001E06FF01500154B9A6A9A6A9B6A13F074
:1017B000100F04D1114B9C6A14F0020404D00F4B9B
:1017C0005C6814F400640ED10C4A936A43F0FF0382
:1017D00093620121284603F0F3FE3070204670BD6D
:1017E0006FF01500DFE72946FFF714FF04460028D5
:1017F000EAD080F309880224E6E700BF00ED00E0AC
:1018000010B5044600230B701B4BD86A10F0020081
:101810002DD1DB6A002B2BDB174BDB6A13F08043E7
:1018200027D0A36933F8022C4DF602739A4210D0E8
:1018300003F1604303F626631B7863B90F4B1B78F3
:101840007BB90F4B1B889BB293B12046FFF780FFFB
:101850000EE020680CE00A4601212046FFF78AFFCF
:1018600006E00A4601212046FFF748FF00E000207D
:1018700010BD1846FCE700BF00ED00E029ED00E0D8
:101880002AED00E070B58AB00C46224B5968C1F3CE
:101890000801002383F31188BFF36F8F02F07F43A9
:1018A000B3F17F4F15D102F00C03082B14D012F0C6
:1018B000080F0BD000260DF12702204603F085FE0D
:1018C00005469DF8273053B10AB070BD0446012685
:1018D000F1E700263446EEE700263446EBE7202207
:1018E000214601A803F03EFF4EB1089BC3F3080256
:1018F0005AB96FEA53236FEA4323089305E0089B24
:1019000023F4FF7323F00103089301A9284603F091
:1019100041FED9E700ED00E0024A536943F01003AD
:101920005361704700ED00E0EFF30880EFF30981A9
:1019300001B57246FFF7A6FF01BD00BF002206E019
:1019400002F00F01094B0B442021197601322F2A96
:101950000ADC53B2002BF3DB03F1604303F5614370
:10196000202183F80013F1E7704700BFFCEC00E092
:10197000002080F31488BFF36F8F04F04BFD00202C
:101980000D490860BFF34F8F0C4880F3088800F0C2
:1019900029F8202080F3118809484FF4026140188B
:1019A00080F30988EFF314800221084380F3148840
:1019B000BFF36F8FFFF79AFD94ED00E0E013002076
:1019C00060150020064B1868C0F3072000238342EF
:1019D00005DA034A9360002111610133F7E770478C
:1019E00090ED00E010B572B6002484F31388FFF781
:1019F000E9FF234608E003F120010E4A4FF0FF30D3
:101A000042F821000133DBB2072BF4D9002308E0B0
:101A100003F16001074A4FF0FF3042F82100013323
:101A2000DBB2072BF4D962B6BFF34F8FBFF36F8FD2
:101A300010BD00BF00E100E008B5084B9B68834281
:101A400002D002F0A3FF08BDEFF30583002BF8D00E
:101A5000034A536843F080535360F2E7C80D0020F7
:101A600000ED00E008B5034B034A0121034803F0F1
:101A700032FE08BD0000042000000020B86700000E
:101A800008B5D0F89830203B044803602023436019
:101A9000034B8360012103F022FE08BD6C08002087
:101AA00000000B15064A90600B6823F01F030343E8
:101AB00043F01003D3608B6843F001031361704758
:101AC00090ED00E010B5034C0123227803F0DBFD1C
:101AD000207010BD1C0E002008B50023084A1278A3
:101AE00003F0D1FD10F1160F08D00346072B05DCDB
:101AF000044A9360002111610133F7E708BD00BF7C
:101B00001C0E002090ED00E0034B05225A60BFF34D
:101B10004F8FBFF36F8F704790ED00E0BFF35F8F83
:101B2000014B00225A60704790ED00E038B50E4B33
:101B30001D68082D15D8FFF7F1FF0024A5420AD92A
:101B4000094B596804EB4402930019442046FFF7FF
:101B5000A9FF0134F2E7054B1D70FFF7D5FF002008
:101B600038BD4FF0FF30FBE7D46700001C0E0020AB
:101B7000014B1860704700BF24000020064B1B6813
:101B8000064A1268082B01D000207047022A01D0B3
:101B90000020704701207047300100103401001010
:101BA00010B54FF02003EFF3118483F31288BFF3D5
:101BB0006F8F01230B4AC2F840354FF08042C2F8C4
:101BC0007835FFF7DBFF10B1074B01221A604FF0A9
:101BD00080430122C3F8802584F31188BFF36F8FFF
:101BE000002010BD00E0014038060040C0B24FF0B8
:101BF0008043C3F81C05BFF34F8F0549CA6802F440
:101C0000E062044B1343CB60BFF34F8F00BFFDE78F
:101C100000ED00E00400FA0530B108B58001034B87
:101C200043F00103984708BD704700BFF06600000D
:101C300000487047C8080020034BC01A8010034BAF
:101C400003FB00F0704700BF88080020B76DDBB6CB
:101C500038B505460C46FFF7EFFF01464022034822
:101C600003F059FE01462846A04738BD80640000B5
:101C700030B583B005460C46FFF7DEFF0146402332
:101C800000932346054A064803F05FFE011E01DB70
:101C900003B030BD2846A047FAE700BF93590000C3
:101CA0008064000008B510B101280DD008BD0021E6
:101CB000084803F0B9FD836813F0070FF6D100213F
:101CC000044803F016FEF1E70121024803F011FE7B
:101CD000ECE700BF8064000010B54FF02003EFF385
:101CE000118483F31288BFF36F8F134A136843F094
:101CF0000203136013F0010F08D1002384F311884D
:101D0000BFF36F8F9BB903F04CFE10BD4FF08043C3
:101D1000D3F80C24D3F80C3412F0010F01D10023B6
:101D2000ECE7FFF785FF03F0D1FD0123E6E7002193
:101D3000024803F0DEFDE8E7D808002080640000D8
:101D400008B50A4BBFF35B8F53E8002F22F0020166
:101D500043E800100028F7D1BFF35B8F12F0010FAA
:101D600000D008BD03F027FEFBE700BFD808002025
:101D700000B585B0CDF800D0CDF804D00023029393
:101D8000012303936B46074A03F0FBFD002805DBA4
:101D90004FF480420023684602F00CFA05B05DF86B
:101DA00004FB00BFCB59000070B50646002201219C
:101DB0001046FFF781FB0020FFF760FB114801F0A0
:101DC00051F8114B98421AD104F0B6F8002403E000
:101DD0000123AB601C44E4B2012C0ED821463046EE
:101DE00003F022FD05462146304603F028FD074951
:101DF00003F0ADFA0028EBDA00E0002070BD6FF0D0
:101E00000400FBE7A51C00000000AD0B24680000E7
:101E100070B50546012807D14FF08043D3F81C3434
:101E200003F00303012B58D004F03FF928B92E4BDF
:101E30001B78002B41D0002300E001231C46002B1F
:101E40003DD04FF02003EFF3118683F31288BFF3E8
:101E50006F8F24B94FF080430222C3F808234FF05C
:101E60008042D2F8183403F00303D2F8182412F495
:101E7000803F2BD100221AB1012B29D0012D27D070
:101E8000FCB13046FFF7F0FA4FF08043D3F8183535
:101E9000002BE4D1154B1B68002BE0D0134B002224
:101EA0001A601B6801234FF08042C2F81835104AAF
:101EB000C2F880310F4A1360D1E70123BEE7002644
:101EC000C7E72120002102F02FFDDDE70122D2E744
:101ED00024B186F31188BFF36F8F70BD4FF080433C
:101EE0000222C3F80423F8E71D0E0020040100407D
:101EF00000E100E00800004010B50446104B01214D
:101F0000BFF35B8F53E8002F43E800100028F9D19E
:101F1000BFF35B8F1AB1631E012B0CD910BD0948AA
:101F200003F08DFC084900234B60CB6001238B60DC
:101F300003F029FAEFE72046FFF76AFFEEE700BF5C
:101F4000DC080020806400007808002010B50446FA
:101F50000A2807D0074B1868E1B283685B68984786
:101F6000204610BD034B186883685B680D219847B5
:101F7000F0E700BFE008002010B5044C2046FFF752
:101F8000F7FD2046FEF790FA10BD00BF4D1F000080
:101F900008B50648064B186003F0FDFF18B1FFF7BF
:101FA000EBFF002008BD6FF01200FBE7E0640000CB
:101FB000E00800201F4B03401F4A934232D016D83E
:101FC000062B2BD006D9B3F5801F0DD101230B7042
:101FD00000207047FBB1022B03D104230B700020BB
:101FE00070476FF0150070476FF015007047134A87
:101FF00093421BD0B3F5A00F03D103230B70002035
:102000007047B3F5800F03D102230B700020704797
:102010006FF01500704700200870704706230B70A2
:102020000020704707230B700020704705230B70BA
:10203000002070470600F00006001000020040007B
:1020400028B1012801D10348704700207047024899
:10205000704700BF98640000B0640000F0B585B020
:102060000E46194643681B7B06F01F0545EA4315DB
:10207000B2F5005F22D00746144600230293039373
:10208000104603F0DAFC8DF808007B689968F1408F
:1020900011F0010F02D1B4F5A03F14D0002302AA21
:1020A0001946284601F0F8F91B4B984231D101211D
:1020B000284601F0C9FB002005B0F0BD284601F01C
:1020C00027FC0020F8E705F01F036A09012A14D055
:1020D0004FF0A04203F5E07352F8233013F0010FE4
:1020E000DCD10DF10701284601F052FB0B4B984261
:1020F00005D00DF107030393D0E7094AEAE70DF194
:10210000070001F099FB044B9842F2D06FF00B00EE
:10211000D2E76FF00400CFE70000AD0B0400AD0B79
:102120000003005030B583B004460DF1070101F003
:102130002FFB0546204601F01BFC0B4B98420FD1AC
:102140009D4205D0084B984207D1002003B030BD16
:102150009DF8070001F068FBF4E76FF00400F5E775
:102160006FF00400F2E700BF0000AD0B2DE9F04373
:1021700087B0D0F8048098F80C3001F01F0545EACC
:102180004315002A44D00C461746002603960496B1
:102190000DF11701204601F0FBFA8146334603AAF0
:1021A0003146284601F078F9304B98425BD1994589
:1021B00036D017F4007F43D00DF103013846FFF706
:1021C000F9FE064640BB9DF803308DF8043017F445
:1021D000807F0CBF012300238DF80530384603F0C3
:1021E000F9FB8DF8060017F4006F1ED0D8F8043004
:1021F000012101FA04F4C3F80845002201A9284688
:1022000001F000FA194B984206D06FF0150603E072
:102210002846FFF787FF0646304607B0BDE8F08343
:102220009DF8170001F000FBC3E717F4806FE4D0BE
:10223000D8F80420012303FA04F4C2F80C45DCE7C3
:10224000384603F0C7FB8DF8080000231A4602A9A0
:10225000284601F021F9054B984201D10026DBE721
:102260006FF01506D8E76FF01506D5E70000AD0B47
:1022700008B501F0CFFA08B1002008BD01F0A0FABE
:10228000084B98420AD10021074801F07BFA00224E
:1022900005210620FFF710F90020EEE76FF004009B
:1022A000EBE700BF0000AD0BCB5A000010B4436851
:1022B00000297ED1DA68B2F1FF3F17D002F01F018A
:1022C0005209012A65D04FF0A04001228A40C0F88F
:1022D0000825DA6802F01F015209012A5BD04FF08D
:1022E000A04001F5E072032140F822101A69B2F112
:1022F000FF3F0FD0197F00294FD0032002F01F01AC
:102300005209012A4BD04FF0A044800001F5E07241
:1023100044F822005A69B2F1FF3F17D002F01F01C2
:102320005209012A3DD04FF0A04001228A40C0F856
:1023300008255A6902F01F015209012A33D04FF0D3
:10234000A04001F5E072032140F822109A69B2F131
:10235000FF3F0ED0597F41B3032002F01F01520905
:10236000012A24D04FF0A044800001F5E07244F827
:1023700022001A68D8681969C2F80C05C2F8141549
:102380001A6859699B69C2F80815C2F8103510BC63
:1023900070472C4899E72B48A3E70020AEE7294C6B
:1023A000B3E72848C1E72748CBE70020D5E7254C0D
:1023B000DAE7DA68B2F1FF3F0BD002F01F015209F1
:1023C000012A37D04FF0A04001F5E072022140F819
:1023D00022101A69B2F1FF3F0BD002F01F0152091F
:1023E000012A29D04FF0A04001F5E072022140F807
:1023F00022105A69B2F1FF3F0BD002F01F015209BF
:10240000012A1BD04FF0A04001F5E072022140F8F4
:1024100022109A69B2F1FF3FABD002F01F015209BE
:10242000012A0DD04FF0A04001F5E072022140F8E2
:1024300022109EE70348C7E70248D5E70148E3E7D3
:102440000048F1E70003005043681A68B1F5164FE1
:102450006FD03AD8B1F5165F6ED00AD9B1F5E14F19
:1024600075D024D947F6122399422BD14FF400039B
:1024700013E0B1F5966F61D007D9B1F5166F63D04F
:10248000B1F5965F10D13C4B07E0B1F5967F58D07F
:10249000B1F5167F05D14FF41C33C2F82435002066
:1024A00070476FF0150070476FF015007047B1F579
:1024B000615F4ED0B1F5964F01D1304BEDE76FF033
:1024C000150070476FF015007047B1F5613F42D0BD
:1024D00009D9B1F5612F46D01FD9294B994248D16E
:1024E0004FF08053D9E7B1F5963F37D005D9B1F514
:1024F000E13F0FD14FF0EB73CFE74DF6C023994288
:102500002ED0B1F5614F02D14FF46B03C5E76FF0E8
:10251000150070476FF0150070471A4B994225D08F
:10252000B1F5E12F02D14FF0E863B6E76FF0150087
:1025300070474FF41D03B0E7134BAEE74FF49E23F3
:10254000ABE74FF4A033A8E74FF41D23A5E70F4BEB
:10255000A3E70F4BA1E74FF06C739EE70D4B9CE791
:102560004FF4650399E74FF0706396E74FF080638F
:1025700093E76FF01500704700B0130000A04E0005
:1025800040420F0090D003000050270000C07500AB
:1025900000F03A0000903A012DE9F04105460F465F
:1025A000D0F8108003F081FD20B9164B1B78ABB139
:1025B000002300E001239BB14FF02003EFF31184CF
:1025C00083F31288BFF36F8F2646284603F047FB3C
:1025D00050B984F31188BFF36F8FEDE70123EAE769
:1025E000284603F08BFB0646414601F8107F012286
:1025F000284603F04EFB86F31188BFF36F8FBDE8CA
:10260000F08100BF1D0E002038B504460D4601F1D3
:10261000120001F001FA0C4B984211D1AB7C04F589
:1026200090710C34094AA23342F8331002EBC30311
:102630005C60A97C01238B40C2F80435002038BDC2
:102640006FF00400FBE700BF0000AD0B00F001409D
:1026500021F07F4100F5A870014B43F8201070472E
:102660000010014000F5A870014B53F8200070479E
:10267000001001404FF480338340024AC2F84433D3
:10268000704700BF001001404FF480338340024A7E
:10269000C2F84833704700BF00100140014BD3F827
:1026A000040570470010014010B501238340DC434E
:1026B000104ABFF35B8F52E8001F01EA040C42E8A6
:1026C00000CEBEF1000FF6D1BFF35B8F4FF4803226
:1026D00002FA00F002F1804202F58052C2F80803CB
:1026E000BFF35F8FBFF36F8F0B4214BF0120002039
:1026F00010BD00BF0009002070B5044603F0A1FB27
:1027000005464FF48033A340174AD2F804231342FE
:1027100005D10026284603F09DFB304670BD0123FD
:10272000A340DB43114ABFF35B8F52E8001F01EA6D
:10273000030042E80006002EF7D1BFF35B8F59B9C2
:1027400004F150039B009BB203F1804303F58833EF
:102750001B6813B1012300E001231E46002BD9D0D2
:10276000204603F05FFBD5E700100140FC08002085
:1027700001B9704701238340114ABFF35B8F52E8D0
:10278000001F194342E8001CBCF1000FF7D1BFF352
:102790005B8F4FF4803383400A4AC2F80433BFF39F
:1027A0005B8F094B1B68BFF35B8F23FA00F010F0BF
:1027B000010FDED0054B4FF40032C3F80021D8E7FB
:1027C0000009002000100140FC08002000E100E0AA
:1027D000F8B5074614461E461046194603F02EFB70
:1027E0000546154B1A68A01A1C605E60A5F500131B
:1027F000B3F5400F08D3002402F0FCF93846FFF788
:1028000031FFA8420CD0F8BD0C4B19680B0A0A0620
:10281000521943F100030A49C1E900230124EBE7FF
:102820001CB13846FFF726FFEDE74FF400013846AC
:10283000FFF70EFFF5E700BFB801002004090020F4
:10284000A001002038B50D4B1B681D0A1C06BFF304
:102850005F8FFFF723FF0346201845F10001B3F512
:10286000801F0AD2064BD3E90023994208BF904249
:1028700003D210F1807041F1000138BD040900203D
:10288000A00100202DE9F843064614461D461046D7
:10289000194603F0D3FA0746FFF7D4FFA94208BF51
:1028A000A0421ED2B4EB000865EB01094FF0807224
:1028B00000234B4508BF42452ED3194B03EB0613AB
:1028C000D3E90223AB4208BFA24218D039463046B2
:1028D00003F0C5FA394603F0A1FA241845F10005C2
:1028E0000DE00123B3400F4ABFF35B8F52E8001F96
:1028F000194342E800100028F8D1BFF35B8F084B62
:10290000320103EB0616C6E9024508999950099B66
:1029100073600020BDE8F8836FF01500FAE700BF90
:10292000A8010020FC08002030B583B000231E4A17
:10293000C2F80835002B25DD1B4C0225C4F80453D2
:102940001A4B4FF40032C3F88021002201211120DC
:10295000FEF7B2FD1120FEF791FD0123144A13602A
:102960002360144A136000240194134B0093134A0C
:102970000023204603F0AEFA2846FFF7BDFA2046B2
:1029800003B030BD0E4A02EB03124FF0FF304FF0A0
:10299000FF31C2E902014FF480329A400249C1F886
:1029A00004230133C6E700BF0010014000E100E04E
:1029B0000810014000090020D1270000FFFF7F0020
:1029C000A80100202DE9F04782B00446FFF794FEED
:1029D00010B902B0BDE8F087FFF734FF06460F4696
:1029E00003F02FFA8246134B03EB0413D3E9028959
:1029F0004F4508BF46450BD20026504603F02AFA41
:102A0000002EE6D0009542464B462046B047E0E710
:102A1000084A230102EB0411D6584D680020D0501B
:102A20004FF0FF324FF0FF33C1E902232046FFF79A
:102A30002BFEE2E7A801002010B50D4BD3F80433BC
:102A400013F0020F0AD00B4B1B683BB1094B00225D
:102A50001A601B68084A1368013313600024002CB5
:102A600000DD10BD2046FFF7ADFF0134F7E700BFE2
:102A700000100140041101400409002010B582B08B
:102A8000B0F1FF3F07D0441E002C07DD114B9C42E4
:102A900005DD114C03E000F50000F4E70024FFF72A
:102AA000D1FE0E4BD3E90023801AB0F5000F00D3FE
:102AB000002404440134B4F5000F00D3064C002078
:102AC000019007490091121943F1000303F002FA43
:102AD00002B010BDFEFF7F00FFFF7F00B8010020A5
:102AE000D127000008B5FFF7ADFE024B1B68C01AE6
:102AF00008BD00BFB8010020034B1B68082B01D0A4
:102B0000002070470120704730010010034B1B6804
:102B1000082B01D0002070470120704730010010C1
:102B2000084B1A6804331B68082A01D0002070473C
:102B3000002B04D8DFE803F00100012070470020DB
:102B4000704700BF30010010084B1A6804331B683F
:102B5000082A01D000207047002B04D8DFE803F0DA
:102B60000100012070470020704700BF30010010B5
:102B7000084B1A6804331B68082A01D000207047EC
:102B8000002B04D8DFE803F001000120704700208B
:102B9000704700BF30010010084B1A6804331B68EF
:102BA000082A01D000207047002B04D8DFE803F08A
:102BB0000100012070470020704700BF3001001065
:102BC000034B1B68082B01D0002070470120704781
:102BD00030010010064B1B68064A1268082B01D012
:102BE00000207047042A01D8002070470120704758
:102BF0003001001034010010024BD3F80034002BD8
:102C0000FAD0704700E0014008B5034BC3F8040553
:102C1000FFF7F2FF08BD00BF00E00140014B024A90
:102C20001A607047500000200090D00338B5FFF7BD
:102C300063FF40B14FF080430022C3F80C21C3F87A
:102C40001021C3F83825FFF761FF002846D04FF068
:102C50008052D2F80414564BC3F82015D2F8081449
:102C6000C3F82415D2F80C14C3F82815D2F81014A0
:102C7000C3F82C15D2F81414C3F83015D2F8181470
:102C8000C3F83415D2F81C14C3F84015D2F8201438
:102C9000C3F84415D2F82414C3F84815D2F8281400
:102CA000C3F84C15D2F82C14C3F85015D2F83014D0
:102CB000C3F85415D2F83414C3F86015D2F8381498
:102CC000C3F86415D2F83C14C3F86815D2F8401460
:102CD000C3F86C15D2F84424C3F87025FFF720FF21
:102CE00010B1344B344A1A60FFF72EFF18B1334B42
:102CF000FB22C3F81825FFF73BFF48B130490B68AA
:102D000023F00F032F4A126802F00F0213430B60E7
:102D1000FFF742FF18B12C4B4FF400721A60FFF717
:102D20004FFF60B14FF08043D3F8003413F0010F30
:102D300005D04FF080436FF00102C3F80024FFF785
:102D400049FF38B14FF01023D3F808224FF08043E9
:102D5000C3F858254FF01023D3F80032002B08DBBE
:102D60004FF01023D3F80432002B02DBFFF756FF9D
:102D700038BD0120FFF748FF4FF010241225C4F89A
:102D80000052FFF739FFC4F80452FFF735FF002067
:102D9000FFF73AFFBFF34F8F0C49CA6802F4E062B5
:102DA0000B4B1343CB60BFF34F8F00BFFDE700BF5A
:102DB00000C000408C5600404881030000F00040F5
:102DC000E40E0040580200104096024000ED00E082
:102DD0000400FA0530B40468B4FA84F3D3F11F0395
:102DE00015D401229A4024EA0202BFF35B8F50E817
:102DF000005FA54204D140E8002CBCF1000FF6D1E1
:102E0000BFF35B8FE7D10B70024830BC70470248BC
:102E1000FBE700BF0000AD0B0200AD0B10B4036870
:102E20000C4623FA01F111F0010F14D102680123BD
:102E3000A3401343BFF35B8F50E8001F914204D1BE
:102E400040E8003CBCF1000FF6D1BFF35B8FEDD141
:102E5000024810BC70470248FBE700BF0000AD0B02
:102E60000400AD0B064B1B793BB9054B18600122E2
:102E70001A7100225A71034870470348704700BF17
:102E8000080900200000AD0B0C00AD0B10B10128AB
:102E900025D070474FF08042D2F8183403F0030376
:102EA000D2F8182412F4803F11D14FF08043002251
:102EB000C3F818250F4B00221A601B684FF080439F
:102EC0000222C3F80423083301221A607047012B41
:102ED000EBD14FF080430122C3F81825EAE7064BF7
:102EE00000221A601B684FF080430122C3F80423BC
:102EF0001A607047040100400001004030B583B003
:102F0000044618B1012813D003B030BD4FF0804300
:102F10000222C3F8082303F5827300221A601B689B
:102F2000394B01221A60012C0FD042F2107552E089
:102F300001234FF08042C2F8083302F5807200216D
:102F400011601268314A1360EDE701238DF80730F4
:102F500042F2107518E04FF08042D2F8183403F0B6
:102F60000303CDF80730D2F8183413F4803F20D192
:102F70000023002B42D09DF80730012B3ED10120C9
:102F800002F0D6FF013D39D0002CE4D0012C01D055
:102F90000023EEE74FF08042D2F80C3403F0010337
:102FA0008DF80730D2F80C3413F4803F03D100239E
:102FB000DFE70123DDE70123DBE74FF08043D3F8B0
:102FC000183413F4803F15D10023BBB1012002F067
:102FD000AFFF013D12D0002CEFD0012C01D0002317
:102FE000F3E74FF08043D3F80C3413F4803F03D160
:102FF0000023EAE70123E8E70123E6E7012C83D178
:10300000034B00225A717FE70C000040040000408F
:103010000809002008B51B4B1B6883B1194B00221F
:103020001A601B684FF080430122C3F80823164B37
:103030005B7923B9144B5A711B6800209847134BD6
:103040001B689BB1114B00221A601B684FF0804334
:10305000D3F81824D3F8183412F0030F07D1012342
:103060004FF08042C2F818350832136008BD4FF0A7
:1030700080430222C3F80823034B1B6801209847B2
:10308000F4E700BF000100400809002004010040EF
:103090000830034B33F8100000F00100704700BF08
:1030A000540000200830034B33F81000C0F34010E8
:1030B000704700BF540000200830044B33F8100064
:1030C00010F01C0018BF0120704700BF5400002002
:1030D0000830034B33F81000C0F34000704700BFC6
:1030E000540000200830024B33F81000400B7047AA
:1030F00054000020002204E04FF0FF3383420FD041
:1031000001322F2A0AD802F10803064931F8133098
:1031100013F4807FF0D0C3F34323EFE70020704720
:103120000120704754000020002313B14FF0FF30FE
:103130007047074A52F83320824201D00133F4E746
:10314000034A02EBC30252688A42F7D1184670471D
:10315000540000200830064B33F8100010F4807F34
:1031600004D0C0F3432003EBC00070470020704739
:103170005400002070B504460D46FFF7EBFF20B168
:103180000668426829462046B047044B9B6823B135
:10319000024AD26829462046984770BD5400002054
:1031A00070B504460D461646084602F0E6FED0B954
:1031B000022E3ED0022004F01F02610901293AD0FC
:1031C0004FF0A04102F5E07251F8223023F4403371
:1031D00043EA004341F82230032D30D0022E2CD098
:1031E000032E31D070BD29462046FFF7C3FF04F0FF
:1031F0001F036409012C1AD04FF0A04103F5E072BF
:1032000051F82220C2F301429642EBD103F5E0735C
:1032100051F8232022F4403241F8232051F8232092
:1032200022F4403242EA064641F82360DAE70849D0
:10323000E4E70320BFE70649C4E7012DD0D12946C2
:103240002046FFF797FFCDE7022DCBD1F7E700BF70
:103250000003005010B483B00446124B93E80300FF
:1032600002AB03E90300204600230BE002AA02EBB5
:10327000830252F8082CD2F8201540F8041BC2F83B
:1032800020150133012BF1D90023012B04D854F868
:1032900023202AB90133F8E7002003B010BC70479F
:1032A0000120FAE7E066000000F108020E4B33F857
:1032B000123013F4807F16D010B5C3F343241046A8
:1032C00023F4F853084A22F810302046FFF712FF83
:1032D00000B110BD0448002340F83430214674305A
:1032E000FFF79CFDF5E770475400002010B5044639
:1032F000FFF7D8FE40B12046FFF7F4FE00F5A270BC
:10330000064B002243F820202046FFF7CDFF08346B
:10331000034B002223F8142010BD00BF00600040C2
:103320005400002070B582B006460C461546FFF7E3
:10333000BBFF24B329462046FFF7F6FE031E13DB2E
:10334000104A42F8334002EBC3014D605B029BB26E
:1033500006F1080032F810100B4343F4807322F892
:103360001030094802B070BD0DF107010748FFF7A2
:1033700031FD054B9842F5D19DF80730E0E7024852
:10338000F0E700BF540000200000AD0BC800002093
:1033900070B584B02C4A6B4692E8030083E80300C2
:1033A000002302A80BE004AA02EB830252F8102CBF
:1033B000D2F8201540F8041BC2F820150133012B68
:1033C000F1D93DE0214E05F5E07356F82320C2F314
:1033D0000142FFF7E5FE0123AB40C6F8203504AB00
:1033E00003EB840353F8080CF8B190FAA0F0B0FA9C
:1033F00080F000EB441000F10802154B33F8121076
:10340000C1F38201C50800F0070202AE012303FAEE
:1034100002F2735D23EA0203735500F01F054309AE
:10342000012BCFD04FF0A046CDE70134012CD6D9E7
:10343000084B00221A601B6802A8FFF70BFF08B1B7
:103440000024F3E704B070BDE06600000003005004
:10345000540000207C61004038B50446CCB194FA99
:10346000A4F3B3FA83F301229A4024EA0204094A3E
:1034700003F5A27352F82350C5F3052552F8230033
:10348000C0F3014002F077FD01462846FFF772FEC7
:10349000E4E738BD006000402DE9F84304461546D6
:1034A0001E4661B30F4602F050FD002840F09780A1
:1034B00004F01F026309012B42D04FF0A04002F537
:1034C000E07350F82330002F3CD00C2141F0030171
:1034D00023EA0103002F37D0397889000B4302F526
:1034E000E07240F82230424A04F1080132F811300B
:1034F00023F002039BB243F0010322F81130B5B16F
:1035000095F80080D5F804902046FFF7E1FDE8B17A
:10351000B9F1000F65D1364B04F1080233F81200FF
:1035200020F01C0080B240EA880023F81200002E30
:103530005BD0726831682046FFF7F4FEBDE8F8837F
:103540002C48BCE70021C1E70021C7E7284B04F164
:10355000080233F8127027F02007FF04FF0C23F84D
:103560001270B9F1000FD6D0B8F1030F3BD86B68D9
:103570001D78B8F1000F06D105F5A2751E4B00228B
:1035800043F82520C7E7404602F0F6FC1A4B05F544
:10359000A27253F8221021F0030143F8221053F8CD
:1035A000221021F44F3121F4407143F8221053F8D6
:1035B00022C0210201F47C51000400F44030014398
:1035C0004CEA010143F822106D03ADB204F1080387
:1035D0002F4347F02007064A22F813709BE707485D
:1035E000ACE70648AAE70548A8E70548A6E700BFF4
:1035F0005400002000030050006000400400AD0BA8
:103600000000AD0BF8B504461546002952D00E4611
:1036100002F0AAFC28B12046FFF744FD002840F044
:103620009D802046FFF748FD18B17378012B00F00C
:10363000978006F1010CB71C04F01F026309012BEF
:103640007CD04FF0A04102F5E07351F82300BCF1AB
:10365000000F75D0022343F00103002F72D04FF00A
:103660000C0E43EA0E03002E6FD04FF4E06E43EAD7
:103670000E0320EA0300BCF1000F69D073785B00F1
:1036800043F00103002F65D0B778BF003B43002E05
:1036900062D0367836023343034302F5E07241F8D4
:1036A0002230334A04F1080132F8113043F00303A9
:1036B00022F81130002D55D0204602F055FC00288C
:1036C00052D12A7802F5A2712A4B43F821002849E9
:1036D00004F1080031F8103023F02003DB04DB0C88
:1036E00021F810306978002940D095F802C0214DAA
:1036F00002F5A27655F8260020F4991020F4F8502F
:1037000045F8260055F82670200200F47C50090484
:1037100001F4403101434FEA0C5000F480100143A2
:10372000394345F82610520392B208341A4342F046
:1037300020020F4B23F814200F4814E00F4982E7B2
:10374000002388E74FF0000E8BE74FF0000E8EE766
:10375000002395E7002799E700269CE7084802E048
:10376000074800E00448F8BD0548FCE70248FAE7CE
:1037700054000020006000400000AD0B000300502A
:103780000400AD0B014B9860D960704754000020D5
:1037900038B504460D46FFF785FC40B104F108003A
:1037A000044B33F810305B0B2B70034838BD0348D3
:1037B000FCE700BF540000200000AD0B0400AD0B7F
:1037C0000F4B93F878300BB10E48704710B50C4C86
:1037D0006022002104F1100001F0E8FF0620FDF74F
:1037E0004DFE094B00221A601B68084B4FF0004247
:1037F000C3F80423012384F878306367044810BDBC
:10380000540000200500AD0B7C61004000600040CA
:103810000000AD0B034B93F87800003818BF01206F
:10382000704700BF5400002008B501460148FFF76B
:10383000F5FA08BDC400002008B501460148FFF7AD
:10384000C9FA08BDC400002038B504460D46FFF78C
:1038500029FC08B3204602F087FBE8B12046FFF7B9
:1038600041FC830003F580739BB203F1804303F5B1
:10387000C04300221A601B68224A00F5A27152F868
:10388000213043F0010342F821309DB3012303FAB4
:1038900000F0C2F804032DE004F108031A4A32F8DC
:1038A0001330C3F38203042B12D0052B23D004F072
:1038B0001F026309012B09D04FF0A043D3F8103544
:1038C000D34013F0010F18D0032002E00F4BF5E7AF
:1038D000032004F01F026409012C10D04FF0A04116
:1038E00002F5E07251F8223023F4403343EA0043FA
:1038F00041F8223038BD0220EBE70220E9E7034916
:10390000EEE700BF006000405400002000030050BC
:1039100010B50446FFF7C6FBA0B1204602F024FB19
:1039200080B12046FFF7DEFB012282400E4BC3F838
:10393000082300F5A27053F8202022F0030243F878
:1039400020200EE004F01F036409012C0AD04FF080
:10395000A04103F5E07351F8232022F4403241F8EE
:10396000232010BD0149F4E700600040000300502F
:1039700010B50446FFF78CFB08B90C4810BD204673
:10398000FFF7C6FF2046FFF7B1FC04F01F036409F0
:10399000012C08D04FF0A04203F5E073022142F859
:1039A00023100348EAE7034AF6E700BF0400AD0B23
:1039B0000000AD0B0003005038B501204FF48073B8
:1039C00000210D4603E0400004339BB2013107297A
:1039D00014D803F1804202F5C0421268002AF2D0E6
:1039E0000B4AD2F804231042EDD003F1804202F5D5
:1039F000C0420024146012680543E4E7054B1B68CD
:103A00001BB92846FFF728FD38BDFFF7C1FCF8E7D2
:103A1000006000407C61004008B501460148FFF7A6
:103A2000D9F908BDD000002010B5144C0323236140
:103A30006361134AA261134BE3614FF48063236215
:103A40000023A3626362E36222660F4A6266102269
:103A5000A2662367E36663670C49E01D01F043FE3D
:103A6000BFF35F8F0A49204601F03DFEBFF35F8F31
:103A70002023A371BFF35F8F10BD00BF100900208A
:103A8000E0680000C8090020B8090020EC680000C8
:103A9000F0680000034B044A934201D21833FAE75E
:103AA000704700BF80640000F864000070B50646EF
:103AB000114B53F8204009E0404217E0EB681870C2
:103AC000EA68537843F0010353700834731C0A4AC0
:103AD00052F82330A3420DD96568236828469847D9
:103AE000002DF2D00028EBD00028E5DBFF28E5DD33
:103AF000FF20E3E770BD00BFF868000038B5054659
:103B000028B303782BB3144C00E01834134B9C42B9
:103B100008D0204602F03FFA0028F6D02368AB42D6
:103B2000F3D112E00C4C00E018340C4B9C420BD04B
:103B3000204602F030FA0028F6D02168284601F02D
:103B400007FE0028F0D100E00024204638BD0446DE
:103B5000FBE70024F9E700BF80640000F864000080
:103B6000F0B589B00446154BB02505FB0035144B64
:103B70004FF4B07606FB003606AF0346114A082123
:103B8000384601F0FBFA04EB44040F4800EBC40490
:103B90000597012304930F230393002302930193BA
:103BA00000940A4B4FF4A0723146284600F046F9C3
:103BB0006B7B23F004036B7309B0F0BDC0010020E0
:103BC0000014002010690000C80D0020A13F000073
:103BD00070B586B000F008FE1B4D1C4BDD611C4B20
:103BE0000593012304930024039402940194009408
:103BF000184B4FF480621849284600F01FF906461A
:103C00006B7B23F004036B73284602F0B8FA002C98
:103C100002DD304606B070BD2046FFF7A1FF0F4B16
:103C2000B02202FB043204EB4401084B03EBC10356
:103C3000DA601C7504EB8411094A02EB411202F5AB
:103C400002625A600134E2E770020020C80D0020D1
:103C50001C690000653C0000E00F0020C00100204E
:103C60006015002008B50A4B01221A700220FFF7E8
:103C70001DFF01F041F80320FFF718FF00F042F9A3
:103C8000FCF7B8FB034A137B23F00103137308BD51
:103C90001D0E00207002002008B50146014A0248AE
:103CA000FDF7E8FC653C00007002002008B5034801
:103CB000034A121A002101F079FD08BDA00100207D
:103CC000DC0F002000B5ADB01C4B83F308881C4C02
:103CD000636943F400736361E02384F822300025B4
:103CE000E57725766576A57684F82050636A43F4F7
:103CF000E023636284F82350FDF70EFEFDF7A0FB7E
:103D00004FF0FF33A362E362FDF710FFFDF7AAFE59
:103D100001248DF80D408DF80C4026952795094B10
:103D2000C3F808D0FFF7B6FE2846FFF7BFFE2046CF
:103D3000FFF7BCFEFFF74CFFFFF7AEFF801D002032
:103D400000ED00E0C80D002010B5064C0020064B29
:103D50009C4206D2204602F045F9002801DB1C34C3
:103D6000F5E710BD5001002050010020F0B583B0F0
:103D70000C461F464FF02003EFF3118183F31288A6
:103D8000BFF36F8F43696BB1236043691B68436165
:103D9000836901338361002081F31188BFF36F8F42
:103DA00003B0F0BD164600F1080556EA070304D13A
:103DB000002323606FF00B00EEE7CDE900670246B9
:103DC000284600F0E7FB0028EAD1024B9B685B69BC
:103DD0002360E5E7C80D00204FF02003EFF31181C9
:103DE00083F31288BFF36F8F0A4B9B6A834204D11F
:103DF0001A6F084B9A6207E0134613B11A6F82429A
:103E0000FAD10BB1026F1A6781F31188BFF36F8F7C
:103E1000704700BFC80D002038B514461D4654EA4F
:103E2000050302D102F047F938BD2B46024918308C
:103E300000F036FEF8E700BFB76100002DE9F04F53
:103E400085B004460F4615461E46DDF838A0DDF85D
:103E50003C90DDF84080DDF84CB000F158038365FC
:103E6000C365129B0422119902F029F92A463946AA
:103E7000204602F008F90546CDF80880CDF80490F8
:103E8000CDF800A03346024639462046FDF7A2FB96
:103E9000002363652666C4F864A0C4F86890C4F87B
:103EA0006C804FF02003EFF3118283F31288BFF38D
:103EB0006F8F134B996A21679C6282F31188BFF35D
:103EC0006F8FBBF1000F13D01F22594604F174000D
:103ED00001F012FC002384F89330094B9B685BB11E
:103EE000D3F8A430C4F8A430284605B0BDE8F08F5C
:103EF000002384F87430F0E7C4F8A430F4E700BF7E
:103F0000C80D00202DE9704386B0234C234B9C4202
:103F100015D2E36A0593236A0493E3690393A369C3
:103F200002936369019323690093E368A26861685F
:103F30002068FFF783FF23685C653034E6E700F014
:103F4000E1F9154C1BE0266823EAE3734FEAE379B5
:103F50004FEAC93141EA5341D80340F2E7354FF403
:103F60007A72002340194FF0000545EB0101FCF780
:103F7000C7F802460B463046FFF74EFF3034074B7A
:103F80009C4204D2636AB3F1FF3FF7D0DBE700F055
:103F9000B7FB06B0BDE8708350010020500100203F
:103FA00008B501E0FDF752FA4FF02002EFF311835C
:103FB00082F31288BFF36F8F02F0E0F9034B986130
:103FC000FDF7AEF80028EFD1ECE700BFC80D0020E8
:103FD0002DE9F04383B004461D464FF02003EFF374
:103FE000118783F31288BFF36F8FC16899B90029D5
:103FF0004FD13A4B9B6893F90E3023610131E16058
:10400000364B9B68A36087F31188BFF36F8F002046
:1040100003B0BDE8F08316468268304B9B689A4235
:10402000E5D055EA06010CBF4FF001084FF000083B
:1040300031D092F90E90494693F90E0002F050F8F3
:1040400081452FDC4FF00009009601952246394644
:10405000234800F09FFA0028DAD04FF02003EFF356
:10406000118583F31288BFF36F8F23689C421FD0A2
:10407000F3B1216993F90E0002F032F801462046AF
:1040800002F039F8B0B9B9F1000F15D04FF00108BE
:1040900012E02369B1E787F31188BFF36F8F6FF0E8
:1040A0000F00B5E70146204602F025F88146CBE730
:1040B0002169E4E74FF00108B8F1000F06D185F35C
:1040C0001188BFF36F8F6FF00A00A1E729460448FB
:1040D00000F0FCF86FF00A009AE700BFC80D00205E
:1040E000F40D00208268002A35D038B504461D4BF7
:1040F0009B689A4232D1DA7B013ADA73C368012BAA
:1041000005D9013BC36000F0FBFA002038BD4FF039
:104110002003EFF3118583F31288BFF36F8F0169DA
:1041200001F0E9FF204602F0C5F8A06060B190F907
:104130000E3023610023C0F8AC3002F020F829468D
:10414000094800F0C3F8DEE70023E36085F3118837
:10415000BFF36F8FD7E76FF0150070474FF0FF3058
:10416000D4E700BFC80D0020F40D002038B5044688
:104170004FF02003EFF3118583F31288BFF36F8FA5
:1041800002F098F848B10022C0F8AC2001F0F7FF27
:104190002946074800F09AF838BDA368E2689342C0
:1041A00003D001221344A360F2E70022FAE700BF24
:1041B000F40D002030B583B01D464FF02003EFF31F
:1041C000118183F31288BFF36F8F836843B1013B82
:1041D000836081F31188BFF36F8F002003B030BD7F
:1041E000144654EA050306D0CDE9004502460548C9
:1041F00000F0D0F9F2E781F31188BFF36F8F6FF011
:104200000F00EBE7F40D002038B5B3F1FF3F08BF16
:10421000B2F1FF3F00D138BD0249183000F040FC38
:10422000F9E700BFB761000008B5084B1B6803B988
:1042300008BDFEF757FC0346044A10680344044ACD
:104240001361002102F0B0F8F2E700BFFC0D00207E
:10425000C80D00202DE9F0410646884600234FF0A6
:104260002002EFF3118782F31288BFF36F8F09E00A
:10427000134BC3F80080FFF7D7FF87F31188BFF314
:104280006F8F0123CBB900230E4A1361750CF40321
:1042900040F2E7304FF47A72002320184FF000010B
:1042A00045EB0101FBF72CFF074B1860002EDFDD0B
:1042B0000228B8BF02201860DAE7BDE8F08100BF2D
:1042C000F80D0020C80D0020FC0D002008B50846A0
:1042D00021B9EFF3058313B9012100E0002111F0AA
:1042E000010F07D0064BDA699B689A4202D0FDF7AE
:1042F00019F903E080F31188BFF36F8F08BD00BF89
:10430000C80D002000234FF02002EFF3118182F34B
:104310001288BFF36F8F53B9054B9A68D37B013B6B
:10432000D37381F31188BFF36F8F0123F3E77047D5
:10433000C80D002038B504460F4801F019FF0546A6
:1043400070B184B90D4B9B685A7B12F01F0F0AD1D4
:10435000AA6942B9DA897F2A05D9084AD3610AE0F5
:10436000064BDD68EDE7054B9B68AB4201D0FFF7DC
:104370005BFF024BDD6138BDE80D0020C80D002059
:1043800038B50546427B90F90D30002B28DB6B7B5E
:1043900063F07F036B731A4B53F8204F9C422DD070
:1043A0006CB12146284601F0BCFE002820DC34B167
:1043B000134B5B6A9C4202D02468002CF0D1104B56
:1043C0005A6A03F1200129606A6015605D620C4B36
:1043D0009868A84214BF00200120FFF7ABFF38BD4A
:1043E00002F07F0242730146064801F0B9FECEE7B3
:1043F00063686B602C601D606560E8E70024CFE7B0
:10440000C80D0020E80D002010B54FF02003EFF399
:10441000118483F31288BFF36F8F1C4B9B681C4A77
:10442000126893421DD01A4A00211160194A12687D
:1044300022B3DA897F2A21D85A7B12F01F0F1DD1AF
:1044400093F90E10144A1268914217DB134A9342F3
:1044500014D00E4A126982420ADD101A0B4B186101
:104460000FE0FFF7E1FE84F31188BFF36F8F0CE0DC
:104470001846FFF785FFFFF7D7FE02E0034B002247
:104480001A6184F31188BFF36F8F10BDC80D00202F
:10449000F40D0020FC0D0020F80D0020C0010020CC
:1044A00038B5437B90F90D20002A2DDB044613F02C
:1044B0001F0F05D182690AB1002202E0012200E04B
:1044C00000220AB363F07F036373144B53F8205F39
:1044D0009D4220D06DB12946204601F022FE0028E1
:1044E00013DC35B10D4B5B6A9D4202D02D68002D67
:1044F000F0D10A4B5A6A03F1200121606260146016
:104500005C620020FFF716FF38BD6B6863602560B2
:104510001C606C60F5E70025DCE700BFC80D0020DB
:1045200010B54FF02003EFF3118483F31288BFF32B
:104530006F8F437B13F0040F04D184F31188BFF312
:104540006F8F10BD23F004034373FFF7A9FF2146CB
:104550000148FFF7BBFEF4E7F80D002010B5044654
:10456000427B90F90D30002B08DB084B9868A04285
:1045700014BF00200120FFF7DDFE10BD02F07F0216
:1045800042730146024801F0EBFDEEE7C80D002042
:10459000E80D002010B50C461146064B9868064BF6
:1045A0001860DDE9022301F064FE2046FCF7BAFF43
:1045B00010BD00BFC80D0020F40D00202DE9F84308
:1045C00004460F4600234FF02002EFF3118682F3DA
:1045D0001288BFF36F8F984608E012F0010811D1DE
:1045E000A77386F31188BFF36F8F01231A46002B40
:1045F0003DD1637B13F01F0FEFD1A1690029ECD1EE
:104600000122EAE703F07F036373DFF86C90214631
:10461000484601F0A5FDA773637B63F07F036373D6
:10462000D9F800504D4520D06DB12946204601F003
:1046300078FD002813DC35B10E4B5B6A9D4202D039
:104640002D68002DF0D10B4B5A6A03F12001216037
:10465000626014605C620120FFF76CFEC1E76B686A
:10466000636025601C606C60F5E70025DCE7404670
:10467000BDE8F883C80D0020E80D002038B50446D9
:10468000183001F05DFE00234FF02002EFF311859A
:1046900082F31288BFF36F8F10E0637B43F0100347
:1046A0006373154B9868A04214BF00200120FFF7E8
:1046B00041FE85F31188BFF36F8F012363B9627BDD
:1046C00094F90D30002BE8DA02F07F026273214684
:1046D0000A4801F045FDE0E7074B9B68A34200D084
:1046E00038BD4FF02003EFF3118083F31288BFF33E
:1046F0006F8F01F020FDF3E7C80D0020E80D0020CA
:1047000010B500234FF02002EFF3118482F31288DA
:10471000BFF36F8F6BB90C4B9A68D37B0133D373A4
:104720000020FFF707FE84F31188BFF36F8F01238A
:10473000F0E74FF02003EFF3118083F31288BFF30B
:104740006F8F01F0F8FC10BDC80D0020F8B5437B59
:1047500013F0080F45D1054643F0080303F0DF03CB
:10476000437313F0800F14D1AB685BB1284601F09E
:10477000D6FC294601F0F4FC6B7B23F002036B733B
:104780000023AB6005F1180001F0DAFD05F15807D0
:104790001CE003F07F0343730146124801F0E0FC84
:1047A000E2E7204601F0BBFC214601F0D9FC637B27
:1047B00023F0020363730026A66004F1180001F0E1
:1047C000BFFDC4F8AC602046FFF76AFE3C68BC42FF
:1047D00001D0002CE5D10120FFF7ACFD2846FFF702
:1047E000FBFAF8BDE80D002008B5044801F08DFD86
:1047F00000210846FFF72EFD08BD00BFE40D002094
:10480000F8B54FF02003EFF3118683F31288BFF35E
:104810006F8F1C4CA1684B7B03F07F034B7304F13B
:104820002007384601F09CFCA5686B7B63F07F0392
:104830006B73246ABC4223D06CB12146284601F038
:1048400070FC002816DC34B10E4B5B6A9C4202D02F
:104850002468002CF0D10B4B5A6A03F12001296027
:104860006A6015605D620120FFF764FD3046FCF769
:1048700059FEF8BD63686B602C601D606560F2E7EF
:104880000024D9E7C80D00202DE9F04104460D466B
:1048900054EA050137D06FF001010A1A4FF0FF31D9
:1048A00061EB0503012A73F1000330DB6FF00106B1
:1048B000361A4FF02003EFF3118883F31288BFF309
:1048C0006F8F164FB868164B1860FFF747FEB86831
:1048D00022462B461349183000F0E2F8BA68537BA1
:1048E00043F0100353734046FCF71CFE002501F013
:1048F00086FD341A65F10005012C75F100030ADA12
:104900000020BDE8F081FFF77BFF0020F9E701F010
:1049100076FD0619CDE72046F3E700BFC80D00205D
:10492000F40D0020B761000038B5B1F1FF3F08BFBA
:10493000B0F1FF3F1AD0FFF7A7FF0446C517690182
:10494000430141EAD062181A62EB05039A0042EA79
:10495000907281001346081945EB0303DA0042EA1E
:104960005072C100C80B40EA424038BD034B986802
:10497000FFF784FE4FF0FF30F7E700BFC80D0020BF
:10498000014B9868704700BFC80D002038B54FF044
:104990002003EFF3118583F31288BFF36F8F437BFE
:1049A00013F0080F04D085F31188BFF36F8F38BD63
:1049B0000446FFF7CBFE084B9B68A34204D085F367
:1049C0001188BFF36F8FF2E7EFF30583002BF6D169
:1049D0002846FCF7A7FDF2E7C80D002008B50648F9
:1049E000064A121A064900F0BDFE064A0649074863
:1049F00000F0B8FE08BD00BF00000020A0010020AC
:104A0000E469000000000000E469000000000020EC
:104A1000034B1868984200D070470020FCE700BFA5
:104A2000D400002030B1044A5268904201D000689E
:104A300070470020704700BFD400002008B5044B29
:104A40001B680BB1002008BDFEF74CF8FBE700BF68
:104A5000000E002010B5FFF7DBFF0446FFF7EEFF66
:104A60008CB1D4E90423121A63EBE073012A73F1C9
:104A7000000111DB1046B2F1004F73F1000304DBBB
:104A80006FF0004001E06FF00040044B1B6913B170
:104A9000834200DA184610BD0020F6E7C80D00205A
:104AA0002DE9F04F83B0B3F1FF3F08BFB2F1FF3FF4
:104AB00000F09680824614461D46816000234FF028
:104AC0002002EFF3118B82F31288BFF36F8F2EE079
:104AD000012200234BE0FFF7B1FF221845EBE07302
:104AE000013243F10003CAF81020CAF8143042E042
:104AF000009BC21A019B61EB0303CCF81020CCF899
:104B00001430DCF80430CAF80430CAF800C0C3F826
:104B100000A0CCF804A0BCF1000F49D0FFF778FF4B
:104B2000824550D08BF31188BFF36F8F0123002B88
:104B300056D16FF00103B3EB04084FF0FF3060EB88
:104B40000509B8F1000F79F10003C4DB264A1368A8
:104B50005268E31845EB02026FF00101CE1A60EBD8
:104B6000020732463B46012E77F10001B0DBCAF85E
:104B70001020CAF81430FFF74BFF8446BCF1000F39
:104B8000C9D0DCE90401DAE90423CDE9002382423B
:104B90008B41ADDB009B1A1A019B63EB0103CAF842
:104BA0001020CAF814306046FFF73CFF8446E5E762
:104BB0000E4B5A68CAF80030CAF80420C2F800A0A8
:104BC000C3F804A0AAE7FFF745FF034618B1084A57
:104BD00012698242A6D000211846FDF74FFFA1E7D7
:104BE00003B0BDE8F08F00BF20030020D4000020F8
:104BF000C80D0020F8B50446FFF706FC4FF020036F
:104C0000EFF3118583F31288BFF36F8F284B1C607D
:104C1000FFF7FEFE044650B3D0E90467244B1B683F
:104C2000D917B34271EB070221DB224AD2E9000116
:104C3000801941EBE671C2E900019B1B1C4A13601D
:104C400000220023C4E90423204601F062FB85F31F
:104C50001188BFF36F8FA368204698474FF0200359
:104C6000EFF3118583F31288BFF36F8FD0E744B160
:104C70000F4B1968D4E90423521A63EBE173C4E9BA
:104C800004230C480A490C68D0E90023121943EBAD
:104C9000E473C0E9002300240C60FFF7DBFE21462B
:104CA000FDF7ECFE85F31188BFF36F8FF8BD00BFF1
:104CB000000E00202003002010B500214FF020033B
:104CC000EFF3118483F31288BFF36F8F0022002368
:104CD00069B9FDF707FF074BD3E90023121843F129
:104CE000000384F31188BFF36F8F0121F0E71046B2
:104CF000194610BD2003002008B5034A03490448A3
:104D000000F02EFA08BD00BF3067000024690000E3
:104D10003469000010B50A4C23681BB101232360DD
:104D2000002010BD00F0D6F80028F7D00138062882
:104D300003D8044B53F8200010BD034810BD00BF3A
:104D4000040E00205C690000FE8FFFFFBFF34F8F51
:104D50000549064BCA6802F4E0621343CB60BFF317
:104D60004F8F00BFFDE700BF00ED00E00400FA0533
:104D7000F0B4094F094E0A4C0A4A0B4D0B494FF04B
:104D8000FE333B6052683360236000242B60C1F81F
:104D90000045F0BC104700BF00B4025004B40250FC
:104DA00008B40250DC0000200CB4025000A00250F5
:104DB000D0E90012014BC3E900127047DC0000206B
:104DC00010B5044630B16368DB0602D500232360CA
:104DD000636010BD024B03485B689847F3E700BF70
:104DE000DC0000207869000068B143683BB1DB0655
:104DF00007D5BFF35F8F0023036018467047034851
:104E00007047034870476FF4E0407047EA8FFFFF38
:104E1000E98FFFFF10B5044620B100221123226064
:104E2000636010BD0148FFF7A3FFF6E7A06900002B
:104E3000C0B14368A3B1DB0610D50122BFF35B8F7D
:104E400050E8003F40E800210029F9D1BFF35B8F13
:104E5000012BF3D0BFF35F8F0020704703487047EA
:104E6000034870476FF4E040704700BFE98FFFFFD1
:104E7000EA8FFFFF70B5D0E90023134C134DC4E94E
:104E80000023D0E90263C4E90263114B086818608B
:104E90004868586088689860D1E90360D5F81411B3
:104EA000DE601861CB060DD50023C5E94433C5E9A2
:104EB0006D3305F588709047236805F5DA70BDE815
:104EC0007040184770BD00BFEC000020200E00208D
:104ED000FC00002010B500F033F820B1032400F0EE
:104EE00067F8204610BD00F035F890B900F0B0F832
:104EF00090B90F4B1B681B0EF02B08D10D4A0E4BBF
:104F000012689A420AD0072400F01CF8E7E706244A
:104F1000FAE70424204610BD0024F5E7012000F044
:104F200097F804460028F7D1044B1860D9E700BF72
:104F300028B9025024BA02500000E0200CBA0250F6
:104F40000020704700207047014B1860704700BF79
:104F500004BA025010B5114800F048F800B110BD75
:104F60000F4800F043F80028F9D10E4C204600F01D
:104F70003DF80028F3D10C4B0C481C6000F036F8CB
:104F800001460028EBD100F02DF8044608B1204678
:104F900010BD00F03FF82046FAE700BF34010020C2
:104FA0002801002030010020380100202C010020C1
:104FB00008B5084800F024F8074800F021F8074831
:104FC00000F01EF8064800F01BF8BDE8084000F0AD
:104FD0000BB800BF34010020280100203001002060
:104FE0002C01002000207047704700BF08B5034B1C
:104FF00002681B6810689847002008BDEC0000207C
:1050000008B5034B02685B6810689847002008BD2C
:10501000EC00002070B5094C094D2069AB68984739
:1050200018B1084B08485B689847084AEB68206944
:1050300000211160BDE87040184700BFFC0000204F
:10504000EC000020DC000020C4690000180E0020E5
:1050500070B51A4D1A4E0446B26828699047F0B9E7
:105060005CB1184C2368ABB1012B1AD0013B236013
:105070002869F3689847002070BD124C216839B93F
:10508000114B124A0120C3F800051368002BFCD114
:1050900001312160F36828699847002070BD0C48F1
:1050A00070BD0A4A1368002BFCD1074A6FF07E409E
:1050B000C2F80035FFF748FF2368D7E7FC0000205F
:1050C000EC000020180E002000A0025010B9025081
:1050D000E98FFFFF704708B583685B694FF40051A3
:1050E000984708BD024658B1436803F00303012BFB
:1050F00003D0032B07D1036843B1002090607047B1
:105100006FF0150070476FF0150070476FF01500D5
:1051100070470346426802F003028160032A03D10C
:10512000006800225A6070470020FAE700207047AC
:1051300010B40C6854B18A684B689A4206DA013B95
:105140009A4208D0531C8B60A05402E08B68013354
:105150008B6010BC7047531C8B600023A354F8E78E
:105160000FB400B583B004A951F8040B0191FBF70B
:10517000A1F903B05DF804EB04B070470CB400B5BE
:1051800083B004AB53F8042B0193FBF7A3F903B0EE
:105190005DF804EB02B0704701F00703018B21F0CA
:1051A00007011943018370472DE9F04106460F4678
:1051B0009046816819B10C4631B10C6804E00C4688
:1051C00002E0234621461C4659B14D6843463A4603
:1051D0003046A847002CF4D02346002CF2D0236898
:1051E000F0E7BDE8F081038B13F0070303D10268F9
:1051F0000AB103207047022B03D0012B06D00020F8
:105200007047428B002AF8D10420704703680BB125
:10521000052070470020704738B504460D46038BC3
:10522000002A07DB03F007035A1F012A0ED9042BBB
:1052300032D038BDD0E9000185E8030000232360A7
:10524000636001212046FFF7A7FFF2E7D0E90001E4
:1052500085E80300002222606260062B17D12B68CC
:105260003BB1628B01326283002BF9D01B68002BAB
:10527000F6D102212046FFF78FFF2046FFF7B3FF4C
:105280000028D6D0238B43F020032383D1E70021CD
:105290002046FFF781FFF0E70021FFF77DFF204662
:1052A000FFF7A1FF0028C4D0238B43F02003238302
:1052B000BFE758B110B50C4659B1081DFFF712FFF2
:1052C00018B9A36833F0030306D110BD6FF01500C1
:1052D00070476FF01500F8E76FF01500F5E72DE95E
:1052E000F04107460C4616461D461946201DFFF79D
:1052F00010FF28B180462B46324621463846C0472B
:10530000BDE8F0812DE9F84381460C4690461F46E2
:1053100005E065603B4642464846FFF7E0FF2168EE
:1053200029B10D68256066688E42F3D1F1E7BDE8CA
:10533000F88310B54FF02004EFF3118284F3128844
:10534000BFF36F8F41610121FBF7DAF810BD03460F
:1053500068B179B10A6882B14A688AB100201860E0
:1053600058609860D86058619861196170476FF013
:10537000150070476FF0150070476FF0150070470B
:105380006FF015007047F8B504460F46FFF791FF20
:10539000061E37DB4FF02003EFF3118283F31288F0
:1053A000BFF36F8F258B05F00705638B4FF6FF71F9
:1053B0008B422FD02E46022D0CD08DB1042D0FD054
:1053C000062D0DD0052D1FD06FF0040600210B46D1
:1053D00008460AE00133638301210023184604E0F4
:1053E000B5FA85F35B090021012028B1002038605F
:1053F0006068A8B107606760ABB982F31188BFF33A
:105400006F8FA9B93046F8BD6FF0850600210B46B5
:105410000846EAE76FF00A0600210B460846E4E773
:1054200067602760E8E702212046FBF769F8E9E7B3
:1054300000232A4639462046FFF751FFE2E708B528
:105440000446084611461A46A047FFF799FAFCF7AA
:10545000F3FA10B40446026800201378A3F1300177
:10546000092906D800EB8000013203EB40003038F8
:10547000F3E7226010BC70472DE9F04F83B004467B
:105480000D4601929A46DDF83080D378A3F1410BA6
:105490006F2B0FD006D9702B0FD0782B10D14FF077
:1054A000100926E0582B02D04FF00A0921E04FF0F6
:1054B00010091EE04FF008091BE04FF0100918E03A
:1054C0004FF00A0915E0BBF1190F20D8D2B23732DC
:1054D000D2B208F8012D32463B4620462946FAF75B
:1054E0000FFEBD4208BFB44215D3D04513D90446C0
:1054F0000D464E4600274A463B4620462946FAF7C7
:10550000FFFD092ADFD8D2B23032D2B2E1E7D2B2FF
:105510005732D2B2DDE7019B1B7813F0200F05D084
:10552000B9F1080F06D0B9F1100F09D0404603B009
:10553000BDE8F08F019A937843F008039370F5E784
:10554000019A937843F010039370EFE72DE9F0414F
:1055500007460E4614469846002506E0314614F8E4
:10556000010BB847002809DB01354445F6D3B8F1F3
:10557000000F02D12378002BF0D12846BDE8F0813E
:1055800070470022026042608260704708B50020C8
:10559000FBF74CFD08B500F00BFD08BD08B5014652
:1055A0000068FFF7F7FF08BD08B500210120FFF7ED
:1055B000F1FF08BD08B5FBF795FFFCF791F808BDB2
:1055C0000020704700230B70704708B5002313704C
:1055D000CB1E092B1AD8DFE803F005090D111919A4
:1055E000191919141146FCF70BF910E00021FCF70A
:1055F000C1F80CE00021FCF781F808E0FCF7A8F8FE
:1056000005E01146FFF7DEFF002000E0002008BDA6
:1056100043685A1E134206D11F2B06D903681A424B
:1056200005D00020704700207047002070470120FF
:105630007047072805D810B50446FCF733FA204612
:1056400010BD6FF01500704700B585B00B68019371
:105650004B688A68202B12D9B3F1004F11D8013B57
:10566000B3FA83F3C3F11F035B0003F03E0313435C
:10567000039301A9FFF7DDFF05B05DF804FB0823E4
:10568000F5E73E23F3E72DE9F84380460F469946B8
:105690001646002509E02146F0B2FFF7D5FF064681
:1056A00010F1160F14D001360135BD4210DA05EBAA
:1056B000450408EB84046268002AF5D0B9F1000FB4
:1056C000E9D02046FFF7A4FF0028E4D16FF01506CB
:1056D0003046BDE8F88308B5FCF7F4F908BD08B515
:1056E000FCF7FAF908BD02460B781BB102F8013B42
:1056F0000131F9E7137070470346A2B110B40C787A
:105700002CB103F8014B0131013A002AF7D122B143
:10571000002103F8011B013AF9E710BC7047002192
:1057200003F8011B013A002AF9D170470346002013
:105730001A7812B101330130FAE7704703460020AE
:105740001A7822B1884202D201330130F8E770475B
:1057500003780A78934203D113B101300131F7E79E
:10576000981A704710B480EA010313F0030F01D0B8
:10577000034617E0034613F0030F0BD0A2B111F854
:10578000014B03F8014B013AF5E751F8044B43F89C
:10579000044B043A032AF8D804E011F8014B03F84B
:1057A000014B013A002AF8D110BC704710B4CCB2BA
:1057B000034613F0030F04D09AB103F8014B013AEA
:1057C000F7E7C9B241EA012141EA0141032A06D9BA
:1057D00043F8041B043AF9E703F8014B013A002AA5
:1057E000FAD110BC70474FF0FF30704784B004AB63
:1057F00003E907009DF80430062B01D004B0704780
:105800004FF080430122C3F80025BFF34F8F20BF24
:10581000FDE784B004AB03E90700002383F311889C
:10582000BFF36F8F04B07047006901EB410189003D
:10583000383108447047406800EBC1007047006988
:10584000C1EBC10100EB8100704708B5C9B2FFF799
:10585000EBFF806800F0070008BD4FF02003EFF376
:10586000118283F31288BFF36F8F036813F0C003B4
:1058700001D08B4207D101230360002082F31188FD
:10588000BFF36F8F70474FF0FF30F7E710B44FF062
:105890002003EFF3118283F31288BFF36F8F036845
:1058A00003F0C00403F00703012B09D08C420AD097
:1058B0004FF0FF3082F31188BFF36F8F10BC704739
:1058C00001600020F6E76FF07700F3E74FF0200368
:1058D000EFF3118283F31288BFF36F8F036803F035
:1058E000C00343F00203036082F31188BFF36F8F9C
:1058F0007047F8B506460C46FFF796FF05684768FF
:10590000002340F8083BFFF7E1FF1DB13A4621466E
:105910003046A847F8BD70B506461546CCB22146BC
:10592000FFF782FF29460830FFF797FF002806DBC4
:1059300021463046FFF77FFF43689847002070BD3F
:1059400008B58022FFF7E7FF08BD2DE9F0410646C4
:1059500090461F46CDB22946FFF766FF04460699DA
:105960000830FFF793FF002809DBC4F80080676068
:1059700029463046FFF75FFF036898470020BDE8DF
:10598000F08110B582B080240094FFF7DEFF02B0F2
:1059900010BD10B51446C9B2FFF751FF0021A04752
:1059A00010BD08B50120FDF771FA08BD08B500204B
:1059B000FDF76CFA08BD08B50120FDF79FFA08BD98
:1059C00008B50020FDF79AFA08BD08B51046FEF7A5
:1059D000CDFB08BD10F0100F04D110F0200F03D143
:1059E00000207047032070470120704743685B68C0
:1059F000D3F810350B600020704743685B68D3F81C
:105A0000040542400A404240C3F804250020704784
:105A100043685B68C3F808150020704743685B68FB
:105A2000C3F80C150020704743685A68D2F8043553
:105A30004B40C2F8043500207047B0F5804F07D0C6
:105A4000B1F5C02F0DD0B1F5003F08D0012070474F
:105A5000B1F5003F01D005207047042070470220B7
:105A600070470320704770B40069051D4368DBB1BF
:105A70000E4600240AE00B6843606C68A1420FD117
:105A80006B600DE06C600BE01C461B685BB19E42D6
:105A9000FAD1002CEFD00B6823606B689942F1D0EB
:105AA00000230B6000E052B162B143680B604160BB
:105AB0006B680BB1002006E06960002003E06FF026
:105AC000150000E0002070BC704770B500F01F04A6
:105AD0004009FCF7B5FAD8B1064603690125A5408F
