:1000000060190020B51B0000F3680000891B000088
:10001000891B0000891B0000891B000000000000F4
:10002000000000000000000000000000E5170000D4
:10003000891B00000000000091170000891B0000D0
:100040009D1800009D1800009D1800009D180000DC
:100050009D1800009D1800009D1800009D180000CC
:100060009D1800009D1800009D1800009D180000BC
:100070009D1800009D1800009D1800009D180000AC
:100080009D1800009D1800009D1800009D1800009C
:100090009D1800009D1800009D1800009D1800008C
:1000A0009D1800009D1800009D1800009D1800007C
:1000B0009D1800009D1800009D1800009D1800006C
:1000C0009D1800009D1800009D1800009D1800005C
:1000D0009D1800009D1800009D1800009D1800004C
:1000E0009D1800009D1800009D1800009D1800003C
:1000F0009D1800009D1800009D1800009D1800002C
:1001000053B94AB9002908BF00281CBF4FF0FF317E
:100110004FF0FF3000F06CB9ADF1080C6DE904CE82
:1001200000F006F8DDF804E0DDE9022304B07047D2
:100130002DE9F047089E0D4604468E46002B40F000
:1001400082808A42174646D9B2FA82F24AB1C2F197
:10015000200105FA02F320FA01F1974041EA030E6B
:1001600094404FEA1748230CBEFBF8FCB9B208FBD9
:100170001CEE43EA0E430CFB01F098420AD9FB182F
:100180000CF1FF3580F01681984240F21381ACF1FA
:10019000020C3B441B1AA4B2B3FBF8F008FB10336B
:1001A00044EA034400FB01F1A14209D93C1900F1E2
:1001B000FF3380F00181A14240F2FE8002383C44CE
:1001C000641A40EA0C4000211EB1D4400023C6E965
:1001D0000043BDE8F08702B9FFDEB2FA82F2002ADE
:1001E0004FD1CB1B4FEA174E1FFA87F80121B3FB03
:1001F000FEFC250C0EFB1C3345EA034508FB0CF303
:10020000AB4207D97D190CF1FF3002D2AB4200F2AC
:10021000E7808446ED1AA3B2B5FBFEF00EFB105545
:1002200043EA054408FB00F8A04507D93C1900F152
:10023000FF3302D2A04500F2D7801846A4EB080491
:1002400040EA0C40C0E78B4208D9002E00F0AF8096
:100250000021C6E900050846BDE8F087B3FA83F13E
:1002600000294BD1AB4202D3824200F2B780841AFC
:1002700065EB030301209E46002EAAD0C6E9004E7E
:10028000A7E7C2F1200C01FA02F3974020FA0CF024
:100290004FEA174E21FA0CFC1843BCFBFEF1050C8B
:1002A0000EFB11CC1FFA87F845EA0C4501FB08F359
:1002B000AB4204FA02F409D97D1901F1FF3C80F048
:1002C0008B80AB4240F2888002393D44EB1A85B204
:1002D000B3FBFEF00EFB103345EA034500FB08F3C9
:1002E000AB4207D97D1900F1FF3C71D2AB426FD907
:1002F00002383D44EB1A40EA014178E7C1F1200C95
:100300008B4022FA0CF71F4320FA0CF405FA01F394
:100310004FEA174E25FA0CF51C43230CB5FBFEF9EA
:100320001FFA87F80EFB195543EA054509FB08FA41
:10033000AA4502FA01F200FA01F308D97D1909F180
:10034000FF3047D2AA4545D9A9F102093D44A5EBA2
:100350000A05A4B2B5FBFEF00EFB105544EA0544B5
:1003600000FB08F8A04507D93C1900F1FF352DD254
:10037000A0452BD902383C4440EA0940A4EB0804CC
:10038000A0FB02894C45C6464D4619D316D05EB136
:10039000B3EB0E0264EB050404FA0CFCCA404CEA11
:1003A0000202CC40C6E900240021BDE8F0873146B6
:1003B00030460EE7AC46EDE6184601E74345E6D287
:1003C000B8EB020E69EB07050138E0E72846D3E7F2
:1003D00060468FE78146BAE7614677E708464BE714
:1003E000ACF1020C3D4415E702383C4426E700BF5F
:1003F000704700BF10B54FF0FF324FF0FF330F488A
:1004000004F0ECF80D4804F0E9F90D4801682822E1
:100410004B1C93FBF2F102FB1131016009480368A8
:10042000013B18BF1A468B18282B026004D0BDE888
:100430001040054806F076B910BD00BF0402002048
:100440004004002000000020EC71000008B50348C3
:1004500006F068F9FFF7CEFFFCE700BF227200004C
:1004600008B5034801F05CFDFFF7C4FFFCE700BFDF
:100470003472000038B54468816004F00304032C32
:10048000054602D02CB1002000E0006800236B601C
:1004900038BD054A05490648452306F043F9024898
:1004A000452106F00BFAEEE75C72000027730000AE
:1004B0007F7200000B6801330B60014B1B6818470B
:1004C00004000020014B1860704700BF04000020AA
:1004D00007B50B46002102460191034801A900F02F
:1004E000C9FA03B05DF804FBB50400002DE9F04F34
:1004F000B0F81C9085B019F0080F0446039222D082
:1005000001290CBF49F0100949F02009A0F81C90FE
:100510001434204604F01EF868B99F4A9F49A04849
:10052000AC2306F0FFF89F48214606F0FBF89A48F6
:10053000AC2106F0C3F9039B83F31188BFF36F8FDF
:1005400005B0BDE8F08F984FDFF8548209F0070935
:10055000022906D1204606F0F2F80028D8D001285A
:1005600068D1D4F818B0A38BBBF1000F0ADA0026CB
:10057000256823F00703C4E9006643F00103A38361
:10058000019627E003F00702511F012934D800210A
:1005900023F00703062A25689BB2C4E900110CD199
:1005A0008D422A4638BF0A462AB1E18B12680131D2
:1005B000E183002AF8D143F00203A383204606F02A
:1005C000BEF806460028DBD0A38B43F02003A383AC
:1005D00000230193A38B03F007024A45029203D044
:1005E000A268002A40F0F0801DB9019A002A00F0AC
:1005F00036814FF00009E9E0042A0ED123F0070309
:100600009AB2A283204606F09AF8054618B142F045
:100610002002A28300250195DCE74046634940F2B1
:100620001B133A4606F07EF840F21B11384606F0DE
:1006300045F9EFE7032835D1B9F1000F0BD05C493C
:1006400040464FF4AB733A4606F06CF84FF4AB718A
:10065000384606F033F923685BB95649404640F204
:1006600057133A4606F05EF840F25711384606F046
:1006700025F923691B6801935BB94F4940464FF444
:10068000AD733A4606F04EF84FF4AD71384606F0B9
:1006900015F9A38B23F0070343F00603A38300257A
:1006A000AB4697E7042832D1B9F1020F0BD043498A
:1006B000404640F25D133A4606F034F840F25D11D0
:1006C000384606F0FBF8E38B5BB13D4940464FF4FA
:1006D000AF733A4606F026F84FF4AF71384606F08D
:1006E000EDF823695B6801935BB93349404640F2FA
:1006F00061133A4606F016F840F26111384606F0EA
:10070000DDF8A38B23F0070343F00403C6E70528B5
:1007100032D1B9F1010F0BD02A4940464FF4B273E0
:100720003A4605F0FFFF4FF4B271384606F0C6F8BE
:1007300023685BB91F49404640F265133A4605F00D
:10074000F1FF40F26511384606F0B8F823699B685E
:1007500001935BB9184940464FF4B4733A4605F02B
:10076000E1FF4FF4B471384606F0A8F8A38B23F0EC
:10077000070343F0050391E70C4940F26B133A4637
:10078000404605F0CFFF002540F26B11384606F0D9
:1007900095F8019584E700BF3F7300006573000082
:1007A0007F7200007C7300009C72000027730000C1
:1007B000BE720000CA720000ED72000004730000F7
:1007C0001A730000297300004FF0010943F0080379
:1007D00004F1140AA383504603F0BCFE68B93A4AF8
:1007E0003A49AC23404605F09DFF3948514605F093
:1007F00099FF3548AC2106F061F8039B83F311881B
:10080000BFF36F8FB9F1000F38D1002D4BD1019B91
:1008100013B13049204698474FF02003EFF3118B76
:1008200083F31288BFF36F8F5046CDF80CB003F0FE
:1008300083FE68B9244A28498123404605F072FFA7
:100840002648514605F06EFF1F48812106F036F814
:10085000504603F08FFEA38B23F00803A383A38BE2
:10086000DA0628D523F01003A3830121B4F81C90E5
:1008700009F0070900297FF46BAE49E6A168002959
:10088000C3D00B68029A002B38BF002399464B68EF
:1008900020461E465B46B047B9F1000FB5D0D9F8E7
:1008A00000304946EEE72946029A2D685B4620460D
:1008B00005F061FFA9E713F020011EBF23F020031C
:1008C000A3830221D2E700BF3F73000065730000DD
:1008D0007C730000E108000091730000A673000023
:1008E000F8B504460D4600F114064FF02003EFF36F
:1008F000118783F31288BFF36F8F304603F01CFE1D
:1009000068B90C4A0C490D48812305F00BFF0C48CF
:10091000314605F007FF0748812105F0CFFF30463B
:1009200003F028FEA5613A4620460121BDE8F840C3
:10093000FFF7DCBD3F730000917300007F72000081
:10094000A67300002DE9F04704460F4605F029FF85
:10095000051E5EDB04F114094FF02003EFF3118A4A
:1009600083F31288BFF36F8F484603F0E5FD68B943
:10097000384A39493948812305F0D4FE3848494678
:1009800005F0D0FE3348812105F098FF484603F07A
:10099000F1FDE38BA28B4FF6FF718B4202F007064D
:1009A00050D0022E24D10133E38335464FF00108A5
:1009B000484603F0CFFD68B9264A2A492748AC23A8
:1009C00005F0B0FE2848494605F0ACFE2148AC21B0
:1009D00005F074FF8AF31188BFF36F8FB8F1000F31
:1009E00017D0002332463946204605F0C4FE10E0F9
:1009F000930701D0062E0FD100233B606368F3B943
:100A0000C4E900773546FEB9524602212046FFF779
:100A10006DFD2846BDE8F087052E18D0012E0BD0BD
:100A200012490E48124A40F2C91305F07BFE1048E5
:100A300040F2C91105F042FF6FF0040504E01F60A9
:100A40006760DFE76FF00A054FF00008B0E76FF06E
:100A50008505F9E73F730000917300007F72000085
:100A6000A6730000657300007C730000297300000A
:100A70009C7200002DE9F04F91B08B460290924697
:100A80001C4600259AF8000008B928465EE3252890
:100A90000AF1010707D0029B594698470028C0F287
:100AA0005583013510E2182200210AA805F04DFFF8
:100AB0009AF80130252B78D00022944616469646A7
:100AC0001046394617F8013B2B2B00F09D8000F2B1
:100AD0009480202B00F09B80232B00F09A8028B17B
:100AE0009DF8300040F004008DF83000BEF1000F9A
:100AF00005D09DF8300040F008008DF830002EB190
:100B00009DF8300040F010008DF83000BCF1000F6F
:100B100005D09DF8300040F020008DF830002AB15B
:100B20009DF8302042F040028DF830209DF83020B2
:100B300002F04400442803D16FF386128DF8302070
:100B40009DF830202A2B42F080028DF830207BD196
:100B50009DF8312042F001024B1C8DF831201A78AB
:100B60002E2A9DF831200CBF0121002161F34102A2
:100B70008DF8312074D15A782A2A6AD001330021A5
:100B80000A26184610F8012BA2F13007092F40F26F
:100B90008E809DF830200E91C2F3400040EAD17162
:100BA00061F341028DF830205AE00AF102078DF816
:100BB00033309DF83130D90740F1498154F8049B16
:100BC000B9F1000F07DA9DF8302042F004028DF8E9
:100BD0003020C9F100095A0740F1428154F8048BD2
:100BE000B8F1000F80F241819DF831306FF341037D
:100BF0008DF831304FF0FF3837E12D2B0CD0302BF2
:100C00007FF46DAF01225CE74FF0010E59E701263A
:100C100057E74FF0010C54E7012052E70CFB0202AA
:100C2000303A33461E4616F8010BA0F13007092F63
:100C3000F4D9994293D09DF830100D92D20F62F3FF
:100C400041018DF830108AE70B4600224FF00A0C64
:100C5000E8E79DF8312042F004028DF8312002339C
:100C60001F4617F8012B6C2A41D025D8682A2BD0B3
:100C70006A2A46D04C2A4CD01F4617F8012B9DF803
:100C800031308DF83320782A00F2D980572A4DD898
:100C9000412A03D0453A022A00F2D1809DF8323031
:100CA000042262F302038DF8323001239EE006FB3A
:100CB00001213039034664E7742A26D07A2ADBD131
:100CC0009DF8313006220DE05A78682A9DF83120CF
:100CD00006D1012161F3C6028DF831209F1CCCE7BB
:100CE0001346022262F3C6038DF83130C5E75A7805
:100CF0006C2A9DF8312001D10421EBE71346032231
:100D0000F0E79DF831300522ECE79DF831300722FD
:100D1000E8E7BDF8303023F4F04323F0020343F456
:100D2000804343F00203ADF83030A6E7A2F158014A
:100D3000202900F2848001A050F821F0010E00006B
:100D40003F0E00003F0E00003F0E00003F0E00006F
:100D50003F0E00003F0E00003F0E00003F0E00005F
:100D60009D0C00003F0E0000010E0000C10D0000B0
:100D70009D0C00009D0C00009D0C00003F0E00002B
:100D8000C10D00003F0E00003F0E00003F0E0000AE
:100D90003F0E0000090E0000010E0000250E0000AD
:100DA0003F0E00003F0E0000250E00003F0E000029
:100DB000010E00003F0E00003F0E0000010E00007B
:100DC0009DF83210012003F0780360F30201402BFC
:100DD0008DF8321002BF9DF8301041F001018DF8FE
:100DE0003010632A31D1003B18BF01239DF8302019
:100DF000C2F340010B4363F341028DF83020D8E683
:100E00009DF832100220DEE79DF8322003F07803CF
:100E1000A3F14000032161F3020243428DF8322026
:100E20004341E3E79DF83220032113F0780F61F38B
:100E300002028DF8322014BF01230023D6E79DF86B
:100E4000303043F001038DF830300023CEE79DF9B8
:100E50003020002AB4BFDDF834904FF0FF39BAE6F5
:100E60009B077FF5C7AEDDF838809DF83120002361
:100E7000CDE90D339DF8323003F00703012BC2F3A7
:100E8000C30236D1D31E042B20D8DFE803F00307BA
:100E9000071F1F0054F8040BC11704E0073424F0A7
:100EA0000704F4E80201CDE90A019DF8303013F09F
:100EB000030654D002983B465246594605F0E8FCDA
:100EC0000028C0F243810544BA46DBE554F8040B20
:100ED000012A4FEAE071CDE90A0105D19DF82830D9
:100EE0000A9300230B93E0E7022ADED1BDF9280024
:100EF000D2E7022B23D1D31E042B13D8DFE803F053
:100F0000030A0A12120020680A900021231D0B9187
:100F10001C46CAE7073424F00703F3E80201CDE9D1
:100F20000A01F5E754F8043B0A93012A4FF0000345
:100F30000B93D3D0022AB8D1BDF82830D0E7042BC8
:100F400007D1073424F00704F4E80201CDE90A01CF
:100F5000ABE7032B04BF54F8043B0A93A5E79DF8C5
:100F600033007828B0D8622822D825283FF493ADE2
:100F70005828A9D10DF126030093DDE90A0104AB3D
:100F80000CAA05F03AFC8246B8F1000F0DF12600DC
:100F90000CDB9DF83020A0EB0A036FF38612984516
:100FA0008DF8302002D9A8EB03030D9380463DE075
:100FB0006338152888D801A151F820F03D100000B1
:100FC000A1100000C90E0000C90E0000C90E0000EB
:100FD000C90E0000A1100000C90E0000C90E0000DB
:100FE000C90E0000C90E0000FF100000CD10000067
:100FF000D1100000C90E0000C90E0000151000003D
:10100000C90E0000CD100000C90E0000C90E00007E
:10101000CD100000B8F1000FDDF828A00ADB414632
:10102000504605F07EFC0AEB00080026BAF1000FDE
:101030000CD149E7504605F06DFCF4E70A9B8DF8AA
:10104000103000260DF111080DF1100AA8EB0A036B
:1010500006B101339DF83220D0066BD5023352061B
:101060000D9948BF0E9A0B4448BF9B18B9F1000F69
:1010700079DD9DF83020A9EB0309C2F380030393C7
:10108000530770D4500664D546B1029B594630468A
:10109000984700285ADB039B01351E46302359E050
:1010A0001E0711D413F0100618BF2026DDE90A230D
:1010B000002A73F10001BFF65DAF524263EB4303B8
:1010C000CDE90A232D2655E72B26EFE7002651E729
:1010D0000A9848B30DF1260300930CAA04AB002133
:1010E00005F08BFBBDF8323003F0EF0343F4F0431F
:1010F00043F010038246ADF83230002644E70A9BE5
:10110000072A3FF6E1AEDFE802F00D04060D0808FD
:101110000D0D1D70D8E61D80D6E62846E917C3E9F7
:101120000001D1E61D60CFE6DFF8C4800646A8F1D5
:10113000050A8BE7110748BF013390E71846039370
:101140005946029B98470028039B04DA11B0BDE87A
:10115000F08F20234D444A46002AA5EB090109F1EE
:10116000FF39EBDC0D4636B1029B594630469847B5
:101170000028EBDB01359DF83230D90601D41A077F
:1011800006D5029B5946302098470028DEDB013502
:101190009DF83230DB0607D59DF83300029B594697
:1011A00098470028D2DB01350D9E2E44731B002B7F
:1011B00016DC029843465246594605F069FB002862
:1011C000C4DB0544A944A9EB0503002B7FF77CAEE3
:1011D000029B5946202098470028B7DB0135F2E7EB
:1011E000029B5946302098470028AFDB0135DDE7E8
:1011F000C373000008B54FF02002EFF3118382F3B0
:101200001288BFF36F8F00F0CFFE034805F08AFA13
:1012100000F01AFAFCE700BFC47300002DE9F843A0
:1012200005464FF02003EFF3118683F31288BFF3D6
:101230006F8F234803F080F968B9224A2249234876
:10124000812305F06FFA1E49214805F06BFA1D480D
:10125000812105F033FB1A4803F08CF91D4B1C6803
:10126000002C38BF00249CB11B4FDFF878804FF072
:101270000C09D4E90132002D08BF13462BB198F8B0
:10128000142009FB02F2B85C98472468002CF0D1C6
:101290000B4803F05FF968B90A4A10490B48AC23C0
:1012A00005F040FA06490E4805F03CFA0548AC2125
:1012B00005F004FB86F31188BFF36F8FBDE8F88358
:1012C000440400203F730000917300007F7200000F
:1012D000A673000048040020540400206573000039
:1012E0007C730000D80A002000F01F0301229A40FE
:1012F0000A4BBFF35B8F400903EB800050E8003FCF
:1013000043EA020140E8001CBCF1000FF6D1BFF334
:101310005B8F1A4214BF0120002070476004002038
:1013200030B51D4B1D7DBFF35B8F05F01F03012200
:101330009A401A4B690985B0D04303EB810353E807
:10134000001F01EA000443E8004CBCF1000FF6D195
:10135000BFF35B8F114217D0114C0C2202FB0542E8
:1013600007CA01AB83E807000E4A7AB193E8070089
:1013700005F00CFB0020FFF751FF0C236B4300220C
:10138000E118E250C1E9012205B030BD82F31188B5
:10139000BFF36F8FEEE700BFD80A00205004002093
:1013A000540400208D6900002DE9F041374BDFF82F
:1013B000F4801C7D88B007462046FFF795FF60B992
:1013C0006E463A462146304605F080FA96E8070018
:1013D0000C2505FB048585E807000C23634308EB17
:1013E000030218F80300650904F01F06C8B37B1C4C
:1013F0000FD0D2F808E02648264A4FF4004C0021CE
:101400000023ECFB0E01FEF77BFE0121381A04F0ED
:101410001DFE03F033FC0120FFF700FFBFF35B8FDD
:101420001D4B0122B24003EB850353E8001F11431B
:1014300043E800100028F8D1BFF35B8F0C2303FBB7
:10144000048494E8070005AB83E80700134A1AB147
:1014500093E8070005F087FAFFF762FF04F006F94A
:1014600001200F4ABFF35B8F0123B340DB4302EB44
:10147000850555E8002F1A4045E800210029F8D1DC
:10148000BFF35B8F08B0BDE8F08100BFD80A002031
:101490003F420F0040420F005004002067690000E7
:1014A0006004002054040020014804F095BF00BFF0
:1014B0002870000008B5D0B14368042B11D1002278
:1014C0000368BFF35B8F53E8001F012903D143E892
:1014D00000200028F7D1BFF35B8F074808BF1046F4
:1014E00008BD3BB1006803F079F90020F8E76FF41C
:1014F000E040F5E70148F3E7E98FFFFFEA8FFFFFE0
:1015000010B5044618B90D4B0D485B6898476168E3
:1015100008290DD031F004030AD011F0020108D0DF
:101520000848214602F0B0FE0023236000236360D8
:1015300010BD2068142205F008FAF7E7E00000204B
:10154000ED7300006404002010B5044618B9164B72
:1015500016485B6898476368042B23D0082B21D07A
:10156000CBB92368BBB912484FF0FF324FF0FF33BD
:10157000214602F01DFE08B923681BB90A4B0D482D
:101580005B68984720681422002105F0DEF9636843
:1015900043F002036360206805F0CFFB636843F00B
:1015A0000103636010BD00BFE0000020ED73000088
:1015B000640400201374000008B508B34368042BCA
:1015C00010D101220368BFF35B8F53E8001F00298D
:1015D00003D143E800200028F7D1BFF35B8F0BD184
:1015E000002008BD53B100684FF0FF324FF0FF33C9
:1015F00002F0F4FF0028F3D00348F2E70348F0E7D5
:101600006FF4E040EDE700BFE98FFFFFEA8FFFFFD7
:1016100008B5064906484023142205F065FBBDE8DD
:1016200008400449044804F039BF00BF8404002086
:101630006404002040700000307000000149102256
:101640000A60704710ED00E072B6404080F31188E8
:10165000BFF36F8FBFF34F8F30BF62B6BFF36F8F93
:10166000704700BF72B6494081F3118820BF80F3F4
:10167000118862B6704700BF43B2002B08DB01221D
:1016800000F01F0002FA00F05B09024A42F8230052
:10169000704700BF00E100E0054B420900F01F0069
:1016A00053F82220012303FA00F01040704700BFD6
:1016B00000E100E070B54C1C072C05460E460FD922
:1016C000114A12491248592305F02CF811483146A5
:1016D00007232A4605F026F80B48592105F0EEF8B5
:1016E0006BB2002BACBF03F160430B4B4FEA4414C9
:1016F000B8BF05F00F05E4B2AABF03F561435C551E
:1017000083F8004370BD00BF407400007674000091
:101710007F7200009174000014ED00E030BFFFF70D
:10172000FDBF00BF0B4A08B50B4B22F07F029A6049
:10173000BFF34F8FBFF36F8FD3F8882022F470026E
:10174000C3F8882002F07CFC04F0ACFA00F026FA22
:1017500002F080FC0000000000ED00E0094A0A49A8
:10176000936809689967094958674B6843F0805343
:101770004B60002383F31188BFF36F8F9368986FDA
:10178000704700BFD80A00206071000000ED00E043
:1017900012498A684FF030001044EFF3098C80E85A
:1017A000F01F202080F31288BFF36F8F0C4F4FF093
:1017B0000066CA698A603E60506F0023536780F3F9
:1017C000118804B5104600F07FFABDE8044002F12C
:1017D000300090E8F01F8CF309887047D80A002089
:1017E00004ED00E01EF0040F0CBFEFF30880EFF3F0
:1017F0000980816911F8021C0229FFD001B505F0AA
:1018000070F801BD42F8203C009B42F81C3C0A499C
:10181000019B42F8183C029B42F8143C21F0010164
:101820004FF0807342F8043C42F8081C0023203A31
:1018300002654367704700BFE76700000B4A034635
:10184000906890B113F1160F406E05D0A0F1200200
:101850009A4206D8834204D281422CBF0021012142
:1018600000E00021002908BF00207047D80A0020AE
:1018700008B5094B98600D46144600F025FA20463D
:1018800085F30988002163B681F31188BFF36F8F58
:101890000022002304F0A7FFD80A002001B572B689
:1018A0000B4A906900281EBF0021916105F03EFAA5
:1018B00062B6EFF30580A0F110004FEAC0000549C1
:1018C000014409C99847BDE80140034908470000A1
:1018D000D80A0020806E0000DD180000044B9968D3
:1018E000D869884203D003494FF080520A6070479C
:1018F000D80A002004ED00E0234B70B515469A6A23
:101900009A6A9A6A044690071AD5586B9A6A120620
:1019100016D519B19A6A22F080029A629A6A9A6A76
:101920009A6AD6060FD49B6A99070CD40024164AEB
:10193000936A43F0FF03936200232B70204670BD2F
:101940006FF01500EAE7104E73681A05EED52146D0
:10195000FFF774FF044618B180F309880224E6E714
:10196000B36ADB06E2D5094A09490A4840F249133D
:1019700004F0D8FE084804F0D5FE044840F24911AE
:1019800004F09CFFD3E700BF00ED00E0D17400003D
:101990000B7500007F720000557500000D4B9A6AB0
:1019A0009A6A9A6A920508D59A6B9A6A120404D5C3
:1019B00018B19A6A22F400429A62064B9A6A9A6AAD
:1019C000D20558BF9A6A9A6A002042F47F429A620E
:1019D0000870704700ED00E0074B9A6A9A6A9A6AAD
:1019E0009A6A9A6A9A6A9A6A6FEA02426FEA12429D
:1019F0009A620020704700BF00ED00E070B5544BC4
:101A00005C688AB00D46C4F30804002686F311888A
:101A1000BFF36F8F02F07F43B3F17F4F08D102F025
:101A20000C03082B04D012075CBF054601267DB9C4
:101A3000484A4949494840F2F23304F073FE4848A5
:101A400004F070FE434840F2F23104F037FF002505
:101A500000238DF80730E31E032B72D8DFE803F074
:101A600002696D493A4BDC6A14F0020469D1DA6A02
:101A7000002A18DBDB6A5B004ED5AB6933F8022C19
:101A80004DF602739A420DD003F1604303F62663CC
:101A90001B780BB30DF1070201212846FFF72CFF3D
:101AA000044600E02C689DF807309BB920222946A7
:101AB00002A804F03FFF099B002E44D0C3F30802A4
:101AC00022B96FEA53236FEA4323099302A9204600
:101AD00004F005FF0AB070BD224B1B782BB10DF14D
:101AE00007010120FFF75AFFDAE71F4B1B889BB263
:101AF00013B1FFF771FFD3E71C49164A174840F2AC
:101B0000C32304F00FFE1A4804F00CFE40F2C32178
:101B1000104804F0D3FEC6E714490E4A0F4840F2BD
:101B2000C72304F0FFFD134804F0FCFD40F2C72179
:101B3000EEE70DF107020021AFE70DF107010020EC
:101B4000D0E70024AFE723F4FF7323F00103BCE7E1
:101B500000ED00E0D1740000787500007F72000095
:101B60008B75000029ED00E02AED00E027730000EE
:101B7000C9750000ED750000024A536943F0100377
:101B80005361704700ED00E0EFF30880EFF3098147
:101B900001B57246FFF732FF01BD00BF04480023C4
:101BA0002021C2180133302B82F80013F9D170477D
:101BB00000E100E0002080F31488BFF36F8F05F090
:101BC000EDF800200D490860BFF34F8F0C4880F3FB
:101BD000088800F029F8202080F3118809484FF484
:101BE0000261401880F30988EFF314800221084352
:101BF00080F31488BFF36F8FFFF794FD94ED00E03E
:101C000060190020E01A0020064A11680023C1F381
:101C1000072118468B4200D1704793601061013351
:101C2000F8E700BF90ED00E008B572B6002383F33B
:101C30001388FFF7E9FF144B4FF0FF32C3F8802001
:101C4000C3F88420C3F88820C3F88C20C3F8902000
:101C5000C3F89420C3F89820C3F89C20C3F88021CF
:101C6000C3F88421C3F88821C3F88C21C3F89021DC
:101C7000C3F89421C3F89821C3F89C2162B6BFF33E
:101C80004F8FBFF36F8F08BD00E100E0064B9B68EC
:101C9000834207D1EFF3058323B1044A536843F02D
:101CA0008053536003F04ABFD80A002000ED00E0E3
:101CB000024B034A0348012100F068B800000420E9
:101CC0000000002054700000426E054B203A1A605C
:101CD000044A2021C3E901121846012100F07EB810
:101CE0008409002000000B15F0B51E4F00268E421F
:101CF00001DB1046F0BD446884B353B104F1FF3CEE
:101D000014EA0C0F18D11F2C16D905681CEA050F10
:101D100012D1202C0568D0F808C0D2B20FD9B4F186
:101D2000004F0ED8013CB4FA84F4C4F11F046400DF
:101D3000072A4CEA040406D96FF01502D9E70824F3
:101D4000F6E73E24F4E725F01F05154345F010059E
:101D500044F00104BA60FD6001323C6101360C3090
:101D6000C5E700BF90ED00E0034B05225A60BFF3CA
:101D70004F8FBFF36F8F704790ED00E0BFF35F8F21
:101D8000014B00225A60704790ED00E038B50E4DCF
:101D900001232A780C46FFF7A7FF2870163011D1CF
:101DA00040F21113094A0A490A4804F0BBFC2146D3
:101DB000094804F0B7FCBDE83840044840F211116E
:101DC00004F07CBD38BD00BF380B00201D7600003C
:101DD000277300007F7200005476000010B5124A8D
:101DE000002312780C46FFF77FFF10F1160F08D082
:101DF0000E4B0022072800DD10BD98601A610130EB
:101E0000F8E70B4A0B490C484FF4987304F08AFC2E
:101E100021460A4804F086FCBDE8104004484FF40F
:101E2000987104F04BBD00BF380B002090ED00E02E
:101E30001D760000277300007F720000807600008E
:101E4000254910B50C68082C13D94FF4A473234A04
:101E50002349244804F066FC23480822214604F064
:101E600061FC1E484FF4A47104F028FD4FF0FF30D0
:101E700010BDFFF783FF48681C490022944200F11F
:101E80000C0019D11A4B1C70FFF76EFF0B68C3F3DF
:101E90000723082B0ED01749104A12484FF4D47369
:101EA00004F040FC144804F03DFC0C484FF4D4719D
:101EB00004F004FD0020DBE78A6050F80C3C23F0BE
:101EC0001F03134343F01003CB6050F8043C43F06E
:101ED00001030B610132D1E7607000001D76000044
:101EE000277300007F720000AD76000090ED00E0E7
:101EF000380B0020E176000031770000014B1860BC
:101F0000704700BF280000200239012902D8034B86
:101F10001B6818474FF0FF30704700BF28000020B3
:101F20000FB407B504AB022153F8042B0448019306
:101F3000FEF7A0FD03B05DF804EB04B0704700BFEE
:101F4000636900004FF02003EFF3118183F31288DF
:101F5000BFF36F8F0F4A0123C2F840354FF0804224
:101F6000C2F878350C4A1268082A08D10B4A126860
:101F7000052A04D80A48825C0AB10A4A13604FF065
:101F800080430122C3F8802581F31188BFF36F8F4E
:101F90000020704700E001403001001034010010C3
:101FA00061770000380600404FF08043C0B2C3F8AC
:101FB0001C05BFF34F8F0549054BCA6802F4E06268
:101FC0001343CB60BFF34F8F00BFFDE700ED00E090
:101FD0000400FA0520B1034B800143F001031847C8
:101FE000704700BF207000002DE9F041104C071B26
:101FF000C7F347174FF00C0808FB07F8064608F12F
:1020000048000D462044402104F0CBFC011E09DBB2
:10201000084B4444C4E91035074B53F83730BDE84A
:10202000F041184730462B46BDE8F041184700BF45
:10203000A0090020056A00009870000038B5CCB2F5
:10204000012C054609D9094909480A4A792304F0AF
:1020500069FB0848792104F031FC2B690C2104FB51
:102060000134A06C00F0070038BD00BFA477000069
:102070007F72000067770000F8B5CCB2012C0769C9
:10208000054616460BD918491848194A40F24D130F
:1020900004F048FB164840F24D1104F00FFC4FF0DD
:1020A0002003EFF3118283F31288BFF36F8F0C23A9
:1020B00003FB0471896C11F0C00101D08E4210D174
:1020C00003FB047301219964002082F31188BFF39C
:1020D0006F8F28B9696801EBC404636898470020D2
:1020E000F8BD4FF0FF30F0E7A47700007F720000EA
:1020F0006777000070B50D460649411A044649113C
:1021000005484022FFF7B8FF2B4601462046BDE8B0
:1021100070401847A0090020086E0000002270B52A
:10212000012104461046FFF7C5FA0020FFF7A4FA84
:102130000F4801F0A7F90F4B984215D101F0C6F9ED
:1021400026690D49304604F03BFB00280BDB0125D6
:10215000B5642469084904F1200004F031FB00282B
:1021600001DB6565002070BD6FF00400FBE700BF78
:10217000B12100000000AD0BA870000001460C2347
:1021800009484B4370B5C418D4E9105600224833AF
:102190002264184404F023FC2DB132462B46034838
:1021A000BDE87040184770BDA0090020086E00000F
:1021B000012808B506D0032808D0A8B9104B9B6C9D
:1021C0005B071BD1BDE80840FFF7D8BF0D490E4A99
:1021D0000E4840F25E2304F0A5FA40F25E21BDE80D
:1021E0000840094804F06ABB0649074A074840F21C
:1021F000622304F097FA40F26221F0E708BD00BFC5
:10220000A009002027730000677700007F7200009C
:1022100008B54FF02003EFF3118183F31288BFF369
:102220006F8F124A136843F0020013F0010310602D
:102230000CD04FF08042D2F80C34D2F80C2413F0BA
:10224000010303D00A4804F0CAFB012381F311887B
:10225000BFF36F8F23B1BDE808400020FFF78EBFAA
:10226000BDE80840012001F051B900BFF809002085
:10227000E8090020094BBFF35B8F53E8002F22F0E1
:10228000020143E800100028F7D1BFF35B8FD307AA
:1022900002D4012001F08EB9704700BFF809002078
:1022A0001FB500220123CDE90223094ACDF800D051
:1022B0006B46CDF804D004F0B7FB002805DB4FF4E3
:1022C00080420023684602F08FFB05B05DF804FBF6
:1022D000236A00002DE9F8434949BFF35B8F0546A7
:1022E000012251E8003F41E800200028F9D1BFF366
:1022F0005B8FA3B9434944484B60CB608A60FEF7CB
:1023000021FB00280BDA41494148424A4FF4087347
:1023100004F008FA3F484FF4087104F0CFFAADB367
:102320006B1E012B56D8012D07D14FF08043D3F8F7
:102330001C3403F00303012B28D004F0F1FC044605
:1023400018B9354B1B78002B52D14FF02003EFF317
:10235000118683F31288BFF36F8F01242F4FDFF8AC
:10236000C480DFF8C4904FF08042D2F81834D2F81D
:102370001824D2030CD503F00303012B01D0012D47
:1023800006D10CB386F31188BFF36F8FBDE8F883D5
:10239000ACB13046FFF766F94FF08042D2F81835FD
:1023A000002BE0D139680029DDD03B603B68012378
:1023B000C2F81835C8F88031C9F80030D3E70021D9
:1023C000212003F07DFBE7E74FF080430222C3F8B2
:1023D0000423DBE712490E480E4A40F2322304F090
:1023E000A1F9BDE8F8430B4840F2322104F066BA87
:1023F0004FF080430222C3F808230646AEE700BF31
:10240000FC09002090090020C0090020C8770000C6
:102410007F72000067770000490F00200401004030
:102420002773000000E100E00800004008B5084BF9
:102430000848186004F04EFC38B10748FFF75EFD0D
:102440000548FEF73FF8002008BD6FF01200FBE7DB
:10245000000A0020686E00005D2400000A2838B5DC
:10246000074D044604D1286883680D215B689847AE
:1024700028688368E1B25B689847204638BD00BF92
:10248000000A002070B5056916460C4661B922495C
:10249000224A2348242304F045F9224804F042F953
:1024A0001E48242104F00AFA636863B91E491B4AD6
:1024B0001B48252304F036F91C4804F033F917486B
:1024C000252104F0FBF96B685BB100229C4213D11B
:1024D00023685AB9AA686B60944200D1AB600023AC
:1024E000236076B9002070BD0B46EFE71360AB6840
:1024F0009C4208BFAA60F2E719681A460029F3D186
:102500003EB16B682360A8686C600028EAD1AC60BB
:10251000E9E76FF01500E6E704780000D7770000E0
:102520007F7200000D7800001C7800002E780000FB
:1025300043092DE9F04703D0012B36D0BDE8F087E1
:102540001B4F3B695C68002CF8D02568DFF86C8075
:10255000DFF86C90DFF86CA000F01F000126002D62
:1025600006FA00F638BF0025A3681E4214D063683F
:1025700063B9494645234246504604F0D3F80D4816
:1025800004F0D0F84521404604F098F9D4E901322E
:102590002146324038469847002DCFD02B68002B7B
:1025A00038BF00232C461D46DEE7034FC9E700BFB6
:1025B000206E00002E780000386E0000D7770000F3
:1025C000457800007F7200007FB54068057B01F010
:1025D0001F04B2F5005F44EA45144FF0000504D132
:1025E000204601F039FB002054E0B2F5804FCDE9E0
:1025F000025551D1B3F5003F0CBF042305238DF8DC
:102600000830836823FA01F111F0010155D1B2F5C8
:10261000A03F52D166094AD04FF6FF73012E08BF82
:10262000194604F01F05E940CA070BD42B492C4872
:102630002C4A40F2292304F075F82A4840F2292157
:1026400004F03CF96EB1012E34D027492448254AC4
:1026500040F22E2304F066F8224840F22E2104F0C6
:102660002DF94FF0A04305F5E07553F82530DB0751
:1026700023D40DF107052946204601F017FA1B4B1C
:10268000984219D1284601F071FA194B984213D09B
:102690006FF00B0004B070BDB3F5C02F05D0B3F5DB
:1026A000003F0CBF02230123A9E70323A7E74FF054
:1026B000FF31B6E70F4BD6E703950023194602AA70
:1026C000204601F0D5F80A4B984204D1012120465A
:1026D00001F052FA87E76FF00400DBE7847800002E
:1026E0007F72000051780000277300000400AD0BDA
:1026F0000000AD0B0003005010B501F027FA0446AE
:1027000068B901F0FBF9084B98420AD10748214605
:1027100001F0C6F9224605210620FEF7CBFF002076
:1027200010BD6FF00400FBE70000AD0B3125000089
:102730002DE9F04347683B7B01F01F0585B00E464D
:1027400045EA43151446CAB902A9284601F0AEF974
:102750000446284601F0A2FA484B984204D06FF094
:10276000040005B0BDE8F083844205D19DF808005F
:1027700001F0F6F9A042F2D10020F2E74FF0000993
:102780000DF103013046CDE9029901F08FF94B4676
:10279000804602AA4946284601F06AF8374B98421B
:1027A00002D06FF01500DCE7804503D19DF80300EF
:1027B00001F0D6F9A3054ED5314B324A234093425E
:1027C0003AD00CD8062B14D004D893B1022BE8D100
:1027D00004230EE0B3F5801FE3D1012309E02A4A68
:1027E00093422BD0B3F5A00F2AD0B3F5800FD8D1E8
:1027F00002238DF8043084F48073C3F30023E006D1
:102800008DF8053054BFC4F34013032321058DF820
:10281000063017D57B68012101FA06F6C3F8086572
:10282000002201A9284601F0CBF8144B984214BFAE
:102830006FF01500002094E70723DAE70523D8E7B7
:102840000323D6E7620541BF7B68012101FA06F642
:10285000C3F80C65E4E7E3064FF0000354BFC4F38C
:10286000401403241A4601A928468DF8044000F0BC
:10287000FFFF024B98423FF47FAF92E70000AD0BA1
:102880000600F0000600100002004000F0B54B7991
:10289000012B26D0032B21D110268B79032B1DD1A0
:1028A000CC790CB1012C19D10A7912B1022A15D1B7
:1028B0000E220B684568B3F5164F2D6865D02DD8EC
:1028C000B3F5165F64D016D8B3F5966F62D00AD808
:1028D000B3F5967F61D0B3F5167F61D06FF08500B8
:1028E00052E00026D9E7B3F5166F5CD0B3F5965FDA
:1028F000F4D1374B3CE0B3F5E14F57D007D8B3F5EF
:10290000615F55D0B3F5964FE8D1324B30E047F6D2
:102910001227BB42E2D14FF4000329E0B3F5613F37
:1029200048D013D8B3F5963F47D009D84DF6C02705
:10293000BB4244D0B3F5614FD0D14FF46B0317E0E5
:10294000B3F5E13FCAD14FF0EB7311E0B3F5612F5E
:1029500038D008D8204FBB4237D0B3F5E12FBDD1D6
:102960004FF0E86304E01D4FBB42B7D14FF08053F6
:10297000C5F82435036903C9344322430433C5F839
:102980006C2583E803000020F0BD4FF41D03EFE742
:10299000134BEDE74FF49E23EAE74FF4A033E7E74C
:1029A0004FF41C33E4E74FF41D23E1E70D4BDFE761
:1029B0000D4BDDE74FF06C73DAE70C4BD8E74FF4C3
:1029C0006503D5E74FF07063D2E74FF08063CFE740
:1029D00000B0130000A04E0090D0030040420F0052
:1029E0000050270000C0750000F03A0000903A0146
:1029F0000268530910B504462CD0012B4FF6FF7323
:102A000018BF002302F01F02D340DB070BD4144988
:102A10001448154A40F2292303F084FE124840F27C
:102A2000292103F04BFF236803F01F025B0922609A
:102A30000DD0012B11D00D490A480B4A40F22E232C
:102A400003F070FE084840F22E2103F037FF4FF0EC
:102A5000A04010BD4FF0FF33D4E70548F9E700BFB1
:102A6000847800007F720000517800002773000016
:102A700000030050F8B5066905460F4604F050F90A
:102A800010B92C4B1B7883B94FF02003EFF311845E
:102A900083F31288BFF36F8F284604F050F828BBE9
:102AA00084F31188BFF36F8FEEE76424284604F0A7
:102AB00046F870B9012004F094F8013CF6D10021E9
:102AC000212002F0FDFFF0E784F31188BFF36F8F40
:102AD000F5E74FF02003EFF3118483F31288BFF37F
:102AE0006F8F284604F02BF80028EDD006F8107FF1
:102AF00069680B680122C3F84465C3F848250022C1
:102B0000C3F82021D3F82001C3F85821D3F8582165
:102B10004A68D20641BF0822C3F800254FF480025C
:102B2000C3F8042301229A6084F31188BFF36F8FE6
:102B3000F8BD00BF490F00202DE9F743D0F804800D
:102B40000769D8F800400023C4F8003538604568AC
:102B5000EB680646581C13D001A80193FFF748FF05
:102B6000019A01239340C0F80835EB68019301A84E
:102B7000FFF73EFF019B03F5E073032240F823209B
:102B80002B69591C11D02A7F0193002A01A814BF78
:102B90004FF003094FF00009FFF72AFF019B03F5EF
:102BA000E0734FEA890240F823206B695A1C13D066
:102BB00001A80193FFF71CFF019A01239340C0F87D
:102BC00008356B69019301A8FFF712FF019B03F51C
:102BD000E073032240F82320AB69581C11D06A7FB0
:102BE0000193002A01A814BF4FF003094FF0000918
:102BF000FFF7FEFE019B03F5E0734FEA890240F800
:102C00002320D5E903122B68C3F80C15C3F814254B
:102C1000D5E90512C3F808153169C3F81025043148
:102C20003046FFF733FE0546002846D1D8F8043079
:102C3000990719D507F1120001F02EF9224B98429D
:102C40003FD1B87CC30003F1804303F5F83304F1AE
:102C50000C0204F59071C3F81015C3F814251B4A33
:102C600001238340C2F804350823C4F8003598F8DE
:102C700008305BB9C4F81031D4F8103107F11103F2
:102C8000C4F834350123C4F838352360D8F804304B
:102C90009A075CBF4FF48072C4F80423DB0644BF7C
:102CA0004FF48003C4F8043310370023C4F844758C
:102CB000C4F848350123A360E360284603B0BDE8AB
:102CC000F0836FF00405F8E70000AD0B00F0014061
:102CD000194970B5044622F07F460868C1E900230F
:102CE000A6F50013101AB3F5400F4FF000050AD2F5
:102CF000124B19680A060B0A9219114943F1000395
:102D0000C1E90023012503F0F1F9A30003F1804399
:102D100003F58833D3F84025B2420BD11DB94FF4E7
:102D20000002C3F84025074B4FF4803000FA04F44A
:102D3000C3F8444370BD00BF30030020240A0020C4
:102D4000180300200010014010B501238340114AF0
:102D5000BFF35B8FDC4352E8001F01EA040C42E83A
:102D600000CEBEF1000FF6D1BFF35B8F4FF480327F
:102D700002FA00F002F1804202F58052C2F8080324
:102D8000BFF35F8FBFF36F8F0B4214BF0120002092
:102D900010BD00BF200A00200123124ABFF35B8F41
:102DA000834052E8001F194342E8001CBCF1000FA9
:102DB000F7D1BFF35B8F0C4A4FF480338340C2F8E6
:102DC00004330A4BBFF35B8F1B68BFF35B8F23FA9F
:102DD00000F0C30742BF064B4FF40032C3F8002196
:102DE000704700BF200A0020001001401C0A00208C
:102DF00000E100E00D4B1B68190A1806BFF35F8F56
:102E00000B4BD3F80435C01841F10001B3F5801F16
:102E10000AD2084BD3E90023994208BF904203D25B
:102E200010F1807041F10001704700BF240A0020BA
:102E300000100140180300202DE9F04F85B0164620
:102E40001F460546FFF780FF0190FFF7D3FFB94209
:102E500008BFB0427FD2B6EB000867EB0109002340
:102E60004FF080724B4508BF4245C0F08580444B0F
:102E700003EB0513D3E902239F4208BF964254D0C7
:102E80004FEA85094FF4803B09F1804905F150086C
:102E90000BFA05F209F588394FEA88081FFA88F815
:102EA0000292384AD9F8400526F07F4308F180485D
:102EB00008F588381C469346D2F804A5A0EB0A0012
:102EC00020F07F402AF07F410128C9F8401505D144
:102ED0000393132003F05CFF2A4A039B02990AF133
:102EE000020CA4EB0C0020F07F40B0F5000F88BF6F
:102EF00064460020C8F80000D8F80000CBF844135E
:102F000024F07F40C9F84005DBF80405824506D06F
:102F1000201A023820F07F40B0F5000F19D8E41ACB
:102F200024F07F44321947F10003154C290104EBCA
:102F30000510C0E902230E9A0F9B625043600024E3
:102F4000019B13B12846FFF727FF204605B0BDE8D7
:102F5000F08F2046B0E701230B4ABFF35B8FAB40F5
:102F600052E8001F194342E800100028F8D1BFF3CF
:102F70005B8F32463B46D8E76FF01504E0E700BFB1
:102F800020030020001001401C0A002073B5194BDB
:102F9000194D00244FF0FF304FF0FF31C5F80845C0
:102FA000C3E902014FF48033C5F80433134B022602
:102FB0004FF400320121C5F804631120C3F88021C9
:102FC0002246FEF777FB1120FEF756FB0C4A012341
:102FD00013600C4A2B6013600B4B0C4A0093019456
:102FE00000232046FFF728FF3046FFF773F92046FD
:102FF00002B070BD200300200010014000E100E09D
:1030000008100140200A0020D12C0000FFFF7F00A3
:103010002DE9F743344CD4F804339A0709D5334BE0
:103020001A6832B100221A60314A1B6813680133F2
:1030300013604FF02003EFF3118283F31288BFF384
:103040006F8FD4F80433DB0312D5BFF35B8F294BAA
:1030500053E8001F21F0010043E80006002EF7D1DD
:10306000BFF35B8F244B002936D11968002933D177
:10307000002382F31188BFF36F8F53B3FFF7BAFEBB
:1030800006464FF02003EFF3118083F31288BFF35D
:103090006F8F1A4BD3E90289494508BF46454FF067
:1030A00000021ED34FF0FF364FF0FF37D3E9001573
:1030B000C3E902671A604FF48033C4F8483380F3E1
:1030C0001188BFF36F8F21B1009542464B46002017
:1030D000884703B0BDE8F083002119601B68012315
:1030E000C7E71146EBE700BF0010014004110140A3
:1030F000240A00201C0A0020401101402003002067
:10310000144B13B5B0F1FF3F08BF1846441E002C06
:103110001EDD9C42A8BF1C46FFF76CFE0E4B0F49FC
:10312000D3E90023801AB0F5000F28BF0024013036
:10313000044408480091844228BF044612194FF005
:103140000000019043F10003FFF776FE02B010BDCE
:103150000024E1E7FFFF7F0030030020D12C0000B6
:1031600008B5FFF747FE024B1B68C01A08BD00BF39
:1031700030030020034B1868A0F10803584258415F
:10318000704700BF30010010064B1B68082B06D1AA
:10319000054B1B68052B02D8044AD05C7047002001
:1031A000704700BF3001001034010010C9780000E2
:1031B000024AD2F80034002BFBD0704700E00140F7
:1031C00010B5FFF7D7FF40B14FF080430022C3F89E
:1031D0000C21C3F81021C3F83825FFF7CBFF0028D6
:1031E00046D04FF080525B4BD2F80414C3F8201540
:1031F000D2F80814C3F82415D2F80C14C3F8281513
:10320000D2F81014C3F82C15D2F81414C3F83015E2
:10321000D2F81814C3F83415D2F81C14C3F84015AA
:10322000D2F82014C3F84415D2F82414C3F8481572
:10323000D2F82814C3F84C15D2F82C14C3F8501542
:10324000D2F83014C3F85415D2F83414C3F860150A
:10325000D2F83814C3F86415D2F83C14C3F86815D2
:10326000D2F84014C3F86C15D2F84424C3F8702582
:10327000FFF78AFF10B1384B384A1A60FFF784FF16
:1032800018B1374BFB22C3F81825FFF77DFF48B173
:103290003449354B0A681B6822F00F0203F00F0314
:1032A00013430B60FFF770FF18B1304B4FF40072FF
:1032B0001A60FFF75FFF48B14FF08043D3F8002456
:1032C000D20744BF6FF00102C3F80024284B1B68EB
:1032D000082B0ED1274B1B68052B02D8264AD35C3E
:1032E0003BB14FF01023D3F808224FF08043C3F8CE
:1032F00058254FF01023D3F80022002A03DBD3F81F
:103300000432002B22DA1D490123C1F80435FFF7EE
:103310004FFF4FF010201224C0F80042FFF748FF83
:10332000C0F80442FFF744FF0023C1F80435FFF75B
:103330003FFFBFF34F8F1249124BCA6802F4E0629D
:103340001343CB60BFF34F8F00BFFDE70E4B0F4A17
:103350001A6010BD00C000408C5600404881030038
:1033600000F00040E40E0040580200104096024079
:103370003001001034010010C378000000E001406B
:1033800000ED00E00400FA05540000200090D00396
:1033900070B501250368B3FA83F2202AC2F11F0435
:1033A00014D0BFF35B8F05FA04F223EA020250E85F
:1033B000006F9E4204D140E8002CBCF1000FF6D112
:1033C000BFF35B8FE6D102480C7070BD0148FCE78B
:1033D0000000AD0B0200AD0B0368CB40DB0710B55E
:1033E00015D4012303FA01F10368BFF35B8F41EAAF
:1033F000030250E8004F9C4204D140E8002CBCF18D
:10340000000FF6D1BFF35B8FEED1024810BD02482A
:10341000FCE700BF0000AD0B0400AD0B08B578B1B0
:1034200001281CD0144A154915484FF44F7303F076
:1034300079F911484FF44F7103F040FA00200DE084
:1034400031B14FF08043D3F8183403F003030B601D
:103450004FF08043D3F81804C0F3004008BD31B1E9
:103460004FF08043D3F80C3403F001030B704FF09E
:103470008043D3F80C04EFE7CF78000027730000F7
:103480007F72000010B5044648B90A490A480B4A41
:10349000BD2303F047F90948BD2103F00FFA084B9B
:1034A0001A7922B9012207481C609A8010BD06488B
:1034B000FCE700BF407900007F7200000379000044
:1034C000280A00200000AD0B0C00AD0B08B50B4B1B
:1034D0001B794BB90A490B480B4AD62303F022F952
:1034E0000948D62103F0EAF90020FEF7D5F818B90B
:1034F000BDE80840FEF7C0B808BD00BF280A00209C
:103500004E7900007F72000003790000224B1B7986
:1035100013B504465BB921492148224A4FF4897307
:1035200003F000F91F484FF4897103F0C7F974B133
:10353000012C27D01B4A1C4919484FF4A27303F0F1
:10354000F1F818484FF4A27103F0B8F916E001A998
:103550002046FFF763FF4FF0804388B1019A012AAC
:103560000ED1C3F81825114B00221A601B684FF0CA
:1035700080430222C3F8042301229A6002B010BDE6
:103580000022EEE70A4B00221A601B684FF08043CE
:10359000C3F804431C60F1E7280A00204E790000BC
:1035A0007F720000037900002773000004010040CF
:1035B0000001004037B52F4D2A7904465AB92E49EB
:1035C0002E482F4A40F24B1303F0ACF82C4840F23F
:1035D0004B1103F073F97CB1012C28D029492748FD
:1035E000274A40F2671303F09DF8254840F267111F
:1035F00003F064F903B030BD4FF080430222C3F8FA
:103600000823C3F8044103F5827301221B681E4B93
:1036100042F210741A6000210846FFF7FFFE0028EE
:10362000E8D0012003F0DDFA013CF4D1E2E74FF0ED
:1036300080430022C3F80843C3F8002103F58073D8
:103640001B68124B1C608DF8074042F210740DF19C
:1036500007010120FFF7E2FE10B900236B71C9E7F3
:103660009DF807000128F8D103F0BBFA013CEED128
:10367000F3E700BF280A00204E7900007F720000A7
:1036800003790000277300000C0000400400004094
:10369000164B07B51A686AB100221A601B684FF012
:1036A00080430122C3F80823114B587910B95A718D
:1036B0001B6898470F4B1A686AB10020186001A96F
:1036C0001B68FFF7ABFE019A4FF0804332B901222D
:1036D000C3F818259A6003B05DF804FB0222C3F812
:1036E0000823034B01201B689847F4E700010040C2
:1036F000280A002004010040054B083033F8100070
:1037000000F02200A0F1220358425841704700BF48
:103710005800002070B500F108030C4C34F8133049
:10372000DA0505460E4607D5C3F3432304EBC3026F
:1037300054F8333052689847A3682BB1E268314699
:103740002846BDE87040184770BD00BF58000020F3
:10375000194B083010B533F81020D1051DD5C2F330
:10376000432122F4F85223F8102003F11004002022
:1037700034F8022B12F4807F03D0C2F3432291422B
:103780000BD001303028F3D1002243F831200B4810
:10379000FFF722FE0A4B984200D110BD09490A48A2
:1037A0000A4A4FF4997302F0BDFFBDE81040074884
:1037B0004FF4997103F082B858000020CC0000202B
:1037C0000000AD0BD07900007F7200006C79000022
:1037D00038B50A4C00F1080534F815309A0606D5BC
:1037E0005B0B074A03F5A273002142F82310FFF791
:1037F000AFFF002324F8153038BD00BF580000206B
:103800000060004010B50446006803F0ECF958B9B8
:1038100012491348134A40F2292302F083FF11484A
:1038200040F2292103F04AF8236803F01F025B09E4
:1038300022600DD0012B0ED00B490948094A40F2F5
:103840002E2302F06FFF074840F22E2103F036F8D6
:103850004FF0A04010BD0548FCE700BF8478000091
:103860007F720000517800002773000000030050B1
:10387000F0B5044685B017461D46F1B1FFF73CFF91
:1038800010B14A4805B0F0BD0B46CDE900008DF8F7
:103890000E008DF80F000DF10F020DF10E01204604
:1038A00003F0B6F9424A04F1080132F8113023F06E
:1038B000020343F0010322F8113097B13C4B3E78EC
:1038C0007A6804F1080033F810108F070CD5002A2D
:1038D000D7D133F8102022F01C0242EA860223F8E6
:1038E0001020CDBB3348CDE721F02001C904C90C1D
:1038F00023F81010002AECD0032EC2D817782EB966
:103900002D4A07F5A27142F82160E2E7BA0002F100
:10391000804202F5C04241EA4731D2F810C52CF08E
:10392000030CC2F810C5D2F810C52CF44F3C2CF48F
:10393000407CC2F810C5D2F810E54FEA042C0CF414
:103940007C5C4EEA064E4CEA0E0C41F0200123F856
:103950001010C2F810C5BCE7D5E900672046FFF794
:10396000F7FE002EBED0124D2B689E4204D16B682C
:103970009F4201D100220AE010480DF10F01FFF72C
:1039800007FD0C4B98427FF47DAF9DF80F2045F862
:10399000326005EBC20308345F6035F8143043EA47
:1039A000422343F4807325F814309BE70400AD0BE9
:1039B000580000200000AD0B00600040CC0000204B
:1039C000F0B5044685B0154609B300F10807314E3D
:1039D00036F81730980701D49A0658D413F01C0F04
:1039E00002D04B78012B52D001238DF80F300023E9
:1039F000CDE900134A1C8B1C20460DF10F0103F08A
:103A000007F936F8173043F0030326F8173015B9D5
:103A1000214805B0F0BD1F4E04F1080736F8170025
:103A2000830734D595F800C06146890020F0200056
:103A300001F18041C00401F5C041C00C26F8170017
:103A40000023C1F810356A78002AE1D0D1F810358A
:103A5000AD7823F4991323F4F853C1F81035D1F855
:103A600010E5230203F47C53120443EA0E0302F42C
:103A700040322D05134305F4801540EA4C302B43AA
:103A800040F0200026F81700C1F81035C0E70348C1
:103A9000BFE700BF580000200000AD0B0400AD0BD5
:103AA000014BC3E9020170475800002038B50446B5
:103AB0000D4659B90B490C480C4A40F2352302F027
:103AC00031FE0A4840F2352102F0F8FE0834084B76
:103AD00033F814309A0643BF5B0B2B700548064839
:103AE00038BD00BFE47900007F7200006C790000EF
:103AF000580000200000AD0B0400AD0B38B50E4C93
:103B000094F87850B5B96022294604F1100002F00B
:103B10001CFF0620FDF7B0FD084B09481D601B681F
:103B2000084B4FF00042C3F80423012384F8783097
:103B3000636738BD0448FCE7580000207C61004002
:103B40000000AD0B006000400500AD0B034B93F887
:103B50007800003818BF0120704700BF58000020CF
:103B600001460148FFF738BCC80000200146014863
:103B7000FFF70EBCC8000020F7B5314D00F1080773
:103B8000044635F8173013F01C0F0E460BD12D49A3
:103B90002D482E4A40F2DF3302F0C4FD2B4840F29C
:103BA000DF3102F08BFE35F8170083061FD510F0C9
:103BB00002031CD1410B084603F026F800F18040B7
:103BC00000F5C040036003688B0003F1804303F5F8
:103BD000C043D3F8102542F00102C3F8102526B1E6
:103BE0001B4A01238B40C2F8043303B0F0BD5EB919
:103BF00018491548154A40F2EE3302F093FD134878
:103C000040F2EE3102F05AFE35F81730C3F382036A
:103C1000042B10D0052B10D001A80194FFF7F2FD62
:103C2000019BD0F81015D94001F001010231204666
:103C300003F039F8D9E70321F9E70221F7E700BFDC
:103C400058000020EE7900007F7200006C790000BF
:103C500000600040037A00000E4B00F1080233F8C8
:103C60001230990613D59A0711D45B0B01229A40A2
:103C70009B00094903F1804303F5C043C1F80823C1
:103C8000D3F8102522F00302C3F810257047002155
:103C900003F009B858000020006000400E4B00F10E
:103CA000080213B513F81230DB07044611D5FFF7ED
:103CB000D3FF2046FFF78CFD01A80194FFF7A2FD7A
:103CC000019B03F5E073022240F82320034802B071
:103CD00010BD0348FBE700BF580000200000AD0BFB
:103CE0000400AD0B2DE9F04F654B66486649002591
:103CF00089B001222C461E6836B1D0F80463164202
:103D00001EBF1C601E68154304338B424FEA4202FB
:103D1000F1D15E4F3B687BB34FF0A0435C4ED3F8CC
:103D200020250692C3F82025D6F820350793C6F83B
:103D3000203501960DF118094FF000084FF0010BE6
:103D4000D9F80030F3B908F12008B8F1400F09F1B3
:103D50000409F5D13B603B6801994FF0A043D3F8CB
:103D600020250692C3F82025019BD3F82035079320
:103D7000C1F820351343DDD10124002D68D109B0ED
:103D8000BDE8F08F93FAA3F3B3FA83F308EB0306CD
:103D900006F108023F4B059633F81220C2F3820366
:103DA000F40802939A4606AB06F007000BFA00FCF3
:103DB000185D20EA0C001855910805A80391FFF73B
:103DC00021FD059C039904F5E0744B0750F824404D
:103DD000C4F3014423D551463046FFF79BFC05A8A8
:103DE0000596FFF70FFD059A02F5E072E4B250F870
:103DF0002220C2F30142944207D10021304602F052
:103E000052FF2146304602F04EFF05A80596FFF707
:103E1000F9FC059B0BFA03F3C0F8203590E7022C60
:103E20000CBF03210221304602F03DFF029B032B11
:103E300004D0022C07D1BAF1010FE6D15146304629
:103E4000FFF768FCE1E7032CDFD1BAF1020FF4E7DA
:103E500095FAA5F3B3FA83F304FA03F29B0003F196
:103E6000804303F5C04325EA0205D3F81005D3F8D3
:103E70001015C0F30520C1F30141FFF74BFC7CE7AF
:103E80000061004000600040206100407C61004013
:103E9000000300505800002001460148FFF778BA9F
:103EA000D400002010B5144C144A15490323236193
:103EB0006361144BA261E3614FF4806323620023CA
:103EC000A3626362E36222660F4A6266E01D10220B
:103ED000A2662367E366636702F012FDBFF35F8F9C
:103EE0000A49204602F00CFDBFF35F8F2023A37127
:103EF000BFF35F8F10BD00BF300A00200E7A0000B4
:103F0000177A0000490B0020390B00201B7A0000B3
:103F10000E4B70B553F82040013053F82060A64294
:103F200000D870BDD4E900352846984765B1EB68E4
:103F300030B10028B8BF4042FF28A8BFFF2018704A
:103F40005A7842F001025A700834E8E74C710000D8
:103F5000F8B504460E464FF02003EFF3118783F3C4
:103F60001288BFF36F8F01F0E3FD3146054620460E
:103F700002F027FE042C0CD10A490B4A0B488F2370
:103F800002F0D0FB0A4802F0CDFB07488F2102F077
:103F900095FC87F31188BFF36F8F2846BDE8F84082
:103FA000FDF774BE447A0000227A00007F720000A0
:103FB000617A000030B5002387B00122CDE90423E7
:103FC0000F22CDE902320D4C0D4A01930D49182301
:103FD00004EBC01403FB00234FF4B075009305FB02
:103FE0000011094B4FF4A072204600F0B1F9637B39
:103FF00023F00403637307B030BD00BF3803002013
:10400000D80A0020801900208545000008B50A4B19
:10401000012202201A70FFF77BFF02F083F90320D0
:10402000FFF776FF00F0F8F902F0B6FE034A137BC3
:1040300023F00103137308BD490F0020B8030020CB
:104040000248034A0021121A02F07FBC1802002025
:104050000811002080B5DFF8D880A6B088F3088862
:104060002D4D2E4E6B69DFF8CC9043F40073002485
:104070006B61E02385F82230EC772C766C76AC7699
:1040800085F820406B6A43F4E0236B6285F8234097
:10409000FDF772FDFDF7D2FA4FF0FF33AB62EB6232
:1040A000FDF7CEFEFDF704FE40F20113ADF824301B
:1040B00006ABB360CDE91F4402F00BFE2046FFF7CC
:1040C00027FF0120164DFFF723FF01F09BFB154B47
:1040D0000593012314490094CDE903434FF4806212
:1040E0004B46CDE901442846F56100F031F96A7B81
:1040F00022F004026A730746284600F0CFFF2046EC
:10410000FFF758FF094BF3604A4639462846347595
:10411000C6F80480FDF7ACFB00ED00E0D80A0020F3
:10412000B8030020967A00006015002038030020B4
:10413000002300200D4000002DE9F041164D174CE2
:10414000174EA846AC420CD9164917483C233246B4
:1041500002F0E8FA154802F0E5FA3C21304602F098
:10416000ADFB444502D30020BDE8F081D4E9042131
:1041700041EA020313F003030BD1E068A361834219
:1041800001D12034DEE7A7690F600133A16111443A
:10419000F5E76FF01500E7E7B4010020B401002057
:1041A0009B7A0000C07A00007F720000DD7A000078
:1041B0002DE9F74304460E469046994600F108055E
:1041C0004FF02003EFF3118783F31288BFF36F8F53
:1041D000284600F0B1F968B9244A254925488123C9
:1041E00002F0A0FA2448294602F09CFA1F488121D7
:1041F00002F064FB284600F0BDF9A369EBB133601F
:104200001B68A361E3690133E3610024284600F0E1
:10421000A1F968B9154A19491648AC2302F082FA87
:104220001748294602F07EFA1048AC2102F046FBFE
:1042300087F31188BFF36F8F13E058EA090203D1A7
:1042400033606FF00B04E1E72246CDE9008939467F
:10425000284601F0D5F8044618B90A4B9B685B69FB
:104260003360204603B0BDE8F08300BF3F73000019
:10427000917300007F720000A67300006573000058
:104280007C730000D80A00202DE9F04104460E4658
:1042900000F108054FF02003EFF3118783F3128834
:1042A000BFF36F8F284600F047F968B9224A2349C7
:1042B0002348812302F036FA2248294602F032FAD6
:1042C0001D48812102F0FAFA284600F053F9D4F88B
:1042D0001880B8F1000F0FD1204601F043FA58B111
:1042E00032684261C0F8788000F0D8FE394628462E
:1042F000BDE8F04100F07EBC3368A2691A60336803
:10430000A361E369013BE361284600F023F968B942
:10431000094A0D490A48AC2302F004FA0B48294621
:1043200002F000FA0448AC2102F0C8FA87F31188C1
:10433000BFF36F8FBDE8F0813F7300009173000001
:104340007F720000A6730000657300007C7300009C
:104350002DE9F04385B00446DDF83C80B8F10F0F3D
:104360000F461546994632D1254B994533D104F174
:104370005803C4E91633109B237307350423637372
:1043800025F0070507F12003C4E919350E9B84F8D1
:104390000E80029305F120080D9B019300260C9BD3
:1043A0000093B8444B46C4E90666A660E673E66629
:1043B000424639462046FDF725FA124B66659B6852
:1043C00003B11B6F2367404605B0BDE8F08308F1D9
:1043D00010031E2BCBD90C4A0C490D4840F2FF1399
:1043E00002F0A0F941460B486FF00F030E2202F0D5
:1043F00099F9054840F2FF1102F060FAB7E700BFF3
:1044000085450000D80A0020FC7A00001F7B0000D0
:104410007F7200009F7B00002DE9F04B3F4F404D25
:10442000DFF80C8186B03E46BD420ED93D493E487C
:1044300040F2CF23424602F075F93C4802F072F98F
:1044400040F2CF21404602F039FAB54205F130047E
:104450001FD300F013FC324C354DDFF8C880DFF875
:10446000C890B4420ED9414640F2EE232A4648464F
:1044700002F058F92D4802F055F940F2EE21284695
:1044800002F01CFAB44221D306B0BDE8F04B01F0B3
:10449000EDB854F8043C059354F8103C049354F8D8
:1044A000143C039354F8183C029354F81C3C0193B9
:1044B00054F8203C009354E90A2354E90C01FFF717
:1044C00047FF54F8303C5D652546ADE7616A4B1CFB
:1044D00014D040F2E732002321EAE1714FF40040AA
:1044E00093469C46C0FB01BC9C4508BF934527688A
:1044F0005846614604D1384600F018FE3034B0E723
:104500004FF47A720023FBF7FBFD02460B4607F1DE
:104510001800084901F030FCF0E700BFB4010020AA
:1045200054010020D07B00007F720000DD7A000083
:10453000FC7A0000D5510000006838B1044B1B7DA7
:1045400000F00300C01A18BF012070470120704717
:10455000D80A0020064903468A68087D1968024384
:1045600091424FF0000004BF18600120704700BF67
:10457000D80A0020024A117D93680B4303607047FC
:10458000D80A0020114CA26892F90E20002A08B522
:1045900009DA0F490F48104A272302F0C3F80E48E2
:1045A000272102F08BF94FF02002EFF3118382F301
:1045B0001288BFF36F8F01F001FDA061FCF7F4FEDC
:1045C0000028F0D1FDF740F8EDE700BFD80A002041
:1045D0001E7C00007F720000FD7B00002DE9F3418E
:1045E000044616461F46EFF3058363B17049714ACE
:1045F0007148652302F096F8704802F093F86D4810
:10460000652102F05BF94FF02003EFF3118883F38B
:104610001288BFF36F8F6A48FFF78EFF68B9694A47
:1046200069496548812302F07DF86549674802F0D1
:1046300079F86448812102F041F96148FFF79AFF57
:10464000E368634AFBB1A068916888423DD056EAAE
:1046500007033CD15A48FFF77DFF68B9594A5D49C5
:104660005548AC2302F05EF855495B4802F05AF811
:104670005448AC2102F022F988F31188BFF36F8F00
:104680006FF00F001EE0916891F90E104C48216107
:104690000133E3609368A360FFF75CFF68B9494AA0
:1046A0004C494548AC2302F03DF845494A4802F0E0
:1046B00039F84448AC2102F001F988F31188BFF3BE
:1046C0006F8F002002B0BDE8F0812169DEE791F92B
:1046D0000E1090F90E309942A8BF19466FF07E0275
:1046E0009142B8BF11468B4244DD00F0B9FE054649
:1046F000CDE9006732482246414600F081FE00289D
:10470000E0D04FF02003EFF3118683F31288BFF35C
:104710006F8F2B48FFF710FF68B92A4A2A492648AD
:10472000812301F0FFFF2649284801F0FBFF2548BF
:10473000812102F0C3F82248FFF71CFF236821699A
:104740009C420AD04BB193F90E309942A8BF19464A
:104750006FF07E039942B8BF1946A06890F90E30F9
:10476000994209D16DB11648314600F043FA6FF015
:104770000A00A7E70025BBE700F072FE0028F2D18F
:10478000F0E70F48FFF7E6FE68B90E4A11490A48FC
:10479000AC2301F0C7FF0A490F4801F0C3FF0948E5
:1047A000AC2102F08BF886F31188BFF36F8FDEE740
:1047B000687C0000467C00007F7200007A7C00006C
:1047C000000B00203F73000091730000A6730000EF
:1047D000D80A0020657300007C73000038B50446D9
:1047E000EFF3058363B15249524A5348C72301F09E
:1047F00099FF524801F096FF4E48C72102F05EF83B
:10480000A368002B00F08D804D4DAA68934240F0C4
:104810008B80E3684BB94B494748464ADF2301F098
:1048200081FF4448DF2102F049F8EFF3058363B1CB
:104830003F49454A4048FD2301F074FF434801F0D9
:1048400071FF4148FD2102F039F8AB68DB7B012B99
:104850000CD13F493C4A3848FE2301F063FF3B48F6
:1048600001F060FF3848FE2102F028F8AA68D37BE7
:10487000013BD373E368012B05D9013BE36000F0F2
:10488000F5FE002038BD4FF02003EFF3118583F3D0
:104890001288BFF36F8F2F48FFF74EFE68B92E4A7C
:1048A0002E492548812301F03DFF2A492C4801F07B
:1048B00039FF2948812102F001F82648FFF75AFE06
:1048C000A068216990F90E30994201D000F0C8FD2E
:1048D000204600F047FFA06058B190F90E202261F9
:1048E0000022826700F0DAFB1A48294600F082F9BC
:1048F000C5E7E0601748FFF72DFE68B9164A194969
:104900000D48AC2301F00EFF1249174801F00AFFD1
:104910001148AC2101F0D2FF85F31188BFF36F8FEE
:10492000ADE76FF01500ADE74FF0FF30AAE700BF2D
:10493000687C0000467C00007F7200007A7C0000EA
:10494000D80A00209F7C0000B67C0000E17C0000BB
:10495000E47C0000000B00203F7300009173000016
:10496000A6730000657300007C73000038B5044630
:104970004FF02003EFF3118583F31288BFF36F8F9D
:104980001448FFF7D9FD68B9134A14491448812324
:1049900001F0C8FE0F49134801F0C4FE0E48812102
:1049A00001F08CFF0B48FFF7E5FD204600F0DAFE32
:1049B00048B10022826700F071FB29460548BDE836
:1049C000384000F017B9D4E902329A4218BF0133D7
:1049D000A360F2E7040B00203F7300009173000016
:1049E0007F720000A6730000F7B5044616461F4606
:1049F000EFF305837BB156EA07030CD03549364AFD
:104A00003648792301F08EFE354801F08BFE32489E
:104A1000792101F053FF4FF02003EFF3118583F369
:104A20001288BFF36F8F2F48FFF786FD68B92E4AB3
:104A30002E492A48812301F075FE2A492C4801F0AD
:104A400071FE2948812101F039FF2648FFF792FDC8
:104A5000A368D3B1013B2348A360FFF77BFD68B98E
:104A6000214A24491D48AC2301F05CFE1D4922481F
:104A700001F058FE1C48AC2101F020FF85F311889D
:104A8000BFF36F8F002003B0F0BD56EA070318D1C3
:104A90001448FFF75FFD68B9134A16490F48AC2365
:104AA00001F040FE0F49144801F03CFE0E48AC21D5
:104AB00001F004FF85F31188BFF36F8F6FF00F00D3
:104AC000E1E7CDE9006722462946064800F098FC58
:104AD000D9E700BF357D0000157D00007F72000022
:104AE000E17C0000040B00203F7300009173000084
:104AF000A6730000657300007C73000010B5084CBD
:104B000023685BB1FEF72CFB03462068054A03448B
:104B1000BDE810401361002101F098BA10BD00BF3C
:104B2000140B0020D80A0020F8B504460D464FF0BB
:104B30002003EFF3118683F31288BFF36F8F2348AE
:104B4000FFF7FAFC68B9224A22492348812301F081
:104B5000E9FD1E49214801F0E5FD1D48812101F0D4
:104B6000ADFE1A48FFF706FD1D4B00224FF400472B
:104B700040F2E73000211A61E7FB040100234FF403
:104B80007A72FBF7BDFA002C164B1BDC1860164B33
:104B90001D60FFF7B3FF0D48FFF7DCFC68B90C4A56
:104BA00012490D48AC2301F0BDFD0849104801F041
:104BB000B9FD0748AC2101F081FE86F31188BFF3EF
:104BC0006F8FF8BD0228B8BF0220DFE70C0B002072
:104BD0003F730000917300007F720000A673000015
:104BE000D80A0020140B0020100B00206573000071
:104BF0007C73000038B504460D46E9B9EFF3058330
:104C0000D3B9194BDA699B689A4215D0FFF7A2FC19
:104C100068B9164A16491748C32301F083FD1648A0
:104C2000214601F07FFD1148C32101F047FEBDE898
:104C300038400020FCF792BD2046FFF78BFC68B996
:104C40000A4A0B490B48AC2301F06CFD0A48214687
:104C500001F068FD0548AC2101F030FE85F31188B4
:104C6000BFF36F8F38BD00BFD80A00203F7300002C
:104C7000657300007F7200007C73000038B54FF050
:104C80002003EFF3118583F31288BFF36F8F294858
:104C9000FFF752FC68B9284A28492948812301F0C6
:104CA00041FD2449274801F03DFD2348812101F0C1
:104CB00005FE2048FFF75EFCEFF3058363B1224950
:104CC000224A1F48FD2301F02DFD214801F02AFD55
:104CD0001E48FD2101F0F2FD1E4CA268D27B012A84
:104CE0000CD11D49194A1648FE2301F01BFD184836
:104CF00001F018FD1548FE2101F0E0FDA268D37B0C
:104D0000013BD3730B48FFF725FC68B90A4A1349E6
:104D10000B48AC2301F006FD0649114801F002FDE5
:104D20000548AC2101F0CAFD85F31188BFF36F8FF0
:104D300038BD00BF0C0B00203F73000091730000D2
:104D40007F720000A6730000687C0000B67C000043
:104D5000E17C0000D80A0020E47C000065730000BC
:104D60007C7300000C4B994210B50C460BD10B49DB
:104D70000B480C4A40F2E73301F0D4FC094840F2FA
:104D8000E73101F09BFDD4E9003213605A60002343
:104D9000C4E9003310BD00BF38030020A47D00002B
:104DA0007F720000827D0000836810B504465BB905
:104DB0000B490C480C4A40F2832301F0B3FC0A482B
:104DC00040F2832101F07AFDA0682146FFF7CAFF77
:104DD000637B23F0020363730023A36010BD00BF55
:104DE000C57D00007F720000827D000038B502465C
:104DF0001448154D01F0BEFF044600B9EC68CAB96D
:104E0000AB6863B91149124A1248892301F08AFC40
:104E1000114801F087FC0E48892101F04FFDAB6875
:104E20005A7BD20606D1A26922B9DA897F2A01D932
:104E3000EB6138BDAB68A34201D0FFF75FFEEC61C8
:104E4000F7E700BFF80A0020D80A0020DC7D000048
:104E5000827D00007F720000E17C000070B590F957
:104E60000D20437B002A044606DA03F07F034373D8
:104E700001461F48FFF776FF637B63F07F03637390
:104E80001C4B9C4209D11C491C481D4ABA2301F005
:104E900049FC1B48BA2101F011FD1A4A1146556A16
:104EA00051F8203F8B4208BF0023002B38BF00235E
:104EB000CBB194F90E6093F90E0086420FD0801B9F
:104EC00000280CDD5968C4E900310C605C60906812
:104ED000031B5842BDE870405841FFF787BFAB4203
:104EE00001D01B68E4E7C4E900152C605462EEE7CA
:104EF000F80A002038030020A47D00007F72000023
:104F0000827D0000D80A002070B504464FF02003CF
:104F1000EFF3118583F31288BFF36F8F2A48FFF7F1
:104F20000BFB68B9294A2A492A48812301F0FAFB78
:104F30002549294801F0F6FB2448812101F0BEFCF7
:104F40002148FFF717FB254B254A986811688842CE
:104F5000194618D1FFF7D2FD1B48FFF7FBFA68B9D5
:104F60001A4A20491B48AC2301F0DCFB16491E48B5
:104F700001F0D8FB1548AC2101F0A0FC85F31188A5
:104F8000BFF36F8F70BD00261660184A1268BAB161
:104F9000C2897F2A14D8427BD20611D1144A90F9D3
:104FA0000E60126896420BDB124A904208D01A69D2
:104FB000A24202DCFFF752FFCCE7121B1A61CBE7DB
:104FC00000230B61C8E700BF0C0B00203F730000FB
:104FD000917300007F720000A6730000D80A0020C1
:104FE000080B0020657300007C730000140B002088
:104FF000100B00203803002070B590F90D20437B82
:10500000002A04463EDBDA063CD18569002D39D101
:1050100063F07F0343731C4B984209D11B491C4822
:105020001C4ABA2301F07EFB1A48BA2101F046FC63
:1050300019490B4653F8200F984218BF0546002D1A
:105040001A462B464D6A38BF0023B3B194F90E605F
:1050500093F90E0086420CD0801B002809DD5A68A7
:10506000C4E9003214605C60BDE870400020FFF7C6
:10507000BDBEAB4201D01B68E7E7C4E900252C6048
:105080004C62F1E770BD00BF38030020A47D000032
:105090007F720000827D0000D80A002038B50446E7
:1050A0004FF02003EFF3118583F31288BFF36F8F66
:1050B0001748FFF741FA68B9164A1749174881237C
:1050C00001F030FB1249164801F02CFB11488121F8
:1050D00001F0F4FB0E48FFF74DFA2046FFF78CFF76
:1050E0000B48FFF737FA68B90A4A0E490B48AC2358
:1050F00001F018FB06490C4801F014FB0548AC21EF
:1051000001F0DCFB85F31188BFF36F8F38BD00BF62
:105110000C0B00203F730000917300007F720000B1
:10512000A6730000657300007C73000038B5044668
:105130004FF02003EFF3118583F31288BFF36F8FD5
:105140001D48FFF7F9F968B91C4A1D491D4881231C
:1051500001F0E8FA18491C4801F0E4FA17488121E7
:1051600001F0ACFB1448FFF705FA637B5A0716D42D
:105170001148FFF7EFF968B9104A14491148AC23F8
:1051800001F0D0FA0C49124801F0CCFA0B48AC21DE
:1051900001F094FB85F31188BFF36F8F38BD23F0C6
:1051A000040320466373FFF727FF29460248BDE842
:1051B0003840FFF71FBD00BF0C0B00203F730000FD
:1051C000917300007F720000A673000065730000F9
:1051D0007C73000070B504464FF02003EFF3118696
:1051E00083F31288BFF36F8F2048FFF7A5F968B9E2
:1051F0001F4A20492048812301F094FA1B491F4887
:1052000001F090FA1A48812101F058FB1748FFF786
:10521000B1F914F80B3C13F0280F10D154F8103CDE
:10522000A4F1180513B12846FFF7BEFD14F80B3C96
:1052300023F0140304F80B3C2846FFF7DDFE0B486F
:10524000FFF788F968B90A4A0D490B48AC2301F009
:1052500069FA06490B4801F065FA0548AC2101F0EE
:105260002DFB86F31188BFF36F8F70BD0C0B0020F0
:105270003F730000917300007F720000A67300006E
:10528000657300007C73000010B590F90D20437B1E
:10529000002A044606DA03F07F03437301460648FA
:1052A000FFF760FD054B9868031B5842BDE81040AE
:1052B0005841FFF79BBD00BFF80A0020D80A002024
:1052C00038B504460D46FFF7DFFF637B43F002036A
:1052D00063731DB3174BA5609C4209D1164917484B
:1052E000174ABA2301F01EFA1548BA2101F0E6FA6E
:1052F0002B689D4208BF0023002B38BF00239BB1C1
:1053000094F90E1093F90E20914208D0521A002AF7
:1053100005DD5A68C4E9003214605C6038BD6A6813
:10532000934201D01B68EAE76B68C4E900531C6034
:105330006C60F3E738030020A47D00007F7200005A
:10534000827D00002DE9F04104460D4616461F46B9
:105350004FF02003EFF3118883F31288BFF36F8FB0
:105360001F48FFF7E9F868B91E4A1F491F48812303
:1053700001F0D8F91A491E4801F0D4F919488121E1
:1053800001F09CFA1648FFF7F5F820462946FFF78A
:1053900097FF1348FFF7DEF868B9124A154913481A
:1053A000AC2301F0BFF90E49134801F0BBF90D48D9
:1053B000AC2101F083FA88F31188BFF36F8F7B1C57
:1053C00008BFB6F1FF3F08D032463B4604F1180053
:1053D0000A49BDE8F04100F0CFBCBDE8F08100BF54
:1053E0000C0B00203F730000917300007F720000DF
:1053F000A6730000657300007C730000D5510000A7
:1054000038B5114B04469868104B0D46186011468C
:10541000DDE90423FFF796FF2046FFF79BF868B904
:105420000B4A0C490C48C32301F07CF90B48214678
:1054300001F078F90648C32101F040FA2846BDE89A
:105440003840FCF78BB900BFD80A0020080B0020B9
:105450003F730000657300007F7200007C730000E2
:10546000F8B504460E464FF02003EFF3118783F39F
:105470001288BFF36F8F3C48FFF75EF868B93B4A6C
:105480003B493C48812301F04DF937493A4801F046
:1054900049F93648812101F011FA3348FFF76AF8DB
:1054A000637BDA0676B25CD1A569002D59D103F091
:1054B0007F03637331482146FFF754FC637BA67377
:1054C00063F07F0363732E4B9C4209D12D49294819
:1054D0002D4ABA2301F026F92B48BA2101F0EEF942
:1054E0002A490B4653F8200F984218BF0546002D55
:1054F0001A462B464D6A38BF00236BB394F90E60F1
:1055000093F90E00864223D0801B002820DD5A68C4
:10551000C4E9003214605C600120FFF767FC0124DD
:105520001148FFF717F868B9104A19491148AC2318
:1055300001F0F8F80C49174801F0F4F80B48AC21D9
:1055400001F0BCF987F31188BFF36F8F2046F8BDD7
:10555000AB4201D01B68D0E7C4E900252C604C6247
:10556000DAE7A6730024DBE70C0B00203F73000092
:10557000917300007F720000A6730000F80A0020FB
:1055800038030020A47D0000827D0000D80A00209E
:10559000657300007C73000070B50446183000F09D
:1055A000BFFC4FF02003EFF3118683F31288BFF3A3
:1055B0006F8F2548FEF7C0FF68B9244A2449254863
:1055C000812301F0AFF82049234801F0ABF81F48D0
:1055D000812101F073F91C48FEF7CCFF94F90D20EE
:1055E000637B002A06DA03F07F031C4863732146BD
:1055F000FFF7B8FB1A4D637BA86843F01003637391
:10560000031B58425841FFF7F1FB0F48FEF7A2FF7A
:1056100068B90E4A13490F48AC2301F083F80A49D0
:10562000114801F07FF80948AC2101F047F986F3F1
:105630001188BFF36F8FAB68A34203D1BDE8704000
:1056400001F08EBB70BD00BF0C0B00203F7300004B
:10565000917300007F720000A6730000F80A00201A
:10566000D80A0020657300007C73000038B54FF045
:105670002003EFF3118583F31288BFF36F8F2D485A
:10568000FEF75AFF68B92C4A2C492D48812301F0B6
:1056900049F828492B4801F045F82748812101F0B5
:1056A0000DF9294C2348FEF765FFA268D27B72B939
:1056B0002649274A224840F2853301F033F825482D
:1056C00001F030F8224840F2853101F0F7F8EFF3AD
:1056D000058373B120491E4A194840F2863301F010
:1056E00021F81C4801F01EF8194840F2863101F0FB
:1056F000E5F8A268D37B01330020D373FFF776FB74
:105700000C48FEF727FF68B90B4A14490C48AC2334
:1057100001F008F80749124801F004F80648AC21E6
:1057200001F0CCF885F31188BFF36F8FBDE83840E6
:1057300001F016BB0C0B00203F73000091730000BA
:105740007F720000A6730000D80A0020037E0000CC
:10575000827D0000E17C0000687C00006573000031
:105760007C73000038B504464FF02003EFF3118539
:1057700083F31288BFF36F8F1B48FEF7DDFE68B915
:105780001A4A1B491B48812300F0CCFF16491A48CE
:1057900000F0C8FF1548812101F090F81248FEF78B
:1057A000E9FE204601F0E6FA044628B1FFF7FCFACC
:1057B00004F1180000F0B4FB0B48FEF7CBFE68B90B
:1057C0000A4A0E490B48AC2300F0ACFF06490C48CE
:1057D00000F0A8FF0548AC2101F070F885F31188AE
:1057E000BFF36F8F204638BD0C0B00203F730000C5
:1057F000917300007F720000A673000065730000C3
:105800007C730000044B03F12002C3E9082200214D
:105810000A20FFF789B900BFD80A0020F8B5EFF3D6
:10582000058373B14149424A424840F2DC4300F0EB
:1058300079FF414800F076FF3D4840F2DC4101F03D
:105840003DF84FF02003EFF3118683F31288BFF386
:105850006F8F3A48FEF770FE68B9394A39493548C2
:10586000812300F05FFF3549374800F05BFF344883
:10587000812101F023F8354D3048FEF77BFEA96801
:105880004B7B03F07F034B7305F12000FFF76AFAAF
:10589000AC68637B63F07F0363732D4B9C4209D13B
:1058A0002C492448224ABA2300F03CFF2048BA2160
:1058B00001F004F82B6A2848696A834208BF002374
:1058C000002B38BF00235BB394F90E7093F90E20C0
:1058D000974221D0D21B002A1EDD5A68C4E900324B
:1058E00014605C600120FFF781FA1448FEF732FE75
:1058F00068B9134A19490F48C32300F013FF0F4931
:10590000174800F00FFF0E48C32100F0D7FF3046C4
:10591000BDE8F840FBF722BF8B4201D01B68D2E7FD
:10592000C4E900010C606C62DCE700BF687C000029
:10593000827D00007F720000E17C00000C0B0020E3
:105940003F73000091730000A6730000D80A002086
:1059500038030020A47D0000F80A002065730000D1
:105960007C7300002DE9F04104460D46EFF30583FA
:1059700073B14549454A46484FF49F6300F0D2FE53
:10598000444800F0CFFE41484FF49F6100F096FF7D
:1059900054EA050304D1FFF741FF0020BDE8F08180
:1059A0006FF001031E1B4FF0FF3363EB0507012E61
:1059B00077F1000364DA01F0E7F906194FF02003EC
:1059C000EFF3118883F31288BFF36F8F3248FEF72D
:1059D000B3FD68B9314A32492D48812300F0A2FE57
:1059E0002D49304800F09EFE2C48812100F066FFD2
:1059F0002D4F2948FEF7BEFD2C4BB8681860FFF705
:105A000043FCB8682A4922462B46183000F0B4F906
:105A1000BA682148537B43F010035373FEF79AFD95
:105A200068B91E4A23491A48C32300F07BFE1A496D
:105A3000214800F077FE1948C32100F03FFF40469F
:105A4000FBF78CFEBB685B7BDB060ED51B490F4A60
:105A50000F4840F2195300F065FE0E4800F062FE58
:105A60000A4840F2195100F029FF01F08DF9301A6F
:105A700066EB0601012871F10003B8BF00208DE735
:105A80006FF00106361B99E7687C0000827D0000FC
:105A90007F720000E17C00000C0B00203F730000CF
:105AA00091730000A6730000D80A0020080B0020A4
:105AB000D5510000657300007C730000347E000047
:105AC00038B504460D46EFF3058373B11349144A04
:105AD00014484FF4A56300F025FE134800F022FEA1
