:1000000040280020812100003DAD00003921000082
:1000100039210000392100003921000000000000D2
:10002000000000000000000000000000011D0000B2
:100030003921000000000000A91C00003921000047
:10004000ED1D0000ED1D0000ED1D0000ED1D000088
:10005000ED1D0000ED1D0000ED1D0000ED1D000078
:10006000ED1D0000ED1D0000ED1D0000ED1D000068
:10007000ED1D0000ED1D0000ED1D0000ED1D000058
:10008000ED1D0000ED1D0000ED1D0000ED1D000048
:10009000ED1D0000ED1D0000ED1D0000ED1D000038
:1000A000ED1D0000ED1D0000ED1D0000ED1D000028
:1000B000ED1D0000ED1D0000ED1D0000ED1D000018
:1000C000ED1D0000ED1D0000ED1D0000ED1D000008
:1000D000ED1D0000ED1D0000ED1D0000ED1D0000F8
:1000E000ED1D0000ED1D0000ED1D0000ED1D0000E8
:1000F000ED1D0000ED1D0000ED1D0000ED1D0000D8
:1001000053B94AB9002908BF00281CBF4FF0FF317E
:100110004FF0FF3000F06CB9ADF1080C6DE904CE82
:1001200000F006F8DDF804E0DDE9022304B07047D2
:100130002DE9F047089E0D4604468E46002B40F000
:1001400082808A42174646D9B2FA82F24AB1C2F197
:10015000200105FA02F320FA01F1974041EA030E6B
:1001600094404FEA1748230CBEFBF8FCB9B208FBD9
:100170001CEE43EA0E430CFB01F098420AD9FB182F
:100180000CF1FF3580F01681984240F21381ACF1FA
:10019000020C3B441B1AA4B2B3FBF8F008FB10336B
:1001A00044EA034400FB01F1A14209D93C1900F1E2
:1001B000FF3380F00181A14240F2FE8002383C44CE
:1001C000641A40EA0C4000211EB1D4400023C6E965
:1001D0000043BDE8F08702B9FFDEB2FA82F2002ADE
:1001E0004FD1CB1B4FEA174E1FFA87F80121B3FB03
:1001F000FEFC250C0EFB1C3345EA034508FB0CF303
:10020000AB4207D97D190CF1FF3002D2AB4200F2AC
:10021000E7808446ED1AA3B2B5FBFEF00EFB105545
:1002200043EA054408FB00F8A04507D93C1900F152
:10023000FF3302D2A04500F2D7801846A4EB080491
:1002400040EA0C40C0E78B4208D9002E00F0AF8096
:100250000021C6E900050846BDE8F087B3FA83F13E
:1002600000294BD1AB4202D3824200F2B780841AFC
:1002700065EB030301209E46002EAAD0C6E9004E7E
:10028000A7E7C2F1200C01FA02F3974020FA0CF024
:100290004FEA174E21FA0CFC1843BCFBFEF1050C8B
:1002A0000EFB11CC1FFA87F845EA0C4501FB08F359
:1002B000AB4204FA02F409D97D1901F1FF3C80F048
:1002C0008B80AB4240F2888002393D44EB1A85B204
:1002D000B3FBFEF00EFB103345EA034500FB08F3C9
:1002E000AB4207D97D1900F1FF3C71D2AB426FD907
:1002F00002383D44EB1A40EA014178E7C1F1200C95
:100300008B4022FA0CF71F4320FA0CF405FA01F394
:100310004FEA174E25FA0CF51C43230CB5FBFEF9EA
:100320001FFA87F80EFB195543EA054509FB08FA41
:10033000AA4502FA01F200FA01F308D97D1909F180
:10034000FF3047D2AA4545D9A9F102093D44A5EBA2
:100350000A05A4B2B5FBFEF00EFB105544EA0544B5
:1003600000FB08F8A04507D93C1900F1FF352DD254
:10037000A0452BD902383C4440EA0940A4EB0804CC
:10038000A0FB02894C45C6464D4619D316D05EB136
:10039000B3EB0E0264EB050404FA0CFCCA404CEA11
:1003A0000202CC40C6E900240021BDE8F0873146B6
:1003B00030460EE7AC46EDE6184601E74345E6D287
:1003C000B8EB020E69EB07050138E0E72846D3E7F2
:1003D00060468FE78146BAE7614677E708464BE714
:1003E000ACF1020C3D4415E702383C4426E700BF5F
:1003F000704700BF08B54FF0FF324FF0FF3306489B
:1004000006F024F8054B1A68013A1A601968044886
:100410000AF01AFB08BD00BF1C02002000000020EB
:1004200078BB000008B5124802F03AF8FFF7E2FF87
:1004300002F0A2F80F4BA3FB0023DB0803EB8303BE
:10044000A0EB430323EAE373DD17E90341EA5341D9
:10045000D80340F2E7344FF47A72002300194FF0CA
:10046000000444EB0101FFF74BFE07F0B1F9DDE7B3
:10047000B0BB0000CDCCCCCC08B5064B1A6801321D
:100480001A60196804480AF0DFFA044805F09AFF78
:1004900008BD00BF00000020CCBB00001C020020F3
:1004A00008B512480AF0D0FAFFF7E6FF02F064F848
:1004B0000F4BA3FB0023DB0803EB8303A0EB4303F9
:1004C00023EAE373DD17E90341EA5341D80340F21D
:1004D000E7344FF47A72002300194FF0000444EB24
:1004E0000101FFF70DFE07F073F9DDE704BC000022
:1004F000CDCCCCCC38B50446436803F0030381600F
:10050000022B03D9032B02D100680EE063B9084D1A
:1005100045232A46074908480AF096FA4521284605
:100520000AF0EBFB002000E000200023636038BDF0
:1005300038BC00005CBC000060BC000008B50B6863
:1005400001330B60014B1B68984708BD0400002075
:10055000014B1860704700BF0400002000B583B055
:1005600002460B460021019101A9034800F072FBED
:1005700003B05DF804FB00BF3D05000010B584B07A
:100580000446019002910021039101A9054800F061
:1005900061FB039B029A934201DA0022E254039822
:1005A00004B010BD19AA000038B504460D46838B6F
:1005B000002A14DB03F007035A1F012A1BD9042B5E
:1005C0004FD02E4C40F21B1322462D492D480AF0E5
:1005D0003BFA40F21B1120460AF08FFB38BDD0E9F0
:1005E000000185E8030000232360636001212046A9
:1005F0000AF046FAF2E7D0E9000185E8030000229C
:1006000022606260062B0FD0052B1CD100212046F2
:100610000AF036FA20460AF05AFA0028DED0A38BF8
:1006200043F02003A383D9E72B683BB1E28B01326F
:10063000E283002BF9D01B68002BF6D10221204663
:100640000AF01EFAE6E70D4D40F209132A460E495C
:100650000C480AF0F9F940F2091128460AF04DFB5E
:10066000D4E700210AF00CFA20460AF030FA0028FC
:10067000B4D0A38B43F02003A383AFE780BC00007A
:100680005CBC000060BC0000A4BC00002DE9F04F81
:1006900083B004461646838B03F0070703F008086F
:1006A0000D4631B1B8F1000F12D100230093019330
:1006B000AAE0DFF80C9340F233134A46BE49BF4824
:1006C0000AF0C2F940F2331148460AF016FBE9E796
:1006D000012D13D0022D16D1A38B43F02003A38349
:1006E0001434204605F096FA002800F0A38186F322
:1006F0001188BFF36F8F03B0BDE8F08FA38B43F079
:100700001003A383ECE7AE4D4FF49E732A46AD4928
:10071000AA480AF099F94FF49E7128460AF0EDFABA
:10072000DAE720460AF0D3F905466FE0D4F81890CE
:100730004A4669462046FFF737FF002511E0002FA3
:1007400040F081802368002B00F08B8023691D68B6
:10075000002D00F09480062120460AF091F94FF018
:100760000009A38B03F00708B84500F00B81A268CD
:10077000002A00F00981012217461AB9009A002ABE
:1007800000F0048143F00803A38304F1140A5046E7
:1007900005F040FA002800F0FD8086F31188BFF3D1
:1007A0006F8F002F40F02681009B2BB14B464246B5
:1007B000694620460AF0CDF915B183492046A8477D
:1007C0004FF02003EFF3118683F31288BFF36F8F8E
:1007D000504605F00FFA002800F01281504605F04F
:1007E00029FAA38B23F00803A383A38B13F0100F24
:1007F00000F0168123F01003A3830125A78B07F0D7
:100800000707002D3FF46CAF022D8AD0002D3FF476
:1008100067AF012D8AD0032D91D0042D3ED0052D38
:1008200040F0A080012F72D12368002B7DD0236976
:100830009D68002D00F08780052120460AF020F9F0
:100840004FF000098DE75E4D4FF4AB732A465F49C8
:100850005A480AF0F9F84FF4AB7128460AF04DFAFD
:1008600070E7574D40F257132A46594953480AF04A
:10087000EBF840F2571128460AF03FFA66E7DFF836
:1008800040814FF4AD73424652494C480AF0DCF8BF
:100890004FF4AD7140460AF030FA5CE7022F0BD1FD
:1008A000E38BBBB923695D6815B3042120460AF0C8
:1008B000E7F84FF0000954E7414D40F25D132A4636
:1008C00045493E480AF0C0F840F25D1128460AF05A
:1008D00014FAE5E73A4D4FF4AF732A463F493748DB
:1008E0000AF0B2F84FF4AF7128460AF006FAD9E7D9
:1008F000DFF8CC8040F26113424636492F480AF0B7
:10090000A3F840F2611140460AF0F7F9CDE72C4D0B
:100910004FF4B2732A46324928480AF095F84FF44A
:10092000B27128460AF0E9F97EE7254D40F26513D9
:100930002A46274921480AF087F840F265112846DF
:100940000AF0DBF973E7DFF878804FF4B4734246BE
:1009500020491A480AF078F84FF4B47140460AF07A
:10096000CCF969E7164D40F26B132A461D4913482E
:100970000AF06AF840F26B1128460AF0BEF9002529
:10098000A946EEE60022F7E60022F5E6002D7FF408
:10099000F9AE2AE7DFF858B0AC235A4612490748A7
:1009A0000AF052F8514611480AF04EF8AC21584668
:1009B0000AF0A3F9F1E600BFCCBC000060BC000067
:1009C00080BC0000DCBC00006D0A0000F0BC000030
:1009D000FCBC000020BD000038BD000050BD000080
:1009E00060BD00005CBC0000A0BD0000B8BD000000
:1009F00078BD00004A46414620460AF049F8D3E651
:100A0000144D81232A46144914480AF01DF8514612
:100A100013480AF019F8812128460AF06EF9DDE63C
:100A200013F0200F04D023F02003A3830225E5E672
:100A30000025E3E6074DAC232A460A4907480AF099
:100A400003F82146084809F0FFFFAC2128460AF0C8
:100A500054F94CE678BD0000D0BD000060BC000039
:100A6000E8BD0000A0BD0000B8BD00002DE9F041C8
:100A700004460D4600F114064FF02003EFF31187F2
:100A800083F31288BFF36F8F304605F0B3F850B18F
:100A9000304605F0CFF8A5613A4601212046FFF720
:100AA000F5FDBDE8F081DFF82C8081234246064940
:100AB000064809F0C9FF3146054809F0C5FF812104
:100AC00040460AF01AF9E3E7D0BD000060BC000020
:100AD000E8BD000078BD00002DE9F84F04468846C7
:100AE0000AF00EF8061E58DB04F114074FF020033D
:100AF000EFF3118983F31288BFF36F8F384605F047
:100B000079F8E8B1384605F095F8A58B05F00705AA
:100B1000E38B4FF6FF72934256D02E46022D1FD024
:100B20002DB3042D23D0062D21D0052D53D0012D1A
:100B300036D16FF004064FF0000A534652461CE0CF
:100B40003C4D81232A463C493C4809F07DFF39460B
:100B50003B4809F079FF812128460AF0CEF8D1E719
:100B60000133E3834FF0010A00231A4605E0B5FA8A
:100B700085F35B094FF0000A012242B10022C8F858
:100B80000020626872B3C2F80080C4F8048073B3B6
:100B90004A4602212046FFF779FD3046BDE8F88F2E
:100BA000284E40F2C91332462749244809F04CFF29
:100BB00040F2C91130460AF0A0F86FF004064FF079
:100BC000000A53465246D8E76FF00A064FF0000A73
:100BD00053465246D1E76FF085064FF0000A534660
:100BE0005246CAE7C4F80480C4F80080CFE738460C
:100BF00005F010F868B189F31188BFF36F8FBAF16F
:100C0000000FCAD000232A464146204609F08EFF35
:100C1000C3E7DFF820B0AC235A460C49074809F077
:100C200013FF39460A4809F00FFFAC2158460AF075
:100C300064F8E0E778BD0000D0BD000060BC0000B3
:100C4000E8BD000080BC000060BD0000A0BD000049
:100C5000B8BD00002DE9F04F93B006460D46924610
:100C6000039300249AF80000002800F0D684252879
:100C700008D00AF1010A2946B0470028C0F2CE8404
:100C80000134EFE70023069307930B93089309932E
:100C90000A930AF101089AF80130252B01D00127A7
:100CA0002CE00AF102088DF82330A8E19DF82030ED
:100CB00043F004038DF82030FFB108F101081CE077
:100CC0009DF8203043F008038DF82030F4E79DF8BC
:100CD000203043F010038DF82030EDE79DF82030F0
:100CE00043F020038DF82030E6E79DF8203043F0F4
:100CF00040038DF82030DFE700274FB398F800302D
:100D0000203B102BF8D801A252F823F0CF0C0000A2
:100D1000F90C0000F90C0000DD0C0000F90C0000DB
:100D2000F90C0000F90C0000F90C0000F90C0000AF
:100D3000F90C0000F90C0000C10C0000F90C0000D7
:100D4000AD0C0000F90C0000F90C0000EB0C0000E9
:100D50009DF8203003F04403442B6DD0CDF814806F
:100D60009DF8203043F080038DF8203098F8003053
:100D70002A2B68D005A809F029FF059B984512D0B9
:100D80009DF8203043F080038DF820300990C3F3A4
:100D90004003002860DB002213439DF8202063F30A
:100DA00041028DF82020059B05931B782E2B14BF44
:100DB000002301239DF8212063F341028DF82120B7
:100DC000002B4BD0059B5A1C05925B782A2B48D0F0
:100DD00005A809F0FBFE0A909DF82030C3F34003FC
:100DE000002847DB002213439DF8202063F34102D3
:100DF0008DF82020DDF8148098F800304C3B2E2B25
:100E000000F2DC80DFE803F0CADADADADADADADA1A
:100E1000DADADADADADADADADADADADADADADADA32
:100E2000DADADADA38DA6ADA51DADADADADADADABD
:100E3000C0DADADADADAB6009DF820306FF386131A
:100E40008DF820308AE79DF8213043F001038DF8BA
:100E5000213043460133A7E701229DE7DDF81480E6
:100E6000CAE79DF8213043F004038DF8213002F1E8
:100E70000108C1E70122B6E708F1010298F8013044
:100E8000682B08D09DF82130022161F3C6038DF84C
:100E9000213090462BE09DF82130012262F3C603F9
:100EA0008DF8213008F1020821E008F1010298F8DC
:100EB00001306C2B08D09DF82130032161F3C6036B
:100EC0008DF82130904612E09DF82130042262F323
:100ED000C6038DF8213008F1020808E09DF82130A2
:100EE000052262F3C6038DF8213008F1010818F8D5
:100EF000013B8DF82330A3F14102372A00F25081E3
:100F0000DFE812F026014E014E014E0126012601B6
:100F100026014E014E014E014E014E014E014E0181
:100F20004E014E014E014E014E014E014E014E0149
:100F30004E0113014E014E014E014E014E014E0174
:100F40004E014E0126014E011301630026012601C8
:100F500026014E0163004E014E014E014E012F014C
:100F600013013F014E014E013F014E0113014E019D
:100F70004E0113019DF82130062262F3C6038DF85D
:100F8000213008F10108B2E79DF82130072262F311
:100F9000C6038DF8213008F10108A8E79DF821303B
:100FA000082262F3C6038DF8213008F101089DF88C
:100FB000203043F002038DF8203098E79DF821306F
:100FC0006FF3C6038DF8213091E79DF822200121AF
:100FD00061F302028DF822209DF8212002F07802B0
:100FE000402A00F0AA80632B00F0AE809DF82030EC
:100FF000C3F34002174367F341038DF820309DF897
:10100000213013F0010F00F0DA80039B1A1D0392C8
:101010001F68002FC0F2CB809DF8213013F0040F21
:1010200000F0DF80039B1A1D0392D3F800B0BBF1E0
:10103000000FC0F2CD80002309930A939DF822305F
:1010400003F007039DF82110C1F3C301012B00F049
:10105000D180022B00F01681042B00F06781032B56
:1010600000F07E819DF8209019F00303029340F078
:101070007D819DF82330253B532B00F23382DFE83E
:1010800013F08101310231023102310231023102A9
:1010900031023102310231023102310231023102B8
:1010A00031023102310231023102310231023102A8
:1010B0003102310231023102310231023102310298
:1010C0003102310231023102310231023102310288
:1010D0003102310231023102310231023102310278
:1010E0003102310231023102C701310231023102D3
:1010F0003102310231023102310231023102A101E9
:10110000AB013102310231023102AB013102310255
:10111000310231020802C701EA01310231028F01B6
:101120003102C70131023102C7019DF8222002219C
:1011300061F302028DF822204EE79DF8201041F065
:1011400001018DF820104EE7171E18BF01274DE74B
:101150009DF82230042262F302038DF82230012729
:1011600044E79DF82230032262F302038DF8223017
:101170009DF8213003F07803402B7FF437AF01272F
:1011800034E79DF82230032262F302038DF8223007
:101190009DF8213013F0780F3FF428AF012725E7A1
:1011A0009DF8203043F001038DF820301EE79DF8B4
:1011B000203043F004038DF820307F422CE79DF966
:1011C0002030002B02DB4FF0FF3725E7099F23E794
:1011D0009DF821306FF341038DF821304FF0FF3B34
:1011E00029E713F0020F02D0DDF828B023E74FF013
:1011F000FF3B20E7CB1E042B04D8DFE803F00B1DD8
:1012000029353500039B1A1D03921A68D317CDE9BF
:10121000062306E0039B1A1D03921A68D317CDE933
:101220000623012928D002297FF41CAFBDF918201C
:10123000D317CDE9062315E7039B073323F00703F4
:1012400003F108020392D3E90023CDE90623E8E77E
:10125000039B073323F0070303F108020392D3E94A
:101260000023CDE90623DCE7039B1A1D03921A68CD
:10127000D317CDE90623D4E79DF818300693002351
:101280000793EFE6CB1E042B04D8DFE803F00B1F17
:1012900035414100039B1A1D03921B6806930023EE
:1012A00007931EE09DF82330632B07D0039B1A1D84
:1012B00003921B6806930023079312E0039B1A1DF9
:1012C00003921B680693002307930AE0039B0733EE
:1012D00023F0070303F108020392D3E90023CDE9C9
:1012E000062301291CD002297FF4BCAEBDF81830BA
:1012F000069300230793B5E6039B073323F0070308
:1013000003F108020392D3E90023CDE90623E8E7BD
:10131000039B1A1D03921B68069300230793E0E7C3
:101320009DF818300693002307939BE608290BD0FD
:10133000039B073323F0070303F108020392D3E969
:101340000023CDE906238DE6039B073323F0070333
:1013500003F108020392D3E90023CDE9062381E6D5
:10136000039B1A1D03921B6806937BE64346524675
:101370002946304609F0A7FC0028C0F24F810444FA
:10138000C2466FE429462520B0470028C0F24681B6
:101390000134DDF808900DF1460B4FF0000AA7E08C
:1013A000DDF818A0BBF1000F08DB5946504609F0E4
:1013B00081FD0AEB000BDDF8089099E0504609F03A
:1013C00071FDF6E7069B8DF83030DDF808900DF1E1
:1013D000310B0DF1300A8BE019F0080F05D119F02F
:1013E000100904D04FF0200901E04FF02B09DDE98E
:1013F0000623002A73F1000102DBCDE9062309E090
:10140000524263EB4303CDE906234FF02D0901E07F
:10141000DDF808900DF1460300930CAB08AADDE956
:10142000060109F0E6FB8246BBF1000FC0F2908096
:101430000DF14603A3EB0A039DF820206FF38612FB
:101440008DF820209B4540F28680ABEB0303099387
:101450000DF1460B4CE0069830B9DDF80890DFF846
:10146000C4B1ABF1050A43E00DF1460300930CABA8
:1014700008AA002109F0BDFB82469DF8223043F006
:1014800010038DF8223078238DF82330DDF8089092
:10149000CAE7069A9DF82130C3F3C303072B06D889
:1014A000DFE803F0040C0E1012171C1E1460DDF8A8
:1014B00008900DF1460B4FF0000A19E01470F6E7A2
:1014C0001480F4E71460F2E72046E117C2E9000156
:1014D000EDE72046E117C2E90001E8E71460E6E71E
:1014E0001460E4E7DDF808900DF1460B4FF0000AB8
:1014F000BAF1000F00F08E80ABEB0A02B9F1000FD9
:1015000000D001329DF8221011F0100F26D00232C7
:10151000099B134411F0400F01D00A9A1344002F85
:1015200032DDFF1A9DF8203013F0040F2CD113F098
:10153000400F18D0B9F1000F18D029464846B047DF
:1015400000286BDB0134DDF80890302302930FE0B4
:101550000DF1460BCCE70DF1460BC9E711F0080F72
:10156000D6D00132D4E72023029301E03023029346
:101570003B465F1E002B07DD29460298B047002836
:101580004CDB01343B46F4E7B9F1000F05D02946A6
:101590004846B047002841DB01349DF82230C3F3B0
:1015A0000012C3F3C003134305D029463020B047CF
:1015B000002833DB01349DF8223013F0100F06D0E1
:1015C00029469DF82300B047002827DB0134099BFA
:1015D00003F1FF39002B07DD29463020B0470028F2
:1015E0001CDB01344B46F3E75B4652462946304646
:1015F00009F069FB002811DB0444002F07DD2946B0
:101600002020B047002809DB0134013FF5E7C2463E
:10161000FFF728BBC246FFF725BB204613B0BDE845
:10162000F08F00BF05BE000008B54FF02002EFF3B9
:10163000118382F31288BFF36F8F00F07BFF0348A2
:1016400009F002FA00F074FAFCE700BF08BE0000DF
:1016500070B584B0424B1C7D04F01F0301229A40F8
:101660006109404B03EB8103D043BFF35B8F53E829
:10167000001F01EA000543E80056002EF7D1BFF332
:101680005B8F0A425AD004EB4403374A02EB8303D0
:1016900093E8070004AB03E90700344B9BB109F062
:1016A0008EFC4FF02003EFF3118683F31288BFF313
:1016B0006F8F2F4804F09EFA58B12D4804F0BAFA03
:1016C0002C4B1D681AE0002383F31188BFF36F8F42
:1016D000E7E7294D81232A462849294809F0B4F92A
:1016E0002349284809F0B0F98121284609F005FB73
:1016F000E3E72B460DB12B686BB11D465DB1AA68BF
:10170000002AF6D0164B1B7D03EB4303164911F854
:1017100023009047EDE73546154804F07BFA78B191
:1017200085F31188BFF36F8F0F4A04EB4404A100C7
:1017300002EB8404002353506360A36004B070BDC7
:101740000D4EAC23324610490D4809F07DF9084989
:101750000E4809F079F9AC21304609F0CEFADFE7FE
:10176000041000202405002028050020BFAF000041
:10177000180500201C05002078BD0000D0BD000029
:1017800060BC0000E8BD0000A0BD0000B8BD0000C6
:10179000F0B589B005466B4B1C7D04F01F03012298
:1017A0009A406109684B03EB8103BFF35B8F53E8F9
:1017B000001F41EA020043E80006002EF7D1BFF304
:1017C0005B8F0A421ED004EB4403604A12F82330B8
:1017D000002B00F0B580B5F1FF3F23D104F0CEFF20
:1017E0004FF02003EFF3118683F31288BFF36F8F5E
:1017F000574804F0FFF958B3554804F01BFA554B0D
:101800001D683AE004EB4406504B03EB86066F4636
:101810002A462146384609F078FA97E8070086E814
:101820000700D0E704EB440302EB83039B68590CE9
:10183000D803494E494A002380194FF0000646EB71
:101840000101FEF75DFC0121281A06F0BFFAC5E789
:10185000434D81232A464349434809F0F5F83C4962
:10186000424809F0F1F88121284609F046FAC3E719
:101870002B460DB12B686BB11D465DB16A68002A1D
:10188000F6D0304B1B7D03EB4303304911F82300A6
:101890009047EDE735462E4804F0BCF900283FD0CC
:1018A00085F31188BFF36F8F04F01F030121994066
:1018B00063092F4A02EB8303BFF35B8F53E8002FCA
:1018C0000A4343E800200028F8D1BFF35B8F04EB04
:1018D00044031E4A02EB830393E8070008AB03E9C5
:1018E0000700244B0BB109F057FBFFF7B1FE05F0E1
:1018F000ADFC012004F01F02012393406409124A49
:1019000002EB8404DB43BFF35B8F54E8002F1A40E3
:1019100044E800210029F8D1BFF35B8F09B0F0BD86
:101920000F4EAC23324614490F4809F08DF8084990
:10193000124809F089F8AC21304609F0DEF9AFE72A
:101940000020D7E7041000203405002028050020DF
:10195000180500201C0500203F420F0040420F00E8
:1019600078BD0000D0BD000060BC0000E8BD0000F4
:101970002405002099AF0000A0BD0000B8BD000004
:1019800008B5024806F00CFC08BD00BF34BE0000DC
:10199000D0B108B54268042A05D0D2B1006804F07D
:1019A0003DFC002008BD03680022BFF35B8F53E8B5
:1019B000001F012903D143E800200028F7D1BFF31D
:1019C0005B8F04D11046EDE76FF4E04070470248AA
:1019D000E8E70248E6E700BFE98FFFFFEA8FFFFF75
:1019E00020B308B54268042A02D092B911480FE02A
:1019F00003680122BFF35B8F53E8001F002903D166
:101A000043E800200028F7D1BFF35B8F0CD1002002
:101A100008BD00684FF0FF324FF0FF3304F0DEFAEC
:101A20000028F5D00448F3E70348F1E76FF4E040FD
:101A3000704700BFEA8FFFFFE98FFFFF10B5044634
:101A400088B16368042B0DD0082B0BD053B113F071
:101A5000020F0DD02146094804F052F800232360FC
:101A60000023636010BD064B5B6806489847E8E7B3
:101A700014220021206809F06BFAF1E738050020F4
:101A8000E00000203CBE000010B5044678B1636859
:101A9000042B0BD0082B09D00BB9236863B1206845
:101AA00009F072FE636843F00103636010BD0F4BE1
:101AB0005B680F489847EAE74FF0FF324FF0FF337B
:101AC00021460C4803F0A8FF08B923681BB9074B4F
:101AD0005B680948984714220021206809F038FA09
:101AE000636843F002036360D9E700BFE0000020B1
:101AF0003CBE00003805002064BE000008B540234D
:101B000014220449044809F0EDFD0449044806F094
:101B1000FFFB08BD5805002038050020A4BE0000CA
:101B200094BE0000014910220A60704710ED00E0E9
:101B300072B6404080F31188BFF36F8FBFF34F8FB1
:101B400030BF62B6BFF36F8F704700BF72B64940B7
:101B500081F3118820BF80F3118862B6704700BFFF
:101B600043B2002B08DB00F01F005B09012202FAE0
:101B700000F0024A42F82300704700BF00E100E095
:101B800043B2002B0DDB00F01F005B09012202FABB
:101B900000F02033034A42F82300BFF34F8FBFF316
:101BA0006F8F704700E100E04209054B53F8222097
:101BB00000F01F00012303FA00F01040704700BF3F
:101BC00000E100E0F8B505464C1C072C0BD86BB2C1
:101BD000002B1BDB6401E4B203F1604303F56143B6
:101BE00083F80043F8BD0E460C4F59233A460C4982
:101BF0000C4808F029FF07232A4631460A4808F016
:101C000023FF5921384609F078F8E0E705F00F0581
:101C10006401E4B2054B5C55E4E700BFB8BE0000C8
:101C2000F0BE000060BC00000CBF000014ED00E03E
:101C300030BFFFF7FDBF00BF08B50B4B0B4A22F0CA
:101C40007F029A60BFF34F8FBFF36F8FD3F8882066
:101C500022F47002C3F8882003F062FE05F0ACFEA7
:101C600000F074FA03F068FE00ED00E000000000F0
:101C70000A4A9368C3F8A80009490968C3F8AC1078
:101C800008494B6843F080534B60002383F311886D
:101C9000BFF36F8F9368D3F8AC0070470410002037
:101CA00014C8000000ED00E013498A684FF03000CE
:101CB0001044EFF3098C80E8F01F202080F3128895
:101CC000BFF36F8F0D4F4FF00066CA698A603E60A8
:101CD000D2F8A8000023C2F8A83080F3118804B518
:101CE000104600F0D5FABDE8044002F1300090E85B
:101CF000F01F8CF3098870470410002004ED00E009
:101D00001EF0040F0CBFEFF30880EFF30980816928
:101D100011F8021C0229FFD001B509F003F801BD3A
:101D200010B4A2F120040D4921F0010142F8081C71
:101D300042F8203C019B42F81C3C029B42F8183CB4
:101D4000039B42F8143C4FF0807342F8043C046556
:101D50000023C0F8A83010BC704700BFB9AB00002A
:101D6000164B9A68DAB110F1160F1AD010B4D2F8E7
:101D70009830A3F12004844205D8834208D98B42CD
:101D800008D8002100E0002131B9002010BC7047C4
:101D90000021F9E70121F7E7D2F89800F6E70020E3
:101DA0007047D2F898308B4294BF0021012109B9C5
:101DB00000207047D2F89800704700BF0410002040
:101DC00008B50D461446084B986000F061FA2046AD
:101DD00085F30988002163B681F31188BFF36F8F03
:101DE0000022002308F0E8FE0410002001B572B6BE
:101DF0000B4A906900281EBF0021916109F0A8FCE0
:101E000062B6EFF30580A0F110004FEAC00005496B
:101E1000014409C99847BDE801400349084700004B
:101E20000410002078B900002D1E0000044B9968B2
:101E3000D869884203D003494FF080520A60704746
:101E40000410002004ED00E010B51446124B9A6A0D
:101E50009A6A9B6A13F4007F0BD00F4B9A6B9B6AB4
:101E600013F4004F05D021B10B4A936A23F40043C9
:101E70009362094B9A6A9B6A13F4807F01D1064BE7
:101E80009B6A054A936A43F47F439362012108F0F9
:101E90005BFF2070002010BD00ED00E0074B9A6A48
:101EA0009A6A9A6A9A6A9A6A9A6A9A6A6FEA02427D
:101EB0006FEA12429A620020704700BF00ED00E016
:101EC000F8B5054616462B4B9A6A9A6A9B6A13F038
:101ED000020F0CD0274B586B9B6A13F0800F25D054
:101EE00039B1244A936A23F08003936201E06FF0D2
:101EF0001500204B9A6A9A6A9B6A13F0100F04D15E
:101F00001C4B9C6A14F0020404D01A4B5C6814F455
:101F100000640ED1174A936A43F0FF0393620121D4
:101F2000284608F011FF30702046F8BD6FF015000C
:101F3000DFE72946FFF714FF0746B0B90D4B9C6A4F
:101F400014F01004E6D00C4C40F2491322460B4921
:101F50000B4808F079FD0B4808F076FD40F2491176
:101F6000204608F0CAFE3C46D4E780F309880224E4
:101F7000D0E700BF00ED00E04CBF000088BF0000CC
:101F800060BC0000D4BF000038B500230B702C4BA0
:101F9000DC6A14F0020450D1DB6A002B4EDB284BC4
:101FA000DD6A15F0804536D0836933F8022C4DF692
:101FB00002739A4210D003F1604303F626631B7844
:101FC00063B9204B1B787BB91F4B1B889BB28BB12D
:101FD000FFF764FF044631E004682FE00A46012160
:101FE000FFF76EFF044629E00A460121FFF72CFFA8
:101FF000044623E0154D40F2C3232A4614491548F0
:1020000008F022FD144808F01FFD40F2C3212846C5
:1020100008F073FE12E00D4C40F2C72322460C4933
:102020000C4808F011FD0D4808F00EFD40F2C721E4
:10203000204608F062FE2C4600E00024204638BD11
:1020400000ED00E029ED00E02AED00E04CBF0000CB
:102050005CBC000060BC0000F8BF00001CC00000B9
:10206000F0B58BB02B4B5D68C5F30805002383F3F7
:102070001188BFF36F8F02F07F43B3F17F4F0DD113
:1020800002F00C03082B27D012F0080F03D00C46E7
:102090000026ACB904E004460126FAE700263446DF
:1020A0001D4F40F2F2333A461C491D4808F0CCFC63
:1020B0001C4808F0C9FC40F2F231384608F01DFE19
:1020C0000DF127022946204608F043FE05469DF8FB
:1020D000273023B10BB0F0BD00263446E0E72022C4
:1020E000214601A808F010FF4EB1089BC3F3080277
:1020F0005AB96FEA53236FEA4323089305E0089B1C
:1021000023F4FF7323F00103089301A9284608F084
:1021100005FEDFE700ED00E04CBF00004CC0000012
:1021200060BC000060C00000024A536943F0100325
:102130005361704700ED00E0EFF30880EFF3098191
:1021400001B57246FFF78CFF01BD00BF002206E01B
:1021500002F00F01094B0B442021197601322F2A7E
:102160000ADC53B2002BF3DB03F1604303F5614358
:10217000202183F80013F1E7704700BFFCEC00E07A
:10218000002080F31488BFF36F8F09F063FB0020F9
:102190000D490860BFF34F8F0C4880F3088800F0AA
:1021A00029F8202080F3118809484FF40261401873
:1021B00080F30988EFF314800221084380F3148828
:1021C000BFF36F8FFFF738FD94ED00E0402800204B
:1021D000C0290020064B1868C0F307200023834263
:1021E00005DA034A9360002111610133F7E7704774
:1021F00090ED00E010B572B6002484F31388FFF769
:10220000E9FF234608E003F120010E4A4FF0FF30BA
:1022100042F821000133DBB2072BF4D9002308E098
:1022200003F16001074A4FF0FF3042F8210001330B
:10223000DBB2072BF4D962B6BFF34F8FBFF36F8FBA
:1022400010BD00BF00E100E008B5084B9B68834269
:1022500002D005F00FFB08BDEFF30583002BF8D08B
:10226000034A536843F080535360F2E704100020A0
:1022700000ED00E008B5034B034A0121034800F0DC
:102280005DF808BD0000042000000020A0C0000090
:1022900008B5D0F89830203B044803602023436001
:1022A000034B8360012100F06BF808BD580A002041
:1022B00000000B15064A90600B6823F01F030343D0
:1022C00043F01003D3608B6843F001031361704740
:1022D00090ED00E010B5034C0123227808F097FD43
:1022E000207010BD2C1A002008B50023084A12786F
:1022F00008F08DFD10F1160F08D00346072B05DC02
:10230000044A9360002111610133F7E708BD00BF63
:102310002C1A002090ED00E0034B05225A60BFF319
:102320004F8FBFF36F8F704790ED00E0BFF35F8F6B
:10233000014B00225A60704790ED00E038B50C4622
:10234000FFF7C8FF10F1160F00D038BD084D40F25E
:1023500011132A460749084808F076FB214607482A
:1023600008F072FB40F21111284608F0C6FCECE7B9
:10237000ACC000005CBC000060BC0000E4C0000019
:1023800038B50C46FFF7B0FF10F1160F00D038BD7E
:10239000084D4FF498732A460749084808F054FB43
:1023A0002146074808F050FB4FF49871284608F082
:1023B000A4FCECE7ACC000005CBC000060BC00000A
:1023C00010C1000038B5234B1D68082D03D8FFF756
:1023D000ADFF00241EE0204C4FF4A47322461F4999
:1023E0001F4808F031FB082229461E4808F02CFB44
:1023F0004FF4A471204608F080FC4FF0FF3016E047
:10240000144B596804EB4402930019442046FFF72B
:1024100051FF0134A542F3D8134B1D70FFF77CFF29
:10242000124B1B68C3F30723082B01D1002038BDD2
:10243000094C4FF4D47322460D49094808F004FBB7
:102440000C4808F001FB4FF4D471204608F055FC0D
:102450000020ECE7F8C10000ACC000005CBC00004C
:1024600060BC000040C100002C1A002090ED00E08C
:1024700074C10000C4C10000014B1860704700BF68
:10248000280000200239012904D808B5034B1B6835
:10249000984708BD4FF0FF30704700BF280000206C
:1024A0000FB400B583B004AB53F8042B01930221A1
:1024B0000348FEF7CFFB03B05DF804EB04B07047B0
:1024C00091AF0000064B1B68064A1268082B01D02A
:1024D00000207047022A01D0002070470120704779
:1024E000300100103401001010B54FF02003EFF35D
:1024F000118483F31288BFF36F8F01230B4AC2F854
:1025000040354FF08042C2F87835FFF7DBFF10B15D
:10251000074B01221A604FF080430122C3F8802547
:1025200084F31188BFF36F8F002010BD00E00140DD
:1025300038060040C0B24FF08043C3F81C05BFF31B
:102540004F8F0549CA6802F4E062044B1343CB6025
:10255000BFF34F8F00BFFDE700ED00E00400FA0578
:1025600030B108B58001034B43F00103984708BD23
:10257000704700BF70BB000070B582B01D4B1C6877
:102580006CB1A5682B6813B32B6804220DEB020114
:1025900020469847002829DB019802B070BD1648F4
:1025A00003F0B2F8044610B1124B1C60E9E7134D7A
:1025B0001A232A461249134808F046FA0E491248CF
:1025C00008F042FA1A21284608F097FBECE70F4E74
:1025D0004B2332460E490B4808F036FA0D4808F0F6
:1025E00033FA4B21304608F088FBCDE709F013F8A9
:1025F0000190D1E7640A002018C2000024C2000044
:1026000060C2000060BC000078C20000DCC20000B4
:102610000CC300002CC3000000487047C00A002013
:10262000014BC01A40117047780A002030B583B0C2
:1026300005460C46FFF7F4FF01464023009323466E
:10264000054A064808F033FD011E01DB03B030BD2A
:102650002846A047FAE700BFF7B00000D0B8000056
:1026600008B50A4BBFF35B8F53E8002F22F002013D
:1026700043E800100028F7D1BFF35B8F12F0010F81
:1026800000D008BD08F049FDFBE700BFD00A0020DC
:1026900010B54FF02003EFF3118483F31288BFF3DA
:1026A0006F8F134A136843F00203136013F0010F96
:1026B00008D1002384F31188BFF36F8F9BB908F012
:1026C00022FD10BD4FF08043D3F80C24D3F80C3416
:1026D00012F0010F01D10023ECE7FFF79DFF08F096
:1026E000C1FC0123E6E70021024808F0CEFCE8E740
:1026F000D00A0020D0B8000070B50546CCB2012C3D
:1027000007D82146284608F065FC806800F00700DD
:1027100070BD064E792332460549064808F094F903
:102720007921304608F0E9FAEBE700BF54C3000016
:1027300094C3000060BC00002DE9F0410746164636
:10274000CCB2214608F046FC0546012C0FD8314694
:1027500005F1080008F04DFC002806DB214638464C
:1027600008F03FFC436898470020BDE8F081DFF89F
:10277000248040F24D1342460449054808F064F9AC
:1027800040F24D11404608F0B8FAE0E794C300006B
:1027900060BC000054C3000038B505460C46FFF786
:1027A0003FFF014640220348FFF7C6FF0146284687
:1027B000A04738BDD0B8000010B501281DD00328AF
:1027C00020D068B1164C40F26223224615491648C3
:1027D00008F03AF940F26221204608F08EFA10E043
:1027E0000021124808F0F6FB836813F0070F08D1A8
:1027F00000210E4808F049FC03E001210B4808F0D5
:1028000044FC10BD064C40F25E23224605490648B2
:1028100008F01AF940F25E21204608F06EFAF0E75F
:1028200054C300005CBC000060BC0000D0B80000D5
:1028300000B585B0CDF800D0CDF804D000230293C8
:10284000012303936B46074A08F04DFC002805DB83
:102850004FF480420023684603F0F8FD05B05DF8B0
:1028600004FB00BF39B1000070B50646002201210B
:102870001046FFF7A7F90020FFF772F9114801F0A1
:1028800037FD114B98421AD101F05AFD002403E0A4
:102890000123AB601C44E4B2012C0ED82146304623
:1028A00008F098FB05462146304608F09EFB074994
:1028B00008F066F90028EBDA00E0002070BD6FF048
:1028C0000400FBE7B92700000000AD0BF4C30000D3
:1028D00070B50546012807D14FF08043D3F81C346A
:1028E00003F00303012B58D008F01DFF28B92E4B2D
:1028F0001B78002B41D0002300E001231C46002B55
:102900003DD04FF02003EFF3118683F31288BFF31D
:102910006F8F24B94FF080430222C3F808234FF091
:102920008042D2F8183403F00303D2F8182412F4CA
:10293000803F2BD100221AB1012B29D0012D27D0A5
:10294000FCB13046FFF702F94FF08043D3F8183559
:10295000002BE4D1154B1B68002BE0D0134B002259
:102960001A601B6801234FF08042C2F81835104AE4
:10297000C2F880310F4A1360D1E70123BEE7002679
:10298000C7E72120002104F023FFDDE70122D2E781
:1029900024B186F31188BFF36F8F70BD4FF0804371
:1029A0000222C3F80423F8E72D1A00200401004096
:1029B00000E100E00800004038B504461F4B01214B
:1029C000BFF35B8F53E8002F43E800100028F9D1D4
:1029D000BFF35B8F42B134B1631EDBB2012B1ED853
:1029E0002046FFF775FF38BD154808F0FEFA154977
:1029F00000234B60CB6001238B60FEF76DF800284D
:102A0000E9DA114D4FF408732A461049104808F0CE
:102A10001BF84FF40871284608F06FF9DBE70A4C01
:102A200040F2322322460B49094808F00DF840F2E3
:102A30003221204608F061F9D5E700BFD40A002012
:102A4000D0B80000680A002054C30000B8C30000DA
:102A500060BC00005CBC000010B504460A2807D02A
:102A6000074B1868E1B283685B689847204610BD41
:102A7000034B186883685B680D219847F0E700BF37
:102A8000D80A002010B5044C2046FFF7F5FC20467C
:102A9000FDF75EFD10BD00BF592A000008B50648CD
:102AA000064B186008F0FAFD18B1FFF7EBFF0020A5
:102AB00008BD6FF01200FBE760B90000D80A0020E3
:102AC0001F4B03401F4A934232D016D8062B2BD0FF
:102AD00006D9B3F5801F0DD101230B70002070477C
:102AE000FBB1022B03D104230B70002070476FF061
:102AF000150070476FF015007047134A93421BD0C2
:102B0000B3F5A00F03D103230B7000207047B3F57A
:102B1000800F03D102230B70002070476FF0150067
:102B2000704700200870704706230B700020704724
:102B300007230B700020704705230B70002070479F
:102B40000600F000060010000200400028B1012835
:102B500001D103487047002070470248704700BF0A
:102B6000E8B8000000B900002DE9F04115460669FB
:102B7000371D0C4639B16368ABB17368002B3BD08D
:102B8000214600222AE0DFF8A88024234246234978
:102B9000234807F059FF234807F056FF24214046F9
:102BA00008F0ABF8E7E7DFF88880252342461E49A6
:102BB0001B4807F049FF1D4807F046FF2521404606
:102BC00008F09BF8D9E7236873607A6894420FD1C4
:102BD0007B600DE07A600BE01A461B685BB199429E
:102BE000FAD1002AEFD0236813607B689C42F1D0B1
:102BF0000023236000E055B165B173682360746001
:102C00007B680BB1002006E07C60002003E06FF0E1
:102C1000150000E00020BDE8F08100BF30C40000D6
:102C200060BC00003CC400004CC4000060C4000054
:102C300000C400002DE9F04100F01F044009FFF737
:102C400085FF80B3074603690126A6405C681CB176
:102C500025467CB125680DE025460BE06368A26837
:102C60003240214638469847DDB12B4605B12B68E6
:102C70002C461D46BCB1A3681E42F5D06368002BEC
:102C8000ECD1DFF83480452342460849084807F074
:102C9000DBFE084807F0D8FE4521404608F02DF835
:102CA000DCE72B46E4E7BDE8F08100BF78C4000014
:102CB00060BC000060C4000000C40000F0B585B036
:102CC0000E46194643681B7B06F01F0444EA431472
:102CD000B2F5005F22D00746154600230293039306
:102CE000104608F061FA8DF808007B689968F14099
:102CF00011F0010102D1B5F5A03F14D0002302AAC2
:102D00001946204602F02CF8324B98425FD101213F
:102D1000204602F087FA002005B0F0BD204602F000
:102D20008DFB0020F8E763091FD0012B01D14FF67E
:102D3000FF7104F01F03D94011F0010F18D004F007
:102D40001F05630922D0012B23D0234E40F22E23EE
:102D500032462249224807F077FE40F22E213046C3
:102D600007F0CBFF4FF0A04314E04FF0FF31E0E756
:102D7000194D40F229232A461A49194807F064FEE2
:102D800040F22921284607F0B8FFD8E74FF0A043CA
:102D900000E0154B05F5E07553F8253013F0010FF1
:102DA000ACD10DF10701204602F0CCF90F4B98424F
:102DB00003D00DF107030393A0E70DF1070002F024
:102DC00029FA044B9842F4D06FF00B00A4E76FF09F
:102DD0000400A1E70000AD0B84C400005CBC00004F
:102DE00060BC0000B8C40000000300500400AD0B3C
:102DF00030B583B004460DF1070102F0A3F9054692
:102E0000204602F083FB0B4B98420FD19D4205D028
:102E1000084B984207D1002003B030BD9DF8070051
:102E200002F0F0F9F4E76FF00400F5E76FF004004A
:102E3000F2E700BF0000AD0B2DE9F04387B0D0F8FA
:102E4000048098F80C3001F01F0545EA4315002A6C
:102E500044D00C4617460026039604960DF1170140
:102E6000204602F06FF98146334603AA31462846D0
:102E700001F076FF304B98425BD1994536D017F47C
:102E8000007F43D00DF103013846FFF719FE0646D7
:102E900040BB9DF803308DF8043017F4807F0CBFE1
:102EA000012300238DF80530384608F04AF98DF8E3
:102EB000060017F4006F1ED0D8F80430012101FA83
:102EC00004F4C3F80845002201A9284602F03AF8A4
:102ED000194B984206D06FF0150603E02846FFF71D
:102EE00087FF0646304607B0BDE8F0839DF817001F
:102EF00002F088F9C3E717F4806FE4D0D8F8042013
:102F0000012303FA04F4C2F80C45DCE7384608F064
:102F100018F98DF8080000231A4602A9284601F086
:102F20001FFF054B984201D10026DBE76FF0150625
:102F3000D8E76FF01506D5E70000AD0B08B502F035
:102F400057F908B1002008BD02F028F9084B984253
:102F50000AD10021074802F0EFF8002205210620DF
:102F6000FEF730FE0020EEE76FF00400EBE700BF55
:102F70000000AD0B352C000043681A68B1F5164F00
:102F80006FD03AD8B1F5165F6ED00AD9B1F5E14FDE
:102F900075D024D947F6122399422BD14FF4000360
:102FA00013E0B1F5966F61D007D9B1F5166F63D014
:102FB000B1F5965F10D13C4B07E0B1F5967F58D044
:102FC000B1F5167F05D14FF41C33C2F8243500202B
:102FD00070476FF0150070476FF015007047B1F53E
:102FE000615F4ED0B1F5964F01D1304BEDE76FF0F8
:102FF000150070476FF015007047B1F5613F42D082
:1030000009D9B1F5612F46D01FD9294B994248D132
:103010004FF08053D9E7B1F5963F37D005D9B1F5D8
:10302000E13F0FD14FF0EB73CFE74DF6C02399424C
:103030002ED0B1F5614F02D14FF46B03C5E76FF0AD
:10304000150070476FF0150070471A4B994225D054
:10305000B1F5E12F02D14FF0E863B6E76FF015004C
:1030600070474FF41D03B0E7134BAEE74FF49E23B8
:10307000ABE74FF4A033A8E74FF41D23A5E70F4BB0
:10308000A3E70F4BA1E74FF06C739EE70D4B9CE756
:103090004FF4650399E74FF0706396E74FF0806354
:1030A00093E76FF01500704700B0130000A04E00CA
:1030B00040420F0090D003000050270000C0750070
:1030C00000F03A0000903A012DE9F04105460F4624
:1030D000D0F8108008F027FB20B9164B1B78ABB155
:1030E000002300E001239BB14FF02003EFF3118494
:1030F00083F31288BFF36F8F2646284608F010F935
:1031000050B984F31188BFF36F8FEDE70123EAE72D
:10311000284608F054F90646414601F8107F01227E
:10312000284608F017F986F31188BFF36F8FBDE8C2
:10313000F08100BF2D1A002038B504460D4601F17C
:10314000120002F06FFA0C4B984211D1AB7C04F5DF
:1031500090710C34094AA23342F8331002EBC303D6
:103160005C60A97C01238B40C2F80435002038BD87
:103170006FF00400FBE700BF0000AD0B00F0014062
:10318000F8B54468002940F0BA81E568B5F1FF3F21
:1031900030D12569B5F1FF3F00F0C780237F002BB8
:1031A00000F0A58003266B0900F0A380012B40F0FE
:1031B000A3804FF6FF7305F01F02D34013F0010FF9
:1031C00000F09C8005F01F076D0900F0A580012D1F
:1031D00000F0A580BA4D40F22E232A46B949BA48DC
:1031E00007F032FC40F22E21284607F086FD4FF012
:1031F000A04395E06B091FD0012B20D14FF6FF7340
:1032000005F01F02D34013F0010F1AD005F01F067E
:103210006D0924D0012D25D0A94D40F22E232A4638
:10322000A849A94807F010FC40F22E21284607F0D3
:1032300064FD4FF0A04216E04FF0FF33E0E70023BB
:10324000DEE79F4E40F229233246A0499E4807F010
:10325000FBFB40F22921304607F04FFDD6E74FF047
:10326000A04200E09A4A0123B340C2F80835E5685D
:103270006B091FD0012B20D14FF6FF7305F01F0201
:10328000D34013F0010F1AD005F01F066D0924D0AA
:10329000012D25D08A4D40F22E232A4689498A489D
:1032A00007F0D2FB40F22E21284607F026FD4FF012
:1032B000A04316E04FF0FF33E0E70023DEE7804E47
:1032C00040F22923324681497F4807F0BDFB40F296
:1032D0002921304607F011FDD6E74FF0A04300E06A
:1032E0007B4B06F5E076032243F8262051E70026C3
:1032F00059E74FF0FF335EE700235CE7704F40F281
:1033000029233A467149704807F09EFB40F2292173
:10331000384607F0F2FC55E74FF0A04300E06C4B55
:10332000B60007F5E07743F827606569B5F1FF3F20
:1033300030D1A569B5F1FF3F00F0D280637F002B4B
:1033400000F0A58003276B0900F0A380012B40F05B
:10335000A3804FF6FF7305F01F02D34013F0010F57
:1033600000F09C8005F01F066D0900F0A580012D7E
:1033700000F0B080524D40F22E232A465149524867
:1033800007F062FB40F22E21284607F0B6FC4FF012
:10339000A042A0E06B091FD0012B20D14FF6FF7394
:1033A00005F01F02D34013F0010F1AD005F01F06DD
:1033B0006D0924D0012D25D0414D40F22E232A46FF
:1033C0004049414807F040FB40F22E21284607F0D3
:1033D00094FC4FF0A04216E04FF0FF33E0E70023EB
:1033E000DEE7374E40F2292332463849364807F0A7
:1033F0002BFB40F22921304607F07FFCD6E74FF047
:10340000A04200E0324A0123B340C2F808356569A2
:103410006B091FD0012B20D14FF6FF7305F01F025F
:10342000D34013F0010F1AD005F01F066D0924D008
:10343000012D25D0224D40F22E232A462149224833
:1034400007F002FB40F22E21284607F056FC4FF011
:10345000A04316E04FF0FF33E0E70023DEE7184E0D
:1034600040F2292332461949174807F0EDFA40F295
:103470002921304607F041FCD6E74FF0A04300E099
:10348000134B06F5E076032243F8262051E7002788
:1034900059E74FF0FF335EE700235CE7084E40F248
:1034A000292332460949084807F0CEFA40F229217B
:1034B000304607F022FC55E74FF0A0420BE000BF7A
:1034C00084C400005CBC000060BC0000B8C4000004
:1034D00000030050934ABF0006F5E07642F82670DC
:1034E0002368E1682269C3F80C15C3F81425236822
:1034F0006169A269C3F80815C3F81025F8BDE5682D
:10350000B5F1FF3F33D12569B5F1FF3F6ED1656954
:10351000B5F1FF3F40F0A980A569B5F1FF3FDFD0CD
:103520006B0900F0E180012B40F0E1804FF6FF7362
:1035300005F01F02D34013F0010F00F0DA8005F010
:103540001F066D0900F0E380012D00F0E380764D49
:1035500040F22E232A467549754807F075FA40F265
:103560002E21284607F0C9FB4FF0A043D3E06B099A
:103570001FD0012B20D14FF6FF7305F01F02D3405F
:1035800013F0010F1AD005F01F066D0924D0012D8C
:1035900025D0654D40F22E232A466449644807F041
:1035A00053FA40F22E21284607F0A7FB4FF0A04324
:1035B00016E04FF0FF33E0E70023DEE75A4E40F21B
:1035C000292332465B495A4807F03EFA40F2292146
:1035D000304607F092FBD6E74FF0A04300E0514B96
:1035E00006F5E076022243F826208CE76B091FD00F
:1035F000012B20D14FF6FF7305F01F02D34013F0CB
:10360000010F1AD005F01F066D0924D0012D25D019
:10361000454D40F22E232A464449454807F014FA06
:1036200040F22E21284607F068FB4FF0A04316E039
:103630004FF0FF33E0E70023DEE73B4E40F2292363
:1036400032463C493A4807F0FFF940F2292130461A
:1036500007F053FBD6E74FF0A04300E0314B06F5EF
:10366000E076022243F8262051E76B091FD0012B98
:1036700020D14FF6FF7305F01F02D34013F0010F66
:103680001AD005F01F066D0924D0012D25D0264D36
:1036900040F22E232A462549254807F0D5F940F265
:1036A0002E21284607F029FB4FF0A04316E04FF0EB
:1036B000FF33E0E70023DEE71B4E40F229233246CA
:1036C0001C491B4807F0C0F940F22921304607F099
:1036D00014FBD6E74FF0A04300E0124B06F5E0766E
:1036E000022243F8262017E74FF0FF3320E700239C
:1036F0001EE70D4E40F2292332460E490C4807F0D2
:10370000A3F940F22921304607F0F7FA17E74FF006
:10371000A04300E0034B06F5E076022243F82620A2
:10372000DEE600BF0003005084C400005CBC000063
:1037300060BC0000B8C400004FF02003EFF311821A
:1037400083F31288BFF36F8F094B1B686BB1094B72
:10375000D3F80805C0B203F58073002119601B6817
:1037600082F31188BFF36F8F70476FF00A00F7E79D
:1037700000D1004000D000402DE9F041064690F80D
:1037800002C0C5782F464FF02003EFF3118883F372
:103790001288BFF36F8F0078044696F801E0ACEB17
:1037A000000C0CEA050C624501D91FFA8CF2831853
:1037B0002B40337088F31188BFF36F8F0B4606E000
:1037C0003219527903F8012B01343C402A46551E28
:1037D000ADB2002AF4D170450DD14FF02000EFF3C7
:1037E000118280F31288BFF36F8F3078707082F38C
:1037F0001188BFF36F8F5B1A98B2ACEB000C337972
:10380000634502D3024B01221A60BDE8F08100BF7C
:1038100000D00040F8B50E4614461D4602692D4BF7
:103820009A420CD02C4F4FF484733A462B492C48C3
:1038300007F00AF94FF48471384607F05EFA15F084
:10384000010F05D1224631462648FFF795FFF8BD06
:103850000CB92046FBE74FF02003EFF3118583F30B
:103860001288BFF36F8F0D20FEF79EF907460D20DB
:10387000FEF786F985F31188BFF36F8F1A4B00228C
:103880001A601B68194B01221A60194B4FF4005241
:10389000C3F88021254604E0BFF34F8F20BF40BF0F
:1038A00020BF114B1B68002BF6D0FFF745FF104BD4
:1038B0004FF40052C3F88021002802DB013DADB275
:1038C0007055002DEDD1002FC3D00D20FEF748F923
:1038D000BFE700BFF40A002094C50000C8C500007F
:1038E00060BC0000140B002000D1004000D000405C
:1038F00000E100E010B5FFF71FFF002806DBC4B2AF
:1039000021460A4807F0EAFD002800DB10BD2146E9
:10391000074807F0E3FD002803DB064802F052FDEC
:10392000F4E7054B01221A60F7E700BF140B0020F3
:10393000290B0020040B002004D00040F8B50F46EE
:1039400014460269184B9A420ED0184DEA232A46B3
:103950001749184807F078F8EA21284607F0CDF90A
:1039600002E0641BA4B22F44E4B10F4E4FF0FF32CB
:103970004FF0FF33304602F069FD2246394606F12A
:103980003500FFF7F9FE0546304602F01BFD002D1D
:10399000E7D14FF0FF324FF0FF3306F1100002F095
:1039A00055FDE1E70020F8BDF40A002094C50000B1
:1039B000C8C5000060BC000010B502691F4B9A42E8
:1039C0000CD01F4C40F2571322461E491E4807F0E8
:1039D0003BF840F25711204607F08FF9174C0122AF
:1039E0001146204607F0D7FE0122002104F1100005
:1039F00007F0D1FE0422082104F1350007F082FD12
:103A00000C22102104F1200007F07CFD0F4BD3F8AD
:103A1000042522F00102C3F804250D4A0024146095
:103A200012680121C3F80413196022460D20FEF725
:103A3000C9F80D20FEF794F8204610BDF40A0020C6
:103A400094C50000C8C5000060BC000000D0004064
:103A500000D10040F0B583B00F46164630B18FB1AB
:103A60004FF4806500246FF0150022E0174C2423EA
:103A700022461749174806F0E7FF2421204607F0A1
:103A80003CF9ECE7114C252322461349114806F076
:103A9000DBFF2521204607F030F9E1E701AB2A469C
:103AA0003919002004F0B8FB019BAB4209D150B991
:103AB0002C44A64207D9331BB3F5806FEED21D46C6
:103AC000ECE76FF0150003B0F0BD00BF18C60000B2
:103AD00048C6000060BC00005CC6000021F07F41C9
:103AE00000F5A870014B43F820107047001001400A
:103AF00000F5A870014B53F82000704700100140FA
:103B00004FF480338340024AC2F84433704700BF09
:103B1000001001404FF480338340024AC2F848331A
:103B2000704700BF00100140014BD3F804057047F7
:103B30000010014010B501238340DC43104ABFF35D
:103B40005B8F52E8001F01EA040C42E800CEBEF190
:103B5000000FF6D1BFF35B8F4FF4803202FA00F012
:103B600002F1804202F58052C2F80803BFF35F8F72
:103B7000BFF36F8F0B4214BF0120002010BD00BFA8
:103B80003C0B002070B5044607F0E3FC05464FF4FB
:103B90008033A340174AD2F80423134205D10026EC
:103BA000284607F0DFFC304670BD0123A340DB430D
:103BB000114ABFF35B8F52E8001F01EA030042E89D
:103BC0000006002EF7D1BFF35B8F59B904F1500303
:103BD0009B009BB203F1804303F588331B6813B14C
:103BE000012300E001231E46002BD9D0204607F018
:103BF000A1FCD5E700100140380B002001B9704747
:103C000001238340114ABFF35B8F52E8001F194321
:103C100042E8001CBCF1000FF7D1BFF35B8F4FF4FB
:103C2000803383400A4AC2F80433BFF35B8F094BE9
:103C30001B68BFF35B8F23FA00F010F0010FDED09A
:103C4000054B4FF40032C3F80021D8E73C0B0020AD
:103C500000100140380B002000E100E0F8B50746F5
:103C600014461E461046194607F070FC0546154BD3
:103C70001A68A01A1C605E60A5F50013B3F5400F2A
:103C800008D3002404F008F93846FFF731FFA842B2
:103C90000CD0F8BD0C4B19680B0A0A06521943F1F7
:103CA00000030A49C1E900230124EBE71CB13846AF
:103CB000FFF726FFEDE74FF400013846FFF70EFF50
:103CC000F5E700BFA8030020400B00209003002070
:103CD00038B50D4B1B681D0A1C06BFF35F8FFFF73D
:103CE00023FF0346201845F10001B3F5801F0AD2D7
:103CF000064BD3E90023994208BF904203D210F14A
:103D0000807041F1000138BD400B0020900300207D
:103D10002DE9F843064614461D461046194607F09D
:103D200015FC0746FFF7D4FFA94208BFA0421ED2E8
:103D3000B4EB000865EB01094FF0807200234B459E
:103D400008BF42452ED3194B03EB0613D3E90223D8
:103D5000AB4208BFA24218D03946304607F007FCF4
:103D6000394607F0E3FB241845F100050DE0012377
:103D7000B3400F4ABFF35B8F52E8001F194342E87C
:103D800000100028F8D1BFF35B8F084B320103EB22
:103D90000616C6E9024508999950099B73600020F0
:103DA000BDE8F8836FF01500FAE700BF9803002024
:103DB000380B002030B583B000231E4AC2F8083506
:103DC000002B25DD1B4C0225C4F804531A4B4FF47D
:103DD0000032C3F88021002201211120FDF7F2FEFC
:103DE0001120FDF7BDFE0123144A13602360144A1D
:103DF000136000240194134B0093134A00232046C0
:103E000007F0F0FB2846FEF7D7FD204603B030BD93
:103E10000E4A02EB03124FF0FF304FF0FF31C2E9C0
:103E200002014FF480329A400249C1F80423013361
:103E3000C6E700BF0010014000E100E008100140AB
:103E40003C0B00205D3C0000FFFF7F00980300203A
:103E50002DE9F04782B00446FFF794FE10B902B096
:103E6000BDE8F087FFF734FF06460F4607F071FB09
:103E70008246134B03EB0413D3E902894F4508BF75
:103E800046450BD20026504607F06CFB002EE6D0CC
:103E9000009542464B462046B047E0E7084A2301DA
:103EA00002EB0411D6584D680020D0504FF0FF327D
:103EB0004FF0FF33C1E902232046FFF72BFEE2E774
:103EC0009803002010B50D4BD3F8043313F0020F04
:103ED0000AD00B4B1B683BB1094B00221A601B68D0
:103EE000084A1368013313600024002C00DD10BD64
:103EF0002046FFF7ADFF0134F7E700BF0010014097
:103F000004110140400B002010B582B0B0F1FF3F1A
:103F100007D0441E002C07DD114B9C4205DD114CDF
:103F200003E000F50000F4E70024FFF7D1FE0E4B9C
:103F3000D3E90023801AB0F5000F00D30024044415
:103F40000134B4F5000F00D3064C0020019007495E
:103F50000091121943F1000307F044FB02B010BDB9
:103F6000FEFF7F00FFFF7F00A80300205D3C0000F4
:103F700008B5FFF7ADFE024B1B68C01A08BD00BFB5
:103F8000A8030020034B1B68082B01D000207047BA
:103F90000120704730010010034B1B68082B01D033
:103FA000002070470120704730010010084B1A684C
:103FB00004331B68082A01D000207047002B04D866
:103FC000DFE803F00100012070470020704700BFC8
:103FD00030010010084B1A6804331B68082A01D00E
:103FE00000207047002B04D8DFE803F00100012017
:103FF00070470020704700BF30010010084B1A685E
:1040000004331B68082A01D000207047002B04D815
:10401000DFE803F00100012070470020704700BF77
:1040200030010010084B1A6804331B68082A01D0BD
:1040300000207047002B04D8DFE803F001000120C6
:1040400070470020704700BF30010010034B1B6811
:10405000082B01D00020704701207047300100106C
:10406000064B1B68064A1268082B01D000207047D7
:10407000042A01D800207047012070473001001049
:1040800034010010024BD3F80034002BFAD07047F3
:1040900000E0014008B5034BC3F80405FFF7F2FF49
:1040A00008BD00BF00E00140014B024A1A607047A2
:1040B000540000200090D00338B5FFF763FF40B1F3
:1040C0004FF080430022C3F80C21C3F81021C3F83D
:1040D0003825FFF761FF002846D04FF08052D2F814
:1040E0000414564BC3F82015D2F80814C3F824154D
:1040F000D2F80C14C3F82815D2F81014C3F82C15F4
:10410000D2F81414C3F83015D2F81814C3F83415C3
:10411000D2F81C14C3F84015D2F82014C3F8441583
:10412000D2F82414C3F84815D2F82814C3F84C1553
:10413000D2F82C14C3F85015D2F83014C3F8541523
:10414000D2F83414C3F86015D2F83814C3F86415E3
:10415000D2F83C14C3F86815D2F84014C3F86C15B3
:10416000D2F84424C3F87025FFF720FF10B1344B78
:10417000344A1A60FFF72EFF18B1334BFB22C3F805
:104180001825FFF73BFF48B130490B6823F00F03B8
:104190002F4A126802F00F0213430B60FFF742FF31
:1041A00018B12C4B4FF400721A60FFF74FFF60B14B
:1041B0004FF08043D3F8003413F0010F05D04FF0D7
:1041C00080436FF00102C3F80024FFF749FF38B1C4
:1041D0004FF01023D3F808224FF08043C3F858253E
:1041E0004FF01023D3F80032002B08DB4FF01023E0
:1041F000D3F80432002B02DBFFF756FF38BD012055
:10420000FFF748FF4FF010241225C4F80052FFF7C3
:1042100039FFC4F80452FFF735FF0020FFF73AFFDB
:10422000BFF34F8F0C49CA6802F4E0620B4B134393
:10423000CB60BFF34F8F00BFFDE700BF00C0004061
:104240008C5600404881030000F00040E40E00401E
:10425000580200104096024000ED00E00400FA050C
:1042600030B40468B4FA84F3D3F11F0315D40122E7
:104270009A4024EA0202BFF35B8F50E8005FA54238
:1042800004D140E8002CBCF1000FF6D1BFF35B8FE6
:10429000E7D10B70024830BC70470248FBE700BF13
:1042A0000000AD0B0200AD0B10B403680C4623FAFE
:1042B00001F111F0010F14D102680123A34013434F
:1042C000BFF35B8F50E8001F914204D140E8003CEF
:1042D000BCF1000FF6D1BFF35B8FEDD1024810BCEB
:1042E00070470248FBE700BF0000AD0B0400AD0BB8
:1042F00038B5044650B10C4B1B799BB90A4B1C6076
:1043000001221A7100225A71084838BD084DBD2398
:104310002A460849084806F097FBBD21284606F0C2
:10432000ECFCE8E70548F0E7440B00200000AD0B8B
:104330007CC60000BCC6000060BC00000C00AD0BD9
:1043400010B50B4B1B7923B10020FDF72DFC60B19C
:1043500010BD084CD62322460749084806F074FBD6
:10436000D621204606F0C9FCEEE7FDF7F9FBEFE7A2
:10437000440B00207CC60000CCC6000060BC0000DE
:1043800038B504462A4B1B7983B1ECB1012C44D0DB
:10439000284C4FF4A27322462749284806F054FBC4
:1043A0004FF4A271204606F0A8FC2DE0214D4FF4F9
:1043B00089732A462249214806F046FB4FF4897149
:1043C000284606F09AFCE0E74FF08042D2F8183415
:1043D00003F00303D2F8182412F4803F15D1002211
:1043E0000AB1012B13D04FF080430022C3F81825E7
:1043F000144B00221A601B684FF080430222C3F85E
:104400000423083301221A6038BD0122E8E74FF087
:1044100080430122C3F81825EAE70B4B00221A60FB
:104420001B684FF080430122C3F804231A60EBE7B6
:10443000440B00207CC600005CBC000060BC000097
:10444000CCC60000040100400001004070B582B0FD
:1044500004465E4B1B7983B1ECB1012C2DD05C4C32
:1044600040F2671322465B495B4806F0EDFA40F2E2
:104470006711204606F041FCA1E0554D40F24B1378
:104480002A465649544806F0DFFA40F24B112846B6
:1044900006F033FCE0E74FF080430222C3F8082324
:1044A00003F5827300221A601B684D4B01221A60CB
:1044B000012C0FD042F210755FE001234FF08042D3
:1044C000C2F8083302F58072002111601268454A73
:1044D0001360EDE701238DF8073042F2107518E004
:1044E0004FF08042D2F8183403F00303CDF80730C0
:1044F000D2F8183413F4803F2DD10023002B5CD068
:104500009DF80730012B58D1012007F09DF8013D9F
:1045100053D0002CE4D0012C0ED0334E4FF44F7307
:1045200032462C492C4806F08FFA4FF44F71304632
:1045300006F0E3FB0023E1E74FF08042D2F80C34B1
:1045400003F001038DF80730D2F80C3413F4803FE8
:1045500003D10023D2E70123D0E70123CEE74FF0B8
:104560008043D3F8183413F4803F22D1002323B3BF
:10457000012007F069F8013D1FD0002CEFD0012C7D
:104580000ED0194E4FF44F7332461249124806F0BE
:104590005BFA4FF44F71304606F0AFFB0023E6E7BD
:1045A0004FF08043D3F80C3413F4803F03D1002341
:1045B000DDE70123DBE70123D9E7012C01D002B0BD
:1045C00070BD024B00225A71F9E700BF440B002076
:1045D0007CC600005CBC000060BC0000CCC60000D3
:1045E0000C00004004000040ECC6000008B51B4B66
:1045F0001B6883B1194B00221A601B684FF080437F
:104600000122C3F80823164B5B7923B9144B5A7166
:104610001B6800209847134B1B6803B908BD114B5A
:1046200000221A601B684FF08043D3F81824D3F897
:10463000183412F0030F07D101234FF08042C2F863
:10464000183508321360E9E74FF080430222C3F8BF
:104650000823034B1B6801209847DFE70001004057
:10466000440B0020040100400830034B33F81000D5
:1046700000F00100704700BF580000200830034BD5
:1046800033F81000C0F34010704700BF58000020FE
:104690000830044B33F8100010F01C0018BF012044
:1046A000704700BF580000200830034B33F810005B
:1046B000C0F34000704700BF580000200830024B94
:1046C00033F81000400B704758000020002204E02F
:1046D0004FF0FF3383420FD001322F2A0AD802F164
:1046E0000803064931F8133013F4807FF0D0C3F388
:1046F0004323EFE700207047012070475800002057
:10470000002313B14FF0FF307047074A52F83320AF
:10471000824201D00133F4E7034A02EBC30252683C
:104720008A42F7D118467047580000200830064BDF
:1047300033F8100010F4807F04D0C0F3432003EB63
:10474000C0007047002070475800002070B5044634
:104750000D46FFF7EBFF20B1066842682946204668
:10476000B047044B9B6823B1024AD26829462046D1
:10477000984770BD5800002010B483B00446124B17
:1047800093E8030002AB03E90300204600230BE09B
:1047900002AA02EB830252F8082CD2F8201540F846
:1047A000041BC2F820150133012BF1D90023012B82
:1047B00004D854F823202AB90133F8E7002003B0C5
:1047C00010BC70470120FAE760BB000000F108024E
:1047D000164B33F8123013F4807F26D010B5C3F394
:1047E0004324104623F4F853104A22F81030204690
:1047F000FFF76CFF00B110BD0C48002340F83430C7
:1048000021467430FFF750FD094B9842F3D0094C14
:104810004FF4997322460849084806F015F94FF4F9
:104820009971204606F069FAE5E7704758000020C4
:104830000000AD0B20C7000060C7000060BC000096
:1048400010B50446FFF71AFF40B12046FFF736FFC8
:1048500000F5A270064B002243F820202046FFF707
:10486000B5FF0834034B002223F8142010BD00BF0D
:10487000006000405800002070B582B006460C462B
:104880001546FFF7A3FF24B329462046FFF738FF5C
:10489000031E13DB104A42F8334002EBC3014D60A4
:1048A0005B029BB206F1080032F810100B4343F490
:1048B000807322F81030094802B070BD0DF1070175
:1048C0000748FFF7CDFC054B9842F5D19DF807301E
:1048D000E0E70248F0E700BF580000200000AD0B01
:1048E000CC00002038B50446CCB194FAA4F3B3FA56
:1048F00083F301229A4024EA0204094A03F5A273D1
:1049000052F82350C5F3052552F82300C0F30140A7
:1049100006F0B4FE01462846FFF718FFE4E738BD6D
:10492000006000402DE9F84304460D46164608464F
:1049300006F0A6FE60BB022E00F0F5804FF00208E4
:10494000630900F0F380012B40F0F3804FF6FF7312
:1049500004F01F02D34013F0010F00F0EC8004F0CC
:104960001F07630900F0F580012B00F0F580DFF8E8
:104970002C9240F22E234A468649874806F064F876
:1049800040F22E21484606F0B8F94FF0A041E4E08D
:1049900029462046FFF7DAFE63091FD0012B20D1FC
:1049A0004FF6FF7304F01F02D34013F0010F1AD02B
:1049B00004F01F05630924D0012B25D0774F40F266
:1049C0002E233A467349744806F03EF840F22E21F1
:1049D000384606F092F94FF0A04316E04FF0FF334F
:1049E000E0E70023DEE76D4D40F229232A466C49BB
:1049F000694806F029F840F22921284606F07DF999
:104A0000D6E74FF0A04300E0664B05F5E07553F89C
:104A10002530C3F301439E4240F0AF8063091FD0AD
:104A2000012B20D14FF6FF7304F01F02D34013F087
:104A3000010F1AD004F01F05630924D0012B25D0E3
:104A4000564F40F22E233A465249534805F0FCFF98
:104A500040F22E21384606F050F94FF0A04116E002
:104A60004FF0FF33E0E70023DEE74C4D40F229230F
:104A70002A464B49484805F0E7FF40F229212846DD
:104A800006F03BF9D6E74FF0A04100E0454905F5B7
:104A9000E07351F8232022F4403241F823206309C7
:104AA0001FD0012B20D14FF6FF7304F01F02D3401B
:104AB00013F0010F1AD004F01F05640924D0012C53
:104AC00025D0364C40F22E2322463249324805F09A
:104AD000BBFF40F22E21204606F00FF94FF0A04117
:104AE00016E04FF0FF33E0E70023DEE72B4D40F206
:104AF00029232A462A49284805F0A6FF40F2292101
:104B0000284606F0FAF8D6E74FF0A04100E0254924
:104B100005F5E07351F8232022F4403242EA0646BC
:104B200041F8236029E04FF0030809E74FF0FF3315
:104B30000EE700230CE7194F40F229233A461849A3
:104B4000154805F081FF40F22921384606F0D5F8D6
:104B500005E74FF0A04100E0124907F5E07251F877
:104B6000223023F4403343EA084341F82230032D36
:104B700007D0022E03D0032E08D0BDE8F883012D04
:104B8000F9D129462046FFF7E1FDF6E7022DF4D1E1
:104B9000F7E700BF5CBC000060BC000084C40000FC
:104BA000B8C40000000300502DE9F04184B0644A0D
:104BB0006B4692E8030083E80300002302A80BE0A1
:104BC00004AA02EB830252F8102CD2F8201540F808
:104BD000041BC2F820150133012BF1D9ABE04FF0D3
:104BE000FF337FE000237DE0564F40F229233A4611
:104BF0005549564805F028FF40F22921384606F06D
:104C00007CF876E04FF0A04300E0514B07F5E077E9
:104C100053F82720C2F3014231462046FFF782FEB7
:104C200063091FD0012B20D14FF6FF7304F01F0240
:104C3000D34013F0010F1AD004F01F06640924D0EA
:104C4000012C25D03F4C40F22E23224641493F48BB
:104C500005F0FAFE40F22E21204606F04EF84FF005
:104C6000A04216E04FF0FF33E0E70023DEE7354EC9
:104C700040F2292332463449344805F0E5FE40F23B
:104C80002921304606F039F8D6E74FF0A04200E07F
:104C90002F4A0123B340C2F8203504AB03EB850350
:104CA00053F8084C002C3BD094FAA4F4B4FA84F4E2
:104CB00004EB451404F10802274B33F81260C6F3E5
:104CC0008206E10804F0070202A8012303FA02F2B7
:104CD000435C23EA02034354630980D0012B81D152
:104CE0004FF6FF7304F01F02D34013F0010F3FF49F
:104CF0007BAF04F01F07630984D0012B85D0DFF858
:104D0000448040F22E2342461249104805F09CFE92
:104D100040F22E21404605F0F0FF4FF0A04375E72A
:104D20000135012DB9D90D4B00221A601B6802A86C
:104D3000FFF722FD08B10025F3E704B0BDE8F081DC
:104D400060BB000084C40000B8C4000060BC000068
:104D5000000300505CBC0000580000207C61004053
:104D60002DE9F843044615461E46002962D08846C0
:104D700006F06EFC002840F0CB80630920D0012BA8
:104D800021D14FF6FF7304F01F02D34013F0010F3F
:104D90001BD004F01F07630925D0012B26D0DFF8B4
:104DA000889140F22E234A465D495E4805F04CFE4C
:104DB00040F22E21484605F0A0FF4FF0A04116E03A
:104DC0004FF0FF33DFE70023DDE7574F40F22923A1
:104DD0003A465649534805F037FE40F229213846F5
:104DE00005F08BFFD5E74FF0A04100E0504907F5F3
:104DF000E07351F82330B8F1000F3CD00C2242F0A0
:104E0000030223EA0203B8F1000F36D098F800201D
:104E10009200134307F5E07741F82730454A04F143
:104E2000080132F8113023F002039BB243F0010372
:104E300022F81130B5B195F80080D5F804902046DD
:104E4000FFF732FCD8B1B9F1000F63D1394B04F14F
:104E5000080233F8120020F01C0080B240EA8800FB
:104E600023F81200002E59D0726831682046FFF7EF
:104E700003FDBDE8F8830022C1E70022C9E72D4BFE
:104E800004F1080233F8127027F02007FF04FF0C2A
:104E900023F81270B9F1000FD8D0B8F1030F3BD846
:104EA0006B681D78B8F1000F06D105F5A275224B8D
:104EB000002243F82520C9E7404606F0E0FB1E4BE0
:104EC00005F5A27253F8221021F0030143F82210D5
:104ED00053F8221021F44F3121F4407143F822108D
:104EE00053F822C0210201F47C51000400F4403048
:104EF00001434CEA010143F822106D03ADB204F105
:104F000008032F4347F020070A4A22F813709DE751
:104F10000A48AEE70948ACE70848AAE70848A8E706
:104F20005CBC000060BC000084C40000B8C4000089
:104F30000003005058000020006000400400AD0B4A
:104F40000000AD0B2DE9F04704461546002900F09E
:104F500086800F4606F08BFB28B12046FFF78EFBBC
:104F6000002840F0CC802046FFF792FB18B17B78F8
:104F7000012B00F0C68007F1010907F1020863095F
:104F800020D0012B21D14FF6FF7304F01F02D34034
:104F900013F0010F1BD004F01F06630925D0012B6D
:104FA00026D0DFF878A140F22E23524659495A48BC
:104FB00005F04AFD40F22E21504605F09EFE4FF0CE
:104FC000A04216E04FF0FF33DFE70023DDE7534E4A
:104FD00040F22923324652494F4805F035FD40F250
:104FE0002921304605F089FED5E74FF0A04200E0C8
:104FF0004C4A06F5E07352F82310B9F1000F72D055
:10500000022343F00103B8F1000F6ED00C200343DC
:10501000002F6CD04FF4E060034321EA0301B9F1A3
:10502000000F66D07B785B0043F00103B8F1000FFE
:1050300061D0B87880000343002F5ED0387800023A
:1050400003430B4306F5E07642F82630364A04F176
:10505000080132F8113043F0030322F81130002D1B
:1050600051D0204606F003FB00284FD12A7802F5E4
:10507000A2712E4B43F821002B4904F1080031F8AE
:10508000103023F02003DB04DB0C21F810306978AA
:1050900000293DD095F802C0244D02F5A27655F8BE
:1050A000260020F4991020F4F85045F8260055F811
:1050B0002670200200F47C50090401F440310143C1
:1050C0004FEA0C5000F480100143394345F8261094
:1050D000520392B208341A4342F02002124B23F8D2
:1050E0001420134810E000238BE700208FE70020F6
:1050F00092E7002398E700209DE70020A0E70D48F5
:1051000002E00C4800E00A48BDE8F0870948FBE7E8
:105110000748F9E75CBC000060BC000084C40000E4
:10512000B8C4000000030050580000200060004098
:105130000000AD0B0400AD0B014B9860D9607047C7
:105140005800002070B504460D4659B12046FFF7BF
:1051500095FAA8B108340B4B33F814305B0B2B7065
:10516000094870BD094E40F23523324608490948C6
:1051700005F06AFC40F23521304605F0BEFDE5E75A
:105180000548EEE7580000200000AD0B20C70000E6
:1051900074C7000060BC00000400AD0B0F4B93F817
:1051A00078300BB10E48704710B50C4C60220021CE
:1051B00004F1100005F0CCFE0620FCF7D1FC094BF1
:1051C00000221A601B68084B4FF00042C3F804230A
:1051D000012384F878306367044810BD580000202C
:1051E0000500AD0B7C610040006000400000AD0B8D
:1051F000034B93F87800003818BF0120704700BFB8
:105200005800002008B501460148FFF74DF808BDD9
:10521000C800002008B501460148FFF721F808BD85
:10522000C800002070B504460D46FFF731FAB8B14A
:105230002046FFF723FA18B1204606F018FAE8B91D
:10524000002D4CD004F10803704A32F81330C3F338
:105250008203042B00F09280052B4ED102268EE0B3
:105260006B4E40F2DF3332466A496B4805F0ECFB87
:1052700040F2DF31304605F040FDD9E72046FFF728
:105280001DFA044607281CD8A30003F580739BB2BF
:1052900003F1804303F5C04300221A601B685F4A94
:1052A00004F5A27152F8213043F0010342F8213095
:1052B000002D00F0A980012000FA04F4C2F8044394
:1052C000A2E0574E4FF4237332465649524805F038
:1052D000BBFB4FF42371304605F00FFDD4E74C4D76
:1052E00040F2EE332A4650494B4805F0ADFB40F200
:1052F000EE31284605F001FDA4E763091FD0012B1C
:1053000020D14FF6FF7304F01F02D34013F0010FBA
:105310001AD004F01F05630924D0012B25D0434E79
:1053200040F22E23324642493B4805F08DFB40F2C5
:105330002E21304605F0E1FC4FF0A04316E04FF07F
:10534000FF33E0E70023DEE7384D40F229232A4609
:105350003849314805F078FB40F22921284605F00C
:10536000CCFCD6E74FF0A04300E0334BD3F8103528
:10537000EB4013F0010F24D0032600E0032663095D
:1053800021D0012B22D14FF6FF7304F01F02D3402E
:1053900013F0010F1CD004F01F05640926D0012C66
:1053A00027D0224C40F22E23224621491A4805F0EC
:1053B0004BFB40F22E21204605F09FFC4FF0A04110
:1053C00018E00226DBE74FF0FF33DEE70023DCE7DF
:1053D000164D40F229232A4616490F4805F034FBA2
:1053E00040F22921284605F088FCD4E74FF0A0417F
:1053F00000E0114905F5E07251F8223023F4403302
:1054000043EA064341F8223070BD00BF5800002037
:1054100020C70000C4C7000060BC0000006000405E
:1054200080C70000B8C70000DCC7000084C40000CB
:105430005CBC0000B8C400000003005038B504464E
:10544000FFF71CF9A0B1204606F011F980B1204603
:10545000FFF734F901228240264BC3F8082300F5F8
:10546000A27053F8202022F0030243F8202040E0ED
:1054700063091FD0012B20D14FF6FF7304F01F02E8
:10548000D34013F0010F1AD004F01F05640924D093
:10549000012C25D0184C40F22E23224617491848DB
:1054A00005F0D2FA40F22E21204605F026FC4FF0FE
:1054B000A04116E04FF0FF33E0E70023DEE70E4D9A
:1054C00040F229232A460F490D4805F0BDFA40F263
:1054D0002921284605F011FCD6E74FF0A04100E055
:1054E000094905F5E07351F8232022F4403241F8D0
:1054F000232038BD0060004084C400005CBC000074
:1055000060BC0000B8C400000003005038B5044679
:10551000FFF7AAF808B9244838BD2046FFF78EFFE8
:105520002046FFF78DF963091FD0012B20D14FF6DC
:10553000FF7304F01F02D34013F0010F1AD004F0E0
:105540001F05640924D0012C25D0184C40F22E23CD
:1055500022461749174805F077FA40F22E212046D7
:1055600005F0CBFB4FF0A04316E04FF0FF33E0E730
:105570000023DEE70D4D40F229232A460E490D484F
:1055800005F062FA40F22921284605F0B6FBD6E77D
:105590004FF0A04300E0094B05F5E075022243F807
:1055A00025200748B8E700BF0400AD0B84C4000005
:1055B0005CBC000060BC0000B8C4000000030050E8
:1055C0000000AD0B38B501204FF4807300210D466B
:1055D00003E0400004339BB20131072914D803F1E2
:1055E000804202F5C0421268002AF2D00B4AD2F87B
:1055F00004231042EDD003F1804202F5C0420024A2
:10560000146012680543E4E7054B1B681BB9284684
:10561000FFF768F938BDFFF7C7FAF8E70060004008
:105620007C61004008B501460148FEF719FE08BD3F
:10563000D400002010B5144C032323616361134A86
:10564000A261134BE3614FF4806323620023A362E2
:105650006362E36222660F4A62661022A2662367D3
:10566000E36663670C49E01D05F0F9FBBFF35F8F4C
:105670000A49204605F0F3FBBFF35F8F2023A37197
:10568000BFF35F8F10BD00BF4C0B0020E8C70000C8
:10569000040C0020F40B0020F4C70000F8C7000041
:1056A000034B044A934201D21833FAE7704700BF14
:1056B000D0B8000078B9000070B50646114B53F819
:1056C000204009E0404217E0EB681870EA68537820
:1056D00043F0010353700834731C0A4A52F8233014
:1056E000A3420DD96568236828469847002DF2D05B
:1056F0000028EBD00028E5DBFF28E5DDFF20E3E70D
:1057000070BD00BF00C8000038B5054628B3037857
:105710002BB3144C00E01834134B9C4208D02046A5
:1057200005F0BCFF0028F6D02368AB42F3D112E0AD
:105730000C4C00E018340C4B9C420BD0204605F07A
:10574000ADFF0028F6D02168284605F0BDFB0028F3
:10575000F0D100E00024204638BD0446FBE70024D9
:10576000F9E700BFD0B8000078B90000F8B50446EA
:105770000E464FF02003EFF3118783F31288BFF337
:105780006F8F02F071F805463146204605F047FF5D
:10579000042C07D087F31188BFF36F8F2846FCF7DE
:1057A00053FDF8BD074C8F2322460749074805F0F3
:1057B0004BF9074805F048F98F21204605F09DFA7E
:1057C000E8E700BF18C800003CC8000060BC00004B
:1057D0005CC80000F0B589B00446154BB02505FB48
:1057E0000035144B4FF4B07606FB003606AF034687
:1057F000114A0821384605F035F904EB44040F48F6
:1058000000EBC4040597012304930F2303930023A3
:105810000293019300940A4B4FF4A072314628463C
:1058200000F06AFA6B7B23F004036B7309B0F0BDE0
:10583000B00300206028002094C80000041000205D
:10584000815F000070B586B001F046FE1B4D1C4B19
:10585000DD611C4B059301230493002403940294FF
:1058600001940094184B4FF400621849284600F048
:1058700043FA06466B7B23F004036B73284601F062
:10588000B1F9002C02DD304606B070BD2046FFF7AE
:10589000A1FF0F4BB02202FB043204EB4401084B82
:1058A00003EBC103DA601C7504EB8411094A02EBB7
:1058B000411202F502625A600134E2E760040020FE
:1058C00004100020A0C80000D9580000402000208B
:1058D000B0030020C029002008B50A4B01221A702D
:1058E0000220FFF7E9FE02F0F9FB0320FFF7E4FED8
:1058F00000F0C8FA05F0ABFF034A137B23F0010365
:10590000137308BD2D1A00206004002008B501465D
:10591000014A0248FCF754FAD958000060040020FC
:1059200008B50348034A121A002105F011FB08BD0F
:1059300030020020EC1B002000B5ADB01C4B83F3FF
:1059400008881C4C636943F400736361E02384F8A6
:1059500022300025E57725766576A57684F82050F7
:10596000636A43F4E023636284F82350FCF7DCFBB2
:10597000FCF7D8F84FF0FF33A362E362FCF722FD97
:10598000FCF778FC01248DF80D408DF80C4026952D
:105990002795094BC3F808D0FFF782FE2846FFF78A
:1059A0008BFE2046FFF788FEFFF74CFFFFF7AEFFA8
:1059B000E031002000ED00E00410002070B5104C34
:1059C000002516E00F4E3C2332460F490F4805F0E4
:1059D0003BF80F4805F038F83C21304605F08DF9CA
:1059E0000C4B9C4209D2204605F065FE051E04DBE7
:1059F0002034084B9C42F3D9E4E7284670BD00BF31
:105A0000CC010020A8C80000D0C8000060BC000085
:105A1000F0C80000CC0100202DE9F04782B0044618
:105A20000E469046994600F108054FF02003EFF32B
:105A3000118783F31288BFF36F8F284600F0DAF8DE
:105A4000C0B1284600F0F6F8A36923B33360A36918
:105A50001B68A361E3690133E3610024284600F079
:105A6000D9F878B387F31188BFF36F8F204602B05F
:105A7000BDE8F087DFF87CA08123524619491A4817
:105A800004F0E2FF2946194804F0DEFF8121504668
:105A900005F033F9D5E758EA090304D10023336050
:105AA0006FF00B04DAE7CDE9008922463946284633
:105AB00001F070FA04460028D8D10D4B9B685B6951
:105AC0003360D3E70B4EAC2332460B49064804F053
:105AD000BBFF2946094804F0B7FFAC21304605F06A
